{
  "contractName": "desilo",
  "abi": [
    {
      "inputs": [
        {
          "internalType": "uint256",
          "name": "_scStakeAmount",
          "type": "uint256"
        },
        {
          "internalType": "int128",
          "name": "_scYield",
          "type": "int128"
        },
        {
          "internalType": "uint256",
          "name": "_groupCreationSCAmount",
          "type": "uint256"
        },
        {
          "internalType": "uint256",
          "name": "_scSeedAmount",
          "type": "uint256"
        },
        {
          "internalType": "uint256",
          "name": "_scStakePeriod",
          "type": "uint256"
        }
      ],
      "stateMutability": "nonpayable",
      "type": "constructor"
    },
    {
      "inputs": [],
      "name": "_groupCount",
      "outputs": [
        {
          "internalType": "uint256",
          "name": "",
          "type": "uint256"
        }
      ],
      "stateMutability": "view",
      "type": "function",
      "constant": true
    },
    {
      "inputs": [],
      "name": "groupCreationSCAmount",
      "outputs": [
        {
          "internalType": "uint256",
          "name": "",
          "type": "uint256"
        }
      ],
      "stateMutability": "view",
      "type": "function",
      "constant": true
    },
    {
      "inputs": [
        {
          "internalType": "uint256",
          "name": "",
          "type": "uint256"
        }
      ],
      "name": "gscYield",
      "outputs": [
        {
          "internalType": "int128",
          "name": "",
          "type": "int128"
        }
      ],
      "stateMutability": "view",
      "type": "function",
      "constant": true
    },
    {
      "inputs": [
        {
          "internalType": "address",
          "name": "",
          "type": "address"
        }
      ],
      "name": "registered",
      "outputs": [
        {
          "internalType": "bool",
          "name": "",
          "type": "bool"
        }
      ],
      "stateMutability": "view",
      "type": "function",
      "constant": true
    },
    {
      "inputs": [],
      "name": "scSeedAmount",
      "outputs": [
        {
          "internalType": "uint256",
          "name": "",
          "type": "uint256"
        }
      ],
      "stateMutability": "view",
      "type": "function",
      "constant": true
    },
    {
      "inputs": [],
      "name": "scStakeAmount",
      "outputs": [
        {
          "internalType": "uint256",
          "name": "",
          "type": "uint256"
        }
      ],
      "stateMutability": "view",
      "type": "function",
      "constant": true
    },
    {
      "inputs": [],
      "name": "scStakePeriod",
      "outputs": [
        {
          "internalType": "uint256",
          "name": "",
          "type": "uint256"
        }
      ],
      "stateMutability": "view",
      "type": "function",
      "constant": true
    },
    {
      "inputs": [
        {
          "internalType": "bytes4",
          "name": "interfaceId",
          "type": "bytes4"
        }
      ],
      "name": "supportsInterface",
      "outputs": [
        {
          "internalType": "bool",
          "name": "",
          "type": "bool"
        }
      ],
      "stateMutability": "view",
      "type": "function",
      "constant": true
    },
    {
      "inputs": [
        {
          "internalType": "uint256",
          "name": "_initialSupply",
          "type": "uint256"
        },
        {
          "internalType": "string",
          "name": "_uri",
          "type": "string"
        }
      ],
      "name": "createGroup",
      "outputs": [],
      "stateMutability": "nonpayable",
      "type": "function"
    },
    {
      "inputs": [
        {
          "internalType": "contract dSocialCredits",
          "name": "_sc",
          "type": "address"
        }
      ],
      "name": "setSC",
      "outputs": [],
      "stateMutability": "nonpayable",
      "type": "function"
    },
    {
      "inputs": [],
      "name": "seedSC",
      "outputs": [],
      "stateMutability": "nonpayable",
      "type": "function"
    },
    {
      "inputs": [
        {
          "internalType": "uint256",
          "name": "_commitId",
          "type": "uint256"
        },
        {
          "internalType": "address",
          "name": "_addr",
          "type": "address"
        }
      ],
      "name": "getStaked",
      "outputs": [
        {
          "internalType": "uint256",
          "name": "",
          "type": "uint256"
        }
      ],
      "stateMutability": "view",
      "type": "function",
      "constant": true
    },
    {
      "inputs": [
        {
          "internalType": "uint256",
          "name": "_commitId",
          "type": "uint256"
        }
      ],
      "name": "stake",
      "outputs": [],
      "stateMutability": "nonpayable",
      "type": "function"
    },
    {
      "inputs": [
        {
          "internalType": "uint256",
          "name": "_commitId",
          "type": "uint256"
        }
      ],
      "name": "unstake",
      "outputs": [],
      "stateMutability": "nonpayable",
      "type": "function"
    },
    {
      "inputs": [
        {
          "internalType": "address",
          "name": "operator",
          "type": "address"
        },
        {
          "internalType": "address",
          "name": "from",
          "type": "address"
        },
        {
          "internalType": "uint256",
          "name": "id",
          "type": "uint256"
        },
        {
          "internalType": "uint256",
          "name": "value",
          "type": "uint256"
        },
        {
          "internalType": "bytes",
          "name": "data",
          "type": "bytes"
        }
      ],
      "name": "onERC1155Received",
      "outputs": [
        {
          "internalType": "bytes4",
          "name": "",
          "type": "bytes4"
        }
      ],
      "stateMutability": "pure",
      "type": "function",
      "constant": true
    },
    {
      "inputs": [
        {
          "internalType": "address",
          "name": "operator",
          "type": "address"
        },
        {
          "internalType": "address",
          "name": "from",
          "type": "address"
        },
        {
          "internalType": "uint256[]",
          "name": "ids",
          "type": "uint256[]"
        },
        {
          "internalType": "uint256[]",
          "name": "values",
          "type": "uint256[]"
        },
        {
          "internalType": "bytes",
          "name": "data",
          "type": "bytes"
        }
      ],
      "name": "onERC1155BatchReceived",
      "outputs": [
        {
          "internalType": "bytes4",
          "name": "",
          "type": "bytes4"
        }
      ],
      "stateMutability": "pure",
      "type": "function",
      "constant": true
    }
  ],
  "bytecode": "0x608060405260006006556001600f553480156200001b57600080fd5b5060405162001eb138038062001eb1833981810160405281019062000041919062000124565b836011600080815260200190815260200160002060006101000a8154816fffffffffffffffffffffffffffffffff0219169083600f0b6fffffffffffffffffffffffffffffffff1602179055508460018190555082600081905550816002819055508060038190555033600560006101000a81548173ffffffffffffffffffffffffffffffffffffffff021916908373ffffffffffffffffffffffffffffffffffffffff1602179055505050505050620001f1565b6000815190506200010781620001bd565b92915050565b6000815190506200011e81620001d7565b92915050565b600080600080600060a086880312156200013d57600080fd5b60006200014d888289016200010d565b95505060206200016088828901620000f6565b945050604062000173888289016200010d565b935050606062000186888289016200010d565b925050608062000199888289016200010d565b9150509295509295909350565b600081600f0b9050919050565b6000819050919050565b620001c881620001a6565b8114620001d457600080fd5b50565b620001e281620001b3565b8114620001ee57600080fd5b50565b611cb080620002016000396000f3fe608060405234801561001057600080fd5b50600436106101005760003560e01c80639fbd7cef11610097578063bc197c8111610066578063bc197c8114610299578063d841212e146102c9578063ecb282de146102e7578063f23a6e611461030557610100565b80639fbd7cef14610213578063a5e801921461022f578063a694fc3a1461024d578063b2dd5c071461026957610100565b806340531d5d116100d357806340531d5d1461017957806358d2563c146101a957806362b54bdc146101c7578063907a4e1d146101f757610100565b806301ffc9a7146101055780631614047e146101355780632e17de78146101535780632f0081051461016f575b600080fd5b61011f600480360381019061011a91906113ef565b610335565b60405161012c9190611787565b60405180910390f35b61013d6103af565b60405161014a9190611838565b60405180910390f35b61016d60048036038101906101689190611441565b6103b5565b005b610177610982565b005b610193600480360381019061018e919061146a565b610afe565b6040516101a09190611838565b60405180910390f35b6101b1610b59565b6040516101be9190611838565b60405180910390f35b6101e160048036038101906101dc9190611441565b610b5f565b6040516101ee91906117bd565b60405180910390f35b610211600480360381019061020c9190611418565b610b7f565b005b61022d600480360381019061022891906114a6565b610c1d565b005b610237610d8b565b6040516102449190611838565b60405180910390f35b61026760048036038101906102629190611441565b610d91565b005b610283600480360381019061027e9190611268565b610ef6565b6040516102909190611787565b60405180910390f35b6102b360048036038101906102ae9190611291565b610f16565b6040516102c091906117a2565b60405180910390f35b6102d1610f2e565b6040516102de9190611838565b60405180910390f35b6102ef610f34565b6040516102fc9190611838565b60405180910390f35b61031f600480360381019061031a919061135d565b610f3a565b60405161032c91906117a2565b60405180910390f35b60007f4e2312e0000000000000000000000000000000000000000000000000000000007bffffffffffffffffffffffffffffffffffffffffffffffffffffffff1916827bffffffffffffffffffffffffffffffffffffffffffffffffffffffff191614806103a857506103a782610f50565b5b9050919050565b60005481565b6009600082815260200190815260200160002060003373ffffffffffffffffffffffffffffffffffffffff1673ffffffffffffffffffffffffffffffffffffffff16815260200190815260200160002054421015610448576040517f08c379a000000000000000000000000000000000000000000000000000000000815260040161043f90611818565b60405180910390fd5b60006104548233610afe565b1015610495576040517f08c379a000000000000000000000000000000000000000000000000000000000815260040161048c906117f8565b60405180910390fd5b60006104a18233610afe565b90506000600a60008481526020019081526020016000205490506000600e600083815260200190815260200160002054905060008167ffffffffffffffff811115610515577f4e487b7100000000000000000000000000000000000000000000000000000000600052604160045260246000fd5b6040519080825280602002602001820160405280156105435781602001602082028036833780820191505090505b50905060008267ffffffffffffffff811115610588577f4e487b7100000000000000000000000000000000000000000000000000000000600052604160045260246000fd5b6040519080825280602002602001820160405280156105b65781602001602082028036833780820191505090505b509050846008600088815260200190815260200160002060003373ffffffffffffffffffffffffffffffffffffffff1673ffffffffffffffffffffffffffffffffffffffff1681526020019081526020016000206000828254610619919061195a565b9250508190555060006009600088815260200190815260200160002060003373ffffffffffffffffffffffffffffffffffffffff1673ffffffffffffffffffffffffffffffffffffffff16815260200190815260200160002081905550600460009054906101000a900473ffffffffffffffffffffffffffffffffffffffff1673ffffffffffffffffffffffffffffffffffffffff1663f242432a3033600654896040518563ffffffff1660e01b81526004016106d99493929190611656565b600060405180830381600087803b1580156106f357600080fd5b505af1158015610707573d6000803e3d6000fd5b50505050600460009054906101000a900473ffffffffffffffffffffffffffffffffffffffff1673ffffffffffffffffffffffffffffffffffffffff1663731133e9336006546107776011600080815260200190815260200160002060009054906101000a9004600f0b8a610fba565b6040518463ffffffff1660e01b81526004016107959392919061173d565b600060405180830381600087803b1580156107af57600080fd5b505af11580156107c3573d6000803e3d6000fd5b50505050600080600190505b600f548110156108e757600d6000878152602001908152602001600020600082815260200190815260200160002060009054906101000a900460ff16156108d4578084838151811061084a577f4e487b7100000000000000000000000000000000000000000000000000000000600052603260045260246000fd5b6020026020010181815250506108806011600083815260200190815260200160002060009054906101000a9004600f0b88610fba565b8383815181106108b9577f4e487b7100000000000000000000000000000000000000000000000000000000600052603260045260246000fd5b60200260200101818152505081806108d090611a93565b9250505b80806108df90611a93565b9150506107cf565b50600460009054906101000a900473ffffffffffffffffffffffffffffffffffffffff1673ffffffffffffffffffffffffffffffffffffffff16631f7fdffa3385856040518463ffffffff1660e01b8152600401610947939291906116ae565b600060405180830381600087803b15801561096157600080fd5b505af1158015610975573d6000803e3d6000fd5b5050505050505050505050565b600760003373ffffffffffffffffffffffffffffffffffffffff1673ffffffffffffffffffffffffffffffffffffffff16815260200190815260200160002060009054906101000a900460ff1615610a0f576040517f08c379a0000000000000000000000000000000000000000000000000000000008152600401610a06906117d8565b60405180910390fd5b6001600760003373ffffffffffffffffffffffffffffffffffffffff1673ffffffffffffffffffffffffffffffffffffffff16815260200190815260200160002060006101000a81548160ff021916908315150217905550600460009054906101000a900473ffffffffffffffffffffffffffffffffffffffff1673ffffffffffffffffffffffffffffffffffffffff1663731133e9336006546002546040518463ffffffff1660e01b8152600401610aca9392919061173d565b600060405180830381600087803b158015610ae457600080fd5b505af1158015610af8573d6000803e3d6000fd5b50505050565b60006008600084815260200190815260200160002060008373ffffffffffffffffffffffffffffffffffffffff1673ffffffffffffffffffffffffffffffffffffffff16815260200190815260200160002054905092915050565b600f5481565b60116020528060005260406000206000915054906101000a9004600f0b81565b600560009054906101000a900473ffffffffffffffffffffffffffffffffffffffff1673ffffffffffffffffffffffffffffffffffffffff163373ffffffffffffffffffffffffffffffffffffffff1614610bd957600080fd5b80600460006101000a81548173ffffffffffffffffffffffffffffffffffffffff021916908373ffffffffffffffffffffffffffffffffffffffff16021790555050565b600460009054906101000a900473ffffffffffffffffffffffffffffffffffffffff1673ffffffffffffffffffffffffffffffffffffffff1663f5298aca336006546000546040518463ffffffff1660e01b8152600401610c8093929190611706565b600060405180830381600087803b158015610c9a57600080fd5b505af1158015610cae573d6000803e3d6000fd5b505050508060106000600f5481526020019081526020016000209080519060200190610cdb929190611075565b50600460009054906101000a900473ffffffffffffffffffffffffffffffffffffffff1673ffffffffffffffffffffffffffffffffffffffff1663731133e933600f54856040518463ffffffff1660e01b8152600401610d3d9392919061173d565b600060405180830381600087803b158015610d5757600080fd5b505af1158015610d6b573d6000803e3d6000fd5b50505050600f6000815480929190610d8290611a93565b91905055505050565b60015481565b600460009054906101000a900473ffffffffffffffffffffffffffffffffffffffff1673ffffffffffffffffffffffffffffffffffffffff1663f242432a33306006546001546040518563ffffffff1660e01b8152600401610df69493929190611656565b600060405180830381600087803b158015610e1057600080fd5b505af1158015610e24573d6000803e3d6000fd5b505050506001546008600083815260200190815260200160002060003373ffffffffffffffffffffffffffffffffffffffff1673ffffffffffffffffffffffffffffffffffffffff1681526020019081526020016000206000828254610e8a9190611904565b9250508190555060035442610e9f9190611904565b6009600083815260200190815260200160002060003373ffffffffffffffffffffffffffffffffffffffff1673ffffffffffffffffffffffffffffffffffffffff1681526020019081526020016000208190555050565b60076020528060005260406000206000915054906101000a900460ff1681565b600063bc197c8160e01b905098975050505050505050565b60025481565b60035481565b600063f23a6e6160e01b90509695505050505050565b60007f01ffc9a7000000000000000000000000000000000000000000000000000000007bffffffffffffffffffffffffffffffffffffffffffffffffffffffff1916827bffffffffffffffffffffffffffffffffffffffffffffffffffffffff1916149050919050565b600080821415610fcd576000905061106f565b600083600f0b1215610fde57600080fd5b600060406fffffffffffffffffffffffffffffffff841685600f0b02901c90506000608084901c85600f0b02905077ffffffffffffffffffffffffffffffffffffffffffffffff81111561103157600080fd5b604081901b9050817fffffffffffffffffffffffffffffffffffffffffffffffffffffffffffffffff0381111561106757600080fd5b818101925050505b92915050565b82805461108190611a30565b90600052602060002090601f0160209004810192826110a357600085556110ea565b82601f106110bc57805160ff19168380011785556110ea565b828001600101855582156110ea579182015b828111156110e95782518255916020019190600101906110ce565b5b5090506110f791906110fb565b5090565b5b808211156111145760008160009055506001016110fc565b5090565b600061112b61112684611878565b611853565b90508281526020810184848401111561114357600080fd5b61114e848285611a21565b509392505050565b60008135905061116581611c1e565b92915050565b60008083601f84011261117d57600080fd5b8235905067ffffffffffffffff81111561119657600080fd5b6020830191508360208202830111156111ae57600080fd5b9250929050565b6000813590506111c481611c35565b92915050565b60008083601f8401126111dc57600080fd5b8235905067ffffffffffffffff8111156111f557600080fd5b60208301915083600182028301111561120d57600080fd5b9250929050565b60008135905061122381611c4c565b92915050565b600082601f83011261123a57600080fd5b813561124a848260208601611118565b91505092915050565b60008135905061126281611c63565b92915050565b60006020828403121561127a57600080fd5b600061128884828501611156565b91505092915050565b60008060008060008060008060a0898b0312156112ad57600080fd5b60006112bb8b828c01611156565b98505060206112cc8b828c01611156565b975050604089013567ffffffffffffffff8111156112e957600080fd5b6112f58b828c0161116b565b9650965050606089013567ffffffffffffffff81111561131457600080fd5b6113208b828c0161116b565b9450945050608089013567ffffffffffffffff81111561133f57600080fd5b61134b8b828c016111ca565b92509250509295985092959890939650565b60008060008060008060a0878903121561137657600080fd5b600061138489828a01611156565b965050602061139589828a01611156565b95505060406113a689828a01611253565b94505060606113b789828a01611253565b935050608087013567ffffffffffffffff8111156113d457600080fd5b6113e089828a016111ca565b92509250509295509295509295565b60006020828403121561140157600080fd5b600061140f848285016111b5565b91505092915050565b60006020828403121561142a57600080fd5b600061143884828501611214565b91505092915050565b60006020828403121561145357600080fd5b600061146184828501611253565b91505092915050565b6000806040838503121561147d57600080fd5b600061148b85828601611253565b925050602061149c85828601611156565b9150509250929050565b600080604083850312156114b957600080fd5b60006114c785828601611253565b925050602083013567ffffffffffffffff8111156114e457600080fd5b6114f085828601611229565b9150509250929050565b60006115068383611638565b60208301905092915050565b61151b8161198e565b82525050565b600061152c826118b9565b61153681856118d1565b9350611541836118a9565b8060005b8381101561157257815161155988826114fa565b9750611564836118c4565b925050600181019050611545565b5085935050505092915050565b611588816119a0565b82525050565b611597816119ac565b82525050565b6115a6816119ea565b82525050565b60006115b96032836118f3565b91506115c482611b7a565b604082019050919050565b60006115dc6020836118f3565b91506115e782611bc9565b602082019050919050565b60006115ff6000836118e2565b915061160a82611bf2565b600082019050919050565b60006116226020836118f3565b915061162d82611bf5565b602082019050919050565b61164181611a17565b82525050565b61165081611a17565b82525050565b600060a08201905061166b6000830187611512565b6116786020830186611512565b6116856040830185611647565b6116926060830184611647565b81810360808301526116a3816115f2565b905095945050505050565b60006080820190506116c36000830186611512565b81810360208301526116d58185611521565b905081810360408301526116e98184611521565b905081810360608301526116fc816115f2565b9050949350505050565b600060608201905061171b6000830186611512565b6117286020830185611647565b6117356040830184611647565b949350505050565b60006080820190506117526000830186611512565b61175f6020830185611647565b61176c6040830184611647565b818103606083015261177d816115f2565b9050949350505050565b600060208201905061179c600083018461157f565b92915050565b60006020820190506117b7600083018461158e565b92915050565b60006020820190506117d2600083018461159d565b92915050565b600060208201905081810360008301526117f1816115ac565b9050919050565b60006020820190508181036000830152611811816115cf565b9050919050565b6000602082019050818103600083015261183181611615565b9050919050565b600060208201905061184d6000830184611647565b92915050565b600061185d61186e565b90506118698282611a62565b919050565b6000604051905090565b600067ffffffffffffffff82111561189357611892611b3a565b5b61189c82611b69565b9050602081019050919050565b6000819050602082019050919050565b600081519050919050565b6000602082019050919050565b600082825260208201905092915050565b600082825260208201905092915050565b600082825260208201905092915050565b600061190f82611a17565b915061191a83611a17565b9250827fffffffffffffffffffffffffffffffffffffffffffffffffffffffffffffffff0382111561194f5761194e611adc565b5b828201905092915050565b600061196582611a17565b915061197083611a17565b92508282101561198357611982611adc565b5b828203905092915050565b6000611999826119f7565b9050919050565b60008115159050919050565b60007fffffffff0000000000000000000000000000000000000000000000000000000082169050919050565b60006119e38261198e565b9050919050565b600081600f0b9050919050565b600073ffffffffffffffffffffffffffffffffffffffff82169050919050565b6000819050919050565b82818337600083830152505050565b60006002820490506001821680611a4857607f821691505b60208210811415611a5c57611a5b611b0b565b5b50919050565b611a6b82611b69565b810181811067ffffffffffffffff82111715611a8a57611a89611b3a565b5b80604052505050565b6000611a9e82611a17565b91507fffffffffffffffffffffffffffffffffffffffffffffffffffffffffffffffff821415611ad157611ad0611adc565b5b600182019050919050565b7f4e487b7100000000000000000000000000000000000000000000000000000000600052601160045260246000fd5b7f4e487b7100000000000000000000000000000000000000000000000000000000600052602260045260246000fd5b7f4e487b7100000000000000000000000000000000000000000000000000000000600052604160045260246000fd5b6000601f19601f8301169050919050565b7f43616e6e6f742063616c6c20746869732066756e6374696f6e2c20757365722060008201527f616c726561647920726567697374657265640000000000000000000000000000602082015250565b7f646573696c6f3a20596f752068617665206e6f7420796574207374616b65642e600082015250565b50565b7f646573696c6f3a20596f75206d6179206e6f742079657420756e7374616b652e600082015250565b611c278161198e565b8114611c3257600080fd5b50565b611c3e816119ac565b8114611c4957600080fd5b50565b611c55816119d8565b8114611c6057600080fd5b50565b611c6c81611a17565b8114611c7757600080fd5b5056fea2646970667358221220bf75628e9b6c956583460209f2eeca565dd965d01c1283c785f39c6844a6e1aa64736f6c63430008030033",
  "immutableReferences": {},
  "source": "pragma solidity ^0.8.3;\n\nimport \"./dSocialCredits.sol\";\nimport \"./library/ABDKMath64x64.sol\";\nimport \"@openzeppelin/contracts/token/ERC1155/utils/ERC1155Receiver.sol\";\n\ncontract desilo is ERC1155Receiver {\n    uint256 public groupCreationSCAmount;\n    uint256 public scStakeAmount;\n    uint256 public scSeedAmount;\n    uint256 public scStakePeriod;\n\n    dSocialCredits _scContract;\n    address _owner;\n    uint256 _scID = 0;\n    mapping(address => bool) public registered;\n\n    // mapping(entityID)\n    mapping(uint256 => mapping(address => uint256)) _stakedAmount;\n    mapping(uint256 => mapping(address => uint256)) _stakeExpiry;\n    mapping(uint256 => uint256) _entityToThread;\n    mapping(uint256 => string) _entityURI;\n\n    // mapping(threadID)\n    mapping(uint256 => string) _threadURI;\n    mapping(uint256 => mapping(uint256 => bool)) _threadGSC;\n    mapping(uint256 => uint256) _threadGSCCount;\n\n    // mapping(groupID => fixed128x128)\n    uint256 public _groupCount = 1;\n    mapping(uint256 => string) _groupURI;\n    mapping(uint256 => int128) public gscYield;\n    mapping(uint256 => uint256) _gscMinAcceptance;\n\n    constructor(\n        uint256 _scStakeAmount,\n        int128 _scYield,\n        uint256 _groupCreationSCAmount,\n        uint256 _scSeedAmount,\n        uint256 _scStakePeriod\n    ) IERC1155Receiver() {\n        gscYield[0] = _scYield;\n        scStakeAmount = _scStakeAmount;\n        groupCreationSCAmount = _groupCreationSCAmount;\n        scSeedAmount = _scSeedAmount;\n        scStakePeriod = _scStakePeriod;\n        _owner = msg.sender;\n    }\n\n    function createGroup(uint256 _initialSupply, string memory _uri) external {\n        _scContract.burn(msg.sender, _scID, groupCreationSCAmount);\n        _groupURI[_groupCount] = _uri;\n        _scContract.mint(msg.sender, _groupCount, _initialSupply, \"\");\n        _groupCount++;\n    }\n\n    function setSC(dSocialCredits _sc) external {\n        require(msg.sender == _owner);\n        _scContract = _sc;\n    }\n\n    function seedSC() external {\n        require(\n            !registered[msg.sender],\n            \"Cannot call this function, user already registered\"\n        );\n        registered[msg.sender] = true;\n        _scContract.mint(msg.sender, _scID, scSeedAmount, \"\");\n    }\n\n    function getStaked(uint256 _commitId, address _addr)\n        public\n        view\n        returns (uint256)\n    {\n        return _stakedAmount[_commitId][_addr];\n    }\n\n    function stake(uint256 _commitId) external {\n        _scContract.safeTransferFrom(\n            msg.sender,\n            address(this),\n            _scID,\n            scStakeAmount,\n            \"\"\n        );\n        _stakedAmount[_commitId][msg.sender] += scStakeAmount;\n        _stakeExpiry[_commitId][msg.sender] = block.timestamp + scStakePeriod;\n    }\n\n    function unstake(uint256 _commitId) external {\n        require(\n            block.timestamp >= _stakeExpiry[_commitId][msg.sender],\n            \"desilo: You may not yet unstake.\"\n        );\n        require(\n            getStaked(_commitId, msg.sender) >= 0,\n            \"desilo: You have not yet staked.\"\n        );\n\n        uint256 stakedAmount = getStaked(_commitId, msg.sender);\n        uint256 threadID = _entityToThread[_commitId];\n        uint256 gscCount = _threadGSCCount[threadID];\n        uint256[] memory ids = new uint256[](gscCount);\n        uint256[] memory amounts = new uint256[](gscCount);\n\n        _stakedAmount[_commitId][msg.sender] -= stakedAmount;\n        _stakeExpiry[_commitId][msg.sender] = 0;\n\n        _scContract.safeTransferFrom(\n            address(this),\n            msg.sender,\n            _scID,\n            stakedAmount,\n            \"\"\n        );\n        _scContract.mint(\n            msg.sender,\n            _scID,\n            ABDKMath64x64.mulu(gscYield[0], stakedAmount),\n            \"\"\n        );\n\n        uint256 count = 0;\n        for (uint256 i = 1; i < _groupCount; i++) {\n            if (_threadGSC[threadID][i]) {\n                ids[count] = i;\n                amounts[count] = ABDKMath64x64.mulu(gscYield[i], stakedAmount);\n                count++;\n            }\n        }\n        _scContract.mintBatch(msg.sender, ids, amounts, \"\");\n    }\n\n    function onERC1155Received(\n        address operator,\n        address from,\n        uint256 id,\n        uint256 value,\n        bytes calldata data\n    ) external pure override returns (bytes4) {\n        return this.onERC1155Received.selector;\n    }\n\n    function onERC1155BatchReceived(\n        address operator,\n        address from,\n        uint256[] calldata ids,\n        uint256[] calldata values,\n        bytes calldata data\n    ) external pure override returns (bytes4) {\n        return this.onERC1155BatchReceived.selector;\n    }\n}\n",
  "sourcePath": "/Users/jacky/Blockchain/desilo/contracts/desilo.sol",
  "compiler": {
    "name": "solc",
    "version": "0.8.3+commit.8d00100c.Emscripten.clang"
  },
  "schemaVersion": "3.4.1",
  "updatedAt": "2021-08-09T06:07:08.135Z",
  "networkType": "ethereum",
  "devdoc": {
    "kind": "dev",
    "methods": {
      "onERC1155BatchReceived(address,address,uint256[],uint256[],bytes)": {
        "details": "Handles the receipt of a multiple ERC1155 token types. This function is called at the end of a `safeBatchTransferFrom` after the balances have been updated. To accept the transfer(s), this must return `bytes4(keccak256(\"onERC1155BatchReceived(address,address,uint256[],uint256[],bytes)\"))` (i.e. 0xbc197c81, or its own function selector).",
        "params": {
          "data": "Additional data with no specified format",
          "from": "The address which previously owned the token",
          "ids": "An array containing ids of each token being transferred (order and length must match values array)",
          "operator": "The address which initiated the batch transfer (i.e. msg.sender)",
          "values": "An array containing amounts of each token being transferred (order and length must match ids array)"
        },
        "returns": {
          "_0": "`bytes4(keccak256(\"onERC1155BatchReceived(address,address,uint256[],uint256[],bytes)\"))` if transfer is allowed"
        }
      },
      "onERC1155Received(address,address,uint256,uint256,bytes)": {
        "details": "Handles the receipt of a single ERC1155 token type. This function is called at the end of a `safeTransferFrom` after the balance has been updated. To accept the transfer, this must return `bytes4(keccak256(\"onERC1155Received(address,address,uint256,uint256,bytes)\"))` (i.e. 0xf23a6e61, or its own function selector).",
        "params": {
          "data": "Additional data with no specified format",
          "from": "The address which previously owned the token",
          "id": "The ID of the token being transferred",
          "operator": "The address which initiated the transfer (i.e. msg.sender)",
          "value": "The amount of tokens being transferred"
        },
        "returns": {
          "_0": "`bytes4(keccak256(\"onERC1155Received(address,address,uint256,uint256,bytes)\"))` if transfer is allowed"
        }
      },
      "supportsInterface(bytes4)": {
        "details": "See {IERC165-supportsInterface}."
      }
    },
    "version": 1
  },
  "userdoc": {
    "kind": "user",
    "methods": {},
    "version": 1
  }
}