{
  "contractName": "desilo",
  "abi": [
    {
      "inputs": [
        {
          "internalType": "uint256",
          "name": "_scStakeAmount",
          "type": "uint256"
        },
        {
          "internalType": "int128",
          "name": "_scYield",
          "type": "int128"
        },
        {
          "internalType": "uint256",
          "name": "_groupCreationSCAmount",
          "type": "uint256"
        },
        {
          "internalType": "uint256",
          "name": "_scSeedAmount",
          "type": "uint256"
        },
        {
          "internalType": "uint256",
          "name": "_scStakePeriod",
          "type": "uint256"
        }
      ],
      "stateMutability": "nonpayable",
      "type": "constructor"
    },
    {
      "anonymous": false,
      "inputs": [
        {
          "indexed": false,
          "internalType": "uint256",
          "name": "id",
          "type": "uint256"
        },
        {
          "indexed": false,
          "internalType": "address",
          "name": "creator",
          "type": "address"
        }
      ],
      "name": "GroupCreated",
      "type": "event"
    },
    {
      "anonymous": false,
      "inputs": [
        {
          "indexed": false,
          "internalType": "uint256",
          "name": "projectId",
          "type": "uint256"
        },
        {
          "indexed": false,
          "internalType": "uint256",
          "name": "groupId",
          "type": "uint256"
        }
      ],
      "name": "ProjectAccepted",
      "type": "event"
    },
    {
      "anonymous": false,
      "inputs": [
        {
          "indexed": false,
          "internalType": "uint256",
          "name": "id",
          "type": "uint256"
        },
        {
          "indexed": false,
          "internalType": "address",
          "name": "creator",
          "type": "address"
        }
      ],
      "name": "ProjectCreated",
      "type": "event"
    },
    {
      "anonymous": false,
      "inputs": [
        {
          "indexed": false,
          "internalType": "address",
          "name": "staker",
          "type": "address"
        },
        {
          "indexed": false,
          "internalType": "bytes32",
          "name": "commitId",
          "type": "bytes32"
        },
        {
          "indexed": false,
          "internalType": "string",
          "name": "uri",
          "type": "string"
        }
      ],
      "name": "Staked",
      "type": "event"
    },
    {
      "anonymous": false,
      "inputs": [
        {
          "indexed": false,
          "internalType": "address",
          "name": "staker",
          "type": "address"
        },
        {
          "indexed": false,
          "internalType": "bytes32",
          "name": "commitId",
          "type": "bytes32"
        },
        {
          "indexed": false,
          "internalType": "string",
          "name": "uri",
          "type": "string"
        }
      ],
      "name": "Unstaked",
      "type": "event"
    },
    {
      "inputs": [
        {
          "internalType": "uint256",
          "name": "",
          "type": "uint256"
        }
      ],
      "name": "_groups",
      "outputs": [
        {
          "internalType": "string",
          "name": "uri",
          "type": "string"
        },
        {
          "internalType": "int128",
          "name": "yield",
          "type": "int128"
        },
        {
          "internalType": "uint256",
          "name": "acceptance",
          "type": "uint256"
        }
      ],
      "stateMutability": "view",
      "type": "function",
      "constant": true
    },
    {
      "inputs": [],
      "name": "groupCreationSCAmount",
      "outputs": [
        {
          "internalType": "uint256",
          "name": "",
          "type": "uint256"
        }
      ],
      "stateMutability": "view",
      "type": "function",
      "constant": true
    },
    {
      "inputs": [
        {
          "internalType": "address",
          "name": "",
          "type": "address"
        }
      ],
      "name": "registered",
      "outputs": [
        {
          "internalType": "bool",
          "name": "",
          "type": "bool"
        }
      ],
      "stateMutability": "view",
      "type": "function",
      "constant": true
    },
    {
      "inputs": [],
      "name": "scID",
      "outputs": [
        {
          "internalType": "uint256",
          "name": "",
          "type": "uint256"
        }
      ],
      "stateMutability": "view",
      "type": "function",
      "constant": true
    },
    {
      "inputs": [],
      "name": "scSeedAmount",
      "outputs": [
        {
          "internalType": "uint256",
          "name": "",
          "type": "uint256"
        }
      ],
      "stateMutability": "view",
      "type": "function",
      "constant": true
    },
    {
      "inputs": [],
      "name": "scStakeAmount",
      "outputs": [
        {
          "internalType": "uint256",
          "name": "",
          "type": "uint256"
        }
      ],
      "stateMutability": "view",
      "type": "function",
      "constant": true
    },
    {
      "inputs": [],
      "name": "scStakePeriod",
      "outputs": [
        {
          "internalType": "uint256",
          "name": "",
          "type": "uint256"
        }
      ],
      "stateMutability": "view",
      "type": "function",
      "constant": true
    },
    {
      "inputs": [],
      "name": "scYield",
      "outputs": [
        {
          "internalType": "int128",
          "name": "",
          "type": "int128"
        }
      ],
      "stateMutability": "view",
      "type": "function",
      "constant": true
    },
    {
      "inputs": [
        {
          "internalType": "bytes4",
          "name": "interfaceId",
          "type": "bytes4"
        }
      ],
      "name": "supportsInterface",
      "outputs": [
        {
          "internalType": "bool",
          "name": "",
          "type": "bool"
        }
      ],
      "stateMutability": "view",
      "type": "function",
      "constant": true
    },
    {
      "inputs": [
        {
          "internalType": "uint256",
          "name": "_initialSupply",
          "type": "uint256"
        },
        {
          "internalType": "string",
          "name": "_uri",
          "type": "string"
        },
        {
          "internalType": "int128",
          "name": "_yield",
          "type": "int128"
        },
        {
          "internalType": "uint256",
          "name": "_acceptance",
          "type": "uint256"
        }
      ],
      "name": "createGroup",
      "outputs": [],
      "stateMutability": "nonpayable",
      "type": "function"
    },
    {
      "inputs": [
        {
          "internalType": "uint256",
          "name": "index",
          "type": "uint256"
        }
      ],
      "name": "getGroup",
      "outputs": [
        {
          "components": [
            {
              "internalType": "string",
              "name": "uri",
              "type": "string"
            },
            {
              "internalType": "int128",
              "name": "yield",
              "type": "int128"
            },
            {
              "internalType": "uint256",
              "name": "acceptance",
              "type": "uint256"
            }
          ],
          "internalType": "struct desilo.Group",
          "name": "",
          "type": "tuple"
        }
      ],
      "stateMutability": "view",
      "type": "function",
      "constant": true
    },
    {
      "inputs": [],
      "name": "getAllGroups",
      "outputs": [
        {
          "components": [
            {
              "internalType": "string",
              "name": "uri",
              "type": "string"
            },
            {
              "internalType": "int128",
              "name": "yield",
              "type": "int128"
            },
            {
              "internalType": "uint256",
              "name": "acceptance",
              "type": "uint256"
            }
          ],
          "internalType": "struct desilo.Group[]",
          "name": "",
          "type": "tuple[]"
        }
      ],
      "stateMutability": "view",
      "type": "function",
      "constant": true
    },
    {
      "inputs": [
        {
          "internalType": "uint256",
          "name": "projectID",
          "type": "uint256"
        }
      ],
      "name": "getAffiliations",
      "outputs": [
        {
          "internalType": "bool[]",
          "name": "",
          "type": "bool[]"
        }
      ],
      "stateMutability": "view",
      "type": "function",
      "constant": true
    },
    {
      "inputs": [],
      "name": "getAllAffiliations",
      "outputs": [
        {
          "internalType": "bool[][]",
          "name": "",
          "type": "bool[][]"
        }
      ],
      "stateMutability": "view",
      "type": "function",
      "constant": true
    },
    {
      "inputs": [
        {
          "internalType": "uint256",
          "name": "index",
          "type": "uint256"
        }
      ],
      "name": "getProject",
      "outputs": [
        {
          "components": [
            {
              "internalType": "string",
              "name": "uri",
              "type": "string"
            },
            {
              "internalType": "uint256",
              "name": "createdAt",
              "type": "uint256"
            },
            {
              "internalType": "uint256",
              "name": "groupCount",
              "type": "uint256"
            },
            {
              "internalType": "address",
              "name": "owner",
              "type": "address"
            }
          ],
          "internalType": "struct desilo.Project",
          "name": "",
          "type": "tuple"
        }
      ],
      "stateMutability": "view",
      "type": "function",
      "constant": true
    },
    {
      "inputs": [],
      "name": "getAllProjects",
      "outputs": [
        {
          "components": [
            {
              "internalType": "string",
              "name": "uri",
              "type": "string"
            },
            {
              "internalType": "uint256",
              "name": "createdAt",
              "type": "uint256"
            },
            {
              "internalType": "uint256",
              "name": "groupCount",
              "type": "uint256"
            },
            {
              "internalType": "address",
              "name": "owner",
              "type": "address"
            }
          ],
          "internalType": "struct desilo.Project[]",
          "name": "",
          "type": "tuple[]"
        }
      ],
      "stateMutability": "view",
      "type": "function",
      "constant": true
    },
    {
      "inputs": [
        {
          "internalType": "uint256",
          "name": "projectID",
          "type": "uint256"
        }
      ],
      "name": "getProjectEntities",
      "outputs": [
        {
          "internalType": "string[]",
          "name": "entityURIs",
          "type": "string[]"
        }
      ],
      "stateMutability": "view",
      "type": "function",
      "constant": true
    },
    {
      "inputs": [
        {
          "internalType": "uint256",
          "name": "projectID",
          "type": "uint256"
        },
        {
          "internalType": "string",
          "name": "entityURI",
          "type": "string"
        }
      ],
      "name": "addProjectEntity",
      "outputs": [],
      "stateMutability": "nonpayable",
      "type": "function"
    },
    {
      "inputs": [
        {
          "internalType": "uint256",
          "name": "projectID",
          "type": "uint256"
        },
        {
          "internalType": "uint256",
          "name": "groupID",
          "type": "uint256"
        },
        {
          "internalType": "uint256",
          "name": "amount",
          "type": "uint256"
        }
      ],
      "name": "vouchProject",
      "outputs": [],
      "stateMutability": "nonpayable",
      "type": "function"
    },
    {
      "inputs": [
        {
          "internalType": "contract dSocialCredits",
          "name": "_sc",
          "type": "address"
        }
      ],
      "name": "setSC",
      "outputs": [],
      "stateMutability": "nonpayable",
      "type": "function"
    },
    {
      "inputs": [],
      "name": "seedSC",
      "outputs": [],
      "stateMutability": "nonpayable",
      "type": "function"
    },
    {
      "inputs": [
        {
          "internalType": "bytes32",
          "name": "_commitId",
          "type": "bytes32"
        },
        {
          "internalType": "address",
          "name": "_addr",
          "type": "address"
        }
      ],
      "name": "getStaked",
      "outputs": [
        {
          "internalType": "uint256",
          "name": "",
          "type": "uint256"
        }
      ],
      "stateMutability": "view",
      "type": "function",
      "constant": true
    },
    {
      "inputs": [
        {
          "internalType": "bytes32",
          "name": "_commitId",
          "type": "bytes32"
        }
      ],
      "name": "stake",
      "outputs": [],
      "stateMutability": "nonpayable",
      "type": "function"
    },
    {
      "inputs": [
        {
          "internalType": "bytes32",
          "name": "_commitId",
          "type": "bytes32"
        }
      ],
      "name": "unstake",
      "outputs": [],
      "stateMutability": "nonpayable",
      "type": "function"
    },
    {
      "inputs": [
        {
          "internalType": "string",
          "name": "uri",
          "type": "string"
        }
      ],
      "name": "registerProject",
      "outputs": [],
      "stateMutability": "nonpayable",
      "type": "function"
    },
    {
      "inputs": [
        {
          "internalType": "address",
          "name": "operator",
          "type": "address"
        },
        {
          "internalType": "address",
          "name": "from",
          "type": "address"
        },
        {
          "internalType": "uint256",
          "name": "id",
          "type": "uint256"
        },
        {
          "internalType": "uint256",
          "name": "value",
          "type": "uint256"
        },
        {
          "internalType": "bytes",
          "name": "data",
          "type": "bytes"
        }
      ],
      "name": "onERC1155Received",
      "outputs": [
        {
          "internalType": "bytes4",
          "name": "",
          "type": "bytes4"
        }
      ],
      "stateMutability": "pure",
      "type": "function",
      "constant": true
    },
    {
      "inputs": [
        {
          "internalType": "address",
          "name": "operator",
          "type": "address"
        },
        {
          "internalType": "address",
          "name": "from",
          "type": "address"
        },
        {
          "internalType": "uint256[]",
          "name": "ids",
          "type": "uint256[]"
        },
        {
          "internalType": "uint256[]",
          "name": "values",
          "type": "uint256[]"
        },
        {
          "internalType": "bytes",
          "name": "data",
          "type": "bytes"
        }
      ],
      "name": "onERC1155BatchReceived",
      "outputs": [
        {
          "internalType": "bytes4",
          "name": "",
          "type": "bytes4"
        }
      ],
      "stateMutability": "pure",
      "type": "function",
      "constant": true
    }
  ],
  "bytecode": "0x60806040527fffffffffffffffffffffffffffffffffffffffffffffffffffffffffffffffff600755600060115560006012553480156200003f57600080fd5b5060405162003c3638038062003c36833981810160405281019062000065919062000137565b83600360006101000a8154816fffffffffffffffffffffffffffffffff0219169083600f0b6fffffffffffffffffffffffffffffffff1602179055508460018190555082600081905550816002819055508060048190555033600660006101000a81548173ffffffffffffffffffffffffffffffffffffffff021916908373ffffffffffffffffffffffffffffffffffffffff160217905550505050505062000204565b6000815190506200011a81620001d0565b92915050565b6000815190506200013181620001ea565b92915050565b600080600080600060a086880312156200015057600080fd5b6000620001608882890162000120565b9550506020620001738882890162000109565b9450506040620001868882890162000120565b9350506060620001998882890162000120565b9250506080620001ac8882890162000120565b9150509295509295909350565b600081600f0b9050919050565b6000819050919050565b620001db81620001b9565b8114620001e757600080fd5b50565b620001f581620001c6565b81146200020157600080fd5b50565b613a2280620002146000396000f3fe608060405234801561001057600080fd5b50600436106101a95760003560e01c80637b539999116100f9578063bc197c8111610097578063d841212e11610071578063d841212e146104d0578063ecb282de146104ee578063f0f3f2c81461050c578063f23a6e611461053c576101a9565b8063bc197c8114610454578063c0d64a8714610484578063ceb60654146104a0576101a9565b8063907a4e1d116100d3578063907a4e1d146103ce578063a5e80192146103ea578063b2dd5c0714610408578063b2e9ed3d14610438576101a9565b80637b5399991461036457806380d03829146103945780638d997270146103b2576101a9565b80632f0081051161016657806365f5e7b61161014057806365f5e7b6146102dc5780636b513d0c1461030e57806371ed5d1a1461032c57806372212ec714610348576101a9565b80632f0081051461029857806349107fbb146102a25780635859e082146102be576101a9565b806301bed79c146101ae57806301ffc9a7146101cc5780631614047e146101fc5780631fd7288c1461021a57806321cd3cae1461024a5780632e35de0514610268575b600080fd5b6101b661056c565b6040516101c3919061327c565b60405180910390f35b6101e660048036038101906101e1919061270c565b61057f565b6040516101f39190613246565b60405180910390f35b6102046105f9565b6040516102119190613379565b60405180910390f35b610234600480360381019061022f919061279f565b6105ff565b60405161024191906131e0565b60405180910390f35b6102526107f4565b60405161025f9190613202565b60405180910390f35b610282600480360381019061027d91906126d0565b6109b9565b60405161028f9190613379565b60405180910390f35b6102a0610a14565b005b6102bc60048036038101906102b791906127c8565b610b90565b005b6102c6610c55565b6040516102d39190613379565b60405180910390f35b6102f660048036038101906102f1919061279f565b610c5b565b60405161030593929190613297565b60405180910390f35b610316610d1a565b604051610323919061319c565b60405180910390f35b610346600480360381019061034191906126a7565b610f17565b005b610362600480360381019061035d919061275e565b61150e565b005b61037e6004803603810190610379919061279f565b611605565b60405161038b91906131be565b60405180910390f35b61039c611723565b6040516103a99190613224565b60405180910390f35b6103cc60048036038101906103c7919061281c565b61192b565b005b6103e860048036038101906103e39190612735565b611b48565b005b6103f2611be6565b6040516103ff9190613379565b60405180910390f35b610422600480360381019061041d9190612520565b611bec565b60405161042f9190613246565b60405180910390f35b610452600480360381019061044d9190612897565b611c0c565b005b61046e60048036038101906104699190612549565b611d95565b60405161047b9190613261565b60405180910390f35b61049e600480360381019061049991906126a7565b611dad565b005b6104ba60048036038101906104b5919061279f565b611f4b565b6040516104c79190613335565b60405180910390f35b6104d8612031565b6040516104e59190613379565b60405180910390f35b6104f6612037565b6040516105039190613379565b60405180910390f35b6105266004803603810190610521919061279f565b61203d565b6040516105339190613357565b60405180910390f35b61055660048036038101906105519190612615565b612166565b6040516105639190613261565b60405180910390f35b600360009054906101000a9004600f0b81565b60007f4e2312e0000000000000000000000000000000000000000000000000000000007bffffffffffffffffffffffffffffffffffffffffffffffffffffffff1916827bffffffffffffffffffffffffffffffffffffffffffffffffffffffff191614806105f257506105f18261217c565b5b9050919050565b60005481565b60606000601060008481526020019081526020016000205467ffffffffffffffff811115610656577f4e487b7100000000000000000000000000000000000000000000000000000000600052604160045260246000fd5b60405190808252806020026020018201604052801561068957816020015b60608152602001906001900390816106745790505b50905060005b60106000858152602001908152602001600020548110156107ed57600c6000600f600087815260200190815260200160002060000160106000888152602001908152602001600020546040516020016106e9929190613007565b60405160208183030381529060405280519060200120815260200190815260200160002080546107189061376a565b80601f01602080910402602001604051908101604052809291908181526020018280546107449061376a565b80156107915780601f1061076657610100808354040283529160200191610791565b820191906000526020600020905b81548152906001019060200180831161077457829003601f168201915b50505050508282815181106107cf577f4e487b7100000000000000000000000000000000000000000000000000000000600052603260045260246000fd5b602002602001018190525080806107e5906137cd565b91505061068f565b5050919050565b6060600060125467ffffffffffffffff81111561083a577f4e487b7100000000000000000000000000000000000000000000000000000000600052604160045260246000fd5b60405190808252806020026020018201604052801561087357816020015b6108606122a1565b8152602001906001900390816108585790505b50905060005b6012548110156109b157601360008281526020019081526020016000206040518060600160405290816000820180546108b19061376a565b80601f01602080910402602001604051908101604052809291908181526020018280546108dd9061376a565b801561092a5780601f106108ff5761010080835404028352916020019161092a565b820191906000526020600020905b81548152906001019060200180831161090d57829003601f168201915b505050505081526020016001820160009054906101000a9004600f0b600f0b600f0b8152602001600282015481525050828281518110610993577f4e487b7100000000000000000000000000000000000000000000000000000000600052603260045260246000fd5b602002602001018190525080806109a9906137cd565b915050610879565b508091505090565b60006009600084815260200190815260200160002060008373ffffffffffffffffffffffffffffffffffffffff1673ffffffffffffffffffffffffffffffffffffffff16815260200190815260200160002054905092915050565b600860003373ffffffffffffffffffffffffffffffffffffffff1673ffffffffffffffffffffffffffffffffffffffff16815260200190815260200160002060009054906101000a900460ff1615610aa1576040517f08c379a0000000000000000000000000000000000000000000000000000000008152600401610a98906132d5565b60405180910390fd5b6001600860003373ffffffffffffffffffffffffffffffffffffffff1673ffffffffffffffffffffffffffffffffffffffff16815260200190815260200160002060006101000a81548160ff021916908315150217905550600560009054906101000a900473ffffffffffffffffffffffffffffffffffffffff1673ffffffffffffffffffffffffffffffffffffffff1663731133e9336007546002546040518463ffffffff1660e01b8152600401610b5c93929190613152565b600060405180830381600087803b158015610b7657600080fd5b505af1158015610b8a573d6000803e3d6000fd5b50505050565b6000600f60008481526020019081526020016000206000016010600085815260200190815260200160002054604051602001610bcd929190613007565b60405160208183030381529060405280519060200120905082600b60008381526020019081526020016000208190555081600c60008381526020019081526020016000209080519060200190610c249291906122c5565b506001601060008581526020019081526020016000206000828254610c499190613601565b92505081905550505050565b60075481565b6013602052806000526040600020600091509050806000018054610c7e9061376a565b80601f0160208091040260200160405190810160405280929190818152602001828054610caa9061376a565b8015610cf75780601f10610ccc57610100808354040283529160200191610cf7565b820191906000526020600020905b815481529060010190602001808311610cda57829003601f168201915b5050505050908060010160009054906101000a9004600f0b908060020154905083565b6060600060115467ffffffffffffffff811115610d60577f4e487b7100000000000000000000000000000000000000000000000000000000600052604160045260246000fd5b604051908082528060200260200182016040528015610d9357816020015b6060815260200190600190039081610d7e5790505b50905060005b601154811015610f0f57600060125467ffffffffffffffff811115610de7577f4e487b7100000000000000000000000000000000000000000000000000000000600052604160045260246000fd5b604051908082528060200260200182016040528015610e155781602001602082028036833780820191505090505b50905060005b601254811015610eb557600d6000848152602001908152602001600020600082815260200190815260200160002060009054906101000a900460ff16828281518110610e90577f4e487b7100000000000000000000000000000000000000000000000000000000600052603260045260246000fd5b6020026020010190151590811515815250508080610ead906137cd565b915050610e1b565b5080838381518110610ef0577f4e487b7100000000000000000000000000000000000000000000000000000000600052603260045260246000fd5b6020026020010181905250508080610f07906137cd565b915050610d99565b508091505090565b600a600082815260200190815260200160002060003373ffffffffffffffffffffffffffffffffffffffff1673ffffffffffffffffffffffffffffffffffffffff16815260200190815260200160002054421015610faa576040517f08c379a0000000000000000000000000000000000000000000000000000000008152600401610fa190613315565b60405180910390fd5b6000610fb682336109b9565b1015610ff7576040517f08c379a0000000000000000000000000000000000000000000000000000000008152600401610fee906132f5565b60405180910390fd5b600061100382336109b9565b90506000600b60008481526020019081526020016000205490506000600f600083815260200190815260200160002060020154905060008167ffffffffffffffff81111561107a577f4e487b7100000000000000000000000000000000000000000000000000000000600052604160045260246000fd5b6040519080825280602002602001820160405280156110a85781602001602082028036833780820191505090505b50905060008267ffffffffffffffff8111156110ed577f4e487b7100000000000000000000000000000000000000000000000000000000600052604160045260246000fd5b60405190808252806020026020018201604052801561111b5781602001602082028036833780820191505090505b509050846009600088815260200190815260200160002060003373ffffffffffffffffffffffffffffffffffffffff1673ffffffffffffffffffffffffffffffffffffffff168152602001908152602001600020600082825461117e9190613657565b925050819055506000600a600088815260200190815260200160002060003373ffffffffffffffffffffffffffffffffffffffff1673ffffffffffffffffffffffffffffffffffffffff16815260200190815260200160002081905550600560009054906101000a900473ffffffffffffffffffffffffffffffffffffffff1673ffffffffffffffffffffffffffffffffffffffff1663f242432a3033600754896040518563ffffffff1660e01b815260040161123e949392919061302f565b600060405180830381600087803b15801561125857600080fd5b505af115801561126c573d6000803e3d6000fd5b50505050600560009054906101000a900473ffffffffffffffffffffffffffffffffffffffff1673ffffffffffffffffffffffffffffffffffffffff1663731133e9336007546112cb600360009054906101000a9004600f0b8a6121e6565b6040518463ffffffff1660e01b81526004016112e993929190613152565b600060405180830381600087803b15801561130357600080fd5b505af1158015611317573d6000803e3d6000fd5b505050506000805b60125481101561143a57600d6000878152602001908152602001600020600082815260200190815260200160002060009054906101000a900460ff1615611427578084838151811061139a577f4e487b7100000000000000000000000000000000000000000000000000000000600052603260045260246000fd5b6020026020010181815250506113d36013600083815260200190815260200160002060010160009054906101000a9004600f0b886121e6565b83838151811061140c577f4e487b7100000000000000000000000000000000000000000000000000000000600052603260045260246000fd5b6020026020010181815250508180611423906137cd565b9250505b8080611432906137cd565b91505061131f565b50600560009054906101000a900473ffffffffffffffffffffffffffffffffffffffff1673ffffffffffffffffffffffffffffffffffffffff16631f7fdffa3385856040518463ffffffff1660e01b815260040161149a93929190613087565b600060405180830381600087803b1580156114b457600080fd5b505af11580156114c8573d6000803e3d6000fd5b505050507fb78896534a069af11c5ac67bdf6c1e603112b3adec618855d97b095a49d2845a33886040516114fd9291906130df565b60405180910390a150505050505050565b80600f60006011548152602001908152602001600020600001908051906020019061153a9291906122c5565b5033600f6000601154815260200190815260200160002060030160006101000a81548173ffffffffffffffffffffffffffffffffffffffff021916908373ffffffffffffffffffffffffffffffffffffffff16021790555042600f60006011548152602001908152602001600020600101819055507f63c92f9505d420bff631cb9df33be952bdc11e2118da36a850b43e6bcc4ce4de601154336040516115e2929190613394565b60405180910390a1601160008154809291906115fd906137cd565b919050555050565b6060600060125467ffffffffffffffff81111561164b577f4e487b7100000000000000000000000000000000000000000000000000000000600052604160045260246000fd5b6040519080825280602002602001820160405280156116795781602001602082028036833780820191505090505b50905060005b60125481101561171957600d6000858152602001908152602001600020600082815260200190815260200160002060009054906101000a900460ff168282815181106116f4577f4e487b7100000000000000000000000000000000000000000000000000000000600052603260045260246000fd5b6020026020010190151590811515815250508080611711906137cd565b91505061167f565b5080915050919050565b6060600060115467ffffffffffffffff811115611769577f4e487b7100000000000000000000000000000000000000000000000000000000600052604160045260246000fd5b6040519080825280602002602001820160405280156117a257816020015b61178f61234b565b8152602001906001900390816117875790505b50905060005b60115481101561192357600f60008281526020019081526020016000206040518060800160405290816000820180546117e09061376a565b80601f016020809104026020016040519081016040528092919081815260200182805461180c9061376a565b80156118595780601f1061182e57610100808354040283529160200191611859565b820191906000526020600020905b81548152906001019060200180831161183c57829003601f168201915b5050505050815260200160018201548152602001600282015481526020016003820160009054906101000a900473ffffffffffffffffffffffffffffffffffffffff1673ffffffffffffffffffffffffffffffffffffffff1673ffffffffffffffffffffffffffffffffffffffff1681525050828281518110611905577f4e487b7100000000000000000000000000000000000000000000000000000000600052603260045260246000fd5b6020026020010181905250808061191b906137cd565b9150506117a8565b508091505090565b600560009054906101000a900473ffffffffffffffffffffffffffffffffffffffff1673ffffffffffffffffffffffffffffffffffffffff1663f5298aca336007546000546040518463ffffffff1660e01b815260040161198e9392919061311b565b600060405180830381600087803b1580156119a857600080fd5b505af11580156119bc573d6000803e3d6000fd5b505050508260136000601254815260200190815260200160002060000190805190602001906119ec9291906122c5565b508160136000601254815260200190815260200160002060010160006101000a8154816fffffffffffffffffffffffffffffffff0219169083600f0b6fffffffffffffffffffffffffffffffff1602179055508060136000601254815260200190815260200160002060020181905550600560009054906101000a900473ffffffffffffffffffffffffffffffffffffffff1673ffffffffffffffffffffffffffffffffffffffff1663731133e933601254876040518463ffffffff1660e01b8152600401611abd93929190613152565b600060405180830381600087803b158015611ad757600080fd5b505af1158015611aeb573d6000803e3d6000fd5b505050507f6958b51b54d963fa8eeeea5b61b83a9ad28f9ee9d5a2f1b8495e6866cb534bb160125433604051611b22929190613394565b60405180910390a160126000815480929190611b3d906137cd565b919050555050505050565b600660009054906101000a900473ffffffffffffffffffffffffffffffffffffffff1673ffffffffffffffffffffffffffffffffffffffff163373ffffffffffffffffffffffffffffffffffffffff1614611ba257600080fd5b80600560006101000a81548173ffffffffffffffffffffffffffffffffffffffff021916908373ffffffffffffffffffffffffffffffffffffffff16021790555050565b60015481565b60086020528060005260406000206000915054906101000a900460ff1681565b600560009054906101000a900473ffffffffffffffffffffffffffffffffffffffff1673ffffffffffffffffffffffffffffffffffffffff1663f5298aca3384846040518463ffffffff1660e01b8152600401611c6b9392919061311b565b600060405180830381600087803b158015611c8557600080fd5b505af1158015611c99573d6000803e3d6000fd5b5050505080600e600085815260200190815260200160002060008481526020019081526020016000206000828254611cd19190613601565b925050819055506013600083815260200190815260200160002060020154600e600085815260200190815260200160002060008481526020019081526020016000205410611d90576001600d6000858152602001908152602001600020600084815260200190815260200160002060006101000a81548160ff0219169083151502179055507f29692491058132b418905fa7c07d37d72a2355cf7f1d20d22a134414aa6ddf4c8383604051611d879291906133bd565b60405180910390a15b505050565b600063bc197c8160e01b905098975050505050505050565b600560009054906101000a900473ffffffffffffffffffffffffffffffffffffffff1673ffffffffffffffffffffffffffffffffffffffff1663f242432a33306007546001546040518563ffffffff1660e01b8152600401611e12949392919061302f565b600060405180830381600087803b158015611e2c57600080fd5b505af1158015611e40573d6000803e3d6000fd5b505050506001546009600083815260200190815260200160002060003373ffffffffffffffffffffffffffffffffffffffff1673ffffffffffffffffffffffffffffffffffffffff1681526020019081526020016000206000828254611ea69190613601565b9250508190555060045442611ebb9190613601565b600a600083815260200190815260200160002060003373ffffffffffffffffffffffffffffffffffffffff1673ffffffffffffffffffffffffffffffffffffffff168152602001908152602001600020819055507f4479313fb899726ea54d15cfe180c5211d34d414298c9b97b3d0bdd89d06dee63382604051611f409291906130df565b60405180910390a150565b611f536122a1565b60136000838152602001908152602001600020604051806060016040529081600082018054611f819061376a565b80601f0160208091040260200160405190810160405280929190818152602001828054611fad9061376a565b8015611ffa5780601f10611fcf57610100808354040283529160200191611ffa565b820191906000526020600020905b815481529060010190602001808311611fdd57829003601f168201915b505050505081526020016001820160009054906101000a9004600f0b600f0b600f0b81526020016002820154815250509050919050565b60025481565b60045481565b61204561234b565b600f60008381526020019081526020016000206040518060800160405290816000820180546120739061376a565b80601f016020809104026020016040519081016040528092919081815260200182805461209f9061376a565b80156120ec5780601f106120c1576101008083540402835291602001916120ec565b820191906000526020600020905b8154815290600101906020018083116120cf57829003601f168201915b5050505050815260200160018201548152602001600282015481526020016003820160009054906101000a900473ffffffffffffffffffffffffffffffffffffffff1673ffffffffffffffffffffffffffffffffffffffff1673ffffffffffffffffffffffffffffffffffffffff16815250509050919050565b600063f23a6e6160e01b90509695505050505050565b60007f01ffc9a7000000000000000000000000000000000000000000000000000000007bffffffffffffffffffffffffffffffffffffffffffffffffffffffff1916827bffffffffffffffffffffffffffffffffffffffffffffffffffffffff1916149050919050565b6000808214156121f9576000905061229b565b600083600f0b121561220a57600080fd5b600060406fffffffffffffffffffffffffffffffff841685600f0b02901c90506000608084901c85600f0b02905077ffffffffffffffffffffffffffffffffffffffffffffffff81111561225d57600080fd5b604081901b9050817fffffffffffffffffffffffffffffffffffffffffffffffffffffffffffffffff0381111561229357600080fd5b818101925050505b92915050565b6040518060600160405280606081526020016000600f0b8152602001600081525090565b8280546122d19061376a565b90600052602060002090601f0160209004810192826122f3576000855561233a565b82601f1061230c57805160ff191683800117855561233a565b8280016001018555821561233a579182015b8281111561233957825182559160200191906001019061231e565b5b5090506123479190612389565b5090565b6040518060800160405280606081526020016000815260200160008152602001600073ffffffffffffffffffffffffffffffffffffffff1681525090565b5b808211156123a257600081600090555060010161238a565b5090565b60006123b96123b48461340b565b6133e6565b9050828152602081018484840111156123d157600080fd5b6123dc848285613728565b509392505050565b6000813590506123f381613962565b92915050565b60008083601f84011261240b57600080fd5b8235905067ffffffffffffffff81111561242457600080fd5b60208301915083602082028301111561243c57600080fd5b9250929050565b60008135905061245281613979565b92915050565b60008135905061246781613990565b92915050565b60008083601f84011261247f57600080fd5b8235905067ffffffffffffffff81111561249857600080fd5b6020830191508360018202830111156124b057600080fd5b9250929050565b6000813590506124c6816139a7565b92915050565b6000813590506124db816139be565b92915050565b600082601f8301126124f257600080fd5b81356125028482602086016123a6565b91505092915050565b60008135905061251a816139d5565b92915050565b60006020828403121561253257600080fd5b6000612540848285016123e4565b91505092915050565b60008060008060008060008060a0898b03121561256557600080fd5b60006125738b828c016123e4565b98505060206125848b828c016123e4565b975050604089013567ffffffffffffffff8111156125a157600080fd5b6125ad8b828c016123f9565b9650965050606089013567ffffffffffffffff8111156125cc57600080fd5b6125d88b828c016123f9565b9450945050608089013567ffffffffffffffff8111156125f757600080fd5b6126038b828c0161246d565b92509250509295985092959890939650565b60008060008060008060a0878903121561262e57600080fd5b600061263c89828a016123e4565b965050602061264d89828a016123e4565b955050604061265e89828a0161250b565b945050606061266f89828a0161250b565b935050608087013567ffffffffffffffff81111561268c57600080fd5b61269889828a0161246d565b92509250509295509295509295565b6000602082840312156126b957600080fd5b60006126c784828501612443565b91505092915050565b600080604083850312156126e357600080fd5b60006126f185828601612443565b9250506020612702858286016123e4565b9150509250929050565b60006020828403121561271e57600080fd5b600061272c84828501612458565b91505092915050565b60006020828403121561274757600080fd5b6000612755848285016124b7565b91505092915050565b60006020828403121561277057600080fd5b600082013567ffffffffffffffff81111561278a57600080fd5b612796848285016124e1565b91505092915050565b6000602082840312156127b157600080fd5b60006127bf8482850161250b565b91505092915050565b600080604083850312156127db57600080fd5b60006127e98582860161250b565b925050602083013567ffffffffffffffff81111561280657600080fd5b612812858286016124e1565b9150509250929050565b6000806000806080858703121561283257600080fd5b60006128408782880161250b565b945050602085013567ffffffffffffffff81111561285d57600080fd5b612869878288016124e1565b935050604061287a878288016124cc565b925050606061288b8782880161250b565b91505092959194509250565b6000806000606084860312156128ac57600080fd5b60006128ba8682870161250b565b93505060206128cb8682870161250b565b92505060406128dc8682870161250b565b9150509250925092565b60006128f283836129f9565b905092915050565b60006129068383612c72565b60208301905092915050565b600061291e8383612ccc565b905092915050565b60006129328383612e6c565b905092915050565b60006129468383612f0c565b905092915050565b600061295a8383612fd2565b60208301905092915050565b61296f8161368b565b82525050565b61297e8161368b565b82525050565b600061298f826134b1565b612999818561354c565b9350836020820285016129ab8561343c565b8060005b858110156129e757848403895281516129c885826128e6565b94506129d3836134fe565b925060208a019950506001810190506129af565b50829750879550505050505092915050565b6000612a04826134bc565b612a0e818561355d565b9350612a198361344c565b8060005b83811015612a4a578151612a3188826128fa565b9750612a3c8361350b565b925050600181019050612a1d565b5085935050505092915050565b6000612a62826134bc565b612a6c818561356e565b9350612a778361344c565b8060005b83811015612aa8578151612a8f88826128fa565b9750612a9a8361350b565b925050600181019050612a7b565b5085935050505092915050565b6000612ac0826134c7565b612aca818561357f565b935083602082028501612adc8561345c565b8060005b85811015612b185784840389528151612af98582612912565b9450612b0483613518565b925060208a01995050600181019050612ae0565b50829750879550505050505092915050565b6000612b35826134d2565b612b3f8185613590565b935083602082028501612b518561346c565b8060005b85811015612b8d5784840389528151612b6e8582612926565b9450612b7983613525565b925060208a01995050600181019050612b55565b50829750879550505050505092915050565b6000612baa826134dd565b612bb481856135a1565b935083602082028501612bc68561347c565b8060005b85811015612c025784840389528151612be3858261293a565b9450612bee83613532565b925060208a01995050600181019050612bca565b50829750879550505050505092915050565b6000612c1f826134e8565b612c2981856135b2565b9350612c348361348c565b8060005b83811015612c65578151612c4c888261294e565b9750612c578361353f565b925050600181019050612c38565b5085935050505092915050565b612c7b8161369d565b82525050565b612c8a8161369d565b82525050565b612c99816136a9565b82525050565b612ca8816136b3565b82525050565b612cb7816136f1565b82525050565b612cc6816136f1565b82525050565b6000612cd7826134f3565b612ce181856135d4565b9350612cf1818560208601613737565b612cfa816138ad565b840191505092915050565b6000612d10826134f3565b612d1a81856135e5565b9350612d2a818560208601613737565b612d33816138ad565b840191505092915050565b60008154612d4b8161376a565b612d5581866135f6565b94506001821660008114612d705760018114612d8157612db4565b60ff19831686528186019350612db4565b612d8a8561349c565b60005b83811015612dac57815481890152600182019150602081019050612d8d565b838801955050505b50505092915050565b6000612dca6032836135e5565b9150612dd5826138be565b604082019050919050565b6000612ded6020836135e5565b9150612df88261390d565b602082019050919050565b6000612e106000836135c3565b9150612e1b82613936565b600082019050919050565b6000612e336000836135e5565b9150612e3e82613936565b600082019050919050565b6000612e566020836135e5565b9150612e6182613939565b602082019050919050565b60006060830160008301518482036000860152612e898282612ccc565b9150506020830151612e9e6020860182612cae565b506040830151612eb16040860182612fd2565b508091505092915050565b60006060830160008301518482036000860152612ed98282612ccc565b9150506020830151612eee6020860182612cae565b506040830151612f016040860182612fd2565b508091505092915050565b60006080830160008301518482036000860152612f298282612ccc565b9150506020830151612f3e6020860182612fd2565b506040830151612f516040860182612fd2565b506060830151612f646060860182612966565b508091505092915050565b60006080830160008301518482036000860152612f8c8282612ccc565b9150506020830151612fa16020860182612fd2565b506040830151612fb46040860182612fd2565b506060830151612fc76060860182612966565b508091505092915050565b612fdb8161371e565b82525050565b612fea8161371e565b82525050565b613001612ffc8261371e565b613816565b82525050565b60006130138285612d3e565b915061301f8284612ff0565b6020820191508190509392505050565b600060a0820190506130446000830187612975565b6130516020830186612975565b61305e6040830185612fe1565b61306b6060830184612fe1565b818103608083015261307c81612e03565b905095945050505050565b600060808201905061309c6000830186612975565b81810360208301526130ae8185612c14565b905081810360408301526130c28184612c14565b905081810360608301526130d581612e03565b9050949350505050565b60006060820190506130f46000830185612975565b6131016020830184612c90565b818103604083015261311281612e26565b90509392505050565b60006060820190506131306000830186612975565b61313d6020830185612fe1565b61314a6040830184612fe1565b949350505050565b60006080820190506131676000830186612975565b6131746020830185612fe1565b6131816040830184612fe1565b818103606083015261319281612e03565b9050949350505050565b600060208201905081810360008301526131b68184612984565b905092915050565b600060208201905081810360008301526131d88184612a57565b905092915050565b600060208201905081810360008301526131fa8184612ab5565b905092915050565b6000602082019050818103600083015261321c8184612b2a565b905092915050565b6000602082019050818103600083015261323e8184612b9f565b905092915050565b600060208201905061325b6000830184612c81565b92915050565b60006020820190506132766000830184612c9f565b92915050565b60006020820190506132916000830184612cbd565b92915050565b600060608201905081810360008301526132b18186612d05565b90506132c06020830185612cbd565b6132cd6040830184612fe1565b949350505050565b600060208201905081810360008301526132ee81612dbd565b9050919050565b6000602082019050818103600083015261330e81612de0565b9050919050565b6000602082019050818103600083015261332e81612e49565b9050919050565b6000602082019050818103600083015261334f8184612ebc565b905092915050565b600060208201905081810360008301526133718184612f6f565b905092915050565b600060208201905061338e6000830184612fe1565b92915050565b60006040820190506133a96000830185612fe1565b6133b66020830184612975565b9392505050565b60006040820190506133d26000830185612fe1565b6133df6020830184612fe1565b9392505050565b60006133f0613401565b90506133fc828261379c565b919050565b6000604051905090565b600067ffffffffffffffff8211156134265761342561387e565b5b61342f826138ad565b9050602081019050919050565b6000819050602082019050919050565b6000819050602082019050919050565b6000819050602082019050919050565b6000819050602082019050919050565b6000819050602082019050919050565b6000819050602082019050919050565b60008190508160005260206000209050919050565b600081519050919050565b600081519050919050565b600081519050919050565b600081519050919050565b600081519050919050565b600081519050919050565b600081519050919050565b6000602082019050919050565b6000602082019050919050565b6000602082019050919050565b6000602082019050919050565b6000602082019050919050565b6000602082019050919050565b600082825260208201905092915050565b600082825260208201905092915050565b600082825260208201905092915050565b600082825260208201905092915050565b600082825260208201905092915050565b600082825260208201905092915050565b600082825260208201905092915050565b600082825260208201905092915050565b600082825260208201905092915050565b600082825260208201905092915050565b600081905092915050565b600061360c8261371e565b91506136178361371e565b9250827fffffffffffffffffffffffffffffffffffffffffffffffffffffffffffffffff0382111561364c5761364b613820565b5b828201905092915050565b60006136628261371e565b915061366d8361371e565b9250828210156136805761367f613820565b5b828203905092915050565b6000613696826136fe565b9050919050565b60008115159050919050565b6000819050919050565b60007fffffffff0000000000000000000000000000000000000000000000000000000082169050919050565b60006136ea8261368b565b9050919050565b600081600f0b9050919050565b600073ffffffffffffffffffffffffffffffffffffffff82169050919050565b6000819050919050565b82818337600083830152505050565b60005b8381101561375557808201518184015260208101905061373a565b83811115613764576000848401525b50505050565b6000600282049050600182168061378257607f821691505b602082108114156137965761379561384f565b5b50919050565b6137a5826138ad565b810181811067ffffffffffffffff821117156137c4576137c361387e565b5b80604052505050565b60006137d88261371e565b91507fffffffffffffffffffffffffffffffffffffffffffffffffffffffffffffffff82141561380b5761380a613820565b5b600182019050919050565b6000819050919050565b7f4e487b7100000000000000000000000000000000000000000000000000000000600052601160045260246000fd5b7f4e487b7100000000000000000000000000000000000000000000000000000000600052602260045260246000fd5b7f4e487b7100000000000000000000000000000000000000000000000000000000600052604160045260246000fd5b6000601f19601f8301169050919050565b7f43616e6e6f742063616c6c20746869732066756e6374696f6e2c20757365722060008201527f616c726561647920726567697374657265640000000000000000000000000000602082015250565b7f646573696c6f3a20596f752068617665206e6f7420796574207374616b65642e600082015250565b50565b7f646573696c6f3a20596f75206d6179206e6f742079657420756e7374616b652e600082015250565b61396b8161368b565b811461397657600080fd5b50565b613982816136a9565b811461398d57600080fd5b50565b613999816136b3565b81146139a457600080fd5b50565b6139b0816136df565b81146139bb57600080fd5b50565b6139c7816136f1565b81146139d257600080fd5b50565b6139de8161371e565b81146139e957600080fd5b5056fea2646970667358221220162ae81d0ddf0c0cc9cc96aa5ff8acced33ba98b5d0a2eb145c1a6d1167081cb64736f6c63430008030033",
  "immutableReferences": {},
  "source": "pragma solidity ^0.8.3;\r\n\r\nimport \"./dSocialCredits.sol\";\r\nimport \"./library/ABDKMath64x64.sol\";\r\nimport \"@openzeppelin/contracts/token/ERC1155/utils/ERC1155Receiver.sol\";\r\n\r\ncontract desilo is ERC1155Receiver {\r\n\r\n    struct Group {\r\n        string uri;\r\n        int128 yield;\r\n        uint256 acceptance;\r\n    }\r\n\r\n    struct Project {\r\n        string uri; \r\n        uint256 createdAt; \r\n        uint256 groupCount;\r\n        address owner; \r\n    }\r\n\r\n    uint256 public groupCreationSCAmount;\r\n    uint256 public scStakeAmount;\r\n    uint256 public scSeedAmount;\r\n    int128 public scYield;\r\n    uint256 public scStakePeriod;\r\n\r\n    dSocialCredits _scContract;\r\n    address _owner;\r\n    uint256 public scID = 2**256 - 1;\r\n    mapping(address => bool) public registered;\r\n\r\n    // mapping(entityID). keccak256(projectURI, entityURI)\r\n    mapping(bytes32 => mapping(address => uint256)) _stakedAmount;\r\n    mapping(bytes32 => mapping(address => uint256)) _stakeExpiry;\r\n    mapping(bytes32 => uint256) _entityToThread;\r\n    mapping(bytes32 => string) _entityURI;\r\n\r\n    // mapping(groupID)\r\n    mapping (uint256 => mapping(uint256 => bool)) _affiliatedGroups;\r\n    mapping (uint256 => mapping(uint256 => uint256)) _affiliatedGroupsVouched;\r\n\r\n\r\n    // mapping(projectID)\r\n    mapping(uint256 => Project) _projects; \r\n    mapping(uint256 => uint256) _projectEntitiesCount;\r\n    uint256 _projectCount = 0;\r\n\r\n    // mapping(groupID => fixed128x128)\r\n    uint256 _groupCount = 0;\r\n    mapping(uint256 => Group) public _groups; // Group's \r\n\r\n\r\n    event GroupCreated(uint256 id, address creator); \r\n    event ProjectCreated(uint256 id, address creator); \r\n    event ProjectAccepted(uint256 projectId, uint256 groupId); \r\n    event Staked(address staker, bytes32 commitId, string uri); \r\n    event Unstaked(address staker, bytes32 commitId, string uri); \r\n\r\n\r\n    constructor(\r\n        uint256 _scStakeAmount,\r\n        int128 _scYield,\r\n        uint256 _groupCreationSCAmount,\r\n        uint256 _scSeedAmount,\r\n        uint256 _scStakePeriod\r\n    ) IERC1155Receiver() {\r\n        scYield = _scYield;\r\n        scStakeAmount = _scStakeAmount;\r\n        groupCreationSCAmount = _groupCreationSCAmount;\r\n        scSeedAmount = _scSeedAmount;\r\n        scStakePeriod = _scStakePeriod;\r\n        _owner = msg.sender;\r\n    }\r\n\r\n    function createGroup(uint256 _initialSupply, string memory _uri, int128 _yield, uint256 _acceptance) external {\r\n        _scContract.burn(msg.sender, scID, groupCreationSCAmount);\r\n        _groups[_groupCount].uri = _uri;\r\n        _groups[_groupCount].yield = _yield;\r\n        _groups[_groupCount].acceptance = _acceptance;\r\n\r\n        _scContract.mint(msg.sender, _groupCount, _initialSupply, \"\");\r\n        emit GroupCreated(_groupCount, msg.sender);\r\n        _groupCount++;\r\n    }\r\n\r\n    function getGroup(uint256 index) external view returns(Group memory) {\r\n        return _groups[index]; \r\n    }\r\n\r\n    function getAllGroups() external view returns(Group[] memory) {\r\n        Group[] memory groups = new Group[](_groupCount);\r\n        for (uint i = 0; i < _groupCount; i++) groups[i] = _groups[i];\r\n        return groups; \r\n    }\r\n\r\n    function getAffiliations(uint256 projectID) external view returns(bool[] memory) {\r\n        bool[] memory affiliations = new bool[](_groupCount);\r\n        for (uint j = 0; j < _groupCount; j++) affiliations[j] = _affiliatedGroups[projectID][j];\r\n        return affiliations; \r\n    }\r\n\r\n    function getAllAffiliations() external view returns(bool[][] memory) {\r\n        bool[][] memory projects = new bool[][](_projectCount);\r\n        for (uint i = 0; i < _projectCount; i++) {\r\n            bool[] memory affiliations = new bool[](_groupCount);\r\n            for (uint j = 0; j < _groupCount; j++) affiliations[j] = _affiliatedGroups[i][j];\r\n            projects[i] = affiliations;\r\n        }\r\n        return projects; \r\n    }\r\n\r\n    function getProject(uint256 index) external view returns(Project memory) {\r\n        return _projects[index]; \r\n    }\r\n\r\n    function getAllProjects() external view returns(Project[] memory) {\r\n        Project[] memory projects = new Project[](_projectCount);\r\n        for (uint i = 0; i < _projectCount; i++) projects[i] = _projects[i];\r\n        return projects; \r\n    }\r\n\r\n    function getProjectEntities(uint256 projectID) external view returns(string[] memory entityURIs) {\r\n        string[] memory entityURIs = new string[](_projectEntitiesCount[projectID]);\r\n        for (uint i = 0; i < _projectEntitiesCount[projectID]; i++) {\r\n            entityURIs[i] = _entityURI[keccak256(abi.encodePacked(_projects[projectID].uri, _projectEntitiesCount[projectID]))];\r\n        }\r\n    }\r\n\r\n    function addProjectEntity(uint256 projectID, string memory entityURI) external {\r\n        // Run Chainlink verification of ownership\r\n        bytes32 entityID = keccak256(abi.encodePacked(_projects[projectID].uri, _projectEntitiesCount[projectID]));\r\n        _entityToThread[entityID] = projectID;\r\n        _entityURI[entityID] = entityURI;\r\n        _projectEntitiesCount[projectID] += 1;\r\n    }\r\n\r\n    function vouchProject(uint256 projectID, uint256 groupID, uint256 amount) external {\r\n        _scContract.burn(msg.sender, groupID, amount);\r\n        _affiliatedGroupsVouched[projectID][groupID] += amount; \r\n        if (_affiliatedGroupsVouched[projectID][groupID] >= _groups[groupID].acceptance) {\r\n            _affiliatedGroups[projectID][groupID] = true; \r\n            emit ProjectAccepted(projectID, groupID);\r\n        }\r\n    }\r\n\r\n    function setSC(dSocialCredits _sc) external {\r\n        require(msg.sender == _owner);\r\n        _scContract = _sc;\r\n    }\r\n\r\n    function seedSC() external {\r\n        require(\r\n            !registered[msg.sender],\r\n            \"Cannot call this function, user already registered\"\r\n        );\r\n        registered[msg.sender] = true;\r\n        _scContract.mint(msg.sender, scID, scSeedAmount, \"\");\r\n    }\r\n\r\n    function getStaked(bytes32 _commitId, address _addr)\r\n        public\r\n        view\r\n        returns (uint256)\r\n    {\r\n        return _stakedAmount[_commitId][_addr];\r\n    }\r\n\r\n    function stake(bytes32 _commitId) external {\r\n        _scContract.safeTransferFrom(\r\n            msg.sender,\r\n            address(this),\r\n            scID,\r\n            scStakeAmount,\r\n            \"\"\r\n        );\r\n        _stakedAmount[_commitId][msg.sender] += scStakeAmount;\r\n        _stakeExpiry[_commitId][msg.sender] = block.timestamp + scStakePeriod;\r\n        emit Staked(msg.sender, _commitId, \"\"); \r\n    }\r\n\r\n    function unstake(bytes32 _commitId) external {\r\n        require(\r\n            block.timestamp >= _stakeExpiry[_commitId][msg.sender],\r\n            \"desilo: You may not yet unstake.\"\r\n        );\r\n        require(\r\n            getStaked(_commitId, msg.sender) >= 0,\r\n            \"desilo: You have not yet staked.\"\r\n        );\r\n\r\n        uint256 stakedAmount = getStaked(_commitId, msg.sender);\r\n        uint256 threadID = _entityToThread[_commitId];\r\n        uint256 gscCount = _projects[threadID].groupCount;\r\n        uint256[] memory ids = new uint256[](gscCount);\r\n        uint256[] memory amounts = new uint256[](gscCount);\r\n\r\n        _stakedAmount[_commitId][msg.sender] -= stakedAmount;\r\n        _stakeExpiry[_commitId][msg.sender] = 0;\r\n\r\n        _scContract.safeTransferFrom(\r\n            address(this),\r\n            msg.sender,\r\n            scID,\r\n            stakedAmount,\r\n            \"\"\r\n        );\r\n        _scContract.mint(\r\n            msg.sender,\r\n            scID,\r\n            ABDKMath64x64.mulu(scYield, stakedAmount),\r\n            \"\"\r\n        );\r\n\r\n        uint256 count = 0;\r\n        for (uint256 i = 0; i < _groupCount; i++) {\r\n            if (_affiliatedGroups[threadID][i]) {\r\n                ids[count] = i;\r\n                amounts[count] = ABDKMath64x64.mulu(_groups[i].yield, stakedAmount);\r\n                count++;\r\n            }\r\n        }\r\n        _scContract.mintBatch(msg.sender, ids, amounts, \"\");\r\n        emit Unstaked(msg.sender, _commitId, \"\"); \r\n    }\r\n\r\n    function registerProject(string memory uri) external {\r\n        _projects[_projectCount].uri = uri;\r\n        _projects[_projectCount].owner = msg.sender; \r\n        _projects[_projectCount].createdAt = block.timestamp; \r\n        emit ProjectCreated(_projectCount, msg.sender);\r\n        _projectCount++; \r\n    }\r\n\r\n    function onERC1155Received(\r\n        address operator,\r\n        address from,\r\n        uint256 id,\r\n        uint256 value,\r\n        bytes calldata data\r\n    ) external pure override returns (bytes4) {\r\n        return this.onERC1155Received.selector;\r\n    }\r\n\r\n    function onERC1155BatchReceived(\r\n        address operator,\r\n        address from,\r\n        uint256[] calldata ids,\r\n        uint256[] calldata values,\r\n        bytes calldata data\r\n    ) external pure override returns (bytes4) {\r\n        return this.onERC1155BatchReceived.selector;\r\n    }\r\n}\r\n",
  "sourcePath": "C:/Users/Kuan/Documents/GitHub/desilo/contracts/desilo.sol",
  "compiler": {
    "name": "solc",
    "version": "0.8.3+commit.8d00100c.Emscripten.clang"
  },
  "schemaVersion": "3.3.4",
  "updatedAt": "2021-08-12T22:49:24.867Z",
  "networkType": "ethereum",
  "devdoc": {
    "kind": "dev",
    "methods": {
      "onERC1155BatchReceived(address,address,uint256[],uint256[],bytes)": {
        "details": "Handles the receipt of a multiple ERC1155 token types. This function is called at the end of a `safeBatchTransferFrom` after the balances have been updated. To accept the transfer(s), this must return `bytes4(keccak256(\"onERC1155BatchReceived(address,address,uint256[],uint256[],bytes)\"))` (i.e. 0xbc197c81, or its own function selector).",
        "params": {
          "data": "Additional data with no specified format",
          "from": "The address which previously owned the token",
          "ids": "An array containing ids of each token being transferred (order and length must match values array)",
          "operator": "The address which initiated the batch transfer (i.e. msg.sender)",
          "values": "An array containing amounts of each token being transferred (order and length must match ids array)"
        },
        "returns": {
          "_0": "`bytes4(keccak256(\"onERC1155BatchReceived(address,address,uint256[],uint256[],bytes)\"))` if transfer is allowed"
        }
      },
      "onERC1155Received(address,address,uint256,uint256,bytes)": {
        "details": "Handles the receipt of a single ERC1155 token type. This function is called at the end of a `safeTransferFrom` after the balance has been updated. To accept the transfer, this must return `bytes4(keccak256(\"onERC1155Received(address,address,uint256,uint256,bytes)\"))` (i.e. 0xf23a6e61, or its own function selector).",
        "params": {
          "data": "Additional data with no specified format",
          "from": "The address which previously owned the token",
          "id": "The ID of the token being transferred",
          "operator": "The address which initiated the transfer (i.e. msg.sender)",
          "value": "The amount of tokens being transferred"
        },
        "returns": {
          "_0": "`bytes4(keccak256(\"onERC1155Received(address,address,uint256,uint256,bytes)\"))` if transfer is allowed"
        }
      },
      "supportsInterface(bytes4)": {
        "details": "See {IERC165-supportsInterface}."
      }
    },
    "version": 1
  },
  "userdoc": {
    "kind": "user",
    "methods": {},
    "version": 1
  }
}