{
  "contractName": "desilo",
  "abi": [
    {
      "inputs": [
        {
          "internalType": "uint256",
          "name": "_scStakeAmount",
          "type": "uint256"
        },
        {
          "internalType": "int128",
          "name": "_scYield",
          "type": "int128"
        },
        {
          "internalType": "uint256",
          "name": "_groupCreationSCAmount",
          "type": "uint256"
        },
        {
          "internalType": "uint256",
          "name": "_scSeedAmount",
          "type": "uint256"
        },
        {
          "internalType": "uint256",
          "name": "_scStakePeriod",
          "type": "uint256"
        }
      ],
      "stateMutability": "nonpayable",
      "type": "constructor"
    },
    {
      "anonymous": false,
      "inputs": [
        {
          "indexed": false,
          "internalType": "uint256",
          "name": "id",
          "type": "uint256"
        },
        {
          "indexed": false,
          "internalType": "address",
          "name": "creator",
          "type": "address"
        }
      ],
      "name": "GroupCreated",
      "type": "event"
    },
    {
      "anonymous": false,
      "inputs": [
        {
          "indexed": false,
          "internalType": "uint256",
          "name": "projectId",
          "type": "uint256"
        },
        {
          "indexed": false,
          "internalType": "uint256",
          "name": "groupId",
          "type": "uint256"
        }
      ],
      "name": "ProjectAccepted",
      "type": "event"
    },
    {
      "anonymous": false,
      "inputs": [
        {
          "indexed": false,
          "internalType": "uint256",
          "name": "id",
          "type": "uint256"
        },
        {
          "indexed": false,
          "internalType": "address",
          "name": "creator",
          "type": "address"
        }
      ],
      "name": "ProjectCreated",
      "type": "event"
    },
    {
      "anonymous": false,
      "inputs": [
        {
          "indexed": false,
          "internalType": "address",
          "name": "staker",
          "type": "address"
        },
        {
          "indexed": false,
          "internalType": "uint256",
          "name": "commitId",
          "type": "uint256"
        }
      ],
      "name": "Staked",
      "type": "event"
    },
    {
      "anonymous": false,
      "inputs": [
        {
          "indexed": false,
          "internalType": "address",
          "name": "staker",
          "type": "address"
        },
        {
          "indexed": false,
          "internalType": "uint256",
          "name": "commitId",
          "type": "uint256"
        }
      ],
      "name": "Unstaked",
      "type": "event"
    },
    {
      "inputs": [],
      "name": "_groupCount",
      "outputs": [
        {
          "internalType": "uint256",
          "name": "",
          "type": "uint256"
        }
      ],
      "stateMutability": "view",
      "type": "function",
      "constant": true
    },
    {
      "inputs": [
        {
          "internalType": "uint256",
          "name": "",
          "type": "uint256"
        }
      ],
      "name": "_groups",
      "outputs": [
        {
          "internalType": "string",
          "name": "uri",
          "type": "string"
        },
        {
          "internalType": "int128",
          "name": "yield",
          "type": "int128"
        },
        {
          "internalType": "uint256",
          "name": "acceptance",
          "type": "uint256"
        }
      ],
      "stateMutability": "view",
      "type": "function",
      "constant": true
    },
    {
      "inputs": [],
      "name": "groupCreationSCAmount",
      "outputs": [
        {
          "internalType": "uint256",
          "name": "",
          "type": "uint256"
        }
      ],
      "stateMutability": "view",
      "type": "function",
      "constant": true
    },
    {
      "inputs": [
        {
          "internalType": "address",
          "name": "",
          "type": "address"
        }
      ],
      "name": "registered",
      "outputs": [
        {
          "internalType": "bool",
          "name": "",
          "type": "bool"
        }
      ],
      "stateMutability": "view",
      "type": "function",
      "constant": true
    },
    {
      "inputs": [],
      "name": "scID",
      "outputs": [
        {
          "internalType": "uint256",
          "name": "",
          "type": "uint256"
        }
      ],
      "stateMutability": "view",
      "type": "function",
      "constant": true
    },
    {
      "inputs": [],
      "name": "scSeedAmount",
      "outputs": [
        {
          "internalType": "uint256",
          "name": "",
          "type": "uint256"
        }
      ],
      "stateMutability": "view",
      "type": "function",
      "constant": true
    },
    {
      "inputs": [],
      "name": "scStakeAmount",
      "outputs": [
        {
          "internalType": "uint256",
          "name": "",
          "type": "uint256"
        }
      ],
      "stateMutability": "view",
      "type": "function",
      "constant": true
    },
    {
      "inputs": [],
      "name": "scStakePeriod",
      "outputs": [
        {
          "internalType": "uint256",
          "name": "",
          "type": "uint256"
        }
      ],
      "stateMutability": "view",
      "type": "function",
      "constant": true
    },
    {
      "inputs": [],
      "name": "scYield",
      "outputs": [
        {
          "internalType": "int128",
          "name": "",
          "type": "int128"
        }
      ],
      "stateMutability": "view",
      "type": "function",
      "constant": true
    },
    {
      "inputs": [
        {
          "internalType": "bytes4",
          "name": "interfaceId",
          "type": "bytes4"
        }
      ],
      "name": "supportsInterface",
      "outputs": [
        {
          "internalType": "bool",
          "name": "",
          "type": "bool"
        }
      ],
      "stateMutability": "view",
      "type": "function",
      "constant": true
    },
    {
      "inputs": [
        {
          "internalType": "uint256",
          "name": "_initialSupply",
          "type": "uint256"
        },
        {
          "internalType": "string",
          "name": "_uri",
          "type": "string"
        },
        {
          "internalType": "int128",
          "name": "_yield",
          "type": "int128"
        },
        {
          "internalType": "uint256",
          "name": "_acceptance",
          "type": "uint256"
        }
      ],
      "name": "createGroup",
      "outputs": [],
      "stateMutability": "nonpayable",
      "type": "function"
    },
    {
      "inputs": [
        {
          "internalType": "uint256",
          "name": "index",
          "type": "uint256"
        }
      ],
      "name": "getGroup",
      "outputs": [
        {
          "components": [
            {
              "internalType": "string",
              "name": "uri",
              "type": "string"
            },
            {
              "internalType": "int128",
              "name": "yield",
              "type": "int128"
            },
            {
              "internalType": "uint256",
              "name": "acceptance",
              "type": "uint256"
            }
          ],
          "internalType": "struct desilo.Group",
          "name": "",
          "type": "tuple"
        }
      ],
      "stateMutability": "view",
      "type": "function",
      "constant": true
    },
    {
      "inputs": [],
      "name": "getAllGroups",
      "outputs": [
        {
          "components": [
            {
              "internalType": "string",
              "name": "uri",
              "type": "string"
            },
            {
              "internalType": "int128",
              "name": "yield",
              "type": "int128"
            },
            {
              "internalType": "uint256",
              "name": "acceptance",
              "type": "uint256"
            }
          ],
          "internalType": "struct desilo.Group[]",
          "name": "",
          "type": "tuple[]"
        }
      ],
      "stateMutability": "view",
      "type": "function",
      "constant": true
    },
    {
      "inputs": [
        {
          "internalType": "uint256",
          "name": "projectID",
          "type": "uint256"
        }
      ],
      "name": "getAffiliations",
      "outputs": [
        {
          "internalType": "bool[]",
          "name": "",
          "type": "bool[]"
        }
      ],
      "stateMutability": "view",
      "type": "function",
      "constant": true
    },
    {
      "inputs": [],
      "name": "getAllAffiliations",
      "outputs": [
        {
          "internalType": "bool[][]",
          "name": "",
          "type": "bool[][]"
        }
      ],
      "stateMutability": "view",
      "type": "function",
      "constant": true
    },
    {
      "inputs": [
        {
          "internalType": "uint256",
          "name": "index",
          "type": "uint256"
        }
      ],
      "name": "getProject",
      "outputs": [
        {
          "components": [
            {
              "internalType": "string",
              "name": "uri",
              "type": "string"
            },
            {
              "internalType": "uint256",
              "name": "createdAt",
              "type": "uint256"
            },
            {
              "internalType": "uint256",
              "name": "groupCount",
              "type": "uint256"
            },
            {
              "internalType": "address",
              "name": "owner",
              "type": "address"
            }
          ],
          "internalType": "struct desilo.Project",
          "name": "",
          "type": "tuple"
        }
      ],
      "stateMutability": "view",
      "type": "function",
      "constant": true
    },
    {
      "inputs": [],
      "name": "getAllProjects",
      "outputs": [
        {
          "components": [
            {
              "internalType": "string",
              "name": "uri",
              "type": "string"
            },
            {
              "internalType": "uint256",
              "name": "createdAt",
              "type": "uint256"
            },
            {
              "internalType": "uint256",
              "name": "groupCount",
              "type": "uint256"
            },
            {
              "internalType": "address",
              "name": "owner",
              "type": "address"
            }
          ],
          "internalType": "struct desilo.Project[]",
          "name": "",
          "type": "tuple[]"
        }
      ],
      "stateMutability": "view",
      "type": "function",
      "constant": true
    },
    {
      "inputs": [
        {
          "internalType": "uint256",
          "name": "projectID",
          "type": "uint256"
        },
        {
          "internalType": "uint256",
          "name": "groupID",
          "type": "uint256"
        },
        {
          "internalType": "uint256",
          "name": "amount",
          "type": "uint256"
        }
      ],
      "name": "vouchProject",
      "outputs": [],
      "stateMutability": "nonpayable",
      "type": "function"
    },
    {
      "inputs": [
        {
          "internalType": "contract dSocialCredits",
          "name": "_sc",
          "type": "address"
        }
      ],
      "name": "setSC",
      "outputs": [],
      "stateMutability": "nonpayable",
      "type": "function"
    },
    {
      "inputs": [],
      "name": "seedSC",
      "outputs": [],
      "stateMutability": "nonpayable",
      "type": "function"
    },
    {
      "inputs": [
        {
          "internalType": "uint256",
          "name": "_commitId",
          "type": "uint256"
        },
        {
          "internalType": "address",
          "name": "_addr",
          "type": "address"
        }
      ],
      "name": "getStaked",
      "outputs": [
        {
          "internalType": "uint256",
          "name": "",
          "type": "uint256"
        }
      ],
      "stateMutability": "view",
      "type": "function",
      "constant": true
    },
    {
      "inputs": [
        {
          "internalType": "uint256",
          "name": "_commitId",
          "type": "uint256"
        }
      ],
      "name": "stake",
      "outputs": [],
      "stateMutability": "nonpayable",
      "type": "function"
    },
    {
      "inputs": [
        {
          "internalType": "uint256",
          "name": "_commitId",
          "type": "uint256"
        }
      ],
      "name": "unstake",
      "outputs": [],
      "stateMutability": "nonpayable",
      "type": "function"
    },
    {
      "inputs": [
        {
          "internalType": "string",
          "name": "uri",
          "type": "string"
        }
      ],
      "name": "registerProject",
      "outputs": [],
      "stateMutability": "nonpayable",
      "type": "function"
    },
    {
      "inputs": [
        {
          "internalType": "address",
          "name": "operator",
          "type": "address"
        },
        {
          "internalType": "address",
          "name": "from",
          "type": "address"
        },
        {
          "internalType": "uint256",
          "name": "id",
          "type": "uint256"
        },
        {
          "internalType": "uint256",
          "name": "value",
          "type": "uint256"
        },
        {
          "internalType": "bytes",
          "name": "data",
          "type": "bytes"
        }
      ],
      "name": "onERC1155Received",
      "outputs": [
        {
          "internalType": "bytes4",
          "name": "",
          "type": "bytes4"
        }
      ],
      "stateMutability": "pure",
      "type": "function",
      "constant": true
    },
    {
      "inputs": [
        {
          "internalType": "address",
          "name": "operator",
          "type": "address"
        },
        {
          "internalType": "address",
          "name": "from",
          "type": "address"
        },
        {
          "internalType": "uint256[]",
          "name": "ids",
          "type": "uint256[]"
        },
        {
          "internalType": "uint256[]",
          "name": "values",
          "type": "uint256[]"
        },
        {
          "internalType": "bytes",
          "name": "data",
          "type": "bytes"
        }
      ],
      "name": "onERC1155BatchReceived",
      "outputs": [
        {
          "internalType": "bytes4",
          "name": "",
          "type": "bytes4"
        }
      ],
      "stateMutability": "pure",
      "type": "function",
      "constant": true
    }
  ],
  "bytecode": "0x60806040527fffffffffffffffffffffffffffffffffffffffffffffffffffffffffffffffff600755600060105560006011553480156200003f57600080fd5b506040516200367538038062003675833981810160405281019062000065919062000137565b83600360006101000a8154816fffffffffffffffffffffffffffffffff0219169083600f0b6fffffffffffffffffffffffffffffffff1602179055508460018190555082600081905550816002819055508060048190555033600660006101000a81548173ffffffffffffffffffffffffffffffffffffffff021916908373ffffffffffffffffffffffffffffffffffffffff160217905550505050505062000204565b6000815190506200011a81620001d0565b92915050565b6000815190506200013181620001ea565b92915050565b600080600080600060a086880312156200015057600080fd5b6000620001608882890162000120565b9550506020620001738882890162000109565b9450506040620001868882890162000120565b9350506060620001998882890162000120565b9250506080620001ac8882890162000120565b9150509295509295909350565b600081600f0b9050919050565b6000819050919050565b620001db81620001b9565b8114620001e757600080fd5b50565b620001f581620001c6565b81146200020157600080fd5b50565b61346180620002146000396000f3fe608060405234801561001057600080fd5b506004361061018e5760003560e01c806380d03829116100de578063b2e9ed3d11610097578063d841212e11610071578063d841212e14610487578063ecb282de146104a5578063f0f3f2c8146104c3578063f23a6e61146104f35761018e565b8063b2e9ed3d1461040b578063bc197c8114610427578063ceb60654146104575761018e565b806380d038291461034b5780638d99727014610369578063907a4e1d14610385578063a5e80192146103a1578063a694fc3a146103bf578063b2dd5c07146103db5761018e565b806340531d5d1161014b57806365f5e7b61161012557806365f5e7b6146102af5780636b513d0c146102e157806372212ec7146102ff5780637b5399991461031b5761018e565b806340531d5d146102435780635859e0821461027357806358d2563c146102915761018e565b806301bed79c1461019357806301ffc9a7146101b15780631614047e146101e157806321cd3cae146101ff5780632e17de781461021d5780632f00810514610239575b600080fd5b61019b610523565b6040516101a89190612d3f565b60405180910390f35b6101cb60048036038101906101c69190612395565b610536565b6040516101d89190612d09565b60405180910390f35b6101e96105b0565b6040516101f69190612e3c565b60405180910390f35b6102076105b6565b6040516102149190612cc5565b60405180910390f35b61023760048036038101906102329190612428565b61077b565b005b610241610d72565b005b61025d60048036038101906102589190612451565b610eee565b60405161026a9190612e3c565b60405180910390f35b61027b610f49565b6040516102889190612e3c565b60405180910390f35b610299610f4f565b6040516102a69190612e3c565b60405180910390f35b6102c960048036038101906102c49190612428565b610f55565b6040516102d893929190612d5a565b60405180910390f35b6102e9611014565b6040516102f69190612c81565b60405180910390f35b610319600480360381019061031491906123e7565b611211565b005b61033560048036038101906103309190612428565b611308565b6040516103429190612ca3565b60405180910390f35b610353611426565b6040516103609190612ce7565b60405180910390f35b610383600480360381019061037e919061248d565b61162e565b005b61039f600480360381019061039a91906123be565b61184b565b005b6103a96118e9565b6040516103b69190612e3c565b60405180910390f35b6103d960048036038101906103d49190612428565b6118ef565b005b6103f560048036038101906103f0919061220e565b611a8d565b6040516104029190612d09565b60405180910390f35b61042560048036038101906104209190612508565b611aad565b005b610441600480360381019061043c9190612237565b611c36565b60405161044e9190612d24565b60405180910390f35b610471600480360381019061046c9190612428565b611c4e565b60405161047e9190612df8565b60405180910390f35b61048f611d34565b60405161049c9190612e3c565b60405180910390f35b6104ad611d3a565b6040516104ba9190612e3c565b60405180910390f35b6104dd60048036038101906104d89190612428565b611d40565b6040516104ea9190612e1a565b60405180910390f35b61050d60048036038101906105089190612303565b611e69565b60405161051a9190612d24565b60405180910390f35b600360009054906101000a9004600f0b81565b60007f4e2312e0000000000000000000000000000000000000000000000000000000007bffffffffffffffffffffffffffffffffffffffffffffffffffffffff1916827bffffffffffffffffffffffffffffffffffffffffffffffffffffffff191614806105a957506105a882611e7f565b5b9050919050565b60005481565b6060600060115467ffffffffffffffff8111156105fc577f4e487b7100000000000000000000000000000000000000000000000000000000600052604160045260246000fd5b60405190808252806020026020018201604052801561063557816020015b610622611fa4565b81526020019060019003908161061a5790505b50905060005b6011548110156107735760126000828152602001908152602001600020604051806060016040529081600082018054610673906131ca565b80601f016020809104026020016040519081016040528092919081815260200182805461069f906131ca565b80156106ec5780601f106106c1576101008083540402835291602001916106ec565b820191906000526020600020905b8154815290600101906020018083116106cf57829003601f168201915b505050505081526020016001820160009054906101000a9004600f0b600f0b600f0b8152602001600282015481525050828281518110610755577f4e487b7100000000000000000000000000000000000000000000000000000000600052603260045260246000fd5b6020026020010181905250808061076b9061322d565b91505061063b565b508091505090565b600a600082815260200190815260200160002060003373ffffffffffffffffffffffffffffffffffffffff1673ffffffffffffffffffffffffffffffffffffffff1681526020019081526020016000205442101561080e576040517f08c379a000000000000000000000000000000000000000000000000000000000815260040161080590612dd8565b60405180910390fd5b600061081a8233610eee565b101561085b576040517f08c379a000000000000000000000000000000000000000000000000000000000815260040161085290612db8565b60405180910390fd5b60006108678233610eee565b90506000600b60008481526020019081526020016000205490506000600f600083815260200190815260200160002060020154905060008167ffffffffffffffff8111156108de577f4e487b7100000000000000000000000000000000000000000000000000000000600052604160045260246000fd5b60405190808252806020026020018201604052801561090c5781602001602082028036833780820191505090505b50905060008267ffffffffffffffff811115610951577f4e487b7100000000000000000000000000000000000000000000000000000000600052604160045260246000fd5b60405190808252806020026020018201604052801561097f5781602001602082028036833780820191505090505b509050846009600088815260200190815260200160002060003373ffffffffffffffffffffffffffffffffffffffff1673ffffffffffffffffffffffffffffffffffffffff16815260200190815260200160002060008282546109e291906130c1565b925050819055506000600a600088815260200190815260200160002060003373ffffffffffffffffffffffffffffffffffffffff1673ffffffffffffffffffffffffffffffffffffffff16815260200190815260200160002081905550600560009054906101000a900473ffffffffffffffffffffffffffffffffffffffff1673ffffffffffffffffffffffffffffffffffffffff1663f242432a3033600754896040518563ffffffff1660e01b8152600401610aa29493929190612b27565b600060405180830381600087803b158015610abc57600080fd5b505af1158015610ad0573d6000803e3d6000fd5b50505050600560009054906101000a900473ffffffffffffffffffffffffffffffffffffffff1673ffffffffffffffffffffffffffffffffffffffff1663731133e933600754610b2f600360009054906101000a9004600f0b8a611ee9565b6040518463ffffffff1660e01b8152600401610b4d93929190612c37565b600060405180830381600087803b158015610b6757600080fd5b505af1158015610b7b573d6000803e3d6000fd5b505050506000805b601154811015610c9e57600d6000878152602001908152602001600020600082815260200190815260200160002060009054906101000a900460ff1615610c8b5780848381518110610bfe577f4e487b7100000000000000000000000000000000000000000000000000000000600052603260045260246000fd5b602002602001018181525050610c376012600083815260200190815260200160002060010160009054906101000a9004600f0b88611ee9565b838381518110610c70577f4e487b7100000000000000000000000000000000000000000000000000000000600052603260045260246000fd5b6020026020010181815250508180610c879061322d565b9250505b8080610c969061322d565b915050610b83565b50600560009054906101000a900473ffffffffffffffffffffffffffffffffffffffff1673ffffffffffffffffffffffffffffffffffffffff16631f7fdffa3385856040518463ffffffff1660e01b8152600401610cfe93929190612b7f565b600060405180830381600087803b158015610d1857600080fd5b505af1158015610d2c573d6000803e3d6000fd5b505050507f0f5bb82176feb1b5e747e28471aa92156a04d9f3ab9f45f28e2d704232b93f753388604051610d61929190612bd7565b60405180910390a150505050505050565b600860003373ffffffffffffffffffffffffffffffffffffffff1673ffffffffffffffffffffffffffffffffffffffff16815260200190815260200160002060009054906101000a900460ff1615610dff576040517f08c379a0000000000000000000000000000000000000000000000000000000008152600401610df690612d98565b60405180910390fd5b6001600860003373ffffffffffffffffffffffffffffffffffffffff1673ffffffffffffffffffffffffffffffffffffffff16815260200190815260200160002060006101000a81548160ff021916908315150217905550600560009054906101000a900473ffffffffffffffffffffffffffffffffffffffff1673ffffffffffffffffffffffffffffffffffffffff1663731133e9336007546002546040518463ffffffff1660e01b8152600401610eba93929190612c37565b600060405180830381600087803b158015610ed457600080fd5b505af1158015610ee8573d6000803e3d6000fd5b50505050565b60006009600084815260200190815260200160002060008373ffffffffffffffffffffffffffffffffffffffff1673ffffffffffffffffffffffffffffffffffffffff16815260200190815260200160002054905092915050565b60075481565b60115481565b6012602052806000526040600020600091509050806000018054610f78906131ca565b80601f0160208091040260200160405190810160405280929190818152602001828054610fa4906131ca565b8015610ff15780601f10610fc657610100808354040283529160200191610ff1565b820191906000526020600020905b815481529060010190602001808311610fd457829003601f168201915b5050505050908060010160009054906101000a9004600f0b908060020154905083565b6060600060105467ffffffffffffffff81111561105a577f4e487b7100000000000000000000000000000000000000000000000000000000600052604160045260246000fd5b60405190808252806020026020018201604052801561108d57816020015b60608152602001906001900390816110785790505b50905060005b60105481101561120957600060115467ffffffffffffffff8111156110e1577f4e487b7100000000000000000000000000000000000000000000000000000000600052604160045260246000fd5b60405190808252806020026020018201604052801561110f5781602001602082028036833780820191505090505b50905060005b6011548110156111af57600d6000848152602001908152602001600020600082815260200190815260200160002060009054906101000a900460ff1682828151811061118a577f4e487b7100000000000000000000000000000000000000000000000000000000600052603260045260246000fd5b60200260200101901515908115158152505080806111a79061322d565b915050611115565b50808383815181106111ea577f4e487b7100000000000000000000000000000000000000000000000000000000600052603260045260246000fd5b60200260200101819052505080806112019061322d565b915050611093565b508091505090565b80600f60006010548152602001908152602001600020600001908051906020019061123d929190611fc8565b5033600f6000601054815260200190815260200160002060030160006101000a81548173ffffffffffffffffffffffffffffffffffffffff021916908373ffffffffffffffffffffffffffffffffffffffff16021790555042600f60006010548152602001908152602001600020600101819055507f63c92f9505d420bff631cb9df33be952bdc11e2118da36a850b43e6bcc4ce4de601054336040516112e5929190612e57565b60405180910390a1601060008154809291906113009061322d565b919050555050565b6060600060115467ffffffffffffffff81111561134e577f4e487b7100000000000000000000000000000000000000000000000000000000600052604160045260246000fd5b60405190808252806020026020018201604052801561137c5781602001602082028036833780820191505090505b50905060005b60115481101561141c57600d6000858152602001908152602001600020600082815260200190815260200160002060009054906101000a900460ff168282815181106113f7577f4e487b7100000000000000000000000000000000000000000000000000000000600052603260045260246000fd5b60200260200101901515908115158152505080806114149061322d565b915050611382565b5080915050919050565b6060600060105467ffffffffffffffff81111561146c577f4e487b7100000000000000000000000000000000000000000000000000000000600052604160045260246000fd5b6040519080825280602002602001820160405280156114a557816020015b61149261204e565b81526020019060019003908161148a5790505b50905060005b60105481101561162657600f60008281526020019081526020016000206040518060800160405290816000820180546114e3906131ca565b80601f016020809104026020016040519081016040528092919081815260200182805461150f906131ca565b801561155c5780601f106115315761010080835404028352916020019161155c565b820191906000526020600020905b81548152906001019060200180831161153f57829003601f168201915b5050505050815260200160018201548152602001600282015481526020016003820160009054906101000a900473ffffffffffffffffffffffffffffffffffffffff1673ffffffffffffffffffffffffffffffffffffffff1673ffffffffffffffffffffffffffffffffffffffff1681525050828281518110611608577f4e487b7100000000000000000000000000000000000000000000000000000000600052603260045260246000fd5b6020026020010181905250808061161e9061322d565b9150506114ab565b508091505090565b600560009054906101000a900473ffffffffffffffffffffffffffffffffffffffff1673ffffffffffffffffffffffffffffffffffffffff1663f5298aca336007546000546040518463ffffffff1660e01b815260040161169193929190612c00565b600060405180830381600087803b1580156116ab57600080fd5b505af11580156116bf573d6000803e3d6000fd5b505050508260126000601154815260200190815260200160002060000190805190602001906116ef929190611fc8565b508160126000601154815260200190815260200160002060010160006101000a8154816fffffffffffffffffffffffffffffffff0219169083600f0b6fffffffffffffffffffffffffffffffff1602179055508060126000601154815260200190815260200160002060020181905550600560009054906101000a900473ffffffffffffffffffffffffffffffffffffffff1673ffffffffffffffffffffffffffffffffffffffff1663731133e933601154876040518463ffffffff1660e01b81526004016117c093929190612c37565b600060405180830381600087803b1580156117da57600080fd5b505af11580156117ee573d6000803e3d6000fd5b505050507f6958b51b54d963fa8eeeea5b61b83a9ad28f9ee9d5a2f1b8495e6866cb534bb160115433604051611825929190612e57565b60405180910390a1601160008154809291906118409061322d565b919050555050505050565b600660009054906101000a900473ffffffffffffffffffffffffffffffffffffffff1673ffffffffffffffffffffffffffffffffffffffff163373ffffffffffffffffffffffffffffffffffffffff16146118a557600080fd5b80600560006101000a81548173ffffffffffffffffffffffffffffffffffffffff021916908373ffffffffffffffffffffffffffffffffffffffff16021790555050565b60015481565b600560009054906101000a900473ffffffffffffffffffffffffffffffffffffffff1673ffffffffffffffffffffffffffffffffffffffff1663f242432a33306007546001546040518563ffffffff1660e01b81526004016119549493929190612b27565b600060405180830381600087803b15801561196e57600080fd5b505af1158015611982573d6000803e3d6000fd5b505050506001546009600083815260200190815260200160002060003373ffffffffffffffffffffffffffffffffffffffff1673ffffffffffffffffffffffffffffffffffffffff16815260200190815260200160002060008282546119e8919061306b565b92505081905550600454426119fd919061306b565b600a600083815260200190815260200160002060003373ffffffffffffffffffffffffffffffffffffffff1673ffffffffffffffffffffffffffffffffffffffff168152602001908152602001600020819055507f9e71bc8eea02a63969f509818f2dafb9254532904319f9dbda79b67bd34a5f3d3382604051611a82929190612bd7565b60405180910390a150565b60086020528060005260406000206000915054906101000a900460ff1681565b600560009054906101000a900473ffffffffffffffffffffffffffffffffffffffff1673ffffffffffffffffffffffffffffffffffffffff1663f5298aca3384846040518463ffffffff1660e01b8152600401611b0c93929190612c00565b600060405180830381600087803b158015611b2657600080fd5b505af1158015611b3a573d6000803e3d6000fd5b5050505080600e600085815260200190815260200160002060008481526020019081526020016000206000828254611b72919061306b565b925050819055506012600083815260200190815260200160002060020154600e600085815260200190815260200160002060008481526020019081526020016000205410611c31576001600d6000858152602001908152602001600020600084815260200190815260200160002060006101000a81548160ff0219169083151502179055507f29692491058132b418905fa7c07d37d72a2355cf7f1d20d22a134414aa6ddf4c8383604051611c28929190612e80565b60405180910390a15b505050565b600063bc197c8160e01b905098975050505050505050565b611c56611fa4565b60126000838152602001908152602001600020604051806060016040529081600082018054611c84906131ca565b80601f0160208091040260200160405190810160405280929190818152602001828054611cb0906131ca565b8015611cfd5780601f10611cd257610100808354040283529160200191611cfd565b820191906000526020600020905b815481529060010190602001808311611ce057829003601f168201915b505050505081526020016001820160009054906101000a9004600f0b600f0b600f0b81526020016002820154815250509050919050565b60025481565b60045481565b611d4861204e565b600f6000838152602001908152602001600020604051806080016040529081600082018054611d76906131ca565b80601f0160208091040260200160405190810160405280929190818152602001828054611da2906131ca565b8015611def5780601f10611dc457610100808354040283529160200191611def565b820191906000526020600020905b815481529060010190602001808311611dd257829003601f168201915b5050505050815260200160018201548152602001600282015481526020016003820160009054906101000a900473ffffffffffffffffffffffffffffffffffffffff1673ffffffffffffffffffffffffffffffffffffffff1673ffffffffffffffffffffffffffffffffffffffff16815250509050919050565b600063f23a6e6160e01b90509695505050505050565b60007f01ffc9a7000000000000000000000000000000000000000000000000000000007bffffffffffffffffffffffffffffffffffffffffffffffffffffffff1916827bffffffffffffffffffffffffffffffffffffffffffffffffffffffff1916149050919050565b600080821415611efc5760009050611f9e565b600083600f0b1215611f0d57600080fd5b600060406fffffffffffffffffffffffffffffffff841685600f0b02901c90506000608084901c85600f0b02905077ffffffffffffffffffffffffffffffffffffffffffffffff811115611f6057600080fd5b604081901b9050817fffffffffffffffffffffffffffffffffffffffffffffffffffffffffffffffff03811115611f9657600080fd5b818101925050505b92915050565b6040518060600160405280606081526020016000600f0b8152602001600081525090565b828054611fd4906131ca565b90600052602060002090601f016020900481019282611ff6576000855561203d565b82601f1061200f57805160ff191683800117855561203d565b8280016001018555821561203d579182015b8281111561203c578251825591602001919060010190612021565b5b50905061204a919061208c565b5090565b6040518060800160405280606081526020016000815260200160008152602001600073ffffffffffffffffffffffffffffffffffffffff1681525090565b5b808211156120a557600081600090555060010161208d565b5090565b60006120bc6120b784612ece565b612ea9565b9050828152602081018484840111156120d457600080fd5b6120df848285613188565b509392505050565b6000813590506120f6816133b8565b92915050565b60008083601f84011261210e57600080fd5b8235905067ffffffffffffffff81111561212757600080fd5b60208301915083602082028301111561213f57600080fd5b9250929050565b600081359050612155816133cf565b92915050565b60008083601f84011261216d57600080fd5b8235905067ffffffffffffffff81111561218657600080fd5b60208301915083600182028301111561219e57600080fd5b9250929050565b6000813590506121b4816133e6565b92915050565b6000813590506121c9816133fd565b92915050565b600082601f8301126121e057600080fd5b81356121f08482602086016120a9565b91505092915050565b60008135905061220881613414565b92915050565b60006020828403121561222057600080fd5b600061222e848285016120e7565b91505092915050565b60008060008060008060008060a0898b03121561225357600080fd5b60006122618b828c016120e7565b98505060206122728b828c016120e7565b975050604089013567ffffffffffffffff81111561228f57600080fd5b61229b8b828c016120fc565b9650965050606089013567ffffffffffffffff8111156122ba57600080fd5b6122c68b828c016120fc565b9450945050608089013567ffffffffffffffff8111156122e557600080fd5b6122f18b828c0161215b565b92509250509295985092959890939650565b60008060008060008060a0878903121561231c57600080fd5b600061232a89828a016120e7565b965050602061233b89828a016120e7565b955050604061234c89828a016121f9565b945050606061235d89828a016121f9565b935050608087013567ffffffffffffffff81111561237a57600080fd5b61238689828a0161215b565b92509250509295509295509295565b6000602082840312156123a757600080fd5b60006123b584828501612146565b91505092915050565b6000602082840312156123d057600080fd5b60006123de848285016121a5565b91505092915050565b6000602082840312156123f957600080fd5b600082013567ffffffffffffffff81111561241357600080fd5b61241f848285016121cf565b91505092915050565b60006020828403121561243a57600080fd5b6000612448848285016121f9565b91505092915050565b6000806040838503121561246457600080fd5b6000612472858286016121f9565b9250506020612483858286016120e7565b9150509250929050565b600080600080608085870312156124a357600080fd5b60006124b1878288016121f9565b945050602085013567ffffffffffffffff8111156124ce57600080fd5b6124da878288016121cf565b93505060406124eb878288016121ba565b92505060606124fc878288016121f9565b91505092959194509250565b60008060006060848603121561251d57600080fd5b600061252b868287016121f9565b935050602061253c868287016121f9565b925050604061254d868287016121f9565b9150509250925092565b60006125638383612656565b905092915050565b6000612577838361285a565b60208301905092915050565b600061258f83836129a3565b905092915050565b60006125a38383612a43565b905092915050565b60006125b78383612b09565b60208301905092915050565b6125cc816130f5565b82525050565b6125db816130f5565b82525050565b60006125ec82612f4f565b6125f68185612fd2565b93508360208202850161260885612eff565b8060005b8581101561264457848403895281516126258582612557565b945061263083612f91565b925060208a0199505060018101905061260c565b50829750879550505050505092915050565b600061266182612f5a565b61266b8185612fe3565b935061267683612f0f565b8060005b838110156126a757815161268e888261256b565b975061269983612f9e565b92505060018101905061267a565b5085935050505092915050565b60006126bf82612f5a565b6126c98185612ff4565b93506126d483612f0f565b8060005b838110156127055781516126ec888261256b565b97506126f783612f9e565b9250506001810190506126d8565b5085935050505092915050565b600061271d82612f65565b6127278185613005565b93508360208202850161273985612f1f565b8060005b8581101561277557848403895281516127568582612583565b945061276183612fab565b925060208a0199505060018101905061273d565b50829750879550505050505092915050565b600061279282612f70565b61279c8185613016565b9350836020820285016127ae85612f2f565b8060005b858110156127ea57848403895281516127cb8582612597565b94506127d683612fb8565b925060208a019950506001810190506127b2565b50829750879550505050505092915050565b600061280782612f7b565b6128118185613027565b935061281c83612f3f565b8060005b8381101561284d57815161283488826125ab565b975061283f83612fc5565b925050600181019050612820565b5085935050505092915050565b61286381613107565b82525050565b61287281613107565b82525050565b61288181613113565b82525050565b61289081613151565b82525050565b61289f81613151565b82525050565b60006128b082612f86565b6128ba8185613049565b93506128ca818560208601613197565b6128d381613303565b840191505092915050565b60006128e982612f86565b6128f3818561305a565b9350612903818560208601613197565b61290c81613303565b840191505092915050565b600061292460328361305a565b915061292f82613314565b604082019050919050565b600061294760208361305a565b915061295282613363565b602082019050919050565b600061296a600083613038565b91506129758261338c565b600082019050919050565b600061298d60208361305a565b91506129988261338f565b602082019050919050565b600060608301600083015184820360008601526129c082826128a5565b91505060208301516129d56020860182612887565b5060408301516129e86040860182612b09565b508091505092915050565b60006060830160008301518482036000860152612a1082826128a5565b9150506020830151612a256020860182612887565b506040830151612a386040860182612b09565b508091505092915050565b60006080830160008301518482036000860152612a6082826128a5565b9150506020830151612a756020860182612b09565b506040830151612a886040860182612b09565b506060830151612a9b60608601826125c3565b508091505092915050565b60006080830160008301518482036000860152612ac382826128a5565b9150506020830151612ad86020860182612b09565b506040830151612aeb6040860182612b09565b506060830151612afe60608601826125c3565b508091505092915050565b612b128161317e565b82525050565b612b218161317e565b82525050565b600060a082019050612b3c60008301876125d2565b612b4960208301866125d2565b612b566040830185612b18565b612b636060830184612b18565b8181036080830152612b748161295d565b905095945050505050565b6000608082019050612b9460008301866125d2565b8181036020830152612ba681856127fc565b90508181036040830152612bba81846127fc565b90508181036060830152612bcd8161295d565b9050949350505050565b6000604082019050612bec60008301856125d2565b612bf96020830184612b18565b9392505050565b6000606082019050612c1560008301866125d2565b612c226020830185612b18565b612c2f6040830184612b18565b949350505050565b6000608082019050612c4c60008301866125d2565b612c596020830185612b18565b612c666040830184612b18565b8181036060830152612c778161295d565b9050949350505050565b60006020820190508181036000830152612c9b81846125e1565b905092915050565b60006020820190508181036000830152612cbd81846126b4565b905092915050565b60006020820190508181036000830152612cdf8184612712565b905092915050565b60006020820190508181036000830152612d018184612787565b905092915050565b6000602082019050612d1e6000830184612869565b92915050565b6000602082019050612d396000830184612878565b92915050565b6000602082019050612d546000830184612896565b92915050565b60006060820190508181036000830152612d7481866128de565b9050612d836020830185612896565b612d906040830184612b18565b949350505050565b60006020820190508181036000830152612db181612917565b9050919050565b60006020820190508181036000830152612dd18161293a565b9050919050565b60006020820190508181036000830152612df181612980565b9050919050565b60006020820190508181036000830152612e1281846129f3565b905092915050565b60006020820190508181036000830152612e348184612aa6565b905092915050565b6000602082019050612e516000830184612b18565b92915050565b6000604082019050612e6c6000830185612b18565b612e7960208301846125d2565b9392505050565b6000604082019050612e956000830185612b18565b612ea26020830184612b18565b9392505050565b6000612eb3612ec4565b9050612ebf82826131fc565b919050565b6000604051905090565b600067ffffffffffffffff821115612ee957612ee86132d4565b5b612ef282613303565b9050602081019050919050565b6000819050602082019050919050565b6000819050602082019050919050565b6000819050602082019050919050565b6000819050602082019050919050565b6000819050602082019050919050565b600081519050919050565b600081519050919050565b600081519050919050565b600081519050919050565b600081519050919050565b600081519050919050565b6000602082019050919050565b6000602082019050919050565b6000602082019050919050565b6000602082019050919050565b6000602082019050919050565b600082825260208201905092915050565b600082825260208201905092915050565b600082825260208201905092915050565b600082825260208201905092915050565b600082825260208201905092915050565b600082825260208201905092915050565b600082825260208201905092915050565b600082825260208201905092915050565b600082825260208201905092915050565b60006130768261317e565b91506130818361317e565b9250827fffffffffffffffffffffffffffffffffffffffffffffffffffffffffffffffff038211156130b6576130b5613276565b5b828201905092915050565b60006130cc8261317e565b91506130d78361317e565b9250828210156130ea576130e9613276565b5b828203905092915050565b60006131008261315e565b9050919050565b60008115159050919050565b60007fffffffff0000000000000000000000000000000000000000000000000000000082169050919050565b600061314a826130f5565b9050919050565b600081600f0b9050919050565b600073ffffffffffffffffffffffffffffffffffffffff82169050919050565b6000819050919050565b82818337600083830152505050565b60005b838110156131b557808201518184015260208101905061319a565b838111156131c4576000848401525b50505050565b600060028204905060018216806131e257607f821691505b602082108114156131f6576131f56132a5565b5b50919050565b61320582613303565b810181811067ffffffffffffffff82111715613224576132236132d4565b5b80604052505050565b60006132388261317e565b91507fffffffffffffffffffffffffffffffffffffffffffffffffffffffffffffffff82141561326b5761326a613276565b5b600182019050919050565b7f4e487b7100000000000000000000000000000000000000000000000000000000600052601160045260246000fd5b7f4e487b7100000000000000000000000000000000000000000000000000000000600052602260045260246000fd5b7f4e487b7100000000000000000000000000000000000000000000000000000000600052604160045260246000fd5b6000601f19601f8301169050919050565b7f43616e6e6f742063616c6c20746869732066756e6374696f6e2c20757365722060008201527f616c726561647920726567697374657265640000000000000000000000000000602082015250565b7f646573696c6f3a20596f752068617665206e6f7420796574207374616b65642e600082015250565b50565b7f646573696c6f3a20596f75206d6179206e6f742079657420756e7374616b652e600082015250565b6133c1816130f5565b81146133cc57600080fd5b50565b6133d881613113565b81146133e357600080fd5b50565b6133ef8161313f565b81146133fa57600080fd5b50565b61340681613151565b811461341157600080fd5b50565b61341d8161317e565b811461342857600080fd5b5056fea26469706673582212204f79132cf20a47e81bb3d75e79ef99b301e0a5009e729f92448f5f8cf2062f9d64736f6c63430008030033",
  "immutableReferences": {},
  "source": "pragma solidity ^0.8.3;\r\n\r\nimport \"./dSocialCredits.sol\";\r\nimport \"./library/ABDKMath64x64.sol\";\r\nimport \"@openzeppelin/contracts/token/ERC1155/utils/ERC1155Receiver.sol\";\r\n\r\ncontract desilo is ERC1155Receiver {\r\n\r\n    struct Group {\r\n        string uri;\r\n        int128 yield;\r\n        uint256 acceptance;\r\n    }\r\n\r\n    struct Project {\r\n        string uri; \r\n        uint256 createdAt; \r\n        uint256 groupCount;\r\n        address owner; \r\n    }\r\n\r\n    uint256 public groupCreationSCAmount;\r\n    uint256 public scStakeAmount;\r\n    uint256 public scSeedAmount;\r\n    int128 public scYield;\r\n    uint256 public scStakePeriod;\r\n\r\n    dSocialCredits _scContract;\r\n    address _owner;\r\n    uint256 public scID = 2**256 - 1;\r\n    mapping(address => bool) public registered;\r\n\r\n    // mapping(entityID)\r\n    mapping(uint256 => mapping(address => uint256)) _stakedAmount;\r\n    mapping(uint256 => mapping(address => uint256)) _stakeExpiry;\r\n    mapping(uint256 => uint256) _entityToThread;\r\n    mapping(uint256 => string) _entityURI;\r\n\r\n    // mapping(groupID)\r\n    mapping (uint256 => mapping(uint256 => bool)) _affiliatedGroups;\r\n    mapping (uint256 => mapping(uint256 => uint256)) _affiliatedGroupsVouched;\r\n\r\n\r\n    // mapping(projectID)\r\n    mapping(uint256 => Project) _projects; \r\n    uint256 _projectCount = 0; \r\n\r\n    // mapping(groupID => fixed128x128)\r\n    uint256 public _groupCount = 0;\r\n    mapping(uint256 => Group) public _groups; // Group's \r\n\r\n\r\n    event GroupCreated(uint256 id, address creator); \r\n    event ProjectCreated(uint256 id, address creator); \r\n    event ProjectAccepted(uint256 projectId, uint256 groupId); \r\n    event Staked(address staker, uint256 commitId); \r\n    event Unstaked(address staker, uint256 commitId); \r\n\r\n\r\n    constructor(\r\n        uint256 _scStakeAmount,\r\n        int128 _scYield,\r\n        uint256 _groupCreationSCAmount,\r\n        uint256 _scSeedAmount,\r\n        uint256 _scStakePeriod\r\n    ) IERC1155Receiver() {\r\n        scYield = _scYield;\r\n        scStakeAmount = _scStakeAmount;\r\n        groupCreationSCAmount = _groupCreationSCAmount;\r\n        scSeedAmount = _scSeedAmount;\r\n        scStakePeriod = _scStakePeriod;\r\n        _owner = msg.sender;\r\n    }\r\n\r\n    function createGroup(uint256 _initialSupply, string memory _uri, int128 _yield, uint256 _acceptance) external {\r\n        _scContract.burn(msg.sender, scID, groupCreationSCAmount);\r\n        _groups[_groupCount].uri = _uri;\r\n        _groups[_groupCount].yield = _yield;\r\n        _groups[_groupCount].acceptance = _acceptance;\r\n\r\n        _scContract.mint(msg.sender, _groupCount, _initialSupply, \"\");\r\n        emit GroupCreated(_groupCount, msg.sender);\r\n        _groupCount++;\r\n    }\r\n\r\n    function getGroup(uint256 index) external view returns(Group memory) {\r\n        return _groups[index]; \r\n    }\r\n\r\n    function getAllGroups() external view returns(Group[] memory) {\r\n        Group[] memory groups = new Group[](_groupCount);\r\n        for (uint i = 0; i < _groupCount; i++) groups[i] = _groups[i];\r\n        return groups; \r\n    }\r\n\r\n    function getAffiliations(uint256 projectID) external view returns(bool[] memory) {\r\n        bool[] memory affiliations = new bool[](_groupCount);\r\n        for (uint j = 0; j < _groupCount; j++) affiliations[j] = _affiliatedGroups[projectID][j];\r\n        return affiliations; \r\n    }\r\n\r\n    function getAllAffiliations() external view returns(bool[][] memory) {\r\n        bool[][] memory projects = new bool[][](_projectCount);\r\n        for (uint i = 0; i < _projectCount; i++) {\r\n            bool[] memory affiliations = new bool[](_groupCount);\r\n            for (uint j = 0; j < _groupCount; j++) affiliations[j] = _affiliatedGroups[i][j];\r\n            projects[i] = affiliations;\r\n        }\r\n        return projects; \r\n    }\r\n\r\n    function getProject(uint256 index) external view returns(Project memory) {\r\n        return _projects[index]; \r\n    }\r\n\r\n    function getAllProjects() external view returns(Project[] memory) {\r\n        Project[] memory projects = new Project[](_projectCount);\r\n        for (uint i = 0; i < _projectCount; i++) projects[i] = _projects[i];\r\n        return projects; \r\n    }\r\n\r\n    function vouchProject(uint256 projectID, uint256 groupID, uint256 amount) external {\r\n        _scContract.burn(msg.sender, groupID, amount);\r\n        _affiliatedGroupsVouched[projectID][groupID] += amount; \r\n        if (_affiliatedGroupsVouched[projectID][groupID] >= _groups[groupID].acceptance) {\r\n            _affiliatedGroups[projectID][groupID] = true; \r\n            emit ProjectAccepted(projectID, groupID);\r\n        }\r\n    }\r\n\r\n    function setSC(dSocialCredits _sc) external {\r\n        require(msg.sender == _owner);\r\n        _scContract = _sc;\r\n    }\r\n\r\n    function seedSC() external {\r\n        require(\r\n            !registered[msg.sender],\r\n            \"Cannot call this function, user already registered\"\r\n        );\r\n        registered[msg.sender] = true;\r\n        _scContract.mint(msg.sender, scID, scSeedAmount, \"\");\r\n    }\r\n\r\n    function getStaked(uint256 _commitId, address _addr)\r\n        public\r\n        view\r\n        returns (uint256)\r\n    {\r\n        return _stakedAmount[_commitId][_addr];\r\n    }\r\n\r\n    function stake(uint256 _commitId) external {\r\n        _scContract.safeTransferFrom(\r\n            msg.sender,\r\n            address(this),\r\n            scID,\r\n            scStakeAmount,\r\n            \"\"\r\n        );\r\n        _stakedAmount[_commitId][msg.sender] += scStakeAmount;\r\n        _stakeExpiry[_commitId][msg.sender] = block.timestamp + scStakePeriod;\r\n        emit Staked(msg.sender, _commitId); \r\n    }\r\n\r\n    function unstake(uint256 _commitId) external {\r\n        require(\r\n            block.timestamp >= _stakeExpiry[_commitId][msg.sender],\r\n            \"desilo: You may not yet unstake.\"\r\n        );\r\n        require(\r\n            getStaked(_commitId, msg.sender) >= 0,\r\n            \"desilo: You have not yet staked.\"\r\n        );\r\n\r\n        uint256 stakedAmount = getStaked(_commitId, msg.sender);\r\n        uint256 threadID = _entityToThread[_commitId];\r\n        uint256 gscCount = _projects[threadID].groupCount;\r\n        uint256[] memory ids = new uint256[](gscCount);\r\n        uint256[] memory amounts = new uint256[](gscCount);\r\n\r\n        _stakedAmount[_commitId][msg.sender] -= stakedAmount;\r\n        _stakeExpiry[_commitId][msg.sender] = 0;\r\n\r\n        _scContract.safeTransferFrom(\r\n            address(this),\r\n            msg.sender,\r\n            scID,\r\n            stakedAmount,\r\n            \"\"\r\n        );\r\n        _scContract.mint(\r\n            msg.sender,\r\n            scID,\r\n            ABDKMath64x64.mulu(scYield, stakedAmount),\r\n            \"\"\r\n        );\r\n\r\n        uint256 count = 0;\r\n        for (uint256 i = 0; i < _groupCount; i++) {\r\n            if (_affiliatedGroups[threadID][i]) {\r\n                ids[count] = i;\r\n                amounts[count] = ABDKMath64x64.mulu(_groups[i].yield, stakedAmount);\r\n                count++;\r\n            }\r\n        }\r\n        _scContract.mintBatch(msg.sender, ids, amounts, \"\");\r\n        emit Unstaked(msg.sender, _commitId); \r\n    }\r\n\r\n    function registerProject(string memory uri) external {\r\n        _projects[_projectCount].uri = uri;\r\n        _projects[_projectCount].owner = msg.sender; \r\n        _projects[_projectCount].createdAt = block.timestamp; \r\n        emit ProjectCreated(_projectCount, msg.sender);\r\n        _projectCount++; \r\n    }\r\n\r\n    function onERC1155Received(\r\n        address operator,\r\n        address from,\r\n        uint256 id,\r\n        uint256 value,\r\n        bytes calldata data\r\n    ) external pure override returns (bytes4) {\r\n        return this.onERC1155Received.selector;\r\n    }\r\n\r\n    function onERC1155BatchReceived(\r\n        address operator,\r\n        address from,\r\n        uint256[] calldata ids,\r\n        uint256[] calldata values,\r\n        bytes calldata data\r\n    ) external pure override returns (bytes4) {\r\n        return this.onERC1155BatchReceived.selector;\r\n    }\r\n}\r\n",
  "sourcePath": "C:/Users/Kuan/Documents/GitHub/desilo/contracts/desilo.sol",
  "compiler": {
    "name": "solc",
    "version": "0.8.3+commit.8d00100c.Emscripten.clang"
  },
  "schemaVersion": "3.3.4",
  "updatedAt": "2021-08-11T05:17:00.107Z",
  "networkType": "ethereum",
  "devdoc": {
    "kind": "dev",
    "methods": {
      "onERC1155BatchReceived(address,address,uint256[],uint256[],bytes)": {
        "details": "Handles the receipt of a multiple ERC1155 token types. This function is called at the end of a `safeBatchTransferFrom` after the balances have been updated. To accept the transfer(s), this must return `bytes4(keccak256(\"onERC1155BatchReceived(address,address,uint256[],uint256[],bytes)\"))` (i.e. 0xbc197c81, or its own function selector).",
        "params": {
          "data": "Additional data with no specified format",
          "from": "The address which previously owned the token",
          "ids": "An array containing ids of each token being transferred (order and length must match values array)",
          "operator": "The address which initiated the batch transfer (i.e. msg.sender)",
          "values": "An array containing amounts of each token being transferred (order and length must match ids array)"
        },
        "returns": {
          "_0": "`bytes4(keccak256(\"onERC1155BatchReceived(address,address,uint256[],uint256[],bytes)\"))` if transfer is allowed"
        }
      },
      "onERC1155Received(address,address,uint256,uint256,bytes)": {
        "details": "Handles the receipt of a single ERC1155 token type. This function is called at the end of a `safeTransferFrom` after the balance has been updated. To accept the transfer, this must return `bytes4(keccak256(\"onERC1155Received(address,address,uint256,uint256,bytes)\"))` (i.e. 0xf23a6e61, or its own function selector).",
        "params": {
          "data": "Additional data with no specified format",
          "from": "The address which previously owned the token",
          "id": "The ID of the token being transferred",
          "operator": "The address which initiated the transfer (i.e. msg.sender)",
          "value": "The amount of tokens being transferred"
        },
        "returns": {
          "_0": "`bytes4(keccak256(\"onERC1155Received(address,address,uint256,uint256,bytes)\"))` if transfer is allowed"
        }
      },
      "supportsInterface(bytes4)": {
        "details": "See {IERC165-supportsInterface}."
      }
    },
    "version": 1
  },
  "userdoc": {
    "kind": "user",
    "methods": {},
    "version": 1
  }
}