{
  "contractName": "desilo",
  "abi": [
    {
      "inputs": [
        {
          "internalType": "uint256",
          "name": "_scStakeAmount",
          "type": "uint256"
        },
        {
          "internalType": "int128",
          "name": "_scYield",
          "type": "int128"
        },
        {
          "internalType": "uint256",
          "name": "_groupCreationSCAmount",
          "type": "uint256"
        },
        {
          "internalType": "uint256",
          "name": "_scSeedAmount",
          "type": "uint256"
        },
        {
          "internalType": "uint256",
          "name": "_scStakePeriod",
          "type": "uint256"
        }
      ],
      "stateMutability": "nonpayable",
      "type": "constructor"
    },
    {
      "anonymous": false,
      "inputs": [
        {
          "indexed": false,
          "internalType": "uint256",
          "name": "projectId",
          "type": "uint256"
        },
        {
          "indexed": false,
          "internalType": "bytes32",
          "name": "entityId",
          "type": "bytes32"
        }
      ],
      "name": "EntityAdded",
      "type": "event"
    },
    {
      "anonymous": false,
      "inputs": [
        {
          "indexed": false,
          "internalType": "uint256",
          "name": "id",
          "type": "uint256"
        },
        {
          "indexed": false,
          "internalType": "address",
          "name": "creator",
          "type": "address"
        }
      ],
      "name": "GroupCreated",
      "type": "event"
    },
    {
      "anonymous": false,
      "inputs": [
        {
          "indexed": false,
          "internalType": "uint256",
          "name": "projectId",
          "type": "uint256"
        },
        {
          "indexed": false,
          "internalType": "uint256",
          "name": "groupId",
          "type": "uint256"
        }
      ],
      "name": "ProjectAccepted",
      "type": "event"
    },
    {
      "anonymous": false,
      "inputs": [
        {
          "indexed": false,
          "internalType": "uint256",
          "name": "id",
          "type": "uint256"
        },
        {
          "indexed": false,
          "internalType": "address",
          "name": "creator",
          "type": "address"
        }
      ],
      "name": "ProjectCreated",
      "type": "event"
    },
    {
      "anonymous": false,
      "inputs": [
        {
          "indexed": false,
          "internalType": "address",
          "name": "staker",
          "type": "address"
        },
        {
          "indexed": false,
          "internalType": "bytes32",
          "name": "commitId",
          "type": "bytes32"
        },
        {
          "indexed": false,
          "internalType": "uint256",
          "name": "index",
          "type": "uint256"
        }
      ],
      "name": "Staked",
      "type": "event"
    },
    {
      "anonymous": false,
      "inputs": [
        {
          "indexed": false,
          "internalType": "address",
          "name": "staker",
          "type": "address"
        },
        {
          "indexed": false,
          "internalType": "bytes32",
          "name": "commitId",
          "type": "bytes32"
        },
        {
          "indexed": false,
          "internalType": "uint256",
          "name": "index",
          "type": "uint256"
        }
      ],
      "name": "Unstaked",
      "type": "event"
    },
    {
      "inputs": [
        {
          "internalType": "uint256",
          "name": "",
          "type": "uint256"
        }
      ],
      "name": "_groups",
      "outputs": [
        {
          "internalType": "string",
          "name": "uri",
          "type": "string"
        },
        {
          "internalType": "int128",
          "name": "yield",
          "type": "int128"
        },
        {
          "internalType": "uint256",
          "name": "acceptance",
          "type": "uint256"
        }
      ],
      "stateMutability": "view",
      "type": "function",
      "constant": true
    },
    {
      "inputs": [],
      "name": "groupCreationSCAmount",
      "outputs": [
        {
          "internalType": "uint256",
          "name": "",
          "type": "uint256"
        }
      ],
      "stateMutability": "view",
      "type": "function",
      "constant": true
    },
    {
      "inputs": [
        {
          "internalType": "address",
          "name": "",
          "type": "address"
        }
      ],
      "name": "registered",
      "outputs": [
        {
          "internalType": "bool",
          "name": "",
          "type": "bool"
        }
      ],
      "stateMutability": "view",
      "type": "function",
      "constant": true
    },
    {
      "inputs": [],
      "name": "scID",
      "outputs": [
        {
          "internalType": "uint256",
          "name": "",
          "type": "uint256"
        }
      ],
      "stateMutability": "view",
      "type": "function",
      "constant": true
    },
    {
      "inputs": [],
      "name": "scSeedAmount",
      "outputs": [
        {
          "internalType": "uint256",
          "name": "",
          "type": "uint256"
        }
      ],
      "stateMutability": "view",
      "type": "function",
      "constant": true
    },
    {
      "inputs": [],
      "name": "scStakeAmount",
      "outputs": [
        {
          "internalType": "uint256",
          "name": "",
          "type": "uint256"
        }
      ],
      "stateMutability": "view",
      "type": "function",
      "constant": true
    },
    {
      "inputs": [],
      "name": "scStakePeriod",
      "outputs": [
        {
          "internalType": "uint256",
          "name": "",
          "type": "uint256"
        }
      ],
      "stateMutability": "view",
      "type": "function",
      "constant": true
    },
    {
      "inputs": [],
      "name": "scYield",
      "outputs": [
        {
          "internalType": "int128",
          "name": "",
          "type": "int128"
        }
      ],
      "stateMutability": "view",
      "type": "function",
      "constant": true
    },
    {
      "inputs": [
        {
          "internalType": "bytes4",
          "name": "interfaceId",
          "type": "bytes4"
        }
      ],
      "name": "supportsInterface",
      "outputs": [
        {
          "internalType": "bool",
          "name": "",
          "type": "bool"
        }
      ],
      "stateMutability": "view",
      "type": "function",
      "constant": true
    },
    {
      "inputs": [
        {
          "internalType": "uint256",
          "name": "_initialSupply",
          "type": "uint256"
        },
        {
          "internalType": "string",
          "name": "_uri",
          "type": "string"
        },
        {
          "internalType": "int128",
          "name": "_yield",
          "type": "int128"
        },
        {
          "internalType": "uint256",
          "name": "_acceptance",
          "type": "uint256"
        }
      ],
      "name": "createGroup",
      "outputs": [],
      "stateMutability": "nonpayable",
      "type": "function"
    },
    {
      "inputs": [
        {
          "internalType": "uint256",
          "name": "index",
          "type": "uint256"
        }
      ],
      "name": "getGroup",
      "outputs": [
        {
          "components": [
            {
              "internalType": "string",
              "name": "uri",
              "type": "string"
            },
            {
              "internalType": "int128",
              "name": "yield",
              "type": "int128"
            },
            {
              "internalType": "uint256",
              "name": "acceptance",
              "type": "uint256"
            }
          ],
          "internalType": "struct desilo.Group",
          "name": "",
          "type": "tuple"
        }
      ],
      "stateMutability": "view",
      "type": "function",
      "constant": true
    },
    {
      "inputs": [],
      "name": "getAllGroups",
      "outputs": [
        {
          "components": [
            {
              "internalType": "string",
              "name": "uri",
              "type": "string"
            },
            {
              "internalType": "int128",
              "name": "yield",
              "type": "int128"
            },
            {
              "internalType": "uint256",
              "name": "acceptance",
              "type": "uint256"
            }
          ],
          "internalType": "struct desilo.Group[]",
          "name": "",
          "type": "tuple[]"
        }
      ],
      "stateMutability": "view",
      "type": "function",
      "constant": true
    },
    {
      "inputs": [
        {
          "internalType": "uint256",
          "name": "projectID",
          "type": "uint256"
        }
      ],
      "name": "getAffiliations",
      "outputs": [
        {
          "internalType": "bool[]",
          "name": "",
          "type": "bool[]"
        }
      ],
      "stateMutability": "view",
      "type": "function",
      "constant": true
    },
    {
      "inputs": [],
      "name": "getAllAffiliations",
      "outputs": [
        {
          "internalType": "bool[][]",
          "name": "",
          "type": "bool[][]"
        }
      ],
      "stateMutability": "view",
      "type": "function",
      "constant": true
    },
    {
      "inputs": [],
      "name": "getAllVouched",
      "outputs": [
        {
          "internalType": "uint256[][]",
          "name": "",
          "type": "uint256[][]"
        }
      ],
      "stateMutability": "view",
      "type": "function",
      "constant": true
    },
    {
      "inputs": [
        {
          "internalType": "bytes32",
          "name": "entityID",
          "type": "bytes32"
        }
      ],
      "name": "getAllReviews",
      "outputs": [
        {
          "components": [
            {
              "internalType": "string",
              "name": "uri",
              "type": "string"
            },
            {
              "internalType": "uint256",
              "name": "publishedAt",
              "type": "uint256"
            },
            {
              "internalType": "address",
              "name": "reviewer",
              "type": "address"
            },
            {
              "internalType": "uint256",
              "name": "stakeAmount",
              "type": "uint256"
            }
          ],
          "internalType": "struct desilo.Review[]",
          "name": "",
          "type": "tuple[]"
        }
      ],
      "stateMutability": "view",
      "type": "function",
      "constant": true
    },
    {
      "inputs": [
        {
          "internalType": "uint256",
          "name": "index",
          "type": "uint256"
        }
      ],
      "name": "getProject",
      "outputs": [
        {
          "components": [
            {
              "internalType": "string",
              "name": "uri",
              "type": "string"
            },
            {
              "internalType": "uint256",
              "name": "createdAt",
              "type": "uint256"
            },
            {
              "internalType": "uint256",
              "name": "groupCount",
              "type": "uint256"
            },
            {
              "internalType": "address",
              "name": "owner",
              "type": "address"
            }
          ],
          "internalType": "struct desilo.Project",
          "name": "",
          "type": "tuple"
        }
      ],
      "stateMutability": "view",
      "type": "function",
      "constant": true
    },
    {
      "inputs": [],
      "name": "getAllProjects",
      "outputs": [
        {
          "components": [
            {
              "internalType": "string",
              "name": "uri",
              "type": "string"
            },
            {
              "internalType": "uint256",
              "name": "createdAt",
              "type": "uint256"
            },
            {
              "internalType": "uint256",
              "name": "groupCount",
              "type": "uint256"
            },
            {
              "internalType": "address",
              "name": "owner",
              "type": "address"
            }
          ],
          "internalType": "struct desilo.Project[]",
          "name": "",
          "type": "tuple[]"
        }
      ],
      "stateMutability": "view",
      "type": "function",
      "constant": true
    },
    {
      "inputs": [
        {
          "internalType": "uint256",
          "name": "projectID",
          "type": "uint256"
        }
      ],
      "name": "getProjectEntities",
      "outputs": [
        {
          "internalType": "bytes32[]",
          "name": "entityIDs",
          "type": "bytes32[]"
        },
        {
          "internalType": "string[]",
          "name": "entityURIs",
          "type": "string[]"
        }
      ],
      "stateMutability": "view",
      "type": "function",
      "constant": true
    },
    {
      "inputs": [
        {
          "internalType": "uint256",
          "name": "projectID",
          "type": "uint256"
        },
        {
          "internalType": "string",
          "name": "entityURI",
          "type": "string"
        }
      ],
      "name": "addProjectEntity",
      "outputs": [],
      "stateMutability": "nonpayable",
      "type": "function"
    },
    {
      "inputs": [
        {
          "internalType": "uint256",
          "name": "projectID",
          "type": "uint256"
        },
        {
          "internalType": "uint256",
          "name": "groupID",
          "type": "uint256"
        },
        {
          "internalType": "uint256",
          "name": "amount",
          "type": "uint256"
        }
      ],
      "name": "vouchProject",
      "outputs": [],
      "stateMutability": "nonpayable",
      "type": "function"
    },
    {
      "inputs": [
        {
          "internalType": "contract dSocialCredits",
          "name": "_sc",
          "type": "address"
        }
      ],
      "name": "setSC",
      "outputs": [],
      "stateMutability": "nonpayable",
      "type": "function"
    },
    {
      "inputs": [],
      "name": "seedSC",
      "outputs": [],
      "stateMutability": "nonpayable",
      "type": "function"
    },
    {
      "inputs": [
        {
          "internalType": "bytes32",
          "name": "_commitId",
          "type": "bytes32"
        },
        {
          "internalType": "string",
          "name": "uri",
          "type": "string"
        }
      ],
      "name": "stake",
      "outputs": [],
      "stateMutability": "nonpayable",
      "type": "function"
    },
    {
      "inputs": [
        {
          "internalType": "bytes32",
          "name": "_commitId",
          "type": "bytes32"
        },
        {
          "internalType": "uint256",
          "name": "index",
          "type": "uint256"
        },
        {
          "internalType": "bool",
          "name": "_isFraudulent",
          "type": "bool"
        }
      ],
      "name": "toggleFraudulent",
      "outputs": [],
      "stateMutability": "nonpayable",
      "type": "function"
    },
    {
      "inputs": [
        {
          "internalType": "bytes32",
          "name": "_commitId",
          "type": "bytes32"
        },
        {
          "internalType": "uint256",
          "name": "index",
          "type": "uint256"
        }
      ],
      "name": "isFraudulent",
      "outputs": [
        {
          "internalType": "bool",
          "name": "",
          "type": "bool"
        }
      ],
      "stateMutability": "view",
      "type": "function",
      "constant": true
    },
    {
      "inputs": [
        {
          "internalType": "bytes32",
          "name": "_commitId",
          "type": "bytes32"
        },
        {
          "internalType": "uint256",
          "name": "index",
          "type": "uint256"
        }
      ],
      "name": "canUnstake",
      "outputs": [
        {
          "internalType": "enum desilo.StakingState",
          "name": "",
          "type": "uint8"
        }
      ],
      "stateMutability": "view",
      "type": "function",
      "constant": true
    },
    {
      "inputs": [
        {
          "internalType": "bytes32",
          "name": "_commitId",
          "type": "bytes32"
        },
        {
          "internalType": "uint256",
          "name": "index",
          "type": "uint256"
        }
      ],
      "name": "unstake",
      "outputs": [],
      "stateMutability": "nonpayable",
      "type": "function"
    },
    {
      "inputs": [
        {
          "internalType": "string",
          "name": "uri",
          "type": "string"
        }
      ],
      "name": "registerProject",
      "outputs": [],
      "stateMutability": "nonpayable",
      "type": "function"
    },
    {
      "inputs": [
        {
          "internalType": "address",
          "name": "operator",
          "type": "address"
        },
        {
          "internalType": "address",
          "name": "from",
          "type": "address"
        },
        {
          "internalType": "uint256",
          "name": "id",
          "type": "uint256"
        },
        {
          "internalType": "uint256",
          "name": "value",
          "type": "uint256"
        },
        {
          "internalType": "bytes",
          "name": "data",
          "type": "bytes"
        }
      ],
      "name": "onERC1155Received",
      "outputs": [
        {
          "internalType": "bytes4",
          "name": "",
          "type": "bytes4"
        }
      ],
      "stateMutability": "pure",
      "type": "function",
      "constant": true
    },
    {
      "inputs": [
        {
          "internalType": "address",
          "name": "operator",
          "type": "address"
        },
        {
          "internalType": "address",
          "name": "from",
          "type": "address"
        },
        {
          "internalType": "uint256[]",
          "name": "ids",
          "type": "uint256[]"
        },
        {
          "internalType": "uint256[]",
          "name": "values",
          "type": "uint256[]"
        },
        {
          "internalType": "bytes",
          "name": "data",
          "type": "bytes"
        }
      ],
      "name": "onERC1155BatchReceived",
      "outputs": [
        {
          "internalType": "bytes4",
          "name": "",
          "type": "bytes4"
        }
      ],
      "stateMutability": "pure",
      "type": "function",
      "constant": true
    }
  ],
  "bytecode": "0x60806040527fffffffffffffffffffffffffffffffffffffffffffffffffffffffffffffffff600755600060115560006012553480156200003f57600080fd5b506040516200493b3803806200493b833981810160405281019062000065919062000137565b83600360006101000a8154816fffffffffffffffffffffffffffffffff0219169083600f0b6fffffffffffffffffffffffffffffffff1602179055508460018190555082600081905550816002819055508060048190555033600660006101000a81548173ffffffffffffffffffffffffffffffffffffffff021916908373ffffffffffffffffffffffffffffffffffffffff160217905550505050505062000204565b6000815190506200011a81620001d0565b92915050565b6000815190506200013181620001ea565b92915050565b600080600080600060a086880312156200015057600080fd5b6000620001608882890162000120565b9550506020620001738882890162000109565b9450506040620001868882890162000120565b9350506060620001998882890162000120565b9250506080620001ac8882890162000120565b9150509295509295909350565b600081600f0b9050919050565b6000819050919050565b620001db81620001b9565b8114620001e757600080fd5b50565b620001f581620001c6565b81146200020157600080fd5b50565b61472780620002146000396000f3fe608060405234801561001057600080fd5b50600436106101e55760003560e01c80637b5399991161010f578063bc197c81116100a2578063ecb282de11610071578063ecb282de146105a9578063f0f3f2c8146105c7578063f23a6e61146105f7578063ff0213a214610627576101e5565b8063bc197c81146104fb578063ceb606541461052b578063d841212e1461055b578063ea7c7d8614610579576101e5565b8063907a4e1d116100de578063907a4e1d14610475578063a5e8019214610491578063b2dd5c07146104af578063b2e9ed3d146104df576101e5565b80637b539999146103ed57806380d038291461041d5780638a0605a21461043b5780638d99727014610459576101e5565b806321cd3cae1161018757806365f5e7b61161015657806365f5e7b6146103655780636b513d0c1461039757806371622975146103b557806372212ec7146103d1576101e5565b806321cd3cae146103035780632f0081051461032157806349107fbb1461032b5780635859e08214610347576101e5565b80631614047e116101c35780631614047e1461026857806316ae261d14610286578063176926e0146102a25780631fd7288c146102d2576101e5565b806301bed79c146101ea57806301ffc9a7146102085780630fb0202414610238575b600080fd5b6101f2610643565b6040516101ff9190613e66565b60405180910390f35b610222600480360381019061021d9190613066565b610656565b60405161022f9190613e15565b60405180910390f35b610252600480360381019061024d9190612fdb565b6106d0565b60405161025f9190613e15565b60405180910390f35b61027061070c565b60405161027d9190613f43565b60405180910390f35b6102a0600480360381019061029b9190612fdb565b610712565b005b6102bc60048036038101906102b79190612fdb565b610ce0565b6040516102c99190613e4b565b60405180910390f35b6102ec60048036038101906102e791906130f9565b610de6565b6040516102fa929190613d78565b60405180910390f35b61030b6110d0565b6040516103189190613daf565b60405180910390f35b610329611295565b005b61034560048036038101906103409190613122565b611411565b005b61034f61150f565b60405161035c9190613f43565b60405180910390f35b61037f600480360381019061037a91906130f9565b611515565b60405161038e93929190613e81565b60405180910390f35b61039f6115d4565b6040516103ac9190613d12565b60405180910390f35b6103cf60048036038101906103ca9190612f87565b6117d1565b005b6103eb60048036038101906103e691906130b8565b6119be565b005b610407600480360381019061040291906130f9565b611ab5565b6040516104149190613d56565b60405180910390f35b610425611bd3565b6040516104329190613dd1565b60405180910390f35b610443611ddb565b6040516104509190613d34565b60405180910390f35b610473600480360381019061046e9190613176565b611fc5565b005b61048f600480360381019061048a919061308f565b6121e2565b005b610499612280565b6040516104a69190613f43565b60405180910390f35b6104c960048036038101906104c49190612dd7565b612286565b6040516104d69190613e15565b60405180910390f35b6104f960048036038101906104f491906131f1565b6122a6565b005b61051560048036038101906105109190612e00565b61245d565b6040516105229190613e30565b60405180910390f35b610545600480360381019061054091906130f9565b612475565b6040516105529190613eff565b60405180910390f35b61056361255b565b6040516105709190613f43565b60405180910390f35b610593600480360381019061058e9190612f5e565b612561565b6040516105a09190613df3565b60405180910390f35b6105b16127d9565b6040516105be9190613f43565b60405180910390f35b6105e160048036038101906105dc91906130f9565b6127df565b6040516105ee9190613f21565b60405180910390f35b610611600480360381019061060c9190612ecc565b612908565b60405161061e9190613e30565b60405180910390f35b610641600480360381019061063c9190613017565b61291e565b005b600360009054906101000a9004600f0b81565b60007f4e2312e0000000000000000000000000000000000000000000000000000000007bffffffffffffffffffffffffffffffffffffffffffffffffffffffff1916827bffffffffffffffffffffffffffffffffffffffffffffffffffffffff191614806106c957506106c8826129e0565b5b9050919050565b6000600c6000848152602001908152602001600020600083815260200190815260200160002060009054906101000a900460ff16905092915050565b60005481565b6001600281111561074c577f4e487b7100000000000000000000000000000000000000000000000000000000600052602160045260246000fd5b6107568383610ce0565b600281111561078e577f4e487b7100000000000000000000000000000000000000000000000000000000600052602160045260246000fd5b146107ce576040517f08c379a00000000000000000000000000000000000000000000000000000000081526004016107c590613edf565b60405180910390fd5b600060096000848152602001908152602001600020828154811061081b577f4e487b7100000000000000000000000000000000000000000000000000000000600052603260045260246000fd5b90600052602060002090600402016003015490506000600a60008581526020019081526020016000205490506000600f600083815260200190815260200160002060020154905060008167ffffffffffffffff8111156108a4577f4e487b7100000000000000000000000000000000000000000000000000000000600052604160045260246000fd5b6040519080825280602002602001820160405280156108d25781602001602082028036833780820191505090505b50905060008267ffffffffffffffff811115610917577f4e487b7100000000000000000000000000000000000000000000000000000000600052604160045260246000fd5b6040519080825280602002602001820160405280156109455781602001602082028036833780820191505090505b5090506000600960008981526020019081526020016000208781548110610995577f4e487b7100000000000000000000000000000000000000000000000000000000600052603260045260246000fd5b906000526020600020906004020160030181905550600560009054906101000a900473ffffffffffffffffffffffffffffffffffffffff1673ffffffffffffffffffffffffffffffffffffffff1663f242432a3033600754896040518563ffffffff1660e01b8152600401610a0d9493929190613baa565b600060405180830381600087803b158015610a2757600080fd5b505af1158015610a3b573d6000803e3d6000fd5b50505050600560009054906101000a900473ffffffffffffffffffffffffffffffffffffffff1673ffffffffffffffffffffffffffffffffffffffff1663731133e933600754610a9a600360009054906101000a9004600f0b8a612a4a565b6040518463ffffffff1660e01b8152600401610ab893929190613cc8565b600060405180830381600087803b158015610ad257600080fd5b505af1158015610ae6573d6000803e3d6000fd5b505050506000805b601254811015610c0957600d6000878152602001908152602001600020600082815260200190815260200160002060009054906101000a900460ff1615610bf65780848381518110610b69577f4e487b7100000000000000000000000000000000000000000000000000000000600052603260045260246000fd5b602002602001018181525050610ba26013600083815260200190815260200160002060010160009054906101000a9004600f0b88612a4a565b838381518110610bdb577f4e487b7100000000000000000000000000000000000000000000000000000000600052603260045260246000fd5b6020026020010181815250508180610bf2906144a1565b9250505b8080610c01906144a1565b915050610aee565b50600560009054906101000a900473ffffffffffffffffffffffffffffffffffffffff1673ffffffffffffffffffffffffffffffffffffffff16631f7fdffa3385856040518463ffffffff1660e01b8152600401610c6993929190613c02565b600060405180830381600087803b158015610c8357600080fd5b505af1158015610c97573d6000803e3d6000fd5b505050507f2774090e627869eaafcd1e79e291786f7d2bcc2f62467b75effa5739ac1df914338989604051610cce93929190613c5a565b60405180910390a15050505050505050565b6000610cec83836106d0565b80610d5f5750600454600960008581526020019081526020016000208381548110610d40577f4e487b7100000000000000000000000000000000000000000000000000000000600052603260045260246000fd5b906000526020600020906004020160010154610d5c91906142b0565b42105b15610d6d5760009050610de0565b6000600960008581526020019081526020016000208381548110610dba577f4e487b7100000000000000000000000000000000000000000000000000000000600052603260045260246000fd5b9060005260206000209060040201600301541115610ddb5760019050610de0565b600290505b92915050565b606080601060008481526020019081526020016000205467ffffffffffffffff811115610e3c577f4e487b7100000000000000000000000000000000000000000000000000000000600052604160045260246000fd5b604051908082528060200260200182016040528015610e6f57816020015b6060815260200190600190039081610e5a5790505b509050601060008481526020019081526020016000205467ffffffffffffffff811115610ec5577f4e487b7100000000000000000000000000000000000000000000000000000000600052604160045260246000fd5b604051908082528060200260200182016040528015610ef35781602001602082028036833780820191505090505b50915060005b60106000858152602001908152602001600020548110156110ca57600f600085815260200190815260200160002060000181604051602001610f3c929190613b82565b60405160208183030381529060405280519060200120838281518110610f8b577f4e487b7100000000000000000000000000000000000000000000000000000000600052603260045260246000fd5b602002602001018181525050600b6000848381518110610fd4577f4e487b7100000000000000000000000000000000000000000000000000000000600052603260045260246000fd5b602002602001015181526020019081526020016000208054610ff59061443e565b80601f01602080910402602001604051908101604052809291908181526020018280546110219061443e565b801561106e5780601f106110435761010080835404028352916020019161106e565b820191906000526020600020905b81548152906001019060200180831161105157829003601f168201915b50505050508282815181106110ac577f4e487b7100000000000000000000000000000000000000000000000000000000600052603260045260246000fd5b602002602001018190525080806110c2906144a1565b915050610ef9565b50915091565b6060600060125467ffffffffffffffff811115611116577f4e487b7100000000000000000000000000000000000000000000000000000000600052604160045260246000fd5b60405190808252806020026020018201604052801561114f57816020015b61113c612b05565b8152602001906001900390816111345790505b50905060005b60125481101561128d576013600082815260200190815260200160002060405180606001604052908160008201805461118d9061443e565b80601f01602080910402602001604051908101604052809291908181526020018280546111b99061443e565b80156112065780601f106111db57610100808354040283529160200191611206565b820191906000526020600020905b8154815290600101906020018083116111e957829003601f168201915b505050505081526020016001820160009054906101000a9004600f0b600f0b600f0b815260200160028201548152505082828151811061126f577f4e487b7100000000000000000000000000000000000000000000000000000000600052603260045260246000fd5b60200260200101819052508080611285906144a1565b915050611155565b508091505090565b600860003373ffffffffffffffffffffffffffffffffffffffff1673ffffffffffffffffffffffffffffffffffffffff16815260200190815260200160002060009054906101000a900460ff1615611322576040517f08c379a000000000000000000000000000000000000000000000000000000000815260040161131990613ebf565b60405180910390fd5b6001600860003373ffffffffffffffffffffffffffffffffffffffff1673ffffffffffffffffffffffffffffffffffffffff16815260200190815260200160002060006101000a81548160ff021916908315150217905550600560009054906101000a900473ffffffffffffffffffffffffffffffffffffffff1673ffffffffffffffffffffffffffffffffffffffff1663731133e9336007546002546040518463ffffffff1660e01b81526004016113dd93929190613cc8565b600060405180830381600087803b1580156113f757600080fd5b505af115801561140b573d6000803e3d6000fd5b50505050565b6000600f6000848152602001908152602001600020600001601060008581526020019081526020016000205460405160200161144e929190613b82565b60405160208183030381529060405280519060200120905082600a60008381526020019081526020016000208190555081600b600083815260200190815260200160002090805190602001906114a5929190612b29565b5060016010600085815260200190815260200160002060008282546114ca91906142b0565b925050819055507f805e1e03450a6d1d6d01b8952c45eb42c266813f218230d69feb44df0875d4758382604051611502929190613f87565b60405180910390a1505050565b60075481565b60136020528060005260406000206000915090508060000180546115389061443e565b80601f01602080910402602001604051908101604052809291908181526020018280546115649061443e565b80156115b15780601f10611586576101008083540402835291602001916115b1565b820191906000526020600020905b81548152906001019060200180831161159457829003601f168201915b5050505050908060010160009054906101000a9004600f0b908060020154905083565b6060600060115467ffffffffffffffff81111561161a577f4e487b7100000000000000000000000000000000000000000000000000000000600052604160045260246000fd5b60405190808252806020026020018201604052801561164d57816020015b60608152602001906001900390816116385790505b50905060005b6011548110156117c957600060125467ffffffffffffffff8111156116a1577f4e487b7100000000000000000000000000000000000000000000000000000000600052604160045260246000fd5b6040519080825280602002602001820160405280156116cf5781602001602082028036833780820191505090505b50905060005b60125481101561176f57600d6000848152602001908152602001600020600082815260200190815260200160002060009054906101000a900460ff1682828151811061174a577f4e487b7100000000000000000000000000000000000000000000000000000000600052603260045260246000fd5b6020026020010190151590811515815250508080611767906144a1565b9150506116d5565b50808383815181106117aa577f4e487b7100000000000000000000000000000000000000000000000000000000600052603260045260246000fd5b60200260200101819052505080806117c1906144a1565b915050611653565b508091505090565b600560009054906101000a900473ffffffffffffffffffffffffffffffffffffffff1673ffffffffffffffffffffffffffffffffffffffff1663f242432a33306007546001546040518563ffffffff1660e01b81526004016118369493929190613baa565b600060405180830381600087803b15801561185057600080fd5b505af1158015611864573d6000803e3d6000fd5b50505050600060405180608001604052808381526020014281526020013373ffffffffffffffffffffffffffffffffffffffff16815260200160015481525090506009600084815260200190815260200160002081908060018154018082558091505060019003906000526020600020906004020160009091909190915060008201518160000190805190602001906118fe929190612b29565b506020820151816001015560408201518160020160006101000a81548173ffffffffffffffffffffffffffffffffffffffff021916908373ffffffffffffffffffffffffffffffffffffffff1602179055506060820151816003015550507fb46febe4efbbb5c019390b465ed6683766acdecdef421175b285b18932c27e2c3384600160096000888152602001908152602001600020805490506119a29190614306565b6040516119b193929190613c5a565b60405180910390a1505050565b80600f6000601154815260200190815260200160002060000190805190602001906119ea929190612b29565b5033600f6000601154815260200190815260200160002060030160006101000a81548173ffffffffffffffffffffffffffffffffffffffff021916908373ffffffffffffffffffffffffffffffffffffffff16021790555042600f60006011548152602001908152602001600020600101819055507f63c92f9505d420bff631cb9df33be952bdc11e2118da36a850b43e6bcc4ce4de60115433604051611a92929190613f5e565b60405180910390a160116000815480929190611aad906144a1565b919050555050565b6060600060125467ffffffffffffffff811115611afb577f4e487b7100000000000000000000000000000000000000000000000000000000600052604160045260246000fd5b604051908082528060200260200182016040528015611b295781602001602082028036833780820191505090505b50905060005b601254811015611bc957600d6000858152602001908152602001600020600082815260200190815260200160002060009054906101000a900460ff16828281518110611ba4577f4e487b7100000000000000000000000000000000000000000000000000000000600052603260045260246000fd5b6020026020010190151590811515815250508080611bc1906144a1565b915050611b2f565b5080915050919050565b6060600060115467ffffffffffffffff811115611c19577f4e487b7100000000000000000000000000000000000000000000000000000000600052604160045260246000fd5b604051908082528060200260200182016040528015611c5257816020015b611c3f612baf565b815260200190600190039081611c375790505b50905060005b601154811015611dd357600f6000828152602001908152602001600020604051806080016040529081600082018054611c909061443e565b80601f0160208091040260200160405190810160405280929190818152602001828054611cbc9061443e565b8015611d095780601f10611cde57610100808354040283529160200191611d09565b820191906000526020600020905b815481529060010190602001808311611cec57829003601f168201915b5050505050815260200160018201548152602001600282015481526020016003820160009054906101000a900473ffffffffffffffffffffffffffffffffffffffff1673ffffffffffffffffffffffffffffffffffffffff1673ffffffffffffffffffffffffffffffffffffffff1681525050828281518110611db5577f4e487b7100000000000000000000000000000000000000000000000000000000600052603260045260246000fd5b60200260200101819052508080611dcb906144a1565b915050611c58565b508091505090565b6060600060115467ffffffffffffffff811115611e21577f4e487b7100000000000000000000000000000000000000000000000000000000600052604160045260246000fd5b604051908082528060200260200182016040528015611e5457816020015b6060815260200190600190039081611e3f5790505b50905060005b601154811015611fbd57600060125467ffffffffffffffff811115611ea8577f4e487b7100000000000000000000000000000000000000000000000000000000600052604160045260246000fd5b604051908082528060200260200182016040528015611ed65781602001602082028036833780820191505090505b50905060005b601254811015611f6357600e6000848152602001908152602001600020600082815260200190815260200160002054828281518110611f44577f4e487b7100000000000000000000000000000000000000000000000000000000600052603260045260246000fd5b6020026020010181815250508080611f5b906144a1565b915050611edc565b5080838381518110611f9e577f4e487b7100000000000000000000000000000000000000000000000000000000600052603260045260246000fd5b6020026020010181905250508080611fb5906144a1565b915050611e5a565b508091505090565b600560009054906101000a900473ffffffffffffffffffffffffffffffffffffffff1673ffffffffffffffffffffffffffffffffffffffff1663f5298aca336007546000546040518463ffffffff1660e01b815260040161202893929190613c91565b600060405180830381600087803b15801561204257600080fd5b505af1158015612056573d6000803e3d6000fd5b50505050826013600060125481526020019081526020016000206000019080519060200190612086929190612b29565b508160136000601254815260200190815260200160002060010160006101000a8154816fffffffffffffffffffffffffffffffff0219169083600f0b6fffffffffffffffffffffffffffffffff1602179055508060136000601254815260200190815260200160002060020181905550600560009054906101000a900473ffffffffffffffffffffffffffffffffffffffff1673ffffffffffffffffffffffffffffffffffffffff1663731133e933601254876040518463ffffffff1660e01b815260040161215793929190613cc8565b600060405180830381600087803b15801561217157600080fd5b505af1158015612185573d6000803e3d6000fd5b505050507f6958b51b54d963fa8eeeea5b61b83a9ad28f9ee9d5a2f1b8495e6866cb534bb1601254336040516121bc929190613f5e565b60405180910390a1601260008154809291906121d7906144a1565b919050555050505050565b600660009054906101000a900473ffffffffffffffffffffffffffffffffffffffff1673ffffffffffffffffffffffffffffffffffffffff163373ffffffffffffffffffffffffffffffffffffffff161461223c57600080fd5b80600560006101000a81548173ffffffffffffffffffffffffffffffffffffffff021916908373ffffffffffffffffffffffffffffffffffffffff16021790555050565b60015481565b60086020528060005260406000206000915054906101000a900460ff1681565b600560009054906101000a900473ffffffffffffffffffffffffffffffffffffffff1673ffffffffffffffffffffffffffffffffffffffff1663f5298aca3384846040518463ffffffff1660e01b815260040161230593929190613c91565b600060405180830381600087803b15801561231f57600080fd5b505af1158015612333573d6000803e3d6000fd5b5050505080600e60008581526020019081526020016000206000848152602001908152602001600020600082825461236b91906142b0565b925050819055506013600083815260200190815260200160002060020154600e600085815260200190815260200160002060008481526020019081526020016000205410612458576001600d6000858152602001908152602001600020600084815260200190815260200160002060006101000a81548160ff0219169083151502179055506001600f6000858152602001908152602001600020600201600082825461241791906142b0565b925050819055507f29692491058132b418905fa7c07d37d72a2355cf7f1d20d22a134414aa6ddf4c838360405161244f929190613fb0565b60405180910390a15b505050565b600063bc197c8160e01b905098975050505050505050565b61247d612b05565b601360008381526020019081526020016000206040518060600160405290816000820180546124ab9061443e565b80601f01602080910402602001604051908101604052809291908181526020018280546124d79061443e565b80156125245780601f106124f957610100808354040283529160200191612524565b820191906000526020600020905b81548152906001019060200180831161250757829003601f168201915b505050505081526020016001820160009054906101000a9004600f0b600f0b600f0b81526020016002820154815250509050919050565b60025481565b60606000600960008481526020019081526020016000208054905067ffffffffffffffff8111156125bb577f4e487b7100000000000000000000000000000000000000000000000000000000600052604160045260246000fd5b6040519080825280602002602001820160405280156125f457816020015b6125e1612bed565b8152602001906001900390816125d95790505b50905060005b60096000858152602001908152602001600020805490508110156127cf57600960008581526020019081526020016000208181548110612663577f4e487b7100000000000000000000000000000000000000000000000000000000600052603260045260246000fd5b906000526020600020906004020160405180608001604052908160008201805461268c9061443e565b80601f01602080910402602001604051908101604052809291908181526020018280546126b89061443e565b80156127055780601f106126da57610100808354040283529160200191612705565b820191906000526020600020905b8154815290600101906020018083116126e857829003601f168201915b50505050508152602001600182015481526020016002820160009054906101000a900473ffffffffffffffffffffffffffffffffffffffff1673ffffffffffffffffffffffffffffffffffffffff1673ffffffffffffffffffffffffffffffffffffffff1681526020016003820154815250508282815181106127b1577f4e487b7100000000000000000000000000000000000000000000000000000000600052603260045260246000fd5b602002602001018190525080806127c7906144a1565b9150506125fa565b5080915050919050565b60045481565b6127e7612baf565b600f60008381526020019081526020016000206040518060800160405290816000820180546128159061443e565b80601f01602080910402602001604051908101604052809291908181526020018280546128419061443e565b801561288e5780601f106128635761010080835404028352916020019161288e565b820191906000526020600020905b81548152906001019060200180831161287157829003601f168201915b5050505050815260200160018201548152602001600282015481526020016003820160009054906101000a900473ffffffffffffffffffffffffffffffffffffffff1673ffffffffffffffffffffffffffffffffffffffff1673ffffffffffffffffffffffffffffffffffffffff16815250509050919050565b600063f23a6e6160e01b90509695505050505050565b3373ffffffffffffffffffffffffffffffffffffffff16600f6000600a600087815260200190815260200160002054815260200190815260200160002060030160009054906101000a900473ffffffffffffffffffffffffffffffffffffffff1673ffffffffffffffffffffffffffffffffffffffff161461299f57600080fd5b80600c6000858152602001908152602001600020600084815260200190815260200160002060006101000a81548160ff021916908315150217905550505050565b60007f01ffc9a7000000000000000000000000000000000000000000000000000000007bffffffffffffffffffffffffffffffffffffffffffffffffffffffff1916827bffffffffffffffffffffffffffffffffffffffffffffffffffffffff1916149050919050565b600080821415612a5d5760009050612aff565b600083600f0b1215612a6e57600080fd5b600060406fffffffffffffffffffffffffffffffff841685600f0b02901c90506000608084901c85600f0b02905077ffffffffffffffffffffffffffffffffffffffffffffffff811115612ac157600080fd5b604081901b9050817fffffffffffffffffffffffffffffffffffffffffffffffffffffffffffffffff03811115612af757600080fd5b818101925050505b92915050565b6040518060600160405280606081526020016000600f0b8152602001600081525090565b828054612b359061443e565b90600052602060002090601f016020900481019282612b575760008555612b9e565b82601f10612b7057805160ff1916838001178555612b9e565b82800160010185558215612b9e579182015b82811115612b9d578251825591602001919060010190612b82565b5b509050612bab9190612c2b565b5090565b6040518060800160405280606081526020016000815260200160008152602001600073ffffffffffffffffffffffffffffffffffffffff1681525090565b60405180608001604052806060815260200160008152602001600073ffffffffffffffffffffffffffffffffffffffff168152602001600081525090565b5b80821115612c44576000816000905550600101612c2c565b5090565b6000612c5b612c5684613ffe565b613fd9565b905082815260208101848484011115612c7357600080fd5b612c7e8482856143fc565b509392505050565b600081359050612c9581614650565b92915050565b60008083601f840112612cad57600080fd5b8235905067ffffffffffffffff811115612cc657600080fd5b602083019150836020820283011115612cde57600080fd5b9250929050565b600081359050612cf481614667565b92915050565b600081359050612d098161467e565b92915050565b600081359050612d1e81614695565b92915050565b60008083601f840112612d3657600080fd5b8235905067ffffffffffffffff811115612d4f57600080fd5b602083019150836001820283011115612d6757600080fd5b9250929050565b600081359050612d7d816146ac565b92915050565b600081359050612d92816146c3565b92915050565b600082601f830112612da957600080fd5b8135612db9848260208601612c48565b91505092915050565b600081359050612dd1816146da565b92915050565b600060208284031215612de957600080fd5b6000612df784828501612c86565b91505092915050565b60008060008060008060008060a0898b031215612e1c57600080fd5b6000612e2a8b828c01612c86565b9850506020612e3b8b828c01612c86565b975050604089013567ffffffffffffffff811115612e5857600080fd5b612e648b828c01612c9b565b9650965050606089013567ffffffffffffffff811115612e8357600080fd5b612e8f8b828c01612c9b565b9450945050608089013567ffffffffffffffff811115612eae57600080fd5b612eba8b828c01612d24565b92509250509295985092959890939650565b60008060008060008060a08789031215612ee557600080fd5b6000612ef389828a01612c86565b9650506020612f0489828a01612c86565b9550506040612f1589828a01612dc2565b9450506060612f2689828a01612dc2565b935050608087013567ffffffffffffffff811115612f4357600080fd5b612f4f89828a01612d24565b92509250509295509295509295565b600060208284031215612f7057600080fd5b6000612f7e84828501612cfa565b91505092915050565b60008060408385031215612f9a57600080fd5b6000612fa885828601612cfa565b925050602083013567ffffffffffffffff811115612fc557600080fd5b612fd185828601612d98565b9150509250929050565b60008060408385031215612fee57600080fd5b6000612ffc85828601612cfa565b925050602061300d85828601612dc2565b9150509250929050565b60008060006060848603121561302c57600080fd5b600061303a86828701612cfa565b935050602061304b86828701612dc2565b925050604061305c86828701612ce5565b9150509250925092565b60006020828403121561307857600080fd5b600061308684828501612d0f565b91505092915050565b6000602082840312156130a157600080fd5b60006130af84828501612d6e565b91505092915050565b6000602082840312156130ca57600080fd5b600082013567ffffffffffffffff8111156130e457600080fd5b6130f084828501612d98565b91505092915050565b60006020828403121561310b57600080fd5b600061311984828501612dc2565b91505092915050565b6000806040838503121561313557600080fd5b600061314385828601612dc2565b925050602083013567ffffffffffffffff81111561316057600080fd5b61316c85828601612d98565b9150509250929050565b6000806000806080858703121561318c57600080fd5b600061319a87828801612dc2565b945050602085013567ffffffffffffffff8111156131b757600080fd5b6131c387828801612d98565b93505060406131d487828801612d83565b92505060606131e587828801612dc2565b91505092959194509250565b60008060006060848603121561320657600080fd5b600061321486828701612dc2565b935050602061322586828701612dc2565b925050604061323686828701612dc2565b9150509250925092565b600061324c8383613408565b905092915050565b600061326083836136f6565b905092915050565b600061327483836137b2565b60208301905092915050565b600061328c83836137d0565b60208301905092915050565b60006132a4838361382a565b905092915050565b60006132b88383613984565b905092915050565b60006132cc8383613a24565b905092915050565b60006132e08383613aea565b905092915050565b60006132f48383613b4d565b60208301905092915050565b6133098161433a565b82525050565b6133188161433a565b82525050565b6000613329826140d4565b61333381856141b7565b9350836020820285016133458561402f565b8060005b8581101561338157848403895281516133628582613240565b945061336d83614142565b925060208a01995050600181019050613349565b50829750879550505050505092915050565b600061339e826140df565b6133a881856141c8565b9350836020820285016133ba8561403f565b8060005b858110156133f657848403895281516133d78582613254565b94506133e28361414f565b925060208a019950506001810190506133be565b50829750879550505050505092915050565b6000613413826140ea565b61341d81856141d9565b93506134288361404f565b8060005b838110156134595781516134408882613268565b975061344b8361415c565b92505060018101905061342c565b5085935050505092915050565b6000613471826140ea565b61347b81856141ea565b93506134868361404f565b8060005b838110156134b757815161349e8882613268565b97506134a98361415c565b92505060018101905061348a565b5085935050505092915050565b60006134cf826140f5565b6134d981856141fb565b93506134e48361405f565b8060005b838110156135155781516134fc8882613280565b975061350783614169565b9250506001810190506134e8565b5085935050505092915050565b600061352d82614100565b613537818561420c565b9350836020820285016135498561406f565b8060005b8581101561358557848403895281516135668582613298565b945061357183614176565b925060208a0199505060018101905061354d565b50829750879550505050505092915050565b60006135a28261410b565b6135ac818561421d565b9350836020820285016135be8561407f565b8060005b858110156135fa57848403895281516135db85826132ac565b94506135e683614183565b925060208a019950506001810190506135c2565b50829750879550505050505092915050565b600061361782614116565b613621818561422e565b9350836020820285016136338561408f565b8060005b8581101561366f578484038952815161365085826132c0565b945061365b83614190565b925060208a01995050600181019050613637565b50829750879550505050505092915050565b600061368c82614121565b613696818561423f565b9350836020820285016136a88561409f565b8060005b858110156136e457848403895281516136c585826132d4565b94506136d08361419d565b925060208a019950506001810190506136ac565b50829750879550505050505092915050565b60006137018261412c565b61370b8185614250565b9350613716836140af565b8060005b8381101561374757815161372e88826132e8565b9750613739836141aa565b92505060018101905061371a565b5085935050505092915050565b600061375f8261412c565b6137698185614261565b9350613774836140af565b8060005b838110156137a557815161378c88826132e8565b9750613797836141aa565b925050600181019050613778565b5085935050505092915050565b6137bb8161434c565b82525050565b6137ca8161434c565b82525050565b6137d981614358565b82525050565b6137e881614358565b82525050565b6137f781614362565b82525050565b613806816143ea565b82525050565b613815816143b3565b82525050565b613824816143b3565b82525050565b600061383582614137565b61383f8185614283565b935061384f81856020860161440b565b613858816145b0565b840191505092915050565b600061386e82614137565b6138788185614294565b935061388881856020860161440b565b613891816145b0565b840191505092915050565b600081546138a98161443e565b6138b381866142a5565b945060018216600081146138ce57600181146138df57613912565b60ff19831686528186019350613912565b6138e8856140bf565b60005b8381101561390a578154818901526001820191506020810190506138eb565b838801955050505b50505092915050565b6000613928603283614294565b9150613933826145c1565b604082019050919050565b600061394b600083614272565b915061395682614610565b600082019050919050565b600061396e602083614294565b915061397982614613565b602082019050919050565b600060608301600083015184820360008601526139a1828261382a565b91505060208301516139b6602086018261380c565b5060408301516139c96040860182613b4d565b508091505092915050565b600060608301600083015184820360008601526139f1828261382a565b9150506020830151613a06602086018261380c565b506040830151613a196040860182613b4d565b508091505092915050565b60006080830160008301518482036000860152613a41828261382a565b9150506020830151613a566020860182613b4d565b506040830151613a696040860182613b4d565b506060830151613a7c6060860182613300565b508091505092915050565b60006080830160008301518482036000860152613aa4828261382a565b9150506020830151613ab96020860182613b4d565b506040830151613acc6040860182613b4d565b506060830151613adf6060860182613300565b508091505092915050565b60006080830160008301518482036000860152613b07828261382a565b9150506020830151613b1c6020860182613b4d565b506040830151613b2f6040860182613300565b506060830151613b426060860182613b4d565b508091505092915050565b613b56816143e0565b82525050565b613b65816143e0565b82525050565b613b7c613b77826143e0565b6144ea565b82525050565b6000613b8e828561389c565b9150613b9a8284613b6b565b6020820191508190509392505050565b600060a082019050613bbf600083018761330f565b613bcc602083018661330f565b613bd96040830185613b5c565b613be66060830184613b5c565b8181036080830152613bf78161393e565b905095945050505050565b6000608082019050613c17600083018661330f565b8181036020830152613c298185613754565b90508181036040830152613c3d8184613754565b90508181036060830152613c508161393e565b9050949350505050565b6000606082019050613c6f600083018661330f565b613c7c60208301856137df565b613c896040830184613b5c565b949350505050565b6000606082019050613ca6600083018661330f565b613cb36020830185613b5c565b613cc06040830184613b5c565b949350505050565b6000608082019050613cdd600083018661330f565b613cea6020830185613b5c565b613cf76040830184613b5c565b8181036060830152613d088161393e565b9050949350505050565b60006020820190508181036000830152613d2c818461331e565b905092915050565b60006020820190508181036000830152613d4e8184613393565b905092915050565b60006020820190508181036000830152613d708184613466565b905092915050565b60006040820190508181036000830152613d9281856134c4565b90508181036020830152613da68184613522565b90509392505050565b60006020820190508181036000830152613dc98184613597565b905092915050565b60006020820190508181036000830152613deb818461360c565b905092915050565b60006020820190508181036000830152613e0d8184613681565b905092915050565b6000602082019050613e2a60008301846137c1565b92915050565b6000602082019050613e4560008301846137ee565b92915050565b6000602082019050613e6060008301846137fd565b92915050565b6000602082019050613e7b600083018461381b565b92915050565b60006060820190508181036000830152613e9b8186613863565b9050613eaa602083018561381b565b613eb76040830184613b5c565b949350505050565b60006020820190508181036000830152613ed88161391b565b9050919050565b60006020820190508181036000830152613ef881613961565b9050919050565b60006020820190508181036000830152613f1981846139d4565b905092915050565b60006020820190508181036000830152613f3b8184613a87565b905092915050565b6000602082019050613f586000830184613b5c565b92915050565b6000604082019050613f736000830185613b5c565b613f80602083018461330f565b9392505050565b6000604082019050613f9c6000830185613b5c565b613fa960208301846137df565b9392505050565b6000604082019050613fc56000830185613b5c565b613fd26020830184613b5c565b9392505050565b6000613fe3613ff4565b9050613fef8282614470565b919050565b6000604051905090565b600067ffffffffffffffff82111561401957614018614581565b5b614022826145b0565b9050602081019050919050565b6000819050602082019050919050565b6000819050602082019050919050565b6000819050602082019050919050565b6000819050602082019050919050565b6000819050602082019050919050565b6000819050602082019050919050565b6000819050602082019050919050565b6000819050602082019050919050565b6000819050602082019050919050565b60008190508160005260206000209050919050565b600081519050919050565b600081519050919050565b600081519050919050565b600081519050919050565b600081519050919050565b600081519050919050565b600081519050919050565b600081519050919050565b600081519050919050565b600081519050919050565b6000602082019050919050565b6000602082019050919050565b6000602082019050919050565b6000602082019050919050565b6000602082019050919050565b6000602082019050919050565b6000602082019050919050565b6000602082019050919050565b6000602082019050919050565b600082825260208201905092915050565b600082825260208201905092915050565b600082825260208201905092915050565b600082825260208201905092915050565b600082825260208201905092915050565b600082825260208201905092915050565b600082825260208201905092915050565b600082825260208201905092915050565b600082825260208201905092915050565b600082825260208201905092915050565b600082825260208201905092915050565b600082825260208201905092915050565b600082825260208201905092915050565b600082825260208201905092915050565b600081905092915050565b60006142bb826143e0565b91506142c6836143e0565b9250827fffffffffffffffffffffffffffffffffffffffffffffffffffffffffffffffff038211156142fb576142fa6144f4565b5b828201905092915050565b6000614311826143e0565b915061431c836143e0565b92508282101561432f5761432e6144f4565b5b828203905092915050565b6000614345826143c0565b9050919050565b60008115159050919050565b6000819050919050565b60007fffffffff0000000000000000000000000000000000000000000000000000000082169050919050565b60006143998261433a565b9050919050565b60008190506143ae8261463c565b919050565b600081600f0b9050919050565b600073ffffffffffffffffffffffffffffffffffffffff82169050919050565b6000819050919050565b60006143f5826143a0565b9050919050565b82818337600083830152505050565b60005b8381101561442957808201518184015260208101905061440e565b83811115614438576000848401525b50505050565b6000600282049050600182168061445657607f821691505b6020821081141561446a57614469614552565b5b50919050565b614479826145b0565b810181811067ffffffffffffffff8211171561449857614497614581565b5b80604052505050565b60006144ac826143e0565b91507fffffffffffffffffffffffffffffffffffffffffffffffffffffffffffffffff8214156144df576144de6144f4565b5b600182019050919050565b6000819050919050565b7f4e487b7100000000000000000000000000000000000000000000000000000000600052601160045260246000fd5b7f4e487b7100000000000000000000000000000000000000000000000000000000600052602160045260246000fd5b7f4e487b7100000000000000000000000000000000000000000000000000000000600052602260045260246000fd5b7f4e487b7100000000000000000000000000000000000000000000000000000000600052604160045260246000fd5b6000601f19601f8301169050919050565b7f43616e6e6f742063616c6c20746869732066756e6374696f6e2c20757365722060008201527f616c726561647920726567697374657265640000000000000000000000000000602082015250565b50565b7f646573696c6f3a20596f75206d6179206e6f742079657420756e7374616b652e600082015250565b6003811061464d5761464c614523565b5b50565b6146598161433a565b811461466457600080fd5b50565b6146708161434c565b811461467b57600080fd5b50565b61468781614358565b811461469257600080fd5b50565b61469e81614362565b81146146a957600080fd5b50565b6146b58161438e565b81146146c057600080fd5b50565b6146cc816143b3565b81146146d757600080fd5b50565b6146e3816143e0565b81146146ee57600080fd5b5056fea26469706673582212205ec12851266705a43d580398db4848bfba16e16358c2234590468d2e18258d0264736f6c63430008030033",
  "immutableReferences": {},
  "source": "pragma solidity ^0.8.3;\r\n\r\nimport \"./dSocialCredits.sol\";\r\nimport \"./library/ABDKMath64x64.sol\";\r\nimport \"@openzeppelin/contracts/token/ERC1155/utils/ERC1155Receiver.sol\";\r\n\r\ncontract desilo is ERC1155Receiver {\r\n\r\n    struct Group {\r\n        string uri;\r\n        int128 yield;\r\n        uint256 acceptance;\r\n    }\r\n\r\n    struct Project {\r\n        string uri; \r\n        uint256 createdAt; \r\n        uint256 groupCount;\r\n        address owner; \r\n    }\r\n\r\n    struct Review {\r\n        string uri;\r\n        uint256 publishedAt;\r\n        address reviewer;\r\n        uint256 stakeAmount;\r\n    }\r\n\r\n    enum StakingState {\r\n        pending,\r\n        ready,\r\n        unstaked\r\n    }\r\n\r\n    uint256 public groupCreationSCAmount;\r\n    uint256 public scStakeAmount;\r\n    uint256 public scSeedAmount;\r\n    int128 public scYield;\r\n    uint256 public scStakePeriod;\r\n\r\n    dSocialCredits _scContract;\r\n    address _owner;\r\n    uint256 public scID = 2**256 - 1;\r\n    mapping(address => bool) public registered;\r\n\r\n    // mapping(entityID). keccak256(projectURI, entityURI)\r\n    mapping(bytes32 => Review[]) _entityReviews;\r\n    mapping(bytes32 => uint256) _entityToThread;\r\n    mapping(bytes32 => string) _entityURI;\r\n    mapping(bytes32 => mapping(uint256 => bool)) _fraudulent;\r\n\r\n\r\n    // mapping(groupID)\r\n    mapping (uint256 => mapping(uint256 => bool)) _affiliatedGroups;\r\n    mapping (uint256 => mapping(uint256 => uint256)) _affiliatedGroupsVouched;\r\n\r\n\r\n    // mapping(projectID)\r\n    mapping(uint256 => Project) _projects; \r\n    mapping(uint256 => uint256) _projectEntitiesCount;\r\n    uint256 _projectCount = 0;\r\n\r\n    // mapping(groupID => fixed128x128)\r\n    uint256 _groupCount = 0;\r\n    mapping(uint256 => Group) public _groups; // Group's \r\n\r\n\r\n    event GroupCreated(uint256 id, address creator); \r\n    event ProjectCreated(uint256 id, address creator); \r\n    event ProjectAccepted(uint256 projectId, uint256 groupId); \r\n    event EntityAdded(uint256 projectId, bytes32 entityId);\r\n    event Staked(address staker, bytes32 commitId, uint256 index); \r\n    event Unstaked(address staker, bytes32 commitId, uint256 index); \r\n\r\n\r\n    constructor(\r\n        uint256 _scStakeAmount,\r\n        int128 _scYield,\r\n        uint256 _groupCreationSCAmount,\r\n        uint256 _scSeedAmount,\r\n        uint256 _scStakePeriod\r\n    ) IERC1155Receiver() {\r\n        scYield = _scYield;\r\n        scStakeAmount = _scStakeAmount;\r\n        groupCreationSCAmount = _groupCreationSCAmount;\r\n        scSeedAmount = _scSeedAmount;\r\n        scStakePeriod = _scStakePeriod;\r\n        _owner = msg.sender;\r\n    }\r\n\r\n    function createGroup(uint256 _initialSupply, string memory _uri, int128 _yield, uint256 _acceptance) external {\r\n        _scContract.burn(msg.sender, scID, groupCreationSCAmount);\r\n        _groups[_groupCount].uri = _uri;\r\n        _groups[_groupCount].yield = _yield;\r\n        _groups[_groupCount].acceptance = _acceptance;\r\n\r\n        _scContract.mint(msg.sender, _groupCount, _initialSupply, \"\");\r\n        emit GroupCreated(_groupCount, msg.sender);\r\n        _groupCount++;\r\n    }\r\n\r\n    function getGroup(uint256 index) external view returns(Group memory) {\r\n        return _groups[index]; \r\n    }\r\n\r\n    function getAllGroups() external view returns(Group[] memory) {\r\n        Group[] memory groups = new Group[](_groupCount);\r\n        for (uint i = 0; i < _groupCount; i++) groups[i] = _groups[i];\r\n        return groups; \r\n    }\r\n\r\n    function getAffiliations(uint256 projectID) external view returns(bool[] memory) {\r\n        bool[] memory affiliations = new bool[](_groupCount);\r\n        for (uint j = 0; j < _groupCount; j++) affiliations[j] = _affiliatedGroups[projectID][j];\r\n        return affiliations; \r\n    }\r\n\r\n    function getAllAffiliations() external view returns(bool[][] memory) {\r\n        bool[][] memory projects = new bool[][](_projectCount);\r\n        for (uint i = 0; i < _projectCount; i++) {\r\n            bool[] memory affiliations = new bool[](_groupCount);\r\n            for (uint j = 0; j < _groupCount; j++) affiliations[j] = _affiliatedGroups[i][j];\r\n            projects[i] = affiliations;\r\n        }\r\n        return projects; \r\n    }\r\n\r\n    function getAllVouched() external view returns(uint256[][] memory) {\r\n        uint256[][] memory projects = new uint256[][](_projectCount);\r\n        for (uint i = 0; i < _projectCount; i++) {\r\n            uint256[] memory affiliations = new uint256[](_groupCount);\r\n            for (uint j = 0; j < _groupCount; j++) affiliations[j] = _affiliatedGroupsVouched[i][j];\r\n            projects[i] = affiliations;\r\n        }\r\n        return projects; \r\n    }\r\n\r\n    function getAllReviews(bytes32 entityID) external view returns(Review[] memory) {\r\n        Review[] memory reviews = new Review[](_entityReviews[entityID].length);\r\n        for (uint i = 0; i < _entityReviews[entityID].length; i++) reviews[i] = _entityReviews[entityID][i];\r\n        return reviews; \r\n    }\r\n\r\n    function getProject(uint256 index) external view returns(Project memory) {\r\n        return _projects[index]; \r\n    }\r\n\r\n    function getAllProjects() external view returns(Project[] memory) {\r\n        Project[] memory projects = new Project[](_projectCount);\r\n        for (uint i = 0; i < _projectCount; i++) projects[i] = _projects[i];\r\n        return projects; \r\n    }\r\n\r\n    function getProjectEntities(uint256 projectID) external view returns(bytes32[] memory entityIDs, string[] memory entityURIs) {\r\n        entityURIs = new string[](_projectEntitiesCount[projectID]);\r\n        entityIDs = new bytes32[](_projectEntitiesCount[projectID]);\r\n        for (uint i = 0; i < _projectEntitiesCount[projectID]; i++) {\r\n            entityIDs[i] = keccak256(abi.encodePacked(_projects[projectID].uri, i));\r\n            entityURIs[i] = _entityURI[entityIDs[i]];\r\n        }\r\n    }\r\n\r\n    function addProjectEntity(uint256 projectID, string memory entityURI) external {\r\n        // Run Chainlink verification of ownership\r\n        bytes32 entityID = keccak256(abi.encodePacked(_projects[projectID].uri, _projectEntitiesCount[projectID]));\r\n        _entityToThread[entityID] = projectID;\r\n        _entityURI[entityID] = entityURI;\r\n        _projectEntitiesCount[projectID] += 1;\r\n        emit EntityAdded(projectID, entityID);\r\n    }\r\n    \r\n\r\n    function vouchProject(uint256 projectID, uint256 groupID, uint256 amount) external {\r\n        _scContract.burn(msg.sender, groupID, amount);\r\n        _affiliatedGroupsVouched[projectID][groupID] += amount; \r\n        if (_affiliatedGroupsVouched[projectID][groupID] >= _groups[groupID].acceptance) {\r\n            _affiliatedGroups[projectID][groupID] = true; \r\n            _projects[projectID].groupCount += 1;\r\n            emit ProjectAccepted(projectID, groupID);\r\n        }\r\n    }\r\n\r\n    function setSC(dSocialCredits _sc) external {\r\n        require(msg.sender == _owner);\r\n        _scContract = _sc;\r\n    }\r\n\r\n    function seedSC() external {\r\n        require(\r\n            !registered[msg.sender],\r\n            \"Cannot call this function, user already registered\"\r\n        );\r\n        registered[msg.sender] = true;\r\n        _scContract.mint(msg.sender, scID, scSeedAmount, \"\");\r\n    }\r\n\r\n    function stake(bytes32 _commitId, string memory uri) external {\r\n        _scContract.safeTransferFrom(\r\n            msg.sender,\r\n            address(this),\r\n            scID,\r\n            scStakeAmount,\r\n            \"\"\r\n        );\r\n        Review memory newReview = Review(uri, block.timestamp, msg.sender, scStakeAmount);\r\n        _entityReviews[_commitId].push(newReview);\r\n        emit Staked(msg.sender, _commitId, _entityReviews[_commitId].length - 1); \r\n    }\r\n\r\n    function toggleFraudulent(bytes32 _commitId, uint256 index, bool _isFraudulent) external {\r\n        require(_projects[_entityToThread[_commitId]].owner == msg.sender);\r\n        _fraudulent[_commitId][index] = _isFraudulent;\r\n    }\r\n\r\n    function isFraudulent(bytes32 _commitId, uint256 index) public view returns(bool) {\r\n        return _fraudulent[_commitId][index];\r\n    }\r\n\r\n    function canUnstake(bytes32 _commitId, uint256 index) public view returns(StakingState) {\r\n        if (isFraudulent(_commitId, index) || block.timestamp < _entityReviews[_commitId][index].publishedAt + scStakePeriod) return StakingState.pending;\r\n        if (_entityReviews[_commitId][index].stakeAmount > 0) return StakingState.ready;\r\n        return StakingState.unstaked;\r\n    }\r\n\r\n    function unstake(bytes32 _commitId, uint256 index) external {\r\n        require(\r\n            canUnstake(_commitId, index) == StakingState.ready,\r\n            \"desilo: You may not yet unstake.\"\r\n        );\r\n\r\n        uint256 stakedAmount = _entityReviews[_commitId][index].stakeAmount;\r\n        uint256 threadID = _entityToThread[_commitId];\r\n        uint256 gscCount = _projects[threadID].groupCount;\r\n        uint256[] memory ids = new uint256[](gscCount);\r\n        uint256[] memory amounts = new uint256[](gscCount);\r\n\r\n        _entityReviews[_commitId][index].stakeAmount = 0;\r\n        _scContract.safeTransferFrom(\r\n            address(this),\r\n            msg.sender,\r\n            scID,\r\n            stakedAmount,\r\n            \"\"\r\n        );\r\n        _scContract.mint(\r\n            msg.sender,\r\n            scID,\r\n            ABDKMath64x64.mulu(scYield, stakedAmount),\r\n            \"\"\r\n        );\r\n\r\n        uint256 count = 0;\r\n        for (uint256 i = 0; i < _groupCount; i++) {\r\n            if (_affiliatedGroups[threadID][i]) {\r\n                ids[count] = i;\r\n                amounts[count] = ABDKMath64x64.mulu(_groups[i].yield, stakedAmount);\r\n                count++;\r\n            }\r\n        }\r\n        _scContract.mintBatch(msg.sender, ids, amounts, \"\");\r\n        emit Unstaked(msg.sender, _commitId, index); \r\n    }\r\n\r\n    function registerProject(string memory uri) external {\r\n        _projects[_projectCount].uri = uri;\r\n        _projects[_projectCount].owner = msg.sender; \r\n        _projects[_projectCount].createdAt = block.timestamp; \r\n        emit ProjectCreated(_projectCount, msg.sender);\r\n        _projectCount++; \r\n    }\r\n\r\n    function onERC1155Received(\r\n        address operator,\r\n        address from,\r\n        uint256 id,\r\n        uint256 value,\r\n        bytes calldata data\r\n    ) external pure override returns (bytes4) {\r\n        return this.onERC1155Received.selector;\r\n    }\r\n\r\n    function onERC1155BatchReceived(\r\n        address operator,\r\n        address from,\r\n        uint256[] calldata ids,\r\n        uint256[] calldata values,\r\n        bytes calldata data\r\n    ) external pure override returns (bytes4) {\r\n        return this.onERC1155BatchReceived.selector;\r\n    }\r\n}\r\n",
  "sourcePath": "C:/Users/Kuan/Documents/GitHub/desilo/contracts/desilo.sol",
  "compiler": {
    "name": "solc",
    "version": "0.8.3+commit.8d00100c.Emscripten.clang"
  },
  "schemaVersion": "3.3.4",
  "updatedAt": "2021-08-14T21:04:58.697Z",
  "networkType": "ethereum",
  "devdoc": {
    "kind": "dev",
    "methods": {
      "onERC1155BatchReceived(address,address,uint256[],uint256[],bytes)": {
        "details": "Handles the receipt of a multiple ERC1155 token types. This function is called at the end of a `safeBatchTransferFrom` after the balances have been updated. To accept the transfer(s), this must return `bytes4(keccak256(\"onERC1155BatchReceived(address,address,uint256[],uint256[],bytes)\"))` (i.e. 0xbc197c81, or its own function selector).",
        "params": {
          "data": "Additional data with no specified format",
          "from": "The address which previously owned the token",
          "ids": "An array containing ids of each token being transferred (order and length must match values array)",
          "operator": "The address which initiated the batch transfer (i.e. msg.sender)",
          "values": "An array containing amounts of each token being transferred (order and length must match ids array)"
        },
        "returns": {
          "_0": "`bytes4(keccak256(\"onERC1155BatchReceived(address,address,uint256[],uint256[],bytes)\"))` if transfer is allowed"
        }
      },
      "onERC1155Received(address,address,uint256,uint256,bytes)": {
        "details": "Handles the receipt of a single ERC1155 token type. This function is called at the end of a `safeTransferFrom` after the balance has been updated. To accept the transfer, this must return `bytes4(keccak256(\"onERC1155Received(address,address,uint256,uint256,bytes)\"))` (i.e. 0xf23a6e61, or its own function selector).",
        "params": {
          "data": "Additional data with no specified format",
          "from": "The address which previously owned the token",
          "id": "The ID of the token being transferred",
          "operator": "The address which initiated the transfer (i.e. msg.sender)",
          "value": "The amount of tokens being transferred"
        },
        "returns": {
          "_0": "`bytes4(keccak256(\"onERC1155Received(address,address,uint256,uint256,bytes)\"))` if transfer is allowed"
        }
      },
      "supportsInterface(bytes4)": {
        "details": "See {IERC165-supportsInterface}."
      }
    },
    "version": 1
  },
  "userdoc": {
    "kind": "user",
    "methods": {},
    "version": 1
  }
}