{
  "contractName": "desilo",
  "abi": [
    {
      "inputs": [
        {
          "internalType": "uint256",
          "name": "_scStakeAmount",
          "type": "uint256"
        },
        {
          "internalType": "int128",
          "name": "_scYield",
          "type": "int128"
        },
        {
          "internalType": "uint256",
          "name": "_groupCreationSCAmount",
          "type": "uint256"
        },
        {
          "internalType": "uint256",
          "name": "_scSeedAmount",
          "type": "uint256"
        },
        {
          "internalType": "uint256",
          "name": "_scStakePeriod",
          "type": "uint256"
        }
      ],
      "stateMutability": "nonpayable",
      "type": "constructor"
    },
    {
      "anonymous": false,
      "inputs": [
        {
          "indexed": false,
          "internalType": "uint256",
          "name": "projectId",
          "type": "uint256"
        },
        {
          "indexed": false,
          "internalType": "bytes32",
          "name": "entityId",
          "type": "bytes32"
        }
      ],
      "name": "EntityAdded",
      "type": "event"
    },
    {
      "anonymous": false,
      "inputs": [
        {
          "indexed": false,
          "internalType": "uint256",
          "name": "id",
          "type": "uint256"
        },
        {
          "indexed": false,
          "internalType": "address",
          "name": "creator",
          "type": "address"
        }
      ],
      "name": "GroupCreated",
      "type": "event"
    },
    {
      "anonymous": false,
      "inputs": [
        {
          "indexed": false,
          "internalType": "uint256",
          "name": "projectId",
          "type": "uint256"
        },
        {
          "indexed": false,
          "internalType": "uint256",
          "name": "groupId",
          "type": "uint256"
        }
      ],
      "name": "ProjectAccepted",
      "type": "event"
    },
    {
      "anonymous": false,
      "inputs": [
        {
          "indexed": false,
          "internalType": "uint256",
          "name": "id",
          "type": "uint256"
        },
        {
          "indexed": false,
          "internalType": "address",
          "name": "creator",
          "type": "address"
        }
      ],
      "name": "ProjectCreated",
      "type": "event"
    },
    {
      "anonymous": false,
      "inputs": [
        {
          "indexed": false,
          "internalType": "address",
          "name": "staker",
          "type": "address"
        },
        {
          "indexed": false,
          "internalType": "bytes32",
          "name": "commitId",
          "type": "bytes32"
        },
        {
          "indexed": false,
          "internalType": "uint256",
          "name": "index",
          "type": "uint256"
        }
      ],
      "name": "Staked",
      "type": "event"
    },
    {
      "anonymous": false,
      "inputs": [
        {
          "indexed": false,
          "internalType": "address",
          "name": "staker",
          "type": "address"
        },
        {
          "indexed": false,
          "internalType": "bytes32",
          "name": "commitId",
          "type": "bytes32"
        },
        {
          "indexed": false,
          "internalType": "uint256",
          "name": "index",
          "type": "uint256"
        }
      ],
      "name": "Unstaked",
      "type": "event"
    },
    {
      "inputs": [
        {
          "internalType": "uint256",
          "name": "",
          "type": "uint256"
        }
      ],
      "name": "_groups",
      "outputs": [
        {
          "internalType": "string",
          "name": "uri",
          "type": "string"
        },
        {
          "internalType": "int128",
          "name": "yield",
          "type": "int128"
        },
        {
          "internalType": "uint256",
          "name": "acceptance",
          "type": "uint256"
        }
      ],
      "stateMutability": "view",
      "type": "function",
      "constant": true
    },
    {
      "inputs": [],
      "name": "groupCreationSCAmount",
      "outputs": [
        {
          "internalType": "uint256",
          "name": "",
          "type": "uint256"
        }
      ],
      "stateMutability": "view",
      "type": "function",
      "constant": true
    },
    {
      "inputs": [
        {
          "internalType": "address",
          "name": "",
          "type": "address"
        }
      ],
      "name": "registered",
      "outputs": [
        {
          "internalType": "bool",
          "name": "",
          "type": "bool"
        }
      ],
      "stateMutability": "view",
      "type": "function",
      "constant": true
    },
    {
      "inputs": [],
      "name": "scID",
      "outputs": [
        {
          "internalType": "uint256",
          "name": "",
          "type": "uint256"
        }
      ],
      "stateMutability": "view",
      "type": "function",
      "constant": true
    },
    {
      "inputs": [],
      "name": "scSeedAmount",
      "outputs": [
        {
          "internalType": "uint256",
          "name": "",
          "type": "uint256"
        }
      ],
      "stateMutability": "view",
      "type": "function",
      "constant": true
    },
    {
      "inputs": [],
      "name": "scStakeAmount",
      "outputs": [
        {
          "internalType": "uint256",
          "name": "",
          "type": "uint256"
        }
      ],
      "stateMutability": "view",
      "type": "function",
      "constant": true
    },
    {
      "inputs": [],
      "name": "scStakePeriod",
      "outputs": [
        {
          "internalType": "uint256",
          "name": "",
          "type": "uint256"
        }
      ],
      "stateMutability": "view",
      "type": "function",
      "constant": true
    },
    {
      "inputs": [],
      "name": "scYield",
      "outputs": [
        {
          "internalType": "int128",
          "name": "",
          "type": "int128"
        }
      ],
      "stateMutability": "view",
      "type": "function",
      "constant": true
    },
    {
      "inputs": [
        {
          "internalType": "bytes4",
          "name": "interfaceId",
          "type": "bytes4"
        }
      ],
      "name": "supportsInterface",
      "outputs": [
        {
          "internalType": "bool",
          "name": "",
          "type": "bool"
        }
      ],
      "stateMutability": "view",
      "type": "function",
      "constant": true
    },
    {
      "inputs": [
        {
          "internalType": "uint256",
          "name": "_initialSupply",
          "type": "uint256"
        },
        {
          "internalType": "string",
          "name": "_uri",
          "type": "string"
        },
        {
          "internalType": "int128",
          "name": "_yield",
          "type": "int128"
        },
        {
          "internalType": "uint256",
          "name": "_acceptance",
          "type": "uint256"
        }
      ],
      "name": "createGroup",
      "outputs": [],
      "stateMutability": "nonpayable",
      "type": "function"
    },
    {
      "inputs": [
        {
          "internalType": "uint256",
          "name": "index",
          "type": "uint256"
        }
      ],
      "name": "getGroup",
      "outputs": [
        {
          "components": [
            {
              "internalType": "string",
              "name": "uri",
              "type": "string"
            },
            {
              "internalType": "int128",
              "name": "yield",
              "type": "int128"
            },
            {
              "internalType": "uint256",
              "name": "acceptance",
              "type": "uint256"
            }
          ],
          "internalType": "struct desilo.Group",
          "name": "",
          "type": "tuple"
        }
      ],
      "stateMutability": "view",
      "type": "function",
      "constant": true
    },
    {
      "inputs": [],
      "name": "getAllGroups",
      "outputs": [
        {
          "components": [
            {
              "internalType": "string",
              "name": "uri",
              "type": "string"
            },
            {
              "internalType": "int128",
              "name": "yield",
              "type": "int128"
            },
            {
              "internalType": "uint256",
              "name": "acceptance",
              "type": "uint256"
            }
          ],
          "internalType": "struct desilo.Group[]",
          "name": "",
          "type": "tuple[]"
        }
      ],
      "stateMutability": "view",
      "type": "function",
      "constant": true
    },
    {
      "inputs": [
        {
          "internalType": "uint256",
          "name": "projectID",
          "type": "uint256"
        }
      ],
      "name": "getAffiliations",
      "outputs": [
        {
          "internalType": "bool[]",
          "name": "",
          "type": "bool[]"
        }
      ],
      "stateMutability": "view",
      "type": "function",
      "constant": true
    },
    {
      "inputs": [],
      "name": "getAllAffiliations",
      "outputs": [
        {
          "internalType": "bool[][]",
          "name": "",
          "type": "bool[][]"
        }
      ],
      "stateMutability": "view",
      "type": "function",
      "constant": true
    },
    {
      "inputs": [],
      "name": "getAllVouched",
      "outputs": [
        {
          "internalType": "uint256[][]",
          "name": "",
          "type": "uint256[][]"
        }
      ],
      "stateMutability": "view",
      "type": "function",
      "constant": true
    },
    {
      "inputs": [
        {
          "internalType": "bytes32",
          "name": "entityID",
          "type": "bytes32"
        }
      ],
      "name": "getAllReviews",
      "outputs": [
        {
          "components": [
            {
              "internalType": "string",
              "name": "uri",
              "type": "string"
            },
            {
              "internalType": "uint256",
              "name": "publishedAt",
              "type": "uint256"
            },
            {
              "internalType": "address",
              "name": "reviewer",
              "type": "address"
            },
            {
              "internalType": "uint256",
              "name": "stakeAmount",
              "type": "uint256"
            },
            {
              "internalType": "bool",
              "name": "fraudulent",
              "type": "bool"
            }
          ],
          "internalType": "struct desilo.Review[]",
          "name": "",
          "type": "tuple[]"
        }
      ],
      "stateMutability": "view",
      "type": "function",
      "constant": true
    },
    {
      "inputs": [
        {
          "internalType": "uint256",
          "name": "index",
          "type": "uint256"
        }
      ],
      "name": "getProject",
      "outputs": [
        {
          "components": [
            {
              "internalType": "string",
              "name": "uri",
              "type": "string"
            },
            {
              "internalType": "uint256",
              "name": "createdAt",
              "type": "uint256"
            },
            {
              "internalType": "uint256",
              "name": "groupCount",
              "type": "uint256"
            },
            {
              "internalType": "address",
              "name": "owner",
              "type": "address"
            }
          ],
          "internalType": "struct desilo.Project",
          "name": "",
          "type": "tuple"
        }
      ],
      "stateMutability": "view",
      "type": "function",
      "constant": true
    },
    {
      "inputs": [],
      "name": "getAllProjects",
      "outputs": [
        {
          "components": [
            {
              "internalType": "string",
              "name": "uri",
              "type": "string"
            },
            {
              "internalType": "uint256",
              "name": "createdAt",
              "type": "uint256"
            },
            {
              "internalType": "uint256",
              "name": "groupCount",
              "type": "uint256"
            },
            {
              "internalType": "address",
              "name": "owner",
              "type": "address"
            }
          ],
          "internalType": "struct desilo.Project[]",
          "name": "",
          "type": "tuple[]"
        }
      ],
      "stateMutability": "view",
      "type": "function",
      "constant": true
    },
    {
      "inputs": [
        {
          "internalType": "uint256",
          "name": "projectID",
          "type": "uint256"
        }
      ],
      "name": "getProjectEntities",
      "outputs": [
        {
          "internalType": "bytes32[]",
          "name": "entityIDs",
          "type": "bytes32[]"
        },
        {
          "internalType": "string[]",
          "name": "entityURIs",
          "type": "string[]"
        }
      ],
      "stateMutability": "view",
      "type": "function",
      "constant": true
    },
    {
      "inputs": [
        {
          "internalType": "address",
          "name": "account",
          "type": "address"
        }
      ],
      "name": "getAllSocialCredits",
      "outputs": [
        {
          "internalType": "uint256[]",
          "name": "socialCredits",
          "type": "uint256[]"
        },
        {
          "internalType": "uint256[]",
          "name": "lifetimeSocialCredits",
          "type": "uint256[]"
        }
      ],
      "stateMutability": "view",
      "type": "function",
      "constant": true
    },
    {
      "inputs": [
        {
          "internalType": "uint256",
          "name": "projectID",
          "type": "uint256"
        },
        {
          "internalType": "string",
          "name": "entityURI",
          "type": "string"
        }
      ],
      "name": "addProjectEntity",
      "outputs": [],
      "stateMutability": "nonpayable",
      "type": "function"
    },
    {
      "inputs": [
        {
          "internalType": "uint256",
          "name": "projectID",
          "type": "uint256"
        },
        {
          "internalType": "uint256",
          "name": "groupID",
          "type": "uint256"
        },
        {
          "internalType": "uint256",
          "name": "amount",
          "type": "uint256"
        }
      ],
      "name": "vouchProject",
      "outputs": [],
      "stateMutability": "nonpayable",
      "type": "function"
    },
    {
      "inputs": [
        {
          "internalType": "contract dSocialCredits",
          "name": "_sc",
          "type": "address"
        }
      ],
      "name": "setSC",
      "outputs": [],
      "stateMutability": "nonpayable",
      "type": "function"
    },
    {
      "inputs": [],
      "name": "seedSC",
      "outputs": [],
      "stateMutability": "nonpayable",
      "type": "function"
    },
    {
      "inputs": [
        {
          "internalType": "bytes32",
          "name": "_commitId",
          "type": "bytes32"
        },
        {
          "internalType": "string",
          "name": "uri",
          "type": "string"
        }
      ],
      "name": "stake",
      "outputs": [],
      "stateMutability": "nonpayable",
      "type": "function"
    },
    {
      "inputs": [
        {
          "internalType": "bytes32",
          "name": "_commitId",
          "type": "bytes32"
        },
        {
          "internalType": "uint256",
          "name": "index",
          "type": "uint256"
        },
        {
          "internalType": "bool",
          "name": "_isFraudulent",
          "type": "bool"
        }
      ],
      "name": "toggleFraudulent",
      "outputs": [],
      "stateMutability": "nonpayable",
      "type": "function"
    },
    {
      "inputs": [
        {
          "internalType": "bytes32",
          "name": "_commitId",
          "type": "bytes32"
        },
        {
          "internalType": "uint256",
          "name": "index",
          "type": "uint256"
        }
      ],
      "name": "canUnstake",
      "outputs": [
        {
          "internalType": "enum desilo.StakingState",
          "name": "",
          "type": "uint8"
        }
      ],
      "stateMutability": "view",
      "type": "function",
      "constant": true
    },
    {
      "inputs": [
        {
          "internalType": "bytes32",
          "name": "_commitId",
          "type": "bytes32"
        },
        {
          "internalType": "uint256",
          "name": "index",
          "type": "uint256"
        }
      ],
      "name": "unstake",
      "outputs": [],
      "stateMutability": "nonpayable",
      "type": "function"
    },
    {
      "inputs": [
        {
          "internalType": "string",
          "name": "uri",
          "type": "string"
        }
      ],
      "name": "registerProject",
      "outputs": [],
      "stateMutability": "nonpayable",
      "type": "function"
    },
    {
      "inputs": [
        {
          "internalType": "address",
          "name": "operator",
          "type": "address"
        },
        {
          "internalType": "address",
          "name": "from",
          "type": "address"
        },
        {
          "internalType": "uint256",
          "name": "id",
          "type": "uint256"
        },
        {
          "internalType": "uint256",
          "name": "value",
          "type": "uint256"
        },
        {
          "internalType": "bytes",
          "name": "data",
          "type": "bytes"
        }
      ],
      "name": "onERC1155Received",
      "outputs": [
        {
          "internalType": "bytes4",
          "name": "",
          "type": "bytes4"
        }
      ],
      "stateMutability": "pure",
      "type": "function",
      "constant": true
    },
    {
      "inputs": [
        {
          "internalType": "address",
          "name": "operator",
          "type": "address"
        },
        {
          "internalType": "address",
          "name": "from",
          "type": "address"
        },
        {
          "internalType": "uint256[]",
          "name": "ids",
          "type": "uint256[]"
        },
        {
          "internalType": "uint256[]",
          "name": "values",
          "type": "uint256[]"
        },
        {
          "internalType": "bytes",
          "name": "data",
          "type": "bytes"
        }
      ],
      "name": "onERC1155BatchReceived",
      "outputs": [
        {
          "internalType": "bytes4",
          "name": "",
          "type": "bytes4"
        }
      ],
      "stateMutability": "pure",
      "type": "function",
      "constant": true
    }
  ],
  "bytecode": "0x60806040527fffffffffffffffffffffffffffffffffffffffffffffffffffffffffffffffff600755600060105560006011553480156200003f57600080fd5b5060405162004f8b38038062004f8b833981810160405281019062000065919062000137565b83600360006101000a8154816fffffffffffffffffffffffffffffffff0219169083600f0b6fffffffffffffffffffffffffffffffff1602179055508460018190555082600081905550816002819055508060048190555033600660006101000a81548173ffffffffffffffffffffffffffffffffffffffff021916908373ffffffffffffffffffffffffffffffffffffffff160217905550505050505062000204565b6000815190506200011a81620001d0565b92915050565b6000815190506200013181620001ea565b92915050565b600080600080600060a086880312156200015057600080fd5b6000620001608882890162000120565b9550506020620001738882890162000109565b9450506040620001868882890162000120565b9350506060620001998882890162000120565b9250506080620001ac8882890162000120565b9150509295509295909350565b600081600f0b9050919050565b6000819050919050565b620001db81620001b9565b8114620001e757600080fd5b50565b620001f581620001c6565b81146200020157600080fd5b50565b614d7780620002146000396000f3fe608060405234801561001057600080fd5b50600436106101e55760003560e01c80637b5399991161010f578063bc197c81116100a2578063ecb282de11610071578063ecb282de146105aa578063f0f3f2c8146105c8578063f23a6e61146105f8578063ff0213a214610628576101e5565b8063bc197c81146104fc578063ceb606541461052c578063d841212e1461055c578063ea7c7d861461057a576101e5565b8063907a4e1d116100de578063907a4e1d14610476578063a5e8019214610492578063b2dd5c07146104b0578063b2e9ed3d146104e0576101e5565b80637b539999146103ee57806380d038291461041e5780638a0605a21461043c5780638d9972701461045a576101e5565b80632f0081051161018757806365f5e7b61161015657806365f5e7b6146103665780636b513d0c1461039857806371622975146103b657806372212ec7146103d2576101e5565b80632f008105146102f157806333a6e352146102fb57806349107fbb1461032c5780635859e08214610348576101e5565b806316ae261d116101c357806316ae261d14610256578063176926e0146102725780631fd7288c146102a257806321cd3cae146102d3576101e5565b806301bed79c146101ea57806301ffc9a7146102085780631614047e14610238575b600080fd5b6101f2610644565b6040516101ff91906144b6565b60405180910390f35b610222600480360381019061021d919061361a565b610657565b60405161022f9190614465565b60405180910390f35b6102406106d1565b60405161024d9190614593565b60405180910390f35b610270600480360381019061026b919061358f565b6106d7565b005b61028c6004803603810190610287919061358f565b610ca5565b604051610299919061449b565b60405180910390f35b6102bc60048036038101906102b791906136ad565b610e0b565b6040516102ca929190614391565b60405180910390f35b6102db6110f5565b6040516102e891906143c8565b60405180910390f35b6102f96112ba565b005b6103156004803603810190610310919061338b565b611436565b60405161032392919061442e565b60405180910390f35b610346600480360381019061034191906136ff565b61192b565b005b610350611a29565b60405161035d9190614593565b60405180910390f35b610380600480360381019061037b91906136ad565b611a2f565b60405161038f939291906144d1565b60405180910390f35b6103a0611aee565b6040516103ad919061432b565b60405180910390f35b6103d060048036038101906103cb919061353b565b611ceb565b005b6103ec60048036038101906103e7919061366c565b611f01565b005b610408600480360381019061040391906136ad565b611ff8565b604051610415919061436f565b60405180910390f35b610426612116565b60405161043391906143ea565b60405180910390f35b61044461231e565b604051610451919061434d565b60405180910390f35b610474600480360381019061046f9190613753565b612508565b005b610490600480360381019061048b9190613643565b612725565b005b61049a6127c3565b6040516104a79190614593565b60405180910390f35b6104ca60048036038101906104c5919061338b565b6127c9565b6040516104d79190614465565b60405180910390f35b6104fa60048036038101906104f591906137ce565b6127e9565b005b610516600480360381019061051191906133b4565b6129a0565b6040516105239190614480565b60405180910390f35b610546600480360381019061054191906136ad565b6129b8565b604051610553919061454f565b60405180910390f35b610564612a9e565b6040516105719190614593565b60405180910390f35b610594600480360381019061058f9190613512565b612aa4565b6040516105a1919061440c565b60405180910390f35b6105b2612d37565b6040516105bf9190614593565b60405180910390f35b6105e260048036038101906105dd91906136ad565b612d3d565b6040516105ef9190614571565b60405180910390f35b610612600480360381019061060d9190613480565b612e66565b60405161061f9190614480565b60405180910390f35b610642600480360381019061063d91906135cb565b612e7c565b005b600360009054906101000a9004600f0b81565b60007f4e2312e0000000000000000000000000000000000000000000000000000000007bffffffffffffffffffffffffffffffffffffffffffffffffffffffff1916827bffffffffffffffffffffffffffffffffffffffffffffffffffffffff191614806106ca57506106c982612f76565b5b9050919050565b60005481565b60016002811115610711577f4e487b7100000000000000000000000000000000000000000000000000000000600052602160045260246000fd5b61071b8383610ca5565b6002811115610753577f4e487b7100000000000000000000000000000000000000000000000000000000600052602160045260246000fd5b14610793576040517f08c379a000000000000000000000000000000000000000000000000000000000815260040161078a9061452f565b60405180910390fd5b60006009600084815260200190815260200160002082815481106107e0577f4e487b7100000000000000000000000000000000000000000000000000000000600052603260045260246000fd5b90600052602060002090600502016003015490506000600a60008581526020019081526020016000205490506000600e600083815260200190815260200160002060020154905060008167ffffffffffffffff811115610869577f4e487b7100000000000000000000000000000000000000000000000000000000600052604160045260246000fd5b6040519080825280602002602001820160405280156108975781602001602082028036833780820191505090505b50905060008267ffffffffffffffff8111156108dc577f4e487b7100000000000000000000000000000000000000000000000000000000600052604160045260246000fd5b60405190808252806020026020018201604052801561090a5781602001602082028036833780820191505090505b509050600060096000898152602001908152602001600020878154811061095a577f4e487b7100000000000000000000000000000000000000000000000000000000600052603260045260246000fd5b906000526020600020906005020160030181905550600560009054906101000a900473ffffffffffffffffffffffffffffffffffffffff1673ffffffffffffffffffffffffffffffffffffffff1663f242432a3033600754896040518563ffffffff1660e01b81526004016109d2949392919061419a565b600060405180830381600087803b1580156109ec57600080fd5b505af1158015610a00573d6000803e3d6000fd5b50505050600560009054906101000a900473ffffffffffffffffffffffffffffffffffffffff1673ffffffffffffffffffffffffffffffffffffffff1663731133e933600754610a5f600360009054906101000a9004600f0b8a612fe0565b6040518463ffffffff1660e01b8152600401610a7d939291906142e1565b600060405180830381600087803b158015610a9757600080fd5b505af1158015610aab573d6000803e3d6000fd5b505050506000805b601154811015610bce57600c6000878152602001908152602001600020600082815260200190815260200160002060009054906101000a900460ff1615610bbb5780848381518110610b2e577f4e487b7100000000000000000000000000000000000000000000000000000000600052603260045260246000fd5b602002602001018181525050610b676012600083815260200190815260200160002060010160009054906101000a9004600f0b88612fe0565b838381518110610ba0577f4e487b7100000000000000000000000000000000000000000000000000000000600052603260045260246000fd5b6020026020010181815250508180610bb790614af1565b9250505b8080610bc690614af1565b915050610ab3565b50600560009054906101000a900473ffffffffffffffffffffffffffffffffffffffff1673ffffffffffffffffffffffffffffffffffffffff16631f7fdffa3385856040518463ffffffff1660e01b8152600401610c2e939291906141f2565b600060405180830381600087803b158015610c4857600080fd5b505af1158015610c5c573d6000803e3d6000fd5b505050507f2774090e627869eaafcd1e79e291786f7d2bcc2f62467b75effa5739ac1df914338989604051610c939392919061424a565b60405180910390a15050505050505050565b6000600960008481526020019081526020016000208281548110610cf2577f4e487b7100000000000000000000000000000000000000000000000000000000600052603260045260246000fd5b906000526020600020906005020160040160009054906101000a900460ff1680610d845750600454600960008581526020019081526020016000208381548110610d65577f4e487b7100000000000000000000000000000000000000000000000000000000600052603260045260246000fd5b906000526020600020906005020160010154610d819190614900565b42105b15610d925760009050610e05565b6000600960008581526020019081526020016000208381548110610ddf577f4e487b7100000000000000000000000000000000000000000000000000000000600052603260045260246000fd5b9060005260206000209060050201600301541115610e005760019050610e05565b600290505b92915050565b606080600f60008481526020019081526020016000205467ffffffffffffffff811115610e61577f4e487b7100000000000000000000000000000000000000000000000000000000600052604160045260246000fd5b604051908082528060200260200182016040528015610e9457816020015b6060815260200190600190039081610e7f5790505b509050600f60008481526020019081526020016000205467ffffffffffffffff811115610eea577f4e487b7100000000000000000000000000000000000000000000000000000000600052604160045260246000fd5b604051908082528060200260200182016040528015610f185781602001602082028036833780820191505090505b50915060005b600f6000858152602001908152602001600020548110156110ef57600e600085815260200190815260200160002060000181604051602001610f61929190614172565b60405160208183030381529060405280519060200120838281518110610fb0577f4e487b7100000000000000000000000000000000000000000000000000000000600052603260045260246000fd5b602002602001018181525050600b6000848381518110610ff9577f4e487b7100000000000000000000000000000000000000000000000000000000600052603260045260246000fd5b60200260200101518152602001908152602001600020805461101a90614a8e565b80601f016020809104026020016040519081016040528092919081815260200182805461104690614a8e565b80156110935780601f1061106857610100808354040283529160200191611093565b820191906000526020600020905b81548152906001019060200180831161107657829003601f168201915b50505050508282815181106110d1577f4e487b7100000000000000000000000000000000000000000000000000000000600052603260045260246000fd5b602002602001018190525080806110e790614af1565b915050610f1e565b50915091565b6060600060115467ffffffffffffffff81111561113b577f4e487b7100000000000000000000000000000000000000000000000000000000600052604160045260246000fd5b60405190808252806020026020018201604052801561117457816020015b61116161309b565b8152602001906001900390816111595790505b50905060005b6011548110156112b257601260008281526020019081526020016000206040518060600160405290816000820180546111b290614a8e565b80601f01602080910402602001604051908101604052809291908181526020018280546111de90614a8e565b801561122b5780601f106112005761010080835404028352916020019161122b565b820191906000526020600020905b81548152906001019060200180831161120e57829003601f168201915b505050505081526020016001820160009054906101000a9004600f0b600f0b600f0b8152602001600282015481525050828281518110611294577f4e487b7100000000000000000000000000000000000000000000000000000000600052603260045260246000fd5b602002602001018190525080806112aa90614af1565b91505061117a565b508091505090565b600860003373ffffffffffffffffffffffffffffffffffffffff1673ffffffffffffffffffffffffffffffffffffffff16815260200190815260200160002060009054906101000a900460ff1615611347576040517f08c379a000000000000000000000000000000000000000000000000000000000815260040161133e9061450f565b60405180910390fd5b6001600860003373ffffffffffffffffffffffffffffffffffffffff1673ffffffffffffffffffffffffffffffffffffffff16815260200190815260200160002060006101000a81548160ff021916908315150217905550600560009054906101000a900473ffffffffffffffffffffffffffffffffffffffff1673ffffffffffffffffffffffffffffffffffffffff1663731133e9336007546002546040518463ffffffff1660e01b8152600401611402939291906142e1565b600060405180830381600087803b15801561141c57600080fd5b505af1158015611430573d6000803e3d6000fd5b50505050565b60608060016011546114489190614900565b67ffffffffffffffff811115611487577f4e487b7100000000000000000000000000000000000000000000000000000000600052604160045260246000fd5b6040519080825280602002602001820160405280156114b55781602001602082028036833780820191505090505b50915060016011546114c79190614900565b67ffffffffffffffff811115611506577f4e487b7100000000000000000000000000000000000000000000000000000000600052604160045260246000fd5b6040519080825280602002602001820160405280156115345781602001602082028036833780820191505090505b50905060005b60115481101561173a57600560009054906101000a900473ffffffffffffffffffffffffffffffffffffffff1673ffffffffffffffffffffffffffffffffffffffff1662fdd58e85836040518363ffffffff1660e01b81526004016115a0929190614281565b60206040518083038186803b1580156115b857600080fd5b505afa1580156115cc573d6000803e3d6000fd5b505050506040513d601f19601f820116820180604052508101906115f091906136d6565b838281518110611629577f4e487b7100000000000000000000000000000000000000000000000000000000600052603260045260246000fd5b602002602001018181525050600560009054906101000a900473ffffffffffffffffffffffffffffffffffffffff1673ffffffffffffffffffffffffffffffffffffffff166371a9daba85836040518363ffffffff1660e01b8152600401611692929190614281565b60206040518083038186803b1580156116aa57600080fd5b505afa1580156116be573d6000803e3d6000fd5b505050506040513d601f19601f820116820180604052508101906116e291906136d6565b82828151811061171b577f4e487b7100000000000000000000000000000000000000000000000000000000600052603260045260246000fd5b602002602001018181525050808061173290614af1565b91505061153a565b50600560009054906101000a900473ffffffffffffffffffffffffffffffffffffffff1673ffffffffffffffffffffffffffffffffffffffff1662fdd58e846007546040518363ffffffff1660e01b8152600401611799929190614281565b60206040518083038186803b1580156117b157600080fd5b505afa1580156117c5573d6000803e3d6000fd5b505050506040513d601f19601f820116820180604052508101906117e991906136d6565b8260115481518110611824577f4e487b7100000000000000000000000000000000000000000000000000000000600052603260045260246000fd5b602002602001018181525050600560009054906101000a900473ffffffffffffffffffffffffffffffffffffffff1673ffffffffffffffffffffffffffffffffffffffff166371a9daba846007546040518363ffffffff1660e01b815260040161188f929190614281565b60206040518083038186803b1580156118a757600080fd5b505afa1580156118bb573d6000803e3d6000fd5b505050506040513d601f19601f820116820180604052508101906118df91906136d6565b816011548151811061191a577f4e487b7100000000000000000000000000000000000000000000000000000000600052603260045260246000fd5b602002602001018181525050915091565b6000600e6000848152602001908152602001600020600001600f600085815260200190815260200160002054604051602001611968929190614172565b60405160208183030381529060405280519060200120905082600a60008381526020019081526020016000208190555081600b600083815260200190815260200160002090805190602001906119bf9291906130bf565b506001600f600085815260200190815260200160002060008282546119e49190614900565b925050819055507f805e1e03450a6d1d6d01b8952c45eb42c266813f218230d69feb44df0875d4758382604051611a1c9291906145d7565b60405180910390a1505050565b60075481565b6012602052806000526040600020600091509050806000018054611a5290614a8e565b80601f0160208091040260200160405190810160405280929190818152602001828054611a7e90614a8e565b8015611acb5780601f10611aa057610100808354040283529160200191611acb565b820191906000526020600020905b815481529060010190602001808311611aae57829003601f168201915b5050505050908060010160009054906101000a9004600f0b908060020154905083565b6060600060105467ffffffffffffffff811115611b34577f4e487b7100000000000000000000000000000000000000000000000000000000600052604160045260246000fd5b604051908082528060200260200182016040528015611b6757816020015b6060815260200190600190039081611b525790505b50905060005b601054811015611ce357600060115467ffffffffffffffff811115611bbb577f4e487b7100000000000000000000000000000000000000000000000000000000600052604160045260246000fd5b604051908082528060200260200182016040528015611be95781602001602082028036833780820191505090505b50905060005b601154811015611c8957600c6000848152602001908152602001600020600082815260200190815260200160002060009054906101000a900460ff16828281518110611c64577f4e487b7100000000000000000000000000000000000000000000000000000000600052603260045260246000fd5b6020026020010190151590811515815250508080611c8190614af1565b915050611bef565b5080838381518110611cc4577f4e487b7100000000000000000000000000000000000000000000000000000000600052603260045260246000fd5b6020026020010181905250508080611cdb90614af1565b915050611b6d565b508091505090565b600560009054906101000a900473ffffffffffffffffffffffffffffffffffffffff1673ffffffffffffffffffffffffffffffffffffffff1663f242432a33306007546001546040518563ffffffff1660e01b8152600401611d50949392919061419a565b600060405180830381600087803b158015611d6a57600080fd5b505af1158015611d7e573d6000803e3d6000fd5b5050505060006040518060a001604052808381526020014281526020013373ffffffffffffffffffffffffffffffffffffffff1681526020016001548152602001600015158152509050600960008481526020019081526020016000208190806001815401808255809150506001900390600052602060002090600502016000909190919091506000820151816000019080519060200190611e219291906130bf565b506020820151816001015560408201518160020160006101000a81548173ffffffffffffffffffffffffffffffffffffffff021916908373ffffffffffffffffffffffffffffffffffffffff1602179055506060820151816003015560808201518160040160006101000a81548160ff02191690831515021790555050507fb46febe4efbbb5c019390b465ed6683766acdecdef421175b285b18932c27e2c338460016009600088815260200190815260200160002080549050611ee59190614956565b604051611ef49392919061424a565b60405180910390a1505050565b80600e600060105481526020019081526020016000206000019080519060200190611f2d9291906130bf565b5033600e6000601054815260200190815260200160002060030160006101000a81548173ffffffffffffffffffffffffffffffffffffffff021916908373ffffffffffffffffffffffffffffffffffffffff16021790555042600e60006010548152602001908152602001600020600101819055507f63c92f9505d420bff631cb9df33be952bdc11e2118da36a850b43e6bcc4ce4de60105433604051611fd59291906145ae565b60405180910390a160106000815480929190611ff090614af1565b919050555050565b6060600060115467ffffffffffffffff81111561203e577f4e487b7100000000000000000000000000000000000000000000000000000000600052604160045260246000fd5b60405190808252806020026020018201604052801561206c5781602001602082028036833780820191505090505b50905060005b60115481101561210c57600c6000858152602001908152602001600020600082815260200190815260200160002060009054906101000a900460ff168282815181106120e7577f4e487b7100000000000000000000000000000000000000000000000000000000600052603260045260246000fd5b602002602001019015159081151581525050808061210490614af1565b915050612072565b5080915050919050565b6060600060105467ffffffffffffffff81111561215c577f4e487b7100000000000000000000000000000000000000000000000000000000600052604160045260246000fd5b60405190808252806020026020018201604052801561219557816020015b612182613145565b81526020019060019003908161217a5790505b50905060005b60105481101561231657600e60008281526020019081526020016000206040518060800160405290816000820180546121d390614a8e565b80601f01602080910402602001604051908101604052809291908181526020018280546121ff90614a8e565b801561224c5780601f106122215761010080835404028352916020019161224c565b820191906000526020600020905b81548152906001019060200180831161222f57829003601f168201915b5050505050815260200160018201548152602001600282015481526020016003820160009054906101000a900473ffffffffffffffffffffffffffffffffffffffff1673ffffffffffffffffffffffffffffffffffffffff1673ffffffffffffffffffffffffffffffffffffffff16815250508282815181106122f8577f4e487b7100000000000000000000000000000000000000000000000000000000600052603260045260246000fd5b6020026020010181905250808061230e90614af1565b91505061219b565b508091505090565b6060600060105467ffffffffffffffff811115612364577f4e487b7100000000000000000000000000000000000000000000000000000000600052604160045260246000fd5b60405190808252806020026020018201604052801561239757816020015b60608152602001906001900390816123825790505b50905060005b60105481101561250057600060115467ffffffffffffffff8111156123eb577f4e487b7100000000000000000000000000000000000000000000000000000000600052604160045260246000fd5b6040519080825280602002602001820160405280156124195781602001602082028036833780820191505090505b50905060005b6011548110156124a657600d6000848152602001908152602001600020600082815260200190815260200160002054828281518110612487577f4e487b7100000000000000000000000000000000000000000000000000000000600052603260045260246000fd5b602002602001018181525050808061249e90614af1565b91505061241f565b50808383815181106124e1577f4e487b7100000000000000000000000000000000000000000000000000000000600052603260045260246000fd5b60200260200101819052505080806124f890614af1565b91505061239d565b508091505090565b600560009054906101000a900473ffffffffffffffffffffffffffffffffffffffff1673ffffffffffffffffffffffffffffffffffffffff1663f5298aca336007546000546040518463ffffffff1660e01b815260040161256b939291906142aa565b600060405180830381600087803b15801561258557600080fd5b505af1158015612599573d6000803e3d6000fd5b505050508260126000601154815260200190815260200160002060000190805190602001906125c99291906130bf565b508160126000601154815260200190815260200160002060010160006101000a8154816fffffffffffffffffffffffffffffffff0219169083600f0b6fffffffffffffffffffffffffffffffff1602179055508060126000601154815260200190815260200160002060020181905550600560009054906101000a900473ffffffffffffffffffffffffffffffffffffffff1673ffffffffffffffffffffffffffffffffffffffff1663731133e933601154876040518463ffffffff1660e01b815260040161269a939291906142e1565b600060405180830381600087803b1580156126b457600080fd5b505af11580156126c8573d6000803e3d6000fd5b505050507f6958b51b54d963fa8eeeea5b61b83a9ad28f9ee9d5a2f1b8495e6866cb534bb1601154336040516126ff9291906145ae565b60405180910390a16011600081548092919061271a90614af1565b919050555050505050565b600660009054906101000a900473ffffffffffffffffffffffffffffffffffffffff1673ffffffffffffffffffffffffffffffffffffffff163373ffffffffffffffffffffffffffffffffffffffff161461277f57600080fd5b80600560006101000a81548173ffffffffffffffffffffffffffffffffffffffff021916908373ffffffffffffffffffffffffffffffffffffffff16021790555050565b60015481565b60086020528060005260406000206000915054906101000a900460ff1681565b600560009054906101000a900473ffffffffffffffffffffffffffffffffffffffff1673ffffffffffffffffffffffffffffffffffffffff1663f5298aca3384846040518463ffffffff1660e01b8152600401612848939291906142aa565b600060405180830381600087803b15801561286257600080fd5b505af1158015612876573d6000803e3d6000fd5b5050505080600d6000858152602001908152602001600020600084815260200190815260200160002060008282546128ae9190614900565b925050819055506012600083815260200190815260200160002060020154600d60008581526020019081526020016000206000848152602001908152602001600020541061299b576001600c6000858152602001908152602001600020600084815260200190815260200160002060006101000a81548160ff0219169083151502179055506001600e6000858152602001908152602001600020600201600082825461295a9190614900565b925050819055507f29692491058132b418905fa7c07d37d72a2355cf7f1d20d22a134414aa6ddf4c8383604051612992929190614600565b60405180910390a15b505050565b600063bc197c8160e01b905098975050505050505050565b6129c061309b565b601260008381526020019081526020016000206040518060600160405290816000820180546129ee90614a8e565b80601f0160208091040260200160405190810160405280929190818152602001828054612a1a90614a8e565b8015612a675780601f10612a3c57610100808354040283529160200191612a67565b820191906000526020600020905b815481529060010190602001808311612a4a57829003601f168201915b505050505081526020016001820160009054906101000a9004600f0b600f0b600f0b81526020016002820154815250509050919050565b60025481565b60606000600960008481526020019081526020016000208054905067ffffffffffffffff811115612afe577f4e487b7100000000000000000000000000000000000000000000000000000000600052604160045260246000fd5b604051908082528060200260200182016040528015612b3757816020015b612b24613183565b815260200190600190039081612b1c5790505b50905060005b6009600085815260200190815260200160002080549050811015612d2d57600960008581526020019081526020016000208181548110612ba6577f4e487b7100000000000000000000000000000000000000000000000000000000600052603260045260246000fd5b90600052602060002090600502016040518060a0016040529081600082018054612bcf90614a8e565b80601f0160208091040260200160405190810160405280929190818152602001828054612bfb90614a8e565b8015612c485780601f10612c1d57610100808354040283529160200191612c48565b820191906000526020600020905b815481529060010190602001808311612c2b57829003601f168201915b50505050508152602001600182015481526020016002820160009054906101000a900473ffffffffffffffffffffffffffffffffffffffff1673ffffffffffffffffffffffffffffffffffffffff1673ffffffffffffffffffffffffffffffffffffffff168152602001600382015481526020016004820160009054906101000a900460ff161515151581525050828281518110612d0f577f4e487b7100000000000000000000000000000000000000000000000000000000600052603260045260246000fd5b60200260200101819052508080612d2590614af1565b915050612b3d565b5080915050919050565b60045481565b612d45613145565b600e6000838152602001908152602001600020604051806080016040529081600082018054612d7390614a8e565b80601f0160208091040260200160405190810160405280929190818152602001828054612d9f90614a8e565b8015612dec5780601f10612dc157610100808354040283529160200191612dec565b820191906000526020600020905b815481529060010190602001808311612dcf57829003601f168201915b5050505050815260200160018201548152602001600282015481526020016003820160009054906101000a900473ffffffffffffffffffffffffffffffffffffffff1673ffffffffffffffffffffffffffffffffffffffff1673ffffffffffffffffffffffffffffffffffffffff16815250509050919050565b600063f23a6e6160e01b90509695505050505050565b3373ffffffffffffffffffffffffffffffffffffffff16600e6000600a600087815260200190815260200160002054815260200190815260200160002060030160009054906101000a900473ffffffffffffffffffffffffffffffffffffffff1673ffffffffffffffffffffffffffffffffffffffff1614612efd57600080fd5b80600960008581526020019081526020016000208381548110612f49577f4e487b7100000000000000000000000000000000000000000000000000000000600052603260045260246000fd5b906000526020600020906005020160040160006101000a81548160ff021916908315150217905550505050565b60007f01ffc9a7000000000000000000000000000000000000000000000000000000007bffffffffffffffffffffffffffffffffffffffffffffffffffffffff1916827bffffffffffffffffffffffffffffffffffffffffffffffffffffffff1916149050919050565b600080821415612ff35760009050613095565b600083600f0b121561300457600080fd5b600060406fffffffffffffffffffffffffffffffff841685600f0b02901c90506000608084901c85600f0b02905077ffffffffffffffffffffffffffffffffffffffffffffffff81111561305757600080fd5b604081901b9050817fffffffffffffffffffffffffffffffffffffffffffffffffffffffffffffffff0381111561308d57600080fd5b818101925050505b92915050565b6040518060600160405280606081526020016000600f0b8152602001600081525090565b8280546130cb90614a8e565b90600052602060002090601f0160209004810192826130ed5760008555613134565b82601f1061310657805160ff1916838001178555613134565b82800160010185558215613134579182015b82811115613133578251825591602001919060010190613118565b5b50905061314191906131ca565b5090565b6040518060800160405280606081526020016000815260200160008152602001600073ffffffffffffffffffffffffffffffffffffffff1681525090565b6040518060a001604052806060815260200160008152602001600073ffffffffffffffffffffffffffffffffffffffff168152602001600081526020016000151581525090565b5b808211156131e35760008160009055506001016131cb565b5090565b60006131fa6131f58461464e565b614629565b90508281526020810184848401111561321257600080fd5b61321d848285614a4c565b509392505050565b60008135905061323481614ca0565b92915050565b60008083601f84011261324c57600080fd5b8235905067ffffffffffffffff81111561326557600080fd5b60208301915083602082028301111561327d57600080fd5b9250929050565b60008135905061329381614cb7565b92915050565b6000813590506132a881614cce565b92915050565b6000813590506132bd81614ce5565b92915050565b60008083601f8401126132d557600080fd5b8235905067ffffffffffffffff8111156132ee57600080fd5b60208301915083600182028301111561330657600080fd5b9250929050565b60008135905061331c81614cfc565b92915050565b60008135905061333181614d13565b92915050565b600082601f83011261334857600080fd5b81356133588482602086016131e7565b91505092915050565b60008135905061337081614d2a565b92915050565b60008151905061338581614d2a565b92915050565b60006020828403121561339d57600080fd5b60006133ab84828501613225565b91505092915050565b60008060008060008060008060a0898b0312156133d057600080fd5b60006133de8b828c01613225565b98505060206133ef8b828c01613225565b975050604089013567ffffffffffffffff81111561340c57600080fd5b6134188b828c0161323a565b9650965050606089013567ffffffffffffffff81111561343757600080fd5b6134438b828c0161323a565b9450945050608089013567ffffffffffffffff81111561346257600080fd5b61346e8b828c016132c3565b92509250509295985092959890939650565b60008060008060008060a0878903121561349957600080fd5b60006134a789828a01613225565b96505060206134b889828a01613225565b95505060406134c989828a01613361565b94505060606134da89828a01613361565b935050608087013567ffffffffffffffff8111156134f757600080fd5b61350389828a016132c3565b92509250509295509295509295565b60006020828403121561352457600080fd5b600061353284828501613299565b91505092915050565b6000806040838503121561354e57600080fd5b600061355c85828601613299565b925050602083013567ffffffffffffffff81111561357957600080fd5b61358585828601613337565b9150509250929050565b600080604083850312156135a257600080fd5b60006135b085828601613299565b92505060206135c185828601613361565b9150509250929050565b6000806000606084860312156135e057600080fd5b60006135ee86828701613299565b93505060206135ff86828701613361565b925050604061361086828701613284565b9150509250925092565b60006020828403121561362c57600080fd5b600061363a848285016132ae565b91505092915050565b60006020828403121561365557600080fd5b60006136638482850161330d565b91505092915050565b60006020828403121561367e57600080fd5b600082013567ffffffffffffffff81111561369857600080fd5b6136a484828501613337565b91505092915050565b6000602082840312156136bf57600080fd5b60006136cd84828501613361565b91505092915050565b6000602082840312156136e857600080fd5b60006136f684828501613376565b91505092915050565b6000806040838503121561371257600080fd5b600061372085828601613361565b925050602083013567ffffffffffffffff81111561373d57600080fd5b61374985828601613337565b9150509250929050565b6000806000806080858703121561376957600080fd5b600061377787828801613361565b945050602085013567ffffffffffffffff81111561379457600080fd5b6137a087828801613337565b93505060406137b187828801613322565b92505060606137c287828801613361565b91505092959194509250565b6000806000606084860312156137e357600080fd5b60006137f186828701613361565b935050602061380286828701613361565b925050604061381386828701613361565b9150509250925092565b600061382983836139e5565b905092915050565b600061383d8383613cd3565b905092915050565b60006138518383613d8f565b60208301905092915050565b60006138698383613dad565b60208301905092915050565b60006138818383613e07565b905092915050565b60006138958383613f61565b905092915050565b60006138a98383614001565b905092915050565b60006138bd83836140c7565b905092915050565b60006138d1838361413d565b60208301905092915050565b6138e68161498a565b82525050565b6138f58161498a565b82525050565b600061390682614724565b6139108185614807565b9350836020820285016139228561467f565b8060005b8581101561395e578484038952815161393f858261381d565b945061394a83614792565b925060208a01995050600181019050613926565b50829750879550505050505092915050565b600061397b8261472f565b6139858185614818565b9350836020820285016139978561468f565b8060005b858110156139d357848403895281516139b48582613831565b94506139bf8361479f565b925060208a0199505060018101905061399b565b50829750879550505050505092915050565b60006139f08261473a565b6139fa8185614829565b9350613a058361469f565b8060005b83811015613a36578151613a1d8882613845565b9750613a28836147ac565b925050600181019050613a09565b5085935050505092915050565b6000613a4e8261473a565b613a58818561483a565b9350613a638361469f565b8060005b83811015613a94578151613a7b8882613845565b9750613a86836147ac565b925050600181019050613a67565b5085935050505092915050565b6000613aac82614745565b613ab6818561484b565b9350613ac1836146af565b8060005b83811015613af2578151613ad9888261385d565b9750613ae4836147b9565b925050600181019050613ac5565b5085935050505092915050565b6000613b0a82614750565b613b14818561485c565b935083602082028501613b26856146bf565b8060005b85811015613b625784840389528151613b438582613875565b9450613b4e836147c6565b925060208a01995050600181019050613b2a565b50829750879550505050505092915050565b6000613b7f8261475b565b613b89818561486d565b935083602082028501613b9b856146cf565b8060005b85811015613bd75784840389528151613bb88582613889565b9450613bc3836147d3565b925060208a01995050600181019050613b9f565b50829750879550505050505092915050565b6000613bf482614766565b613bfe818561487e565b935083602082028501613c10856146df565b8060005b85811015613c4c5784840389528151613c2d858261389d565b9450613c38836147e0565b925060208a01995050600181019050613c14565b50829750879550505050505092915050565b6000613c6982614771565b613c73818561488f565b935083602082028501613c85856146ef565b8060005b85811015613cc15784840389528151613ca285826138b1565b9450613cad836147ed565b925060208a01995050600181019050613c89565b50829750879550505050505092915050565b6000613cde8261477c565b613ce881856148a0565b9350613cf3836146ff565b8060005b83811015613d24578151613d0b88826138c5565b9750613d16836147fa565b925050600181019050613cf7565b5085935050505092915050565b6000613d3c8261477c565b613d4681856148b1565b9350613d51836146ff565b8060005b83811015613d82578151613d6988826138c5565b9750613d74836147fa565b925050600181019050613d55565b5085935050505092915050565b613d988161499c565b82525050565b613da78161499c565b82525050565b613db6816149a8565b82525050565b613dc5816149a8565b82525050565b613dd4816149b2565b82525050565b613de381614a3a565b82525050565b613df281614a03565b82525050565b613e0181614a03565b82525050565b6000613e1282614787565b613e1c81856148d3565b9350613e2c818560208601614a5b565b613e3581614c00565b840191505092915050565b6000613e4b82614787565b613e5581856148e4565b9350613e65818560208601614a5b565b613e6e81614c00565b840191505092915050565b60008154613e8681614a8e565b613e9081866148f5565b94506001821660008114613eab5760018114613ebc57613eef565b60ff19831686528186019350613eef565b613ec58561470f565b60005b83811015613ee757815481890152600182019150602081019050613ec8565b838801955050505b50505092915050565b6000613f056032836148e4565b9150613f1082614c11565b604082019050919050565b6000613f286000836148c2565b9150613f3382614c60565b600082019050919050565b6000613f4b6020836148e4565b9150613f5682614c63565b602082019050919050565b60006060830160008301518482036000860152613f7e8282613e07565b9150506020830151613f936020860182613de9565b506040830151613fa6604086018261413d565b508091505092915050565b60006060830160008301518482036000860152613fce8282613e07565b9150506020830151613fe36020860182613de9565b506040830151613ff6604086018261413d565b508091505092915050565b6000608083016000830151848203600086015261401e8282613e07565b9150506020830151614033602086018261413d565b506040830151614046604086018261413d565b50606083015161405960608601826138dd565b508091505092915050565b600060808301600083015184820360008601526140818282613e07565b9150506020830151614096602086018261413d565b5060408301516140a9604086018261413d565b5060608301516140bc60608601826138dd565b508091505092915050565b600060a08301600083015184820360008601526140e48282613e07565b91505060208301516140f9602086018261413d565b50604083015161410c60408601826138dd565b50606083015161411f606086018261413d565b5060808301516141326080860182613d8f565b508091505092915050565b61414681614a30565b82525050565b61415581614a30565b82525050565b61416c61416782614a30565b614b3a565b82525050565b600061417e8285613e79565b915061418a828461415b565b6020820191508190509392505050565b600060a0820190506141af60008301876138ec565b6141bc60208301866138ec565b6141c9604083018561414c565b6141d6606083018461414c565b81810360808301526141e781613f1b565b905095945050505050565b600060808201905061420760008301866138ec565b81810360208301526142198185613d31565b9050818103604083015261422d8184613d31565b9050818103606083015261424081613f1b565b9050949350505050565b600060608201905061425f60008301866138ec565b61426c6020830185613dbc565b614279604083018461414c565b949350505050565b600060408201905061429660008301856138ec565b6142a3602083018461414c565b9392505050565b60006060820190506142bf60008301866138ec565b6142cc602083018561414c565b6142d9604083018461414c565b949350505050565b60006080820190506142f660008301866138ec565b614303602083018561414c565b614310604083018461414c565b818103606083015261432181613f1b565b9050949350505050565b6000602082019050818103600083015261434581846138fb565b905092915050565b600060208201905081810360008301526143678184613970565b905092915050565b600060208201905081810360008301526143898184613a43565b905092915050565b600060408201905081810360008301526143ab8185613aa1565b905081810360208301526143bf8184613aff565b90509392505050565b600060208201905081810360008301526143e28184613b74565b905092915050565b600060208201905081810360008301526144048184613be9565b905092915050565b600060208201905081810360008301526144268184613c5e565b905092915050565b600060408201905081810360008301526144488185613d31565b9050818103602083015261445c8184613d31565b90509392505050565b600060208201905061447a6000830184613d9e565b92915050565b60006020820190506144956000830184613dcb565b92915050565b60006020820190506144b06000830184613dda565b92915050565b60006020820190506144cb6000830184613df8565b92915050565b600060608201905081810360008301526144eb8186613e40565b90506144fa6020830185613df8565b614507604083018461414c565b949350505050565b6000602082019050818103600083015261452881613ef8565b9050919050565b6000602082019050818103600083015261454881613f3e565b9050919050565b600060208201905081810360008301526145698184613fb1565b905092915050565b6000602082019050818103600083015261458b8184614064565b905092915050565b60006020820190506145a8600083018461414c565b92915050565b60006040820190506145c3600083018561414c565b6145d060208301846138ec565b9392505050565b60006040820190506145ec600083018561414c565b6145f96020830184613dbc565b9392505050565b6000604082019050614615600083018561414c565b614622602083018461414c565b9392505050565b6000614633614644565b905061463f8282614ac0565b919050565b6000604051905090565b600067ffffffffffffffff82111561466957614668614bd1565b5b61467282614c00565b9050602081019050919050565b6000819050602082019050919050565b6000819050602082019050919050565b6000819050602082019050919050565b6000819050602082019050919050565b6000819050602082019050919050565b6000819050602082019050919050565b6000819050602082019050919050565b6000819050602082019050919050565b6000819050602082019050919050565b60008190508160005260206000209050919050565b600081519050919050565b600081519050919050565b600081519050919050565b600081519050919050565b600081519050919050565b600081519050919050565b600081519050919050565b600081519050919050565b600081519050919050565b600081519050919050565b6000602082019050919050565b6000602082019050919050565b6000602082019050919050565b6000602082019050919050565b6000602082019050919050565b6000602082019050919050565b6000602082019050919050565b6000602082019050919050565b6000602082019050919050565b600082825260208201905092915050565b600082825260208201905092915050565b600082825260208201905092915050565b600082825260208201905092915050565b600082825260208201905092915050565b600082825260208201905092915050565b600082825260208201905092915050565b600082825260208201905092915050565b600082825260208201905092915050565b600082825260208201905092915050565b600082825260208201905092915050565b600082825260208201905092915050565b600082825260208201905092915050565b600082825260208201905092915050565b600081905092915050565b600061490b82614a30565b915061491683614a30565b9250827fffffffffffffffffffffffffffffffffffffffffffffffffffffffffffffffff0382111561494b5761494a614b44565b5b828201905092915050565b600061496182614a30565b915061496c83614a30565b92508282101561497f5761497e614b44565b5b828203905092915050565b600061499582614a10565b9050919050565b60008115159050919050565b6000819050919050565b60007fffffffff0000000000000000000000000000000000000000000000000000000082169050919050565b60006149e98261498a565b9050919050565b60008190506149fe82614c8c565b919050565b600081600f0b9050919050565b600073ffffffffffffffffffffffffffffffffffffffff82169050919050565b6000819050919050565b6000614a45826149f0565b9050919050565b82818337600083830152505050565b60005b83811015614a79578082015181840152602081019050614a5e565b83811115614a88576000848401525b50505050565b60006002820490506001821680614aa657607f821691505b60208210811415614aba57614ab9614ba2565b5b50919050565b614ac982614c00565b810181811067ffffffffffffffff82111715614ae857614ae7614bd1565b5b80604052505050565b6000614afc82614a30565b91507fffffffffffffffffffffffffffffffffffffffffffffffffffffffffffffffff821415614b2f57614b2e614b44565b5b600182019050919050565b6000819050919050565b7f4e487b7100000000000000000000000000000000000000000000000000000000600052601160045260246000fd5b7f4e487b7100000000000000000000000000000000000000000000000000000000600052602160045260246000fd5b7f4e487b7100000000000000000000000000000000000000000000000000000000600052602260045260246000fd5b7f4e487b7100000000000000000000000000000000000000000000000000000000600052604160045260246000fd5b6000601f19601f8301169050919050565b7f43616e6e6f742063616c6c20746869732066756e6374696f6e2c20757365722060008201527f616c726561647920726567697374657265640000000000000000000000000000602082015250565b50565b7f646573696c6f3a20596f75206d6179206e6f742079657420756e7374616b652e600082015250565b60038110614c9d57614c9c614b73565b5b50565b614ca98161498a565b8114614cb457600080fd5b50565b614cc08161499c565b8114614ccb57600080fd5b50565b614cd7816149a8565b8114614ce257600080fd5b50565b614cee816149b2565b8114614cf957600080fd5b50565b614d05816149de565b8114614d1057600080fd5b50565b614d1c81614a03565b8114614d2757600080fd5b50565b614d3381614a30565b8114614d3e57600080fd5b5056fea26469706673582212204852350ed9bac0ca9038fb5c2577ba973af0594fc9817175988ba8c1c0f70d4664736f6c63430008030033",
  "immutableReferences": {},
  "source": "pragma solidity ^0.8.3;\r\n\r\nimport \"./dSocialCredits.sol\";\r\nimport \"./library/ABDKMath64x64.sol\";\r\nimport \"@openzeppelin/contracts/token/ERC1155/utils/ERC1155Receiver.sol\";\r\n\r\ncontract desilo is ERC1155Receiver {\r\n\r\n    struct Group {\r\n        string uri;\r\n        int128 yield;\r\n        uint256 acceptance;\r\n    }\r\n\r\n    struct Project {\r\n        string uri; \r\n        uint256 createdAt; \r\n        uint256 groupCount;\r\n        address owner; \r\n    }\r\n\r\n    struct Review {\r\n        string uri;\r\n        uint256 publishedAt;\r\n        address reviewer;\r\n        uint256 stakeAmount;\r\n        bool fraudulent;\r\n    }\r\n\r\n    enum StakingState {\r\n        pending,\r\n        ready,\r\n        unstaked\r\n    }\r\n\r\n    uint256 public groupCreationSCAmount;\r\n    uint256 public scStakeAmount;\r\n    uint256 public scSeedAmount;\r\n    int128 public scYield;\r\n    uint256 public scStakePeriod;\r\n\r\n    dSocialCredits _scContract;\r\n    address _owner;\r\n    uint256 public scID = 2**256 - 1;\r\n    mapping(address => bool) public registered;\r\n\r\n    // mapping(entityID). keccak256(projectURI, entityURI)\r\n    mapping(bytes32 => Review[]) _entityReviews;\r\n    mapping(bytes32 => uint256) _entityToThread;\r\n    mapping(bytes32 => string) _entityURI;\r\n\r\n\r\n    // mapping(groupID)\r\n    mapping (uint256 => mapping(uint256 => bool)) _affiliatedGroups;\r\n    mapping (uint256 => mapping(uint256 => uint256)) _affiliatedGroupsVouched;\r\n\r\n\r\n    // mapping(projectID)\r\n    mapping(uint256 => Project) _projects; \r\n    mapping(uint256 => uint256) _projectEntitiesCount;\r\n    uint256 _projectCount = 0;\r\n\r\n    // mapping(groupID => fixed128x128)\r\n    uint256 _groupCount = 0;\r\n    mapping(uint256 => Group) public _groups; // Group's \r\n\r\n\r\n    event GroupCreated(uint256 id, address creator); \r\n    event ProjectCreated(uint256 id, address creator); \r\n    event ProjectAccepted(uint256 projectId, uint256 groupId); \r\n    event EntityAdded(uint256 projectId, bytes32 entityId);\r\n    event Staked(address staker, bytes32 commitId, uint256 index); \r\n    event Unstaked(address staker, bytes32 commitId, uint256 index); \r\n\r\n\r\n    constructor(\r\n        uint256 _scStakeAmount,\r\n        int128 _scYield,\r\n        uint256 _groupCreationSCAmount,\r\n        uint256 _scSeedAmount,\r\n        uint256 _scStakePeriod\r\n    ) IERC1155Receiver() {\r\n        scYield = _scYield;\r\n        scStakeAmount = _scStakeAmount;\r\n        groupCreationSCAmount = _groupCreationSCAmount;\r\n        scSeedAmount = _scSeedAmount;\r\n        scStakePeriod = _scStakePeriod;\r\n        _owner = msg.sender;\r\n    }\r\n\r\n    function createGroup(uint256 _initialSupply, string memory _uri, int128 _yield, uint256 _acceptance) external {\r\n        _scContract.burn(msg.sender, scID, groupCreationSCAmount);\r\n        _groups[_groupCount].uri = _uri;\r\n        _groups[_groupCount].yield = _yield;\r\n        _groups[_groupCount].acceptance = _acceptance;\r\n\r\n        _scContract.mint(msg.sender, _groupCount, _initialSupply, \"\");\r\n        emit GroupCreated(_groupCount, msg.sender);\r\n        _groupCount++;\r\n    }\r\n\r\n    function getGroup(uint256 index) external view returns(Group memory) {\r\n        return _groups[index]; \r\n    }\r\n\r\n    function getAllGroups() external view returns(Group[] memory) {\r\n        Group[] memory groups = new Group[](_groupCount);\r\n        for (uint i = 0; i < _groupCount; i++) groups[i] = _groups[i];\r\n        return groups; \r\n    }\r\n\r\n    function getAffiliations(uint256 projectID) external view returns(bool[] memory) {\r\n        bool[] memory affiliations = new bool[](_groupCount);\r\n        for (uint j = 0; j < _groupCount; j++) affiliations[j] = _affiliatedGroups[projectID][j];\r\n        return affiliations; \r\n    }\r\n\r\n    function getAllAffiliations() external view returns(bool[][] memory) {\r\n        bool[][] memory projects = new bool[][](_projectCount);\r\n        for (uint i = 0; i < _projectCount; i++) {\r\n            bool[] memory affiliations = new bool[](_groupCount);\r\n            for (uint j = 0; j < _groupCount; j++) affiliations[j] = _affiliatedGroups[i][j];\r\n            projects[i] = affiliations;\r\n        }\r\n        return projects; \r\n    }\r\n\r\n    function getAllVouched() external view returns(uint256[][] memory) {\r\n        uint256[][] memory projects = new uint256[][](_projectCount);\r\n        for (uint i = 0; i < _projectCount; i++) {\r\n            uint256[] memory affiliations = new uint256[](_groupCount);\r\n            for (uint j = 0; j < _groupCount; j++) affiliations[j] = _affiliatedGroupsVouched[i][j];\r\n            projects[i] = affiliations;\r\n        }\r\n        return projects; \r\n    }\r\n\r\n    function getAllReviews(bytes32 entityID) external view returns(Review[] memory) {\r\n        Review[] memory reviews = new Review[](_entityReviews[entityID].length);\r\n        for (uint i = 0; i < _entityReviews[entityID].length; i++) reviews[i] = _entityReviews[entityID][i];\r\n        return reviews; \r\n    }\r\n\r\n    function getProject(uint256 index) external view returns(Project memory) {\r\n        return _projects[index]; \r\n    }\r\n\r\n    function getAllProjects() external view returns(Project[] memory) {\r\n        Project[] memory projects = new Project[](_projectCount);\r\n        for (uint i = 0; i < _projectCount; i++) projects[i] = _projects[i];\r\n        return projects; \r\n    }\r\n\r\n    function getProjectEntities(uint256 projectID) external view returns(bytes32[] memory entityIDs, string[] memory entityURIs) {\r\n        entityURIs = new string[](_projectEntitiesCount[projectID]);\r\n        entityIDs = new bytes32[](_projectEntitiesCount[projectID]);\r\n        for (uint i = 0; i < _projectEntitiesCount[projectID]; i++) {\r\n            entityIDs[i] = keccak256(abi.encodePacked(_projects[projectID].uri, i));\r\n            entityURIs[i] = _entityURI[entityIDs[i]];\r\n        }\r\n    }\r\n\r\n    function getAllSocialCredits(address account) external view returns(uint256[] memory socialCredits, uint256[] memory lifetimeSocialCredits) {\r\n        socialCredits = new uint256[](_groupCount+1);\r\n        lifetimeSocialCredits = new uint256[](_groupCount+1);\r\n\r\n        for (uint i = 0; i < _groupCount; i++) {\r\n            socialCredits[i] = _scContract.balanceOf(account, i);\r\n            lifetimeSocialCredits[i] = _scContract.lifetimeBalanceOf(account, i);\r\n        }\r\n        socialCredits[_groupCount] = _scContract.balanceOf(account, scID);\r\n        lifetimeSocialCredits[_groupCount] = _scContract.lifetimeBalanceOf(account, scID);\r\n\r\n        return (socialCredits, lifetimeSocialCredits) ;\r\n    }\r\n\r\n    function addProjectEntity(uint256 projectID, string memory entityURI) external {\r\n        // Run Chainlink verification of ownership\r\n        bytes32 entityID = keccak256(abi.encodePacked(_projects[projectID].uri, _projectEntitiesCount[projectID]));\r\n        _entityToThread[entityID] = projectID;\r\n        _entityURI[entityID] = entityURI;\r\n        _projectEntitiesCount[projectID] += 1;\r\n        emit EntityAdded(projectID, entityID);\r\n    }\r\n    \r\n\r\n    function vouchProject(uint256 projectID, uint256 groupID, uint256 amount) external {\r\n        _scContract.burn(msg.sender, groupID, amount);\r\n        _affiliatedGroupsVouched[projectID][groupID] += amount; \r\n        if (_affiliatedGroupsVouched[projectID][groupID] >= _groups[groupID].acceptance) {\r\n            _affiliatedGroups[projectID][groupID] = true; \r\n            _projects[projectID].groupCount += 1;\r\n            emit ProjectAccepted(projectID, groupID);\r\n        }\r\n    }\r\n\r\n    function setSC(dSocialCredits _sc) external {\r\n        require(msg.sender == _owner);\r\n        _scContract = _sc;\r\n    }\r\n\r\n    function seedSC() external {\r\n        require(\r\n            !registered[msg.sender],\r\n            \"Cannot call this function, user already registered\"\r\n        );\r\n        registered[msg.sender] = true;\r\n        _scContract.mint(msg.sender, scID, scSeedAmount, \"\");\r\n    }\r\n\r\n    function stake(bytes32 _commitId, string memory uri) external {\r\n        _scContract.safeTransferFrom(\r\n            msg.sender,\r\n            address(this),\r\n            scID,\r\n            scStakeAmount,\r\n            \"\"\r\n        );\r\n        Review memory newReview = Review(uri, block.timestamp, msg.sender, scStakeAmount, false);\r\n        _entityReviews[_commitId].push(newReview);\r\n        emit Staked(msg.sender, _commitId, _entityReviews[_commitId].length - 1); \r\n    }\r\n\r\n    function toggleFraudulent(bytes32 _commitId, uint256 index, bool _isFraudulent) external {\r\n        require(_projects[_entityToThread[_commitId]].owner == msg.sender);\r\n        _entityReviews[_commitId][index].fraudulent = _isFraudulent;\r\n    }\r\n\r\n    function canUnstake(bytes32 _commitId, uint256 index) public view returns(StakingState) {\r\n        if (_entityReviews[_commitId][index].fraudulent || block.timestamp < _entityReviews[_commitId][index].publishedAt + scStakePeriod) return StakingState.pending;\r\n        if (_entityReviews[_commitId][index].stakeAmount > 0) return StakingState.ready;\r\n        return StakingState.unstaked;\r\n    }\r\n\r\n    function unstake(bytes32 _commitId, uint256 index) external {\r\n        require(\r\n            canUnstake(_commitId, index) == StakingState.ready,\r\n            \"desilo: You may not yet unstake.\"\r\n        );\r\n\r\n        uint256 stakedAmount = _entityReviews[_commitId][index].stakeAmount;\r\n        uint256 threadID = _entityToThread[_commitId];\r\n        uint256 gscCount = _projects[threadID].groupCount;\r\n        uint256[] memory ids = new uint256[](gscCount);\r\n        uint256[] memory amounts = new uint256[](gscCount);\r\n\r\n        _entityReviews[_commitId][index].stakeAmount = 0;\r\n        _scContract.safeTransferFrom(\r\n            address(this),\r\n            msg.sender,\r\n            scID,\r\n            stakedAmount,\r\n            \"\"\r\n        );\r\n        _scContract.mint(\r\n            msg.sender,\r\n            scID,\r\n            ABDKMath64x64.mulu(scYield, stakedAmount),\r\n            \"\"\r\n        );\r\n\r\n        uint256 count = 0;\r\n        for (uint256 i = 0; i < _groupCount; i++) {\r\n            if (_affiliatedGroups[threadID][i]) {\r\n                ids[count] = i;\r\n                amounts[count] = ABDKMath64x64.mulu(_groups[i].yield, stakedAmount);\r\n                count++;\r\n            }\r\n        }\r\n        _scContract.mintBatch(msg.sender, ids, amounts, \"\");\r\n        emit Unstaked(msg.sender, _commitId, index); \r\n    }\r\n\r\n    function registerProject(string memory uri) external {\r\n        _projects[_projectCount].uri = uri;\r\n        _projects[_projectCount].owner = msg.sender; \r\n        _projects[_projectCount].createdAt = block.timestamp; \r\n        emit ProjectCreated(_projectCount, msg.sender);\r\n        _projectCount++; \r\n    }\r\n\r\n    function onERC1155Received(\r\n        address operator,\r\n        address from,\r\n        uint256 id,\r\n        uint256 value,\r\n        bytes calldata data\r\n    ) external pure override returns (bytes4) {\r\n        return this.onERC1155Received.selector;\r\n    }\r\n\r\n    function onERC1155BatchReceived(\r\n        address operator,\r\n        address from,\r\n        uint256[] calldata ids,\r\n        uint256[] calldata values,\r\n        bytes calldata data\r\n    ) external pure override returns (bytes4) {\r\n        return this.onERC1155BatchReceived.selector;\r\n    }\r\n}\r\n",
  "sourcePath": "C:/Users/Kuan/Documents/GitHub/desilo/contracts/desilo.sol",
  "compiler": {
    "name": "solc",
    "version": "0.8.3+commit.8d00100c.Emscripten.clang"
  },
  "schemaVersion": "3.3.4",
  "updatedAt": "2021-08-15T06:34:51.509Z",
  "networkType": "ethereum",
  "devdoc": {
    "kind": "dev",
    "methods": {
      "onERC1155BatchReceived(address,address,uint256[],uint256[],bytes)": {
        "details": "Handles the receipt of a multiple ERC1155 token types. This function is called at the end of a `safeBatchTransferFrom` after the balances have been updated. To accept the transfer(s), this must return `bytes4(keccak256(\"onERC1155BatchReceived(address,address,uint256[],uint256[],bytes)\"))` (i.e. 0xbc197c81, or its own function selector).",
        "params": {
          "data": "Additional data with no specified format",
          "from": "The address which previously owned the token",
          "ids": "An array containing ids of each token being transferred (order and length must match values array)",
          "operator": "The address which initiated the batch transfer (i.e. msg.sender)",
          "values": "An array containing amounts of each token being transferred (order and length must match ids array)"
        },
        "returns": {
          "_0": "`bytes4(keccak256(\"onERC1155BatchReceived(address,address,uint256[],uint256[],bytes)\"))` if transfer is allowed"
        }
      },
      "onERC1155Received(address,address,uint256,uint256,bytes)": {
        "details": "Handles the receipt of a single ERC1155 token type. This function is called at the end of a `safeTransferFrom` after the balance has been updated. To accept the transfer, this must return `bytes4(keccak256(\"onERC1155Received(address,address,uint256,uint256,bytes)\"))` (i.e. 0xf23a6e61, or its own function selector).",
        "params": {
          "data": "Additional data with no specified format",
          "from": "The address which previously owned the token",
          "id": "The ID of the token being transferred",
          "operator": "The address which initiated the transfer (i.e. msg.sender)",
          "value": "The amount of tokens being transferred"
        },
        "returns": {
          "_0": "`bytes4(keccak256(\"onERC1155Received(address,address,uint256,uint256,bytes)\"))` if transfer is allowed"
        }
      },
      "supportsInterface(bytes4)": {
        "details": "See {IERC165-supportsInterface}."
      }
    },
    "version": 1
  },
  "userdoc": {
    "kind": "user",
    "methods": {},
    "version": 1
  }
}