{
  "contractName": "desilo",
  "abi": [
    {
      "inputs": [
        {
          "internalType": "uint256",
          "name": "_scStakeAmount",
          "type": "uint256"
        },
        {
          "internalType": "int128",
          "name": "_scYield",
          "type": "int128"
        },
        {
          "internalType": "uint256",
          "name": "_groupCreationSCAmount",
          "type": "uint256"
        },
        {
          "internalType": "uint256",
          "name": "_scSeedAmount",
          "type": "uint256"
        },
        {
          "internalType": "uint256",
          "name": "_scStakePeriod",
          "type": "uint256"
        }
      ],
      "stateMutability": "nonpayable",
      "type": "constructor"
    },
    {
      "inputs": [],
      "name": "groupCreationSCAmount",
      "outputs": [
        {
          "internalType": "uint256",
          "name": "",
          "type": "uint256"
        }
      ],
      "stateMutability": "view",
      "type": "function"
    },
    {
      "inputs": [
        {
          "internalType": "uint256",
          "name": "",
          "type": "uint256"
        }
      ],
      "name": "gscYield",
      "outputs": [
        {
          "internalType": "int128",
          "name": "",
          "type": "int128"
        }
      ],
      "stateMutability": "view",
      "type": "function"
    },
    {
      "inputs": [
        {
          "internalType": "address",
          "name": "",
          "type": "address"
        }
      ],
      "name": "registered",
      "outputs": [
        {
          "internalType": "bool",
          "name": "",
          "type": "bool"
        }
      ],
      "stateMutability": "view",
      "type": "function"
    },
    {
      "inputs": [],
      "name": "scSeedAmount",
      "outputs": [
        {
          "internalType": "uint256",
          "name": "",
          "type": "uint256"
        }
      ],
      "stateMutability": "view",
      "type": "function"
    },
    {
      "inputs": [],
      "name": "scStakeAmount",
      "outputs": [
        {
          "internalType": "uint256",
          "name": "",
          "type": "uint256"
        }
      ],
      "stateMutability": "view",
      "type": "function"
    },
    {
      "inputs": [],
      "name": "scStakePeriod",
      "outputs": [
        {
          "internalType": "uint256",
          "name": "",
          "type": "uint256"
        }
      ],
      "stateMutability": "view",
      "type": "function"
    },
    {
      "inputs": [
        {
          "internalType": "bytes4",
          "name": "interfaceId",
          "type": "bytes4"
        }
      ],
      "name": "supportsInterface",
      "outputs": [
        {
          "internalType": "bool",
          "name": "",
          "type": "bool"
        }
      ],
      "stateMutability": "view",
      "type": "function"
    },
    {
      "inputs": [
        {
          "internalType": "uint256",
          "name": "_initialSupply",
          "type": "uint256"
        },
        {
          "internalType": "string",
          "name": "_uri",
          "type": "string"
        }
      ],
      "name": "createGroup",
      "outputs": [],
      "stateMutability": "nonpayable",
      "type": "function"
    },
    {
      "inputs": [
        {
          "internalType": "contract dSocialCredits",
          "name": "_sc",
          "type": "address"
        }
      ],
      "name": "setSC",
      "outputs": [],
      "stateMutability": "nonpayable",
      "type": "function"
    },
    {
      "inputs": [],
      "name": "seedSC",
      "outputs": [],
      "stateMutability": "nonpayable",
      "type": "function"
    },
    {
      "inputs": [
        {
          "internalType": "uint256",
          "name": "_commitId",
          "type": "uint256"
        },
        {
          "internalType": "address",
          "name": "_addr",
          "type": "address"
        }
      ],
      "name": "getStaked",
      "outputs": [
        {
          "internalType": "uint256",
          "name": "",
          "type": "uint256"
        }
      ],
      "stateMutability": "view",
      "type": "function"
    },
    {
      "inputs": [
        {
          "internalType": "uint256",
          "name": "_commitId",
          "type": "uint256"
        }
      ],
      "name": "stake",
      "outputs": [],
      "stateMutability": "nonpayable",
      "type": "function"
    },
    {
      "inputs": [
        {
          "internalType": "uint256",
          "name": "_commitId",
          "type": "uint256"
        }
      ],
      "name": "unstake",
      "outputs": [],
      "stateMutability": "nonpayable",
      "type": "function"
    },
    {
      "inputs": [
        {
          "internalType": "address",
          "name": "operator",
          "type": "address"
        },
        {
          "internalType": "address",
          "name": "from",
          "type": "address"
        },
        {
          "internalType": "uint256",
          "name": "id",
          "type": "uint256"
        },
        {
          "internalType": "uint256",
          "name": "value",
          "type": "uint256"
        },
        {
          "internalType": "bytes",
          "name": "data",
          "type": "bytes"
        }
      ],
      "name": "onERC1155Received",
      "outputs": [
        {
          "internalType": "bytes4",
          "name": "",
          "type": "bytes4"
        }
      ],
      "stateMutability": "pure",
      "type": "function"
    },
    {
      "inputs": [
        {
          "internalType": "address",
          "name": "operator",
          "type": "address"
        },
        {
          "internalType": "address",
          "name": "from",
          "type": "address"
        },
        {
          "internalType": "uint256[]",
          "name": "ids",
          "type": "uint256[]"
        },
        {
          "internalType": "uint256[]",
          "name": "values",
          "type": "uint256[]"
        },
        {
          "internalType": "bytes",
          "name": "data",
          "type": "bytes"
        }
      ],
      "name": "onERC1155BatchReceived",
      "outputs": [
        {
          "internalType": "bytes4",
          "name": "",
          "type": "bytes4"
        }
      ],
      "stateMutability": "pure",
      "type": "function"
    }
  ],
  "bytecode": "0x608060405260006006556001600f553480156200001b57600080fd5b5060405162001e8238038062001e82833981810160405281019062000041919062000124565b836011600080815260200190815260200160002060006101000a8154816fffffffffffffffffffffffffffffffff0219169083600f0b6fffffffffffffffffffffffffffffffff1602179055508460018190555082600081905550816002819055508060038190555033600560006101000a81548173ffffffffffffffffffffffffffffffffffffffff021916908373ffffffffffffffffffffffffffffffffffffffff1602179055505050505050620001f1565b6000815190506200010781620001bd565b92915050565b6000815190506200011e81620001d7565b92915050565b600080600080600060a086880312156200013d57600080fd5b60006200014d888289016200010d565b95505060206200016088828901620000f6565b945050604062000173888289016200010d565b935050606062000186888289016200010d565b925050608062000199888289016200010d565b9150509295509295909350565b600081600f0b9050919050565b6000819050919050565b620001c881620001a6565b8114620001d457600080fd5b50565b620001e281620001b3565b8114620001ee57600080fd5b50565b611c8180620002016000396000f3fe608060405234801561001057600080fd5b50600436106100f55760003560e01c80639fbd7cef11610097578063bc197c8111610066578063bc197c8114610270578063d841212e146102a0578063ecb282de146102be578063f23a6e61146102dc576100f5565b80639fbd7cef146101ea578063a5e8019214610206578063a694fc3a14610224578063b2dd5c0714610240576100f5565b80632f008105116100d35780632f0081051461016457806340531d5d1461016e57806362b54bdc1461019e578063907a4e1d146101ce576100f5565b806301ffc9a7146100fa5780631614047e1461012a5780632e17de7814610148575b600080fd5b610114600480360381019061010f91906113c0565b61030c565b6040516101219190611758565b60405180910390f35b610132610386565b60405161013f9190611809565b60405180910390f35b610162600480360381019061015d9190611412565b61038c565b005b61016c610959565b005b6101886004803603810190610183919061143b565b610ad5565b6040516101959190611809565b60405180910390f35b6101b860048036038101906101b39190611412565b610b30565b6040516101c5919061178e565b60405180910390f35b6101e860048036038101906101e391906113e9565b610b50565b005b61020460048036038101906101ff9190611477565b610bee565b005b61020e610d5c565b60405161021b9190611809565b60405180910390f35b61023e60048036038101906102399190611412565b610d62565b005b61025a60048036038101906102559190611239565b610ec7565b6040516102679190611758565b60405180910390f35b61028a60048036038101906102859190611262565b610ee7565b6040516102979190611773565b60405180910390f35b6102a8610eff565b6040516102b59190611809565b60405180910390f35b6102c6610f05565b6040516102d39190611809565b60405180910390f35b6102f660048036038101906102f1919061132e565b610f0b565b6040516103039190611773565b60405180910390f35b60007f4e2312e0000000000000000000000000000000000000000000000000000000007bffffffffffffffffffffffffffffffffffffffffffffffffffffffff1916827bffffffffffffffffffffffffffffffffffffffffffffffffffffffff1916148061037f575061037e82610f21565b5b9050919050565b60005481565b6009600082815260200190815260200160002060003373ffffffffffffffffffffffffffffffffffffffff1673ffffffffffffffffffffffffffffffffffffffff1681526020019081526020016000205442101561041f576040517f08c379a0000000000000000000000000000000000000000000000000000000008152600401610416906117e9565b60405180910390fd5b600061042b8233610ad5565b101561046c576040517f08c379a0000000000000000000000000000000000000000000000000000000008152600401610463906117c9565b60405180910390fd5b60006104788233610ad5565b90506000600a60008481526020019081526020016000205490506000600e600083815260200190815260200160002054905060008167ffffffffffffffff8111156104ec577f4e487b7100000000000000000000000000000000000000000000000000000000600052604160045260246000fd5b60405190808252806020026020018201604052801561051a5781602001602082028036833780820191505090505b50905060008267ffffffffffffffff81111561055f577f4e487b7100000000000000000000000000000000000000000000000000000000600052604160045260246000fd5b60405190808252806020026020018201604052801561058d5781602001602082028036833780820191505090505b509050846008600088815260200190815260200160002060003373ffffffffffffffffffffffffffffffffffffffff1673ffffffffffffffffffffffffffffffffffffffff16815260200190815260200160002060008282546105f0919061192b565b9250508190555060006009600088815260200190815260200160002060003373ffffffffffffffffffffffffffffffffffffffff1673ffffffffffffffffffffffffffffffffffffffff16815260200190815260200160002081905550600460009054906101000a900473ffffffffffffffffffffffffffffffffffffffff1673ffffffffffffffffffffffffffffffffffffffff1663f242432a3033600654896040518563ffffffff1660e01b81526004016106b09493929190611627565b600060405180830381600087803b1580156106ca57600080fd5b505af11580156106de573d6000803e3d6000fd5b50505050600460009054906101000a900473ffffffffffffffffffffffffffffffffffffffff1673ffffffffffffffffffffffffffffffffffffffff1663731133e93360065461074e6011600080815260200190815260200160002060009054906101000a9004600f0b8a610f8b565b6040518463ffffffff1660e01b815260040161076c9392919061170e565b600060405180830381600087803b15801561078657600080fd5b505af115801561079a573d6000803e3d6000fd5b50505050600080600190505b600f548110156108be57600d6000878152602001908152602001600020600082815260200190815260200160002060009054906101000a900460ff16156108ab5780848381518110610821577f4e487b7100000000000000000000000000000000000000000000000000000000600052603260045260246000fd5b6020026020010181815250506108576011600083815260200190815260200160002060009054906101000a9004600f0b88610f8b565b838381518110610890577f4e487b7100000000000000000000000000000000000000000000000000000000600052603260045260246000fd5b60200260200101818152505081806108a790611a64565b9250505b80806108b690611a64565b9150506107a6565b50600460009054906101000a900473ffffffffffffffffffffffffffffffffffffffff1673ffffffffffffffffffffffffffffffffffffffff16631f7fdffa3385856040518463ffffffff1660e01b815260040161091e9392919061167f565b600060405180830381600087803b15801561093857600080fd5b505af115801561094c573d6000803e3d6000fd5b5050505050505050505050565b600760003373ffffffffffffffffffffffffffffffffffffffff1673ffffffffffffffffffffffffffffffffffffffff16815260200190815260200160002060009054906101000a900460ff16156109e6576040517f08c379a00000000000000000000000000000000000000000000000000000000081526004016109dd906117a9565b60405180910390fd5b6001600760003373ffffffffffffffffffffffffffffffffffffffff1673ffffffffffffffffffffffffffffffffffffffff16815260200190815260200160002060006101000a81548160ff021916908315150217905550600460009054906101000a900473ffffffffffffffffffffffffffffffffffffffff1673ffffffffffffffffffffffffffffffffffffffff1663731133e9336006546002546040518463ffffffff1660e01b8152600401610aa19392919061170e565b600060405180830381600087803b158015610abb57600080fd5b505af1158015610acf573d6000803e3d6000fd5b50505050565b60006008600084815260200190815260200160002060008373ffffffffffffffffffffffffffffffffffffffff1673ffffffffffffffffffffffffffffffffffffffff16815260200190815260200160002054905092915050565b60116020528060005260406000206000915054906101000a9004600f0b81565b600560009054906101000a900473ffffffffffffffffffffffffffffffffffffffff1673ffffffffffffffffffffffffffffffffffffffff163373ffffffffffffffffffffffffffffffffffffffff1614610baa57600080fd5b80600460006101000a81548173ffffffffffffffffffffffffffffffffffffffff021916908373ffffffffffffffffffffffffffffffffffffffff16021790555050565b600460009054906101000a900473ffffffffffffffffffffffffffffffffffffffff1673ffffffffffffffffffffffffffffffffffffffff1663f5298aca336006546000546040518463ffffffff1660e01b8152600401610c51939291906116d7565b600060405180830381600087803b158015610c6b57600080fd5b505af1158015610c7f573d6000803e3d6000fd5b505050508060106000600f5481526020019081526020016000209080519060200190610cac929190611046565b50600460009054906101000a900473ffffffffffffffffffffffffffffffffffffffff1673ffffffffffffffffffffffffffffffffffffffff1663731133e933600f54856040518463ffffffff1660e01b8152600401610d0e9392919061170e565b600060405180830381600087803b158015610d2857600080fd5b505af1158015610d3c573d6000803e3d6000fd5b50505050600f6000815480929190610d5390611a64565b91905055505050565b60015481565b600460009054906101000a900473ffffffffffffffffffffffffffffffffffffffff1673ffffffffffffffffffffffffffffffffffffffff1663f242432a33306006546001546040518563ffffffff1660e01b8152600401610dc79493929190611627565b600060405180830381600087803b158015610de157600080fd5b505af1158015610df5573d6000803e3d6000fd5b505050506001546008600083815260200190815260200160002060003373ffffffffffffffffffffffffffffffffffffffff1673ffffffffffffffffffffffffffffffffffffffff1681526020019081526020016000206000828254610e5b91906118d5565b9250508190555060035442610e7091906118d5565b6009600083815260200190815260200160002060003373ffffffffffffffffffffffffffffffffffffffff1673ffffffffffffffffffffffffffffffffffffffff1681526020019081526020016000208190555050565b60076020528060005260406000206000915054906101000a900460ff1681565b600063bc197c8160e01b905098975050505050505050565b60025481565b60035481565b600063bc197c8160e01b90509695505050505050565b60007f01ffc9a7000000000000000000000000000000000000000000000000000000007bffffffffffffffffffffffffffffffffffffffffffffffffffffffff1916827bffffffffffffffffffffffffffffffffffffffffffffffffffffffff1916149050919050565b600080821415610f9e5760009050611040565b600083600f0b1215610faf57600080fd5b600060406fffffffffffffffffffffffffffffffff841685600f0b02901c90506000608084901c85600f0b02905077ffffffffffffffffffffffffffffffffffffffffffffffff81111561100257600080fd5b604081901b9050817fffffffffffffffffffffffffffffffffffffffffffffffffffffffffffffffff0381111561103857600080fd5b818101925050505b92915050565b82805461105290611a01565b90600052602060002090601f01602090048101928261107457600085556110bb565b82601f1061108d57805160ff19168380011785556110bb565b828001600101855582156110bb579182015b828111156110ba57825182559160200191906001019061109f565b5b5090506110c891906110cc565b5090565b5b808211156110e55760008160009055506001016110cd565b5090565b60006110fc6110f784611849565b611824565b90508281526020810184848401111561111457600080fd5b61111f8482856119f2565b509392505050565b60008135905061113681611bef565b92915050565b60008083601f84011261114e57600080fd5b8235905067ffffffffffffffff81111561116757600080fd5b60208301915083602082028301111561117f57600080fd5b9250929050565b60008135905061119581611c06565b92915050565b60008083601f8401126111ad57600080fd5b8235905067ffffffffffffffff8111156111c657600080fd5b6020830191508360018202830111156111de57600080fd5b9250929050565b6000813590506111f481611c1d565b92915050565b600082601f83011261120b57600080fd5b813561121b8482602086016110e9565b91505092915050565b60008135905061123381611c34565b92915050565b60006020828403121561124b57600080fd5b600061125984828501611127565b91505092915050565b60008060008060008060008060a0898b03121561127e57600080fd5b600061128c8b828c01611127565b985050602061129d8b828c01611127565b975050604089013567ffffffffffffffff8111156112ba57600080fd5b6112c68b828c0161113c565b9650965050606089013567ffffffffffffffff8111156112e557600080fd5b6112f18b828c0161113c565b9450945050608089013567ffffffffffffffff81111561131057600080fd5b61131c8b828c0161119b565b92509250509295985092959890939650565b60008060008060008060a0878903121561134757600080fd5b600061135589828a01611127565b965050602061136689828a01611127565b955050604061137789828a01611224565b945050606061138889828a01611224565b935050608087013567ffffffffffffffff8111156113a557600080fd5b6113b189828a0161119b565b92509250509295509295509295565b6000602082840312156113d257600080fd5b60006113e084828501611186565b91505092915050565b6000602082840312156113fb57600080fd5b6000611409848285016111e5565b91505092915050565b60006020828403121561142457600080fd5b600061143284828501611224565b91505092915050565b6000806040838503121561144e57600080fd5b600061145c85828601611224565b925050602061146d85828601611127565b9150509250929050565b6000806040838503121561148a57600080fd5b600061149885828601611224565b925050602083013567ffffffffffffffff8111156114b557600080fd5b6114c1858286016111fa565b9150509250929050565b60006114d78383611609565b60208301905092915050565b6114ec8161195f565b82525050565b60006114fd8261188a565b61150781856118a2565b93506115128361187a565b8060005b8381101561154357815161152a88826114cb565b975061153583611895565b925050600181019050611516565b5085935050505092915050565b61155981611971565b82525050565b6115688161197d565b82525050565b611577816119bb565b82525050565b600061158a6032836118c4565b915061159582611b4b565b604082019050919050565b60006115ad6020836118c4565b91506115b882611b9a565b602082019050919050565b60006115d06000836118b3565b91506115db82611bc3565b600082019050919050565b60006115f36020836118c4565b91506115fe82611bc6565b602082019050919050565b611612816119e8565b82525050565b611621816119e8565b82525050565b600060a08201905061163c60008301876114e3565b61164960208301866114e3565b6116566040830185611618565b6116636060830184611618565b8181036080830152611674816115c3565b905095945050505050565b600060808201905061169460008301866114e3565b81810360208301526116a681856114f2565b905081810360408301526116ba81846114f2565b905081810360608301526116cd816115c3565b9050949350505050565b60006060820190506116ec60008301866114e3565b6116f96020830185611618565b6117066040830184611618565b949350505050565b600060808201905061172360008301866114e3565b6117306020830185611618565b61173d6040830184611618565b818103606083015261174e816115c3565b9050949350505050565b600060208201905061176d6000830184611550565b92915050565b6000602082019050611788600083018461155f565b92915050565b60006020820190506117a3600083018461156e565b92915050565b600060208201905081810360008301526117c28161157d565b9050919050565b600060208201905081810360008301526117e2816115a0565b9050919050565b60006020820190508181036000830152611802816115e6565b9050919050565b600060208201905061181e6000830184611618565b92915050565b600061182e61183f565b905061183a8282611a33565b919050565b6000604051905090565b600067ffffffffffffffff82111561186457611863611b0b565b5b61186d82611b3a565b9050602081019050919050565b6000819050602082019050919050565b600081519050919050565b6000602082019050919050565b600082825260208201905092915050565b600082825260208201905092915050565b600082825260208201905092915050565b60006118e0826119e8565b91506118eb836119e8565b9250827fffffffffffffffffffffffffffffffffffffffffffffffffffffffffffffffff038211156119205761191f611aad565b5b828201905092915050565b6000611936826119e8565b9150611941836119e8565b92508282101561195457611953611aad565b5b828203905092915050565b600061196a826119c8565b9050919050565b60008115159050919050565b60007fffffffff0000000000000000000000000000000000000000000000000000000082169050919050565b60006119b48261195f565b9050919050565b600081600f0b9050919050565b600073ffffffffffffffffffffffffffffffffffffffff82169050919050565b6000819050919050565b82818337600083830152505050565b60006002820490506001821680611a1957607f821691505b60208210811415611a2d57611a2c611adc565b5b50919050565b611a3c82611b3a565b810181811067ffffffffffffffff82111715611a5b57611a5a611b0b565b5b80604052505050565b6000611a6f826119e8565b91507fffffffffffffffffffffffffffffffffffffffffffffffffffffffffffffffff821415611aa257611aa1611aad565b5b600182019050919050565b7f4e487b7100000000000000000000000000000000000000000000000000000000600052601160045260246000fd5b7f4e487b7100000000000000000000000000000000000000000000000000000000600052602260045260246000fd5b7f4e487b7100000000000000000000000000000000000000000000000000000000600052604160045260246000fd5b6000601f19601f8301169050919050565b7f43616e6e6f742063616c6c20746869732066756e6374696f6e2c20757365722060008201527f616c726561647920726567697374657265640000000000000000000000000000602082015250565b7f646573696c6f3a20596f752068617665206e6f7420796574207374616b65642e600082015250565b50565b7f646573696c6f3a20596f75206d6179206e6f742079657420756e7374616b652e600082015250565b611bf88161195f565b8114611c0357600080fd5b50565b611c0f8161197d565b8114611c1a57600080fd5b50565b611c26816119a9565b8114611c3157600080fd5b50565b611c3d816119e8565b8114611c4857600080fd5b5056fea2646970667358221220040df50a194894691e3e9daf92bad64bbd24e6425b17f18f7dd22f4fe668a4d764736f6c63430008030033",
  "immutableReferences": {},
  "source": "pragma solidity ^0.8.3; \r\n\r\nimport \"./dSocialCredits.sol\";\r\nimport \"./library/ABDKMath64x64.sol\";\r\nimport \"@openzeppelin/contracts/token/ERC1155/utils/ERC1155Receiver.sol\"; \r\n\r\ncontract desilo is ERC1155Receiver {\r\n\r\n    uint256 public groupCreationSCAmount;\r\n    uint256 public scStakeAmount;\r\n    uint256 public scSeedAmount;\r\n    uint256 public scStakePeriod;\r\n\r\n    dSocialCredits _scContract; \r\n    address _owner;\r\n    uint256 _scID = 0;\r\n    mapping(address => bool) public registered;\r\n\r\n    // mapping(entityID)\r\n    mapping(uint256 => mapping(address => uint256)) _stakedAmount; \r\n    mapping(uint256 => mapping(address => uint256)) _stakeExpiry; \r\n    mapping(uint256 => uint256) _entityToThread;\r\n    mapping(uint256 => string) _entityURI;\r\n\r\n    // mapping(threadID)\r\n    mapping(uint256 => string) _threadURI;\r\n    mapping(uint256 => mapping(uint256 => bool)) _threadGSC;\r\n    mapping(uint256 => uint256) _threadGSCCount;\r\n\r\n\r\n    // mapping(groupID => fixed128x128)\r\n    uint _groupCount = 1; \r\n    mapping(uint256 => string) _groupURI;\r\n    mapping(uint256 => int128) public gscYield;\r\n    mapping(uint256 => uint256) _gscMinAcceptance; \r\n\r\n\r\n    constructor(uint256 _scStakeAmount, int128 _scYield, uint256 _groupCreationSCAmount, uint256 _scSeedAmount, uint256 _scStakePeriod) IERC1155Receiver() {\r\n        gscYield[0] = _scYield;\r\n        scStakeAmount = _scStakeAmount;\r\n        groupCreationSCAmount = _groupCreationSCAmount;\r\n        scSeedAmount = _scSeedAmount;\r\n        scStakePeriod = _scStakePeriod;\r\n        _owner = msg.sender;\r\n    }\r\n\r\n    function createGroup(uint256 _initialSupply, string memory _uri) external {\r\n        _scContract.burn(msg.sender, _scID, groupCreationSCAmount);\r\n        _groupURI[_groupCount] = _uri; \r\n        _scContract.mint(msg.sender, _groupCount, _initialSupply, \"\");\r\n        _groupCount++;\r\n    }\r\n\r\n    function setSC(dSocialCredits _sc) external {\r\n        require(msg.sender == _owner);\r\n        _scContract = _sc;\r\n    }\r\n\r\n    function seedSC() external {\r\n        require(!registered[msg.sender], \"Cannot call this function, user already registered\");\r\n        registered[msg.sender] = true;\r\n        _scContract.mint(msg.sender, _scID, scSeedAmount, \"\");\r\n    }\r\n\r\n    function getStaked(uint256 _commitId, address _addr) public view returns(uint256) {\r\n        return _stakedAmount[_commitId][_addr];\r\n    }\r\n\r\n    function stake(uint256 _commitId) external {\r\n        _scContract.safeTransferFrom(msg.sender, address(this), _scID, scStakeAmount, \"\");\r\n        _stakedAmount[_commitId][msg.sender] += scStakeAmount;\r\n        _stakeExpiry[_commitId][msg.sender] = block.timestamp + scStakePeriod;\r\n    }\r\n\r\n    function unstake(uint256 _commitId) external {\r\n        require(block.timestamp >= _stakeExpiry[_commitId][msg.sender], \"desilo: You may not yet unstake.\"); \r\n        require(getStaked(_commitId,msg.sender) >= 0, \"desilo: You have not yet staked.\"); \r\n        \r\n        uint256 stakedAmount = getStaked(_commitId,msg.sender);\r\n        uint256 threadID = _entityToThread[_commitId];\r\n        uint256 gscCount = _threadGSCCount[threadID];\r\n        uint256[] memory ids = new uint256[](gscCount);\r\n        uint256[] memory amounts = new uint256[](gscCount);\r\n\r\n\r\n        _stakedAmount[_commitId][msg.sender] -= stakedAmount; \r\n        _stakeExpiry[_commitId][msg.sender] = 0;\r\n\r\n        _scContract.safeTransferFrom(address(this), msg.sender, _scID, stakedAmount, \"\");\r\n        _scContract.mint(msg.sender, _scID, ABDKMath64x64.mulu(gscYield[0], stakedAmount), \"\");\r\n\r\n        uint256 count = 0;\r\n        for (uint256 i = 1; i < _groupCount; i++) {\r\n            if (_threadGSC[threadID][i]) {\r\n                ids[count] = i;\r\n                amounts[count] = ABDKMath64x64.mulu(gscYield[i], stakedAmount);\r\n                count++;\r\n            }\r\n        }\r\n        _scContract.mintBatch(msg.sender, ids, amounts, \"\");\r\n    }\r\n\r\n    function onERC1155Received(\r\n        address operator,\r\n        address from,\r\n        uint256 id,\r\n        uint256 value,\r\n        bytes calldata data\r\n        )\r\n        external\r\n        override\r\n        pure\r\n        returns(bytes4)\r\n        {\r\n            return this.onERC1155BatchReceived.selector;\r\n        }\r\n\r\n    function onERC1155BatchReceived(\r\n        address operator,\r\n        address from,\r\n        uint256[] calldata ids,\r\n        uint256[] calldata values,\r\n        bytes calldata data\r\n        )\r\n        external\r\n        override\r\n        pure\r\n        returns(bytes4)\r\n        {\r\n            return this.onERC1155BatchReceived.selector;\r\n        }\r\n\r\n}",
  "sourcePath": "C:/Users/Kuan/Documents/GitHub/desilo/contracts/desilo.sol",
  "compiler": {
    "name": "solc",
    "version": "0.8.3+commit.8d00100c.Emscripten.clang"
  },
  "schemaVersion": "3.3.4",
  "updatedAt": "2021-08-09T03:14:35.966Z",
  "devdoc": {
    "kind": "dev",
    "methods": {
      "onERC1155BatchReceived(address,address,uint256[],uint256[],bytes)": {
        "details": "Handles the receipt of a multiple ERC1155 token types. This function is called at the end of a `safeBatchTransferFrom` after the balances have been updated. To accept the transfer(s), this must return `bytes4(keccak256(\"onERC1155BatchReceived(address,address,uint256[],uint256[],bytes)\"))` (i.e. 0xbc197c81, or its own function selector).",
        "params": {
          "data": "Additional data with no specified format",
          "from": "The address which previously owned the token",
          "ids": "An array containing ids of each token being transferred (order and length must match values array)",
          "operator": "The address which initiated the batch transfer (i.e. msg.sender)",
          "values": "An array containing amounts of each token being transferred (order and length must match ids array)"
        },
        "returns": {
          "_0": "`bytes4(keccak256(\"onERC1155BatchReceived(address,address,uint256[],uint256[],bytes)\"))` if transfer is allowed"
        }
      },
      "onERC1155Received(address,address,uint256,uint256,bytes)": {
        "details": "Handles the receipt of a single ERC1155 token type. This function is called at the end of a `safeTransferFrom` after the balance has been updated. To accept the transfer, this must return `bytes4(keccak256(\"onERC1155Received(address,address,uint256,uint256,bytes)\"))` (i.e. 0xf23a6e61, or its own function selector).",
        "params": {
          "data": "Additional data with no specified format",
          "from": "The address which previously owned the token",
          "id": "The ID of the token being transferred",
          "operator": "The address which initiated the transfer (i.e. msg.sender)",
          "value": "The amount of tokens being transferred"
        },
        "returns": {
          "_0": "`bytes4(keccak256(\"onERC1155Received(address,address,uint256,uint256,bytes)\"))` if transfer is allowed"
        }
      },
      "supportsInterface(bytes4)": {
        "details": "See {IERC165-supportsInterface}."
      }
    },
    "version": 1
  },
  "userdoc": {
    "kind": "user",
    "methods": {},
    "version": 1
  }
}