{
  "contractName": "desilo",
  "abi": [
    {
      "inputs": [
        {
          "internalType": "uint256",
          "name": "_scStakeAmount",
          "type": "uint256"
        },
        {
          "internalType": "int128",
          "name": "_scYield",
          "type": "int128"
        },
        {
          "internalType": "uint256",
          "name": "_groupCreationSCAmount",
          "type": "uint256"
        },
        {
          "internalType": "uint256",
          "name": "_scSeedAmount",
          "type": "uint256"
        }
      ],
      "stateMutability": "nonpayable",
      "type": "constructor"
    },
    {
      "inputs": [],
      "name": "groupCreationSCAmount",
      "outputs": [
        {
          "internalType": "uint256",
          "name": "",
          "type": "uint256"
        }
      ],
      "stateMutability": "view",
      "type": "function",
      "constant": true
    },
    {
      "inputs": [
        {
          "internalType": "uint256",
          "name": "",
          "type": "uint256"
        }
      ],
      "name": "gscYield",
      "outputs": [
        {
          "internalType": "int128",
          "name": "",
          "type": "int128"
        }
      ],
      "stateMutability": "view",
      "type": "function",
      "constant": true
    },
    {
      "inputs": [],
      "name": "scSeedAmount",
      "outputs": [
        {
          "internalType": "uint256",
          "name": "",
          "type": "uint256"
        }
      ],
      "stateMutability": "view",
      "type": "function",
      "constant": true
    },
    {
      "inputs": [],
      "name": "scStakeAmount",
      "outputs": [
        {
          "internalType": "uint256",
          "name": "",
          "type": "uint256"
        }
      ],
      "stateMutability": "view",
      "type": "function",
      "constant": true
    },
    {
      "inputs": [
        {
          "internalType": "uint256",
          "name": "_initialSupply",
          "type": "uint256"
        },
        {
          "internalType": "string",
          "name": "_uri",
          "type": "string"
        }
      ],
      "name": "createGroup",
      "outputs": [],
      "stateMutability": "nonpayable",
      "type": "function"
    },
    {
      "inputs": [
        {
          "internalType": "contract dSocialCredits",
          "name": "_sc",
          "type": "address"
        }
      ],
      "name": "setSC",
      "outputs": [],
      "stateMutability": "nonpayable",
      "type": "function"
    },
    {
      "inputs": [],
      "name": "seedSC",
      "outputs": [],
      "stateMutability": "nonpayable",
      "type": "function"
    },
    {
      "inputs": [
        {
          "internalType": "uint256",
          "name": "_commitId",
          "type": "uint256"
        },
        {
          "internalType": "address",
          "name": "_addr",
          "type": "address"
        }
      ],
      "name": "getStaked",
      "outputs": [
        {
          "internalType": "uint256",
          "name": "",
          "type": "uint256"
        }
      ],
      "stateMutability": "view",
      "type": "function",
      "constant": true
    },
    {
      "inputs": [
        {
          "internalType": "uint256",
          "name": "_commitId",
          "type": "uint256"
        }
      ],
      "name": "stake",
      "outputs": [],
      "stateMutability": "nonpayable",
      "type": "function"
    },
    {
      "inputs": [
        {
          "internalType": "uint256",
          "name": "_commitId",
          "type": "uint256"
        }
      ],
      "name": "unstake",
      "outputs": [],
      "stateMutability": "nonpayable",
      "type": "function"
    }
  ],
  "bytecode": "0x608060405260006005556001600e553480156200001b57600080fd5b50604051620017d1380380620017d183398181016040528101906200004191906200011c565b826010600080815260200190815260200160002060006101000a8154816fffffffffffffffffffffffffffffffff0219169083600f0b6fffffffffffffffffffffffffffffffff16021790555083600181905550816000819055508060028190555033600460006101000a81548173ffffffffffffffffffffffffffffffffffffffff021916908373ffffffffffffffffffffffffffffffffffffffff16021790555050505050620001d3565b600081519050620000ff816200019f565b92915050565b6000815190506200011681620001b9565b92915050565b600080600080608085870312156200013357600080fd5b6000620001438782880162000105565b94505060206200015687828801620000ee565b9350506040620001698782880162000105565b92505060606200017c8782880162000105565b91505092959194509250565b600081600f0b9050919050565b6000819050919050565b620001aa8162000188565b8114620001b657600080fd5b50565b620001c48162000195565b8114620001d057600080fd5b50565b6115ee80620001e36000396000f3fe608060405234801561001057600080fd5b506004361061009e5760003560e01c8063907a4e1d11610066578063907a4e1d146101475780639fbd7cef14610163578063a5e801921461017f578063a694fc3a1461019d578063d841212e146101b95761009e565b80631614047e146100a35780632e17de78146100c15780632f008105146100dd57806340531d5d146100e757806362b54bdc14610117575b600080fd5b6100ab6101d7565b6040516100b89190611214565b60405180910390f35b6100db60048036038101906100d69190610eb4565b6101dd565b005b6100e56107aa565b005b61010160048036038101906100fc9190610edd565b6108f0565b60405161010e9190611214565b60405180910390f35b610131600480360381019061012c9190610eb4565b61094b565b60405161013e91906111b9565b60405180910390f35b610161600480360381019061015c9190610e8b565b61096b565b005b61017d60048036038101906101789190610f19565b610a09565b005b610187610b77565b6040516101949190611214565b60405180910390f35b6101b760048036038101906101b29190610eb4565b610b7d565b005b6101c1610c80565b6040516101ce9190611214565b60405180910390f35b60005481565b6008600082815260200190815260200160002060003373ffffffffffffffffffffffffffffffffffffffff1673ffffffffffffffffffffffffffffffffffffffff16815260200190815260200160002054421015610270576040517f08c379a0000000000000000000000000000000000000000000000000000000008152600401610267906111f4565b60405180910390fd5b600061027c82336108f0565b10156102bd576040517f08c379a00000000000000000000000000000000000000000000000000000000081526004016102b4906111d4565b60405180910390fd5b60006102c982336108f0565b90506000600960008481526020019081526020016000205490506000600d600083815260200190815260200160002054905060008167ffffffffffffffff81111561033d577f4e487b7100000000000000000000000000000000000000000000000000000000600052604160045260246000fd5b60405190808252806020026020018201604052801561036b5781602001602082028036833780820191505090505b50905060008267ffffffffffffffff8111156103b0577f4e487b7100000000000000000000000000000000000000000000000000000000600052604160045260246000fd5b6040519080825280602002602001820160405280156103de5781602001602082028036833780820191505090505b509050846007600088815260200190815260200160002060003373ffffffffffffffffffffffffffffffffffffffff1673ffffffffffffffffffffffffffffffffffffffff16815260200190815260200160002060008282546104419190611336565b9250508190555060006008600088815260200190815260200160002060003373ffffffffffffffffffffffffffffffffffffffff1673ffffffffffffffffffffffffffffffffffffffff16815260200190815260200160002081905550600360009054906101000a900473ffffffffffffffffffffffffffffffffffffffff1673ffffffffffffffffffffffffffffffffffffffff1663f242432a3033600554896040518563ffffffff1660e01b81526004016105019493929190611088565b600060405180830381600087803b15801561051b57600080fd5b505af115801561052f573d6000803e3d6000fd5b50505050600360009054906101000a900473ffffffffffffffffffffffffffffffffffffffff1673ffffffffffffffffffffffffffffffffffffffff1663731133e93360055461059f6010600080815260200190815260200160002060009054906101000a9004600f0b8a610c86565b6040518463ffffffff1660e01b81526004016105bd9392919061116f565b600060405180830381600087803b1580156105d757600080fd5b505af11580156105eb573d6000803e3d6000fd5b50505050600080600190505b600e5481101561070f57600c6000878152602001908152602001600020600082815260200190815260200160002060009054906101000a900460ff16156106fc5780848381518110610672577f4e487b7100000000000000000000000000000000000000000000000000000000600052603260045260246000fd5b6020026020010181815250506106a86010600083815260200190815260200160002060009054906101000a9004600f0b88610c86565b8383815181106106e1577f4e487b7100000000000000000000000000000000000000000000000000000000600052603260045260246000fd5b60200260200101818152505081806106f890611437565b9250505b808061070790611437565b9150506105f7565b50600360009054906101000a900473ffffffffffffffffffffffffffffffffffffffff1673ffffffffffffffffffffffffffffffffffffffff16631f7fdffa3385856040518463ffffffff1660e01b815260040161076f939291906110e0565b600060405180830381600087803b15801561078957600080fd5b505af115801561079d573d6000803e3d6000fd5b5050505050505050505050565b600660003373ffffffffffffffffffffffffffffffffffffffff1673ffffffffffffffffffffffffffffffffffffffff16815260200190815260200160002060009054906101000a900460ff161561080157600080fd5b6001600660003373ffffffffffffffffffffffffffffffffffffffff1673ffffffffffffffffffffffffffffffffffffffff16815260200190815260200160002060006101000a81548160ff021916908315150217905550600360009054906101000a900473ffffffffffffffffffffffffffffffffffffffff1673ffffffffffffffffffffffffffffffffffffffff1663731133e9336005546002546040518463ffffffff1660e01b81526004016108bc9392919061116f565b600060405180830381600087803b1580156108d657600080fd5b505af11580156108ea573d6000803e3d6000fd5b50505050565b60006007600084815260200190815260200160002060008373ffffffffffffffffffffffffffffffffffffffff1673ffffffffffffffffffffffffffffffffffffffff16815260200190815260200160002054905092915050565b60106020528060005260406000206000915054906101000a9004600f0b81565b600460009054906101000a900473ffffffffffffffffffffffffffffffffffffffff1673ffffffffffffffffffffffffffffffffffffffff163373ffffffffffffffffffffffffffffffffffffffff16146109c557600080fd5b80600360006101000a81548173ffffffffffffffffffffffffffffffffffffffff021916908373ffffffffffffffffffffffffffffffffffffffff16021790555050565b600360009054906101000a900473ffffffffffffffffffffffffffffffffffffffff1673ffffffffffffffffffffffffffffffffffffffff1663f5298aca336005546000546040518463ffffffff1660e01b8152600401610a6c93929190611138565b600060405180830381600087803b158015610a8657600080fd5b505af1158015610a9a573d6000803e3d6000fd5b5050505080600f6000600e5481526020019081526020016000209080519060200190610ac7929190610d41565b50600360009054906101000a900473ffffffffffffffffffffffffffffffffffffffff1673ffffffffffffffffffffffffffffffffffffffff1663731133e933600e54856040518463ffffffff1660e01b8152600401610b299392919061116f565b600060405180830381600087803b158015610b4357600080fd5b505af1158015610b57573d6000803e3d6000fd5b50505050600e6000815480929190610b6e90611437565b91905055505050565b60015481565b600360009054906101000a900473ffffffffffffffffffffffffffffffffffffffff1673ffffffffffffffffffffffffffffffffffffffff1663f242432a33306005546001546040518563ffffffff1660e01b8152600401610be29493929190611088565b600060405180830381600087803b158015610bfc57600080fd5b505af1158015610c10573d6000803e3d6000fd5b505050506001546007600083815260200190815260200160002060003373ffffffffffffffffffffffffffffffffffffffff1673ffffffffffffffffffffffffffffffffffffffff1681526020019081526020016000206000828254610c7691906112e0565b9250508190555050565b60025481565b600080821415610c995760009050610d3b565b600083600f0b1215610caa57600080fd5b600060406fffffffffffffffffffffffffffffffff841685600f0b02901c90506000608084901c85600f0b02905077ffffffffffffffffffffffffffffffffffffffffffffffff811115610cfd57600080fd5b604081901b9050817fffffffffffffffffffffffffffffffffffffffffffffffffffffffffffffffff03811115610d3357600080fd5b818101925050505b92915050565b828054610d4d906113d4565b90600052602060002090601f016020900481019282610d6f5760008555610db6565b82601f10610d8857805160ff1916838001178555610db6565b82800160010185558215610db6579182015b82811115610db5578251825591602001919060010190610d9a565b5b509050610dc39190610dc7565b5090565b5b80821115610de0576000816000905550600101610dc8565b5090565b6000610df7610df284611254565b61122f565b905082815260208101848484011115610e0f57600080fd5b610e1a8482856113c5565b509392505050565b600081359050610e3181611573565b92915050565b600081359050610e468161158a565b92915050565b600082601f830112610e5d57600080fd5b8135610e6d848260208601610de4565b91505092915050565b600081359050610e85816115a1565b92915050565b600060208284031215610e9d57600080fd5b6000610eab84828501610e37565b91505092915050565b600060208284031215610ec657600080fd5b6000610ed484828501610e76565b91505092915050565b60008060408385031215610ef057600080fd5b6000610efe85828601610e76565b9250506020610f0f85828601610e22565b9150509250929050565b60008060408385031215610f2c57600080fd5b6000610f3a85828601610e76565b925050602083013567ffffffffffffffff811115610f5757600080fd5b610f6385828601610e4c565b9150509250929050565b6000610f79838361106a565b60208301905092915050565b610f8e8161136a565b82525050565b6000610f9f82611295565b610fa981856112ad565b9350610fb483611285565b8060005b83811015610fe5578151610fcc8882610f6d565b9750610fd7836112a0565b925050600181019050610fb8565b5085935050505092915050565b610ffb8161138e565b82525050565b600061100e6020836112cf565b91506110198261151e565b602082019050919050565b60006110316000836112be565b915061103c82611547565b600082019050919050565b60006110546020836112cf565b915061105f8261154a565b602082019050919050565b611073816113bb565b82525050565b611082816113bb565b82525050565b600060a08201905061109d6000830187610f85565b6110aa6020830186610f85565b6110b76040830185611079565b6110c46060830184611079565b81810360808301526110d581611024565b905095945050505050565b60006080820190506110f56000830186610f85565b81810360208301526111078185610f94565b9050818103604083015261111b8184610f94565b9050818103606083015261112e81611024565b9050949350505050565b600060608201905061114d6000830186610f85565b61115a6020830185611079565b6111676040830184611079565b949350505050565b60006080820190506111846000830186610f85565b6111916020830185611079565b61119e6040830184611079565b81810360608301526111af81611024565b9050949350505050565b60006020820190506111ce6000830184610ff2565b92915050565b600060208201905081810360008301526111ed81611001565b9050919050565b6000602082019050818103600083015261120d81611047565b9050919050565b60006020820190506112296000830184611079565b92915050565b600061123961124a565b90506112458282611406565b919050565b6000604051905090565b600067ffffffffffffffff82111561126f5761126e6114de565b5b6112788261150d565b9050602081019050919050565b6000819050602082019050919050565b600081519050919050565b6000602082019050919050565b600082825260208201905092915050565b600082825260208201905092915050565b600082825260208201905092915050565b60006112eb826113bb565b91506112f6836113bb565b9250827fffffffffffffffffffffffffffffffffffffffffffffffffffffffffffffffff0382111561132b5761132a611480565b5b828201905092915050565b6000611341826113bb565b915061134c836113bb565b92508282101561135f5761135e611480565b5b828203905092915050565b60006113758261139b565b9050919050565b60006113878261136a565b9050919050565b600081600f0b9050919050565b600073ffffffffffffffffffffffffffffffffffffffff82169050919050565b6000819050919050565b82818337600083830152505050565b600060028204905060018216806113ec57607f821691505b60208210811415611400576113ff6114af565b5b50919050565b61140f8261150d565b810181811067ffffffffffffffff8211171561142e5761142d6114de565b5b80604052505050565b6000611442826113bb565b91507fffffffffffffffffffffffffffffffffffffffffffffffffffffffffffffffff82141561147557611474611480565b5b600182019050919050565b7f4e487b7100000000000000000000000000000000000000000000000000000000600052601160045260246000fd5b7f4e487b7100000000000000000000000000000000000000000000000000000000600052602260045260246000fd5b7f4e487b7100000000000000000000000000000000000000000000000000000000600052604160045260246000fd5b6000601f19601f8301169050919050565b7f646573696c6f3a20596f752068617665206e6f7420796574207374616b65642e600082015250565b50565b7f646573696c6f3a20596f75206d6179206e6f742079657420756e7374616b652e600082015250565b61157c8161136a565b811461158757600080fd5b50565b6115938161137c565b811461159e57600080fd5b50565b6115aa816113bb565b81146115b557600080fd5b5056fea26469706673582212203938deb8a1c6638f2fad8ba2be66ceaa0e9192ab99913c4e6bfd7d5cfec8da3764736f6c63430008030033",
  "immutableReferences": {},
  "source": "pragma solidity ^0.8.3; \r\n\r\nimport \"./dSocialCredits.sol\";\r\nimport \"./library/ABDKMath64x64.sol\";\r\n\r\ncontract desilo {\r\n\r\n    uint256 public groupCreationSCAmount;\r\n    uint256 public scStakeAmount;\r\n    uint256 public scSeedAmount;\r\n    dSocialCredits _scContract; \r\n    address _owner;\r\n    uint256 _scID = 0;\r\n    mapping(address => bool) _registered;\r\n\r\n    // mapping(entityID)\r\n    mapping(uint256 => mapping(address => uint256)) _stakedAmount; \r\n    mapping(uint256 => mapping(address => uint256)) _stakeExpiry; \r\n    mapping(uint256 => uint256) _entityToThread;\r\n    mapping(uint256 => string) _entityURI;\r\n\r\n    // mapping(threadID)\r\n    mapping(uint256 => string) _threadURI;\r\n    mapping(uint256 => mapping(uint256 => bool)) _threadGSC;\r\n    mapping(uint256 => uint256) _threadGSCCount;\r\n\r\n\r\n    // mapping(groupID => fixed128x128)\r\n    uint _groupCount = 1; \r\n    mapping(uint256 => string) _groupURI;\r\n    mapping(uint256 => int128) public gscYield;\r\n    mapping(uint256 => uint256) _gscMinAcceptance; \r\n\r\n\r\n    constructor(uint256 _scStakeAmount, int128 _scYield, uint256 _groupCreationSCAmount, uint256 _scSeedAmount) {\r\n        gscYield[0] = _scYield;\r\n        scStakeAmount = _scStakeAmount;\r\n        groupCreationSCAmount = _groupCreationSCAmount;\r\n        scSeedAmount = _scSeedAmount;\r\n        _owner = msg.sender;\r\n    }\r\n\r\n    function createGroup(uint256 _initialSupply, string memory _uri) external {\r\n        _scContract.burn(msg.sender, _scID, groupCreationSCAmount);\r\n        _groupURI[_groupCount] = _uri; \r\n        _scContract.mint(msg.sender, _groupCount, _initialSupply, \"\");\r\n        _groupCount++;\r\n    }\r\n\r\n    function setSC(dSocialCredits _sc) external {\r\n        require(msg.sender == _owner);\r\n        _scContract = _sc;\r\n    }\r\n\r\n    function seedSC() external {\r\n        require(!_registered[msg.sender]);\r\n        _registered[msg.sender] = true;\r\n        _scContract.mint(msg.sender, _scID, scSeedAmount, \"\");\r\n    }\r\n\r\n    function getStaked(uint256 _commitId, address _addr) public view returns(uint256) {\r\n        return _stakedAmount[_commitId][_addr];\r\n    }\r\n\r\n    function stake(uint256 _commitId) external {\r\n        _scContract.safeTransferFrom(msg.sender, address(this), _scID, scStakeAmount, \"\");\r\n        _stakedAmount[_commitId][msg.sender] += scStakeAmount;\r\n    }\r\n\r\n    function unstake(uint256 _commitId) external {\r\n        require(block.timestamp >= _stakeExpiry[_commitId][msg.sender], \"desilo: You may not yet unstake.\"); \r\n        require(getStaked(_commitId,msg.sender) >= 0, \"desilo: You have not yet staked.\"); \r\n        \r\n        uint256 stakedAmount = getStaked(_commitId,msg.sender);\r\n        uint256 threadID = _entityToThread[_commitId];\r\n        uint256 gscCount = _threadGSCCount[threadID];\r\n        uint256[] memory ids = new uint256[](gscCount);\r\n        uint256[] memory amounts = new uint256[](gscCount);\r\n\r\n\r\n        _stakedAmount[_commitId][msg.sender] -= stakedAmount; \r\n        _stakeExpiry[_commitId][msg.sender] = 0;\r\n\r\n        _scContract.safeTransferFrom(address(this), msg.sender, _scID, stakedAmount, \"\");\r\n        _scContract.mint(msg.sender, _scID, ABDKMath64x64.mulu(gscYield[0], stakedAmount), \"\");\r\n\r\n        uint256 count = 0;\r\n        for (uint256 i = 1; i < _groupCount; i++) {\r\n            if (_threadGSC[threadID][i]) {\r\n                ids[count] = i;\r\n                amounts[count] = ABDKMath64x64.mulu(gscYield[i], stakedAmount);\r\n                count++;\r\n            }\r\n        }\r\n        _scContract.mintBatch(msg.sender, ids, amounts, \"\");\r\n    }\r\n\r\n}",
  "sourcePath": "C:/Users/Kuan/Documents/GitHub/desilo/contracts/desilo.sol",
  "compiler": {
    "name": "solc",
    "version": "0.8.3+commit.8d00100c.Emscripten.clang"
  },
  "schemaVersion": "3.3.4",
  "updatedAt": "2021-08-05T22:11:02.675Z",
  "networkType": "ethereum",
  "devdoc": {
    "kind": "dev",
    "methods": {},
    "version": 1
  },
  "userdoc": {
    "kind": "user",
    "methods": {},
    "version": 1
  }
}