{
  "contractName": "desilo",
  "abi": [
    {
      "inputs": [
        {
          "internalType": "uint256",
          "name": "_scStakeAmount",
          "type": "uint256"
        },
        {
          "internalType": "int128",
          "name": "_scYield",
          "type": "int128"
        },
        {
          "internalType": "uint256",
          "name": "_groupCreationSCAmount",
          "type": "uint256"
        },
        {
          "internalType": "uint256",
          "name": "_scSeedAmount",
          "type": "uint256"
        },
        {
          "internalType": "uint256",
          "name": "_scStakePeriod",
          "type": "uint256"
        }
      ],
      "stateMutability": "nonpayable",
      "type": "constructor"
    },
    {
      "anonymous": false,
      "inputs": [
        {
          "indexed": false,
          "internalType": "uint256",
          "name": "id",
          "type": "uint256"
        },
        {
          "indexed": false,
          "internalType": "address",
          "name": "creator",
          "type": "address"
        }
      ],
      "name": "GroupCreated",
      "type": "event"
    },
    {
      "anonymous": false,
      "inputs": [
        {
          "indexed": false,
          "internalType": "uint256",
          "name": "projectId",
          "type": "uint256"
        },
        {
          "indexed": false,
          "internalType": "uint256",
          "name": "groupId",
          "type": "uint256"
        }
      ],
      "name": "ProjectAccepted",
      "type": "event"
    },
    {
      "anonymous": false,
      "inputs": [
        {
          "indexed": false,
          "internalType": "uint256",
          "name": "id",
          "type": "uint256"
        },
        {
          "indexed": false,
          "internalType": "address",
          "name": "creator",
          "type": "address"
        }
      ],
      "name": "ProjectCreated",
      "type": "event"
    },
    {
      "anonymous": false,
      "inputs": [
        {
          "indexed": false,
          "internalType": "address",
          "name": "staker",
          "type": "address"
        },
        {
          "indexed": false,
          "internalType": "bytes32",
          "name": "commitId",
          "type": "bytes32"
        },
        {
          "indexed": false,
          "internalType": "string",
          "name": "uri",
          "type": "string"
        }
      ],
      "name": "Staked",
      "type": "event"
    },
    {
      "anonymous": false,
      "inputs": [
        {
          "indexed": false,
          "internalType": "address",
          "name": "staker",
          "type": "address"
        },
        {
          "indexed": false,
          "internalType": "bytes32",
          "name": "commitId",
          "type": "bytes32"
        },
        {
          "indexed": false,
          "internalType": "string",
          "name": "uri",
          "type": "string"
        }
      ],
      "name": "Unstaked",
      "type": "event"
    },
    {
      "inputs": [
        {
          "internalType": "uint256",
          "name": "",
          "type": "uint256"
        }
      ],
      "name": "_groups",
      "outputs": [
        {
          "internalType": "string",
          "name": "uri",
          "type": "string"
        },
        {
          "internalType": "int128",
          "name": "yield",
          "type": "int128"
        },
        {
          "internalType": "uint256",
          "name": "acceptance",
          "type": "uint256"
        }
      ],
      "stateMutability": "view",
      "type": "function",
      "constant": true
    },
    {
      "inputs": [],
      "name": "groupCreationSCAmount",
      "outputs": [
        {
          "internalType": "uint256",
          "name": "",
          "type": "uint256"
        }
      ],
      "stateMutability": "view",
      "type": "function",
      "constant": true
    },
    {
      "inputs": [
        {
          "internalType": "address",
          "name": "",
          "type": "address"
        }
      ],
      "name": "registered",
      "outputs": [
        {
          "internalType": "bool",
          "name": "",
          "type": "bool"
        }
      ],
      "stateMutability": "view",
      "type": "function",
      "constant": true
    },
    {
      "inputs": [],
      "name": "scID",
      "outputs": [
        {
          "internalType": "uint256",
          "name": "",
          "type": "uint256"
        }
      ],
      "stateMutability": "view",
      "type": "function",
      "constant": true
    },
    {
      "inputs": [],
      "name": "scSeedAmount",
      "outputs": [
        {
          "internalType": "uint256",
          "name": "",
          "type": "uint256"
        }
      ],
      "stateMutability": "view",
      "type": "function",
      "constant": true
    },
    {
      "inputs": [],
      "name": "scStakeAmount",
      "outputs": [
        {
          "internalType": "uint256",
          "name": "",
          "type": "uint256"
        }
      ],
      "stateMutability": "view",
      "type": "function",
      "constant": true
    },
    {
      "inputs": [],
      "name": "scStakePeriod",
      "outputs": [
        {
          "internalType": "uint256",
          "name": "",
          "type": "uint256"
        }
      ],
      "stateMutability": "view",
      "type": "function",
      "constant": true
    },
    {
      "inputs": [],
      "name": "scYield",
      "outputs": [
        {
          "internalType": "int128",
          "name": "",
          "type": "int128"
        }
      ],
      "stateMutability": "view",
      "type": "function",
      "constant": true
    },
    {
      "inputs": [
        {
          "internalType": "bytes4",
          "name": "interfaceId",
          "type": "bytes4"
        }
      ],
      "name": "supportsInterface",
      "outputs": [
        {
          "internalType": "bool",
          "name": "",
          "type": "bool"
        }
      ],
      "stateMutability": "view",
      "type": "function",
      "constant": true
    },
    {
      "inputs": [
        {
          "internalType": "uint256",
          "name": "_initialSupply",
          "type": "uint256"
        },
        {
          "internalType": "string",
          "name": "_uri",
          "type": "string"
        },
        {
          "internalType": "int128",
          "name": "_yield",
          "type": "int128"
        },
        {
          "internalType": "uint256",
          "name": "_acceptance",
          "type": "uint256"
        }
      ],
      "name": "createGroup",
      "outputs": [],
      "stateMutability": "nonpayable",
      "type": "function"
    },
    {
      "inputs": [
        {
          "internalType": "uint256",
          "name": "index",
          "type": "uint256"
        }
      ],
      "name": "getGroup",
      "outputs": [
        {
          "components": [
            {
              "internalType": "string",
              "name": "uri",
              "type": "string"
            },
            {
              "internalType": "int128",
              "name": "yield",
              "type": "int128"
            },
            {
              "internalType": "uint256",
              "name": "acceptance",
              "type": "uint256"
            }
          ],
          "internalType": "struct desilo.Group",
          "name": "",
          "type": "tuple"
        }
      ],
      "stateMutability": "view",
      "type": "function",
      "constant": true
    },
    {
      "inputs": [],
      "name": "getAllGroups",
      "outputs": [
        {
          "components": [
            {
              "internalType": "string",
              "name": "uri",
              "type": "string"
            },
            {
              "internalType": "int128",
              "name": "yield",
              "type": "int128"
            },
            {
              "internalType": "uint256",
              "name": "acceptance",
              "type": "uint256"
            }
          ],
          "internalType": "struct desilo.Group[]",
          "name": "",
          "type": "tuple[]"
        }
      ],
      "stateMutability": "view",
      "type": "function",
      "constant": true
    },
    {
      "inputs": [
        {
          "internalType": "uint256",
          "name": "projectID",
          "type": "uint256"
        }
      ],
      "name": "getAffiliations",
      "outputs": [
        {
          "internalType": "bool[]",
          "name": "",
          "type": "bool[]"
        }
      ],
      "stateMutability": "view",
      "type": "function",
      "constant": true
    },
    {
      "inputs": [],
      "name": "getAllAffiliations",
      "outputs": [
        {
          "internalType": "bool[][]",
          "name": "",
          "type": "bool[][]"
        }
      ],
      "stateMutability": "view",
      "type": "function",
      "constant": true
    },
    {
      "inputs": [],
      "name": "getAllVouched",
      "outputs": [
        {
          "internalType": "uint256[][]",
          "name": "",
          "type": "uint256[][]"
        }
      ],
      "stateMutability": "view",
      "type": "function",
      "constant": true
    },
    {
      "inputs": [
        {
          "internalType": "uint256",
          "name": "index",
          "type": "uint256"
        }
      ],
      "name": "getProject",
      "outputs": [
        {
          "components": [
            {
              "internalType": "string",
              "name": "uri",
              "type": "string"
            },
            {
              "internalType": "uint256",
              "name": "createdAt",
              "type": "uint256"
            },
            {
              "internalType": "uint256",
              "name": "groupCount",
              "type": "uint256"
            },
            {
              "internalType": "address",
              "name": "owner",
              "type": "address"
            }
          ],
          "internalType": "struct desilo.Project",
          "name": "",
          "type": "tuple"
        }
      ],
      "stateMutability": "view",
      "type": "function",
      "constant": true
    },
    {
      "inputs": [],
      "name": "getAllProjects",
      "outputs": [
        {
          "components": [
            {
              "internalType": "string",
              "name": "uri",
              "type": "string"
            },
            {
              "internalType": "uint256",
              "name": "createdAt",
              "type": "uint256"
            },
            {
              "internalType": "uint256",
              "name": "groupCount",
              "type": "uint256"
            },
            {
              "internalType": "address",
              "name": "owner",
              "type": "address"
            }
          ],
          "internalType": "struct desilo.Project[]",
          "name": "",
          "type": "tuple[]"
        }
      ],
      "stateMutability": "view",
      "type": "function",
      "constant": true
    },
    {
      "inputs": [
        {
          "internalType": "uint256",
          "name": "projectID",
          "type": "uint256"
        }
      ],
      "name": "getProjectEntities",
      "outputs": [
        {
          "internalType": "string[]",
          "name": "entityURIs",
          "type": "string[]"
        }
      ],
      "stateMutability": "view",
      "type": "function",
      "constant": true
    },
    {
      "inputs": [
        {
          "internalType": "uint256",
          "name": "projectID",
          "type": "uint256"
        },
        {
          "internalType": "string",
          "name": "entityURI",
          "type": "string"
        }
      ],
      "name": "addProjectEntity",
      "outputs": [],
      "stateMutability": "nonpayable",
      "type": "function"
    },
    {
      "inputs": [
        {
          "internalType": "uint256",
          "name": "projectID",
          "type": "uint256"
        },
        {
          "internalType": "uint256",
          "name": "groupID",
          "type": "uint256"
        },
        {
          "internalType": "uint256",
          "name": "amount",
          "type": "uint256"
        }
      ],
      "name": "vouchProject",
      "outputs": [],
      "stateMutability": "nonpayable",
      "type": "function"
    },
    {
      "inputs": [
        {
          "internalType": "contract dSocialCredits",
          "name": "_sc",
          "type": "address"
        }
      ],
      "name": "setSC",
      "outputs": [],
      "stateMutability": "nonpayable",
      "type": "function"
    },
    {
      "inputs": [],
      "name": "seedSC",
      "outputs": [],
      "stateMutability": "nonpayable",
      "type": "function"
    },
    {
      "inputs": [
        {
          "internalType": "bytes32",
          "name": "_commitId",
          "type": "bytes32"
        },
        {
          "internalType": "address",
          "name": "_addr",
          "type": "address"
        }
      ],
      "name": "getStaked",
      "outputs": [
        {
          "internalType": "uint256",
          "name": "",
          "type": "uint256"
        }
      ],
      "stateMutability": "view",
      "type": "function",
      "constant": true
    },
    {
      "inputs": [
        {
          "internalType": "bytes32",
          "name": "_commitId",
          "type": "bytes32"
        }
      ],
      "name": "stake",
      "outputs": [],
      "stateMutability": "nonpayable",
      "type": "function"
    },
    {
      "inputs": [
        {
          "internalType": "bytes32",
          "name": "_commitId",
          "type": "bytes32"
        }
      ],
      "name": "unstake",
      "outputs": [],
      "stateMutability": "nonpayable",
      "type": "function"
    },
    {
      "inputs": [
        {
          "internalType": "string",
          "name": "uri",
          "type": "string"
        }
      ],
      "name": "registerProject",
      "outputs": [],
      "stateMutability": "nonpayable",
      "type": "function"
    },
    {
      "inputs": [
        {
          "internalType": "address",
          "name": "operator",
          "type": "address"
        },
        {
          "internalType": "address",
          "name": "from",
          "type": "address"
        },
        {
          "internalType": "uint256",
          "name": "id",
          "type": "uint256"
        },
        {
          "internalType": "uint256",
          "name": "value",
          "type": "uint256"
        },
        {
          "internalType": "bytes",
          "name": "data",
          "type": "bytes"
        }
      ],
      "name": "onERC1155Received",
      "outputs": [
        {
          "internalType": "bytes4",
          "name": "",
          "type": "bytes4"
        }
      ],
      "stateMutability": "pure",
      "type": "function",
      "constant": true
    },
    {
      "inputs": [
        {
          "internalType": "address",
          "name": "operator",
          "type": "address"
        },
        {
          "internalType": "address",
          "name": "from",
          "type": "address"
        },
        {
          "internalType": "uint256[]",
          "name": "ids",
          "type": "uint256[]"
        },
        {
          "internalType": "uint256[]",
          "name": "values",
          "type": "uint256[]"
        },
        {
          "internalType": "bytes",
          "name": "data",
          "type": "bytes"
        }
      ],
      "name": "onERC1155BatchReceived",
      "outputs": [
        {
          "internalType": "bytes4",
          "name": "",
          "type": "bytes4"
        }
      ],
      "stateMutability": "pure",
      "type": "function",
      "constant": true
    }
  ],
  "bytecode": "0x60806040527fffffffffffffffffffffffffffffffffffffffffffffffffffffffffffffffff600755600060115560006012553480156200003f57600080fd5b5060405162003fac38038062003fac833981810160405281019062000065919062000137565b83600360006101000a8154816fffffffffffffffffffffffffffffffff0219169083600f0b6fffffffffffffffffffffffffffffffff1602179055508460018190555082600081905550816002819055508060048190555033600660006101000a81548173ffffffffffffffffffffffffffffffffffffffff021916908373ffffffffffffffffffffffffffffffffffffffff160217905550505050505062000204565b6000815190506200011a81620001d0565b92915050565b6000815190506200013181620001ea565b92915050565b600080600080600060a086880312156200015057600080fd5b6000620001608882890162000120565b9550506020620001738882890162000109565b9450506040620001868882890162000120565b9350506060620001998882890162000120565b9250506080620001ac8882890162000120565b9150509295509295909350565b600081600f0b9050919050565b6000819050919050565b620001db81620001b9565b8114620001e757600080fd5b50565b620001f581620001c6565b81146200020157600080fd5b50565b613d9880620002146000396000f3fe608060405234801561001057600080fd5b50600436106101c45760003560e01c806380d03829116100f9578063bc197c8111610097578063d841212e11610071578063d841212e14610509578063ecb282de14610527578063f0f3f2c814610545578063f23a6e6114610575576101c4565b8063bc197c811461048d578063c0d64a87146104bd578063ceb60654146104d9576101c4565b8063907a4e1d116100d3578063907a4e1d14610407578063a5e8019214610423578063b2dd5c0714610441578063b2e9ed3d14610471576101c4565b806380d03829146103af5780638a0605a2146103cd5780638d997270146103eb576101c4565b806349107fbb116101665780636b513d0c116101405780636b513d0c1461032957806371ed5d1a1461034757806372212ec7146103635780637b5399991461037f576101c4565b806349107fbb146102bd5780635859e082146102d957806365f5e7b6146102f7576101c4565b80631fd7288c116101a25780631fd7288c1461023557806321cd3cae146102655780632e35de05146102835780632f008105146102b3576101c4565b806301bed79c146101c957806301ffc9a7146101e75780631614047e14610217575b600080fd5b6101d16105a5565b6040516101de91906135a8565b60405180910390f35b61020160048036038101906101fc919061292f565b6105b8565b60405161020e9190613572565b60405180910390f35b61021f610632565b60405161022c91906136a5565b60405180910390f35b61024f600480360381019061024a91906129c2565b610638565b60405161025c919061350c565b60405180910390f35b61026d61082d565b60405161027a919061352e565b60405180910390f35b61029d600480360381019061029891906128f3565b6109f2565b6040516102aa91906136a5565b60405180910390f35b6102bb610a4d565b005b6102d760048036038101906102d291906129eb565b610bc9565b005b6102e1610c8e565b6040516102ee91906136a5565b60405180910390f35b610311600480360381019061030c91906129c2565b610c94565b604051610320939291906135c3565b60405180910390f35b610331610d53565b60405161033e91906134a6565b60405180910390f35b610361600480360381019061035c91906128ca565b610f50565b005b61037d60048036038101906103789190612981565b611547565b005b610399600480360381019061039491906129c2565b61163e565b6040516103a691906134ea565b60405180910390f35b6103b761175c565b6040516103c49190613550565b60405180910390f35b6103d5611964565b6040516103e291906134c8565b60405180910390f35b61040560048036038101906104009190612a3f565b611b4e565b005b610421600480360381019061041c9190612958565b611d6b565b005b61042b611e09565b60405161043891906136a5565b60405180910390f35b61045b60048036038101906104569190612743565b611e0f565b6040516104689190613572565b60405180910390f35b61048b60048036038101906104869190612aba565b611e2f565b005b6104a760048036038101906104a2919061276c565b611fb8565b6040516104b4919061358d565b60405180910390f35b6104d760048036038101906104d291906128ca565b611fd0565b005b6104f360048036038101906104ee91906129c2565b61216e565b6040516105009190613661565b60405180910390f35b610511612254565b60405161051e91906136a5565b60405180910390f35b61052f61225a565b60405161053c91906136a5565b60405180910390f35b61055f600480360381019061055a91906129c2565b612260565b60405161056c9190613683565b60405180910390f35b61058f600480360381019061058a9190612838565b612389565b60405161059c919061358d565b60405180910390f35b600360009054906101000a9004600f0b81565b60007f4e2312e0000000000000000000000000000000000000000000000000000000007bffffffffffffffffffffffffffffffffffffffffffffffffffffffff1916827bffffffffffffffffffffffffffffffffffffffffffffffffffffffff1916148061062b575061062a8261239f565b5b9050919050565b60005481565b60606000601060008481526020019081526020016000205467ffffffffffffffff81111561068f577f4e487b7100000000000000000000000000000000000000000000000000000000600052604160045260246000fd5b6040519080825280602002602001820160405280156106c257816020015b60608152602001906001900390816106ad5790505b50905060005b601060008581526020019081526020016000205481101561082657600c6000600f60008781526020019081526020016000206000016010600088815260200190815260200160002054604051602001610722929190613311565b604051602081830303815290604052805190602001208152602001908152602001600020805461075190613ae0565b80601f016020809104026020016040519081016040528092919081815260200182805461077d90613ae0565b80156107ca5780601f1061079f576101008083540402835291602001916107ca565b820191906000526020600020905b8154815290600101906020018083116107ad57829003601f168201915b5050505050828281518110610808577f4e487b7100000000000000000000000000000000000000000000000000000000600052603260045260246000fd5b6020026020010181905250808061081e90613b43565b9150506106c8565b5050919050565b6060600060125467ffffffffffffffff811115610873577f4e487b7100000000000000000000000000000000000000000000000000000000600052604160045260246000fd5b6040519080825280602002602001820160405280156108ac57816020015b6108996124c4565b8152602001906001900390816108915790505b50905060005b6012548110156109ea57601360008281526020019081526020016000206040518060600160405290816000820180546108ea90613ae0565b80601f016020809104026020016040519081016040528092919081815260200182805461091690613ae0565b80156109635780601f1061093857610100808354040283529160200191610963565b820191906000526020600020905b81548152906001019060200180831161094657829003601f168201915b505050505081526020016001820160009054906101000a9004600f0b600f0b600f0b81526020016002820154815250508282815181106109cc577f4e487b7100000000000000000000000000000000000000000000000000000000600052603260045260246000fd5b602002602001018190525080806109e290613b43565b9150506108b2565b508091505090565b60006009600084815260200190815260200160002060008373ffffffffffffffffffffffffffffffffffffffff1673ffffffffffffffffffffffffffffffffffffffff16815260200190815260200160002054905092915050565b600860003373ffffffffffffffffffffffffffffffffffffffff1673ffffffffffffffffffffffffffffffffffffffff16815260200190815260200160002060009054906101000a900460ff1615610ada576040517f08c379a0000000000000000000000000000000000000000000000000000000008152600401610ad190613601565b60405180910390fd5b6001600860003373ffffffffffffffffffffffffffffffffffffffff1673ffffffffffffffffffffffffffffffffffffffff16815260200190815260200160002060006101000a81548160ff021916908315150217905550600560009054906101000a900473ffffffffffffffffffffffffffffffffffffffff1673ffffffffffffffffffffffffffffffffffffffff1663731133e9336007546002546040518463ffffffff1660e01b8152600401610b959392919061345c565b600060405180830381600087803b158015610baf57600080fd5b505af1158015610bc3573d6000803e3d6000fd5b50505050565b6000600f60008481526020019081526020016000206000016010600085815260200190815260200160002054604051602001610c06929190613311565b60405160208183030381529060405280519060200120905082600b60008381526020019081526020016000208190555081600c60008381526020019081526020016000209080519060200190610c5d9291906124e8565b506001601060008581526020019081526020016000206000828254610c829190613977565b92505081905550505050565b60075481565b6013602052806000526040600020600091509050806000018054610cb790613ae0565b80601f0160208091040260200160405190810160405280929190818152602001828054610ce390613ae0565b8015610d305780601f10610d0557610100808354040283529160200191610d30565b820191906000526020600020905b815481529060010190602001808311610d1357829003601f168201915b5050505050908060010160009054906101000a9004600f0b908060020154905083565b6060600060115467ffffffffffffffff811115610d99577f4e487b7100000000000000000000000000000000000000000000000000000000600052604160045260246000fd5b604051908082528060200260200182016040528015610dcc57816020015b6060815260200190600190039081610db75790505b50905060005b601154811015610f4857600060125467ffffffffffffffff811115610e20577f4e487b7100000000000000000000000000000000000000000000000000000000600052604160045260246000fd5b604051908082528060200260200182016040528015610e4e5781602001602082028036833780820191505090505b50905060005b601254811015610eee57600d6000848152602001908152602001600020600082815260200190815260200160002060009054906101000a900460ff16828281518110610ec9577f4e487b7100000000000000000000000000000000000000000000000000000000600052603260045260246000fd5b6020026020010190151590811515815250508080610ee690613b43565b915050610e54565b5080838381518110610f29577f4e487b7100000000000000000000000000000000000000000000000000000000600052603260045260246000fd5b6020026020010181905250508080610f4090613b43565b915050610dd2565b508091505090565b600a600082815260200190815260200160002060003373ffffffffffffffffffffffffffffffffffffffff1673ffffffffffffffffffffffffffffffffffffffff16815260200190815260200160002054421015610fe3576040517f08c379a0000000000000000000000000000000000000000000000000000000008152600401610fda90613641565b60405180910390fd5b6000610fef82336109f2565b1015611030576040517f08c379a000000000000000000000000000000000000000000000000000000000815260040161102790613621565b60405180910390fd5b600061103c82336109f2565b90506000600b60008481526020019081526020016000205490506000600f600083815260200190815260200160002060020154905060008167ffffffffffffffff8111156110b3577f4e487b7100000000000000000000000000000000000000000000000000000000600052604160045260246000fd5b6040519080825280602002602001820160405280156110e15781602001602082028036833780820191505090505b50905060008267ffffffffffffffff811115611126577f4e487b7100000000000000000000000000000000000000000000000000000000600052604160045260246000fd5b6040519080825280602002602001820160405280156111545781602001602082028036833780820191505090505b509050846009600088815260200190815260200160002060003373ffffffffffffffffffffffffffffffffffffffff1673ffffffffffffffffffffffffffffffffffffffff16815260200190815260200160002060008282546111b791906139cd565b925050819055506000600a600088815260200190815260200160002060003373ffffffffffffffffffffffffffffffffffffffff1673ffffffffffffffffffffffffffffffffffffffff16815260200190815260200160002081905550600560009054906101000a900473ffffffffffffffffffffffffffffffffffffffff1673ffffffffffffffffffffffffffffffffffffffff1663f242432a3033600754896040518563ffffffff1660e01b81526004016112779493929190613339565b600060405180830381600087803b15801561129157600080fd5b505af11580156112a5573d6000803e3d6000fd5b50505050600560009054906101000a900473ffffffffffffffffffffffffffffffffffffffff1673ffffffffffffffffffffffffffffffffffffffff1663731133e933600754611304600360009054906101000a9004600f0b8a612409565b6040518463ffffffff1660e01b81526004016113229392919061345c565b600060405180830381600087803b15801561133c57600080fd5b505af1158015611350573d6000803e3d6000fd5b505050506000805b60125481101561147357600d6000878152602001908152602001600020600082815260200190815260200160002060009054906101000a900460ff161561146057808483815181106113d3577f4e487b7100000000000000000000000000000000000000000000000000000000600052603260045260246000fd5b60200260200101818152505061140c6013600083815260200190815260200160002060010160009054906101000a9004600f0b88612409565b838381518110611445577f4e487b7100000000000000000000000000000000000000000000000000000000600052603260045260246000fd5b602002602001018181525050818061145c90613b43565b9250505b808061146b90613b43565b915050611358565b50600560009054906101000a900473ffffffffffffffffffffffffffffffffffffffff1673ffffffffffffffffffffffffffffffffffffffff16631f7fdffa3385856040518463ffffffff1660e01b81526004016114d393929190613391565b600060405180830381600087803b1580156114ed57600080fd5b505af1158015611501573d6000803e3d6000fd5b505050507fb78896534a069af11c5ac67bdf6c1e603112b3adec618855d97b095a49d2845a33886040516115369291906133e9565b60405180910390a150505050505050565b80600f6000601154815260200190815260200160002060000190805190602001906115739291906124e8565b5033600f6000601154815260200190815260200160002060030160006101000a81548173ffffffffffffffffffffffffffffffffffffffff021916908373ffffffffffffffffffffffffffffffffffffffff16021790555042600f60006011548152602001908152602001600020600101819055507f63c92f9505d420bff631cb9df33be952bdc11e2118da36a850b43e6bcc4ce4de6011543360405161161b9291906136c0565b60405180910390a16011600081548092919061163690613b43565b919050555050565b6060600060125467ffffffffffffffff811115611684577f4e487b7100000000000000000000000000000000000000000000000000000000600052604160045260246000fd5b6040519080825280602002602001820160405280156116b25781602001602082028036833780820191505090505b50905060005b60125481101561175257600d6000858152602001908152602001600020600082815260200190815260200160002060009054906101000a900460ff1682828151811061172d577f4e487b7100000000000000000000000000000000000000000000000000000000600052603260045260246000fd5b602002602001019015159081151581525050808061174a90613b43565b9150506116b8565b5080915050919050565b6060600060115467ffffffffffffffff8111156117a2577f4e487b7100000000000000000000000000000000000000000000000000000000600052604160045260246000fd5b6040519080825280602002602001820160405280156117db57816020015b6117c861256e565b8152602001906001900390816117c05790505b50905060005b60115481101561195c57600f600082815260200190815260200160002060405180608001604052908160008201805461181990613ae0565b80601f016020809104026020016040519081016040528092919081815260200182805461184590613ae0565b80156118925780601f1061186757610100808354040283529160200191611892565b820191906000526020600020905b81548152906001019060200180831161187557829003601f168201915b5050505050815260200160018201548152602001600282015481526020016003820160009054906101000a900473ffffffffffffffffffffffffffffffffffffffff1673ffffffffffffffffffffffffffffffffffffffff1673ffffffffffffffffffffffffffffffffffffffff168152505082828151811061193e577f4e487b7100000000000000000000000000000000000000000000000000000000600052603260045260246000fd5b6020026020010181905250808061195490613b43565b9150506117e1565b508091505090565b6060600060115467ffffffffffffffff8111156119aa577f4e487b7100000000000000000000000000000000000000000000000000000000600052604160045260246000fd5b6040519080825280602002602001820160405280156119dd57816020015b60608152602001906001900390816119c85790505b50905060005b601154811015611b4657600060125467ffffffffffffffff811115611a31577f4e487b7100000000000000000000000000000000000000000000000000000000600052604160045260246000fd5b604051908082528060200260200182016040528015611a5f5781602001602082028036833780820191505090505b50905060005b601254811015611aec57600e6000848152602001908152602001600020600082815260200190815260200160002054828281518110611acd577f4e487b7100000000000000000000000000000000000000000000000000000000600052603260045260246000fd5b6020026020010181815250508080611ae490613b43565b915050611a65565b5080838381518110611b27577f4e487b7100000000000000000000000000000000000000000000000000000000600052603260045260246000fd5b6020026020010181905250508080611b3e90613b43565b9150506119e3565b508091505090565b600560009054906101000a900473ffffffffffffffffffffffffffffffffffffffff1673ffffffffffffffffffffffffffffffffffffffff1663f5298aca336007546000546040518463ffffffff1660e01b8152600401611bb193929190613425565b600060405180830381600087803b158015611bcb57600080fd5b505af1158015611bdf573d6000803e3d6000fd5b50505050826013600060125481526020019081526020016000206000019080519060200190611c0f9291906124e8565b508160136000601254815260200190815260200160002060010160006101000a8154816fffffffffffffffffffffffffffffffff0219169083600f0b6fffffffffffffffffffffffffffffffff1602179055508060136000601254815260200190815260200160002060020181905550600560009054906101000a900473ffffffffffffffffffffffffffffffffffffffff1673ffffffffffffffffffffffffffffffffffffffff1663731133e933601254876040518463ffffffff1660e01b8152600401611ce09392919061345c565b600060405180830381600087803b158015611cfa57600080fd5b505af1158015611d0e573d6000803e3d6000fd5b505050507f6958b51b54d963fa8eeeea5b61b83a9ad28f9ee9d5a2f1b8495e6866cb534bb160125433604051611d459291906136c0565b60405180910390a160126000815480929190611d6090613b43565b919050555050505050565b600660009054906101000a900473ffffffffffffffffffffffffffffffffffffffff1673ffffffffffffffffffffffffffffffffffffffff163373ffffffffffffffffffffffffffffffffffffffff1614611dc557600080fd5b80600560006101000a81548173ffffffffffffffffffffffffffffffffffffffff021916908373ffffffffffffffffffffffffffffffffffffffff16021790555050565b60015481565b60086020528060005260406000206000915054906101000a900460ff1681565b600560009054906101000a900473ffffffffffffffffffffffffffffffffffffffff1673ffffffffffffffffffffffffffffffffffffffff1663f5298aca3384846040518463ffffffff1660e01b8152600401611e8e93929190613425565b600060405180830381600087803b158015611ea857600080fd5b505af1158015611ebc573d6000803e3d6000fd5b5050505080600e600085815260200190815260200160002060008481526020019081526020016000206000828254611ef49190613977565b925050819055506013600083815260200190815260200160002060020154600e600085815260200190815260200160002060008481526020019081526020016000205410611fb3576001600d6000858152602001908152602001600020600084815260200190815260200160002060006101000a81548160ff0219169083151502179055507f29692491058132b418905fa7c07d37d72a2355cf7f1d20d22a134414aa6ddf4c8383604051611faa9291906136e9565b60405180910390a15b505050565b600063bc197c8160e01b905098975050505050505050565b600560009054906101000a900473ffffffffffffffffffffffffffffffffffffffff1673ffffffffffffffffffffffffffffffffffffffff1663f242432a33306007546001546040518563ffffffff1660e01b81526004016120359493929190613339565b600060405180830381600087803b15801561204f57600080fd5b505af1158015612063573d6000803e3d6000fd5b505050506001546009600083815260200190815260200160002060003373ffffffffffffffffffffffffffffffffffffffff1673ffffffffffffffffffffffffffffffffffffffff16815260200190815260200160002060008282546120c99190613977565b92505081905550600454426120de9190613977565b600a600083815260200190815260200160002060003373ffffffffffffffffffffffffffffffffffffffff1673ffffffffffffffffffffffffffffffffffffffff168152602001908152602001600020819055507f4479313fb899726ea54d15cfe180c5211d34d414298c9b97b3d0bdd89d06dee633826040516121639291906133e9565b60405180910390a150565b6121766124c4565b601360008381526020019081526020016000206040518060600160405290816000820180546121a490613ae0565b80601f01602080910402602001604051908101604052809291908181526020018280546121d090613ae0565b801561221d5780601f106121f25761010080835404028352916020019161221d565b820191906000526020600020905b81548152906001019060200180831161220057829003601f168201915b505050505081526020016001820160009054906101000a9004600f0b600f0b600f0b81526020016002820154815250509050919050565b60025481565b60045481565b61226861256e565b600f600083815260200190815260200160002060405180608001604052908160008201805461229690613ae0565b80601f01602080910402602001604051908101604052809291908181526020018280546122c290613ae0565b801561230f5780601f106122e45761010080835404028352916020019161230f565b820191906000526020600020905b8154815290600101906020018083116122f257829003601f168201915b5050505050815260200160018201548152602001600282015481526020016003820160009054906101000a900473ffffffffffffffffffffffffffffffffffffffff1673ffffffffffffffffffffffffffffffffffffffff1673ffffffffffffffffffffffffffffffffffffffff16815250509050919050565b600063f23a6e6160e01b90509695505050505050565b60007f01ffc9a7000000000000000000000000000000000000000000000000000000007bffffffffffffffffffffffffffffffffffffffffffffffffffffffff1916827bffffffffffffffffffffffffffffffffffffffffffffffffffffffff1916149050919050565b60008082141561241c57600090506124be565b600083600f0b121561242d57600080fd5b600060406fffffffffffffffffffffffffffffffff841685600f0b02901c90506000608084901c85600f0b02905077ffffffffffffffffffffffffffffffffffffffffffffffff81111561248057600080fd5b604081901b9050817fffffffffffffffffffffffffffffffffffffffffffffffffffffffffffffffff038111156124b657600080fd5b818101925050505b92915050565b6040518060600160405280606081526020016000600f0b8152602001600081525090565b8280546124f490613ae0565b90600052602060002090601f016020900481019282612516576000855561255d565b82601f1061252f57805160ff191683800117855561255d565b8280016001018555821561255d579182015b8281111561255c578251825591602001919060010190612541565b5b50905061256a91906125ac565b5090565b6040518060800160405280606081526020016000815260200160008152602001600073ffffffffffffffffffffffffffffffffffffffff1681525090565b5b808211156125c55760008160009055506001016125ad565b5090565b60006125dc6125d784613737565b613712565b9050828152602081018484840111156125f457600080fd5b6125ff848285613a9e565b509392505050565b60008135905061261681613cd8565b92915050565b60008083601f84011261262e57600080fd5b8235905067ffffffffffffffff81111561264757600080fd5b60208301915083602082028301111561265f57600080fd5b9250929050565b60008135905061267581613cef565b92915050565b60008135905061268a81613d06565b92915050565b60008083601f8401126126a257600080fd5b8235905067ffffffffffffffff8111156126bb57600080fd5b6020830191508360018202830111156126d357600080fd5b9250929050565b6000813590506126e981613d1d565b92915050565b6000813590506126fe81613d34565b92915050565b600082601f83011261271557600080fd5b81356127258482602086016125c9565b91505092915050565b60008135905061273d81613d4b565b92915050565b60006020828403121561275557600080fd5b600061276384828501612607565b91505092915050565b60008060008060008060008060a0898b03121561278857600080fd5b60006127968b828c01612607565b98505060206127a78b828c01612607565b975050604089013567ffffffffffffffff8111156127c457600080fd5b6127d08b828c0161261c565b9650965050606089013567ffffffffffffffff8111156127ef57600080fd5b6127fb8b828c0161261c565b9450945050608089013567ffffffffffffffff81111561281a57600080fd5b6128268b828c01612690565b92509250509295985092959890939650565b60008060008060008060a0878903121561285157600080fd5b600061285f89828a01612607565b965050602061287089828a01612607565b955050604061288189828a0161272e565b945050606061289289828a0161272e565b935050608087013567ffffffffffffffff8111156128af57600080fd5b6128bb89828a01612690565b92509250509295509295509295565b6000602082840312156128dc57600080fd5b60006128ea84828501612666565b91505092915050565b6000806040838503121561290657600080fd5b600061291485828601612666565b925050602061292585828601612607565b9150509250929050565b60006020828403121561294157600080fd5b600061294f8482850161267b565b91505092915050565b60006020828403121561296a57600080fd5b6000612978848285016126da565b91505092915050565b60006020828403121561299357600080fd5b600082013567ffffffffffffffff8111156129ad57600080fd5b6129b984828501612704565b91505092915050565b6000602082840312156129d457600080fd5b60006129e28482850161272e565b91505092915050565b600080604083850312156129fe57600080fd5b6000612a0c8582860161272e565b925050602083013567ffffffffffffffff811115612a2957600080fd5b612a3585828601612704565b9150509250929050565b60008060008060808587031215612a5557600080fd5b6000612a638782880161272e565b945050602085013567ffffffffffffffff811115612a8057600080fd5b612a8c87828801612704565b9350506040612a9d878288016126ef565b9250506060612aae8782880161272e565b91505092959194509250565b600080600060608486031215612acf57600080fd5b6000612add8682870161272e565b9350506020612aee8682870161272e565b9250506040612aff8682870161272e565b9150509250925092565b6000612b158383612ca5565b905092915050565b6000612b298383612ec0565b905092915050565b6000612b3d8383612f7c565b60208301905092915050565b6000612b558383612fd6565b905092915050565b6000612b698383613176565b905092915050565b6000612b7d8383613216565b905092915050565b6000612b9183836132dc565b60208301905092915050565b612ba681613a01565b82525050565b612bb581613a01565b82525050565b6000612bc6826137ed565b612bd081856138a0565b935083602082028501612be285613768565b8060005b85811015612c1e5784840389528151612bff8582612b09565b9450612c0a83613845565b925060208a01995050600181019050612be6565b50829750879550505050505092915050565b6000612c3b826137f8565b612c4581856138b1565b935083602082028501612c5785613778565b8060005b85811015612c935784840389528151612c748582612b1d565b9450612c7f83613852565b925060208a01995050600181019050612c5b565b50829750879550505050505092915050565b6000612cb082613803565b612cba81856138c2565b9350612cc583613788565b8060005b83811015612cf6578151612cdd8882612b31565b9750612ce88361385f565b925050600181019050612cc9565b5085935050505092915050565b6000612d0e82613803565b612d1881856138d3565b9350612d2383613788565b8060005b83811015612d54578151612d3b8882612b31565b9750612d468361385f565b925050600181019050612d27565b5085935050505092915050565b6000612d6c8261380e565b612d7681856138e4565b935083602082028501612d8885613798565b8060005b85811015612dc45784840389528151612da58582612b49565b9450612db08361386c565b925060208a01995050600181019050612d8c565b50829750879550505050505092915050565b6000612de182613819565b612deb81856138f5565b935083602082028501612dfd856137a8565b8060005b85811015612e395784840389528151612e1a8582612b5d565b9450612e2583613879565b925060208a01995050600181019050612e01565b50829750879550505050505092915050565b6000612e5682613824565b612e608185613906565b935083602082028501612e72856137b8565b8060005b85811015612eae5784840389528151612e8f8582612b71565b9450612e9a83613886565b925060208a01995050600181019050612e76565b50829750879550505050505092915050565b6000612ecb8261382f565b612ed58185613917565b9350612ee0836137c8565b8060005b83811015612f11578151612ef88882612b85565b9750612f0383613893565b925050600181019050612ee4565b5085935050505092915050565b6000612f298261382f565b612f338185613928565b9350612f3e836137c8565b8060005b83811015612f6f578151612f568882612b85565b9750612f6183613893565b925050600181019050612f42565b5085935050505092915050565b612f8581613a13565b82525050565b612f9481613a13565b82525050565b612fa381613a1f565b82525050565b612fb281613a29565b82525050565b612fc181613a67565b82525050565b612fd081613a67565b82525050565b6000612fe18261383a565b612feb818561394a565b9350612ffb818560208601613aad565b61300481613c23565b840191505092915050565b600061301a8261383a565b613024818561395b565b9350613034818560208601613aad565b61303d81613c23565b840191505092915050565b6000815461305581613ae0565b61305f818661396c565b9450600182166000811461307a576001811461308b576130be565b60ff198316865281860193506130be565b613094856137d8565b60005b838110156130b657815481890152600182019150602081019050613097565b838801955050505b50505092915050565b60006130d460328361395b565b91506130df82613c34565b604082019050919050565b60006130f760208361395b565b915061310282613c83565b602082019050919050565b600061311a600083613939565b915061312582613cac565b600082019050919050565b600061313d60008361395b565b915061314882613cac565b600082019050919050565b600061316060208361395b565b915061316b82613caf565b602082019050919050565b600060608301600083015184820360008601526131938282612fd6565b91505060208301516131a86020860182612fb8565b5060408301516131bb60408601826132dc565b508091505092915050565b600060608301600083015184820360008601526131e38282612fd6565b91505060208301516131f86020860182612fb8565b50604083015161320b60408601826132dc565b508091505092915050565b600060808301600083015184820360008601526132338282612fd6565b915050602083015161324860208601826132dc565b50604083015161325b60408601826132dc565b50606083015161326e6060860182612b9d565b508091505092915050565b600060808301600083015184820360008601526132968282612fd6565b91505060208301516132ab60208601826132dc565b5060408301516132be60408601826132dc565b5060608301516132d16060860182612b9d565b508091505092915050565b6132e581613a94565b82525050565b6132f481613a94565b82525050565b61330b61330682613a94565b613b8c565b82525050565b600061331d8285613048565b915061332982846132fa565b6020820191508190509392505050565b600060a08201905061334e6000830187612bac565b61335b6020830186612bac565b61336860408301856132eb565b61337560608301846132eb565b81810360808301526133868161310d565b905095945050505050565b60006080820190506133a66000830186612bac565b81810360208301526133b88185612f1e565b905081810360408301526133cc8184612f1e565b905081810360608301526133df8161310d565b9050949350505050565b60006060820190506133fe6000830185612bac565b61340b6020830184612f9a565b818103604083015261341c81613130565b90509392505050565b600060608201905061343a6000830186612bac565b61344760208301856132eb565b61345460408301846132eb565b949350505050565b60006080820190506134716000830186612bac565b61347e60208301856132eb565b61348b60408301846132eb565b818103606083015261349c8161310d565b9050949350505050565b600060208201905081810360008301526134c08184612bbb565b905092915050565b600060208201905081810360008301526134e28184612c30565b905092915050565b600060208201905081810360008301526135048184612d03565b905092915050565b600060208201905081810360008301526135268184612d61565b905092915050565b600060208201905081810360008301526135488184612dd6565b905092915050565b6000602082019050818103600083015261356a8184612e4b565b905092915050565b60006020820190506135876000830184612f8b565b92915050565b60006020820190506135a26000830184612fa9565b92915050565b60006020820190506135bd6000830184612fc7565b92915050565b600060608201905081810360008301526135dd818661300f565b90506135ec6020830185612fc7565b6135f960408301846132eb565b949350505050565b6000602082019050818103600083015261361a816130c7565b9050919050565b6000602082019050818103600083015261363a816130ea565b9050919050565b6000602082019050818103600083015261365a81613153565b9050919050565b6000602082019050818103600083015261367b81846131c6565b905092915050565b6000602082019050818103600083015261369d8184613279565b905092915050565b60006020820190506136ba60008301846132eb565b92915050565b60006040820190506136d560008301856132eb565b6136e26020830184612bac565b9392505050565b60006040820190506136fe60008301856132eb565b61370b60208301846132eb565b9392505050565b600061371c61372d565b90506137288282613b12565b919050565b6000604051905090565b600067ffffffffffffffff82111561375257613751613bf4565b5b61375b82613c23565b9050602081019050919050565b6000819050602082019050919050565b6000819050602082019050919050565b6000819050602082019050919050565b6000819050602082019050919050565b6000819050602082019050919050565b6000819050602082019050919050565b6000819050602082019050919050565b60008190508160005260206000209050919050565b600081519050919050565b600081519050919050565b600081519050919050565b600081519050919050565b600081519050919050565b600081519050919050565b600081519050919050565b600081519050919050565b6000602082019050919050565b6000602082019050919050565b6000602082019050919050565b6000602082019050919050565b6000602082019050919050565b6000602082019050919050565b6000602082019050919050565b600082825260208201905092915050565b600082825260208201905092915050565b600082825260208201905092915050565b600082825260208201905092915050565b600082825260208201905092915050565b600082825260208201905092915050565b600082825260208201905092915050565b600082825260208201905092915050565b600082825260208201905092915050565b600082825260208201905092915050565b600082825260208201905092915050565b600082825260208201905092915050565b600081905092915050565b600061398282613a94565b915061398d83613a94565b9250827fffffffffffffffffffffffffffffffffffffffffffffffffffffffffffffffff038211156139c2576139c1613b96565b5b828201905092915050565b60006139d882613a94565b91506139e383613a94565b9250828210156139f6576139f5613b96565b5b828203905092915050565b6000613a0c82613a74565b9050919050565b60008115159050919050565b6000819050919050565b60007fffffffff0000000000000000000000000000000000000000000000000000000082169050919050565b6000613a6082613a01565b9050919050565b600081600f0b9050919050565b600073ffffffffffffffffffffffffffffffffffffffff82169050919050565b6000819050919050565b82818337600083830152505050565b60005b83811015613acb578082015181840152602081019050613ab0565b83811115613ada576000848401525b50505050565b60006002820490506001821680613af857607f821691505b60208210811415613b0c57613b0b613bc5565b5b50919050565b613b1b82613c23565b810181811067ffffffffffffffff82111715613b3a57613b39613bf4565b5b80604052505050565b6000613b4e82613a94565b91507fffffffffffffffffffffffffffffffffffffffffffffffffffffffffffffffff821415613b8157613b80613b96565b5b600182019050919050565b6000819050919050565b7f4e487b7100000000000000000000000000000000000000000000000000000000600052601160045260246000fd5b7f4e487b7100000000000000000000000000000000000000000000000000000000600052602260045260246000fd5b7f4e487b7100000000000000000000000000000000000000000000000000000000600052604160045260246000fd5b6000601f19601f8301169050919050565b7f43616e6e6f742063616c6c20746869732066756e6374696f6e2c20757365722060008201527f616c726561647920726567697374657265640000000000000000000000000000602082015250565b7f646573696c6f3a20596f752068617665206e6f7420796574207374616b65642e600082015250565b50565b7f646573696c6f3a20596f75206d6179206e6f742079657420756e7374616b652e600082015250565b613ce181613a01565b8114613cec57600080fd5b50565b613cf881613a1f565b8114613d0357600080fd5b50565b613d0f81613a29565b8114613d1a57600080fd5b50565b613d2681613a55565b8114613d3157600080fd5b50565b613d3d81613a67565b8114613d4857600080fd5b50565b613d5481613a94565b8114613d5f57600080fd5b5056fea26469706673582212204187bc3e551750f0164448a83b7c64e9fed0d41038e90cb3ab3f5fafcd515e2364736f6c63430008030033",
  "immutableReferences": {},
  "source": "pragma solidity ^0.8.3;\r\n\r\nimport \"./dSocialCredits.sol\";\r\nimport \"./library/ABDKMath64x64.sol\";\r\nimport \"@openzeppelin/contracts/token/ERC1155/utils/ERC1155Receiver.sol\";\r\n\r\ncontract desilo is ERC1155Receiver {\r\n\r\n    struct Group {\r\n        string uri;\r\n        int128 yield;\r\n        uint256 acceptance;\r\n    }\r\n\r\n    struct Project {\r\n        string uri; \r\n        uint256 createdAt; \r\n        uint256 groupCount;\r\n        address owner; \r\n    }\r\n\r\n    uint256 public groupCreationSCAmount;\r\n    uint256 public scStakeAmount;\r\n    uint256 public scSeedAmount;\r\n    int128 public scYield;\r\n    uint256 public scStakePeriod;\r\n\r\n    dSocialCredits _scContract;\r\n    address _owner;\r\n    uint256 public scID = 2**256 - 1;\r\n    mapping(address => bool) public registered;\r\n\r\n    // mapping(entityID). keccak256(projectURI, entityURI)\r\n    mapping(bytes32 => mapping(address => uint256)) _stakedAmount;\r\n    mapping(bytes32 => mapping(address => uint256)) _stakeExpiry;\r\n    mapping(bytes32 => uint256) _entityToThread;\r\n    mapping(bytes32 => string) _entityURI;\r\n\r\n    // mapping(groupID)\r\n    mapping (uint256 => mapping(uint256 => bool)) _affiliatedGroups;\r\n    mapping (uint256 => mapping(uint256 => uint256)) _affiliatedGroupsVouched;\r\n\r\n\r\n    // mapping(projectID)\r\n    mapping(uint256 => Project) _projects; \r\n    mapping(uint256 => uint256) _projectEntitiesCount;\r\n    uint256 _projectCount = 0;\r\n\r\n    // mapping(groupID => fixed128x128)\r\n    uint256 _groupCount = 0;\r\n    mapping(uint256 => Group) public _groups; // Group's \r\n\r\n\r\n    event GroupCreated(uint256 id, address creator); \r\n    event ProjectCreated(uint256 id, address creator); \r\n    event ProjectAccepted(uint256 projectId, uint256 groupId); \r\n    event Staked(address staker, bytes32 commitId, string uri); \r\n    event Unstaked(address staker, bytes32 commitId, string uri); \r\n\r\n\r\n    constructor(\r\n        uint256 _scStakeAmount,\r\n        int128 _scYield,\r\n        uint256 _groupCreationSCAmount,\r\n        uint256 _scSeedAmount,\r\n        uint256 _scStakePeriod\r\n    ) IERC1155Receiver() {\r\n        scYield = _scYield;\r\n        scStakeAmount = _scStakeAmount;\r\n        groupCreationSCAmount = _groupCreationSCAmount;\r\n        scSeedAmount = _scSeedAmount;\r\n        scStakePeriod = _scStakePeriod;\r\n        _owner = msg.sender;\r\n    }\r\n\r\n    function createGroup(uint256 _initialSupply, string memory _uri, int128 _yield, uint256 _acceptance) external {\r\n        _scContract.burn(msg.sender, scID, groupCreationSCAmount);\r\n        _groups[_groupCount].uri = _uri;\r\n        _groups[_groupCount].yield = _yield;\r\n        _groups[_groupCount].acceptance = _acceptance;\r\n\r\n        _scContract.mint(msg.sender, _groupCount, _initialSupply, \"\");\r\n        emit GroupCreated(_groupCount, msg.sender);\r\n        _groupCount++;\r\n    }\r\n\r\n    function getGroup(uint256 index) external view returns(Group memory) {\r\n        return _groups[index]; \r\n    }\r\n\r\n    function getAllGroups() external view returns(Group[] memory) {\r\n        Group[] memory groups = new Group[](_groupCount);\r\n        for (uint i = 0; i < _groupCount; i++) groups[i] = _groups[i];\r\n        return groups; \r\n    }\r\n\r\n    function getAffiliations(uint256 projectID) external view returns(bool[] memory) {\r\n        bool[] memory affiliations = new bool[](_groupCount);\r\n        for (uint j = 0; j < _groupCount; j++) affiliations[j] = _affiliatedGroups[projectID][j];\r\n        return affiliations; \r\n    }\r\n\r\n    function getAllAffiliations() external view returns(bool[][] memory) {\r\n        bool[][] memory projects = new bool[][](_projectCount);\r\n        for (uint i = 0; i < _projectCount; i++) {\r\n            bool[] memory affiliations = new bool[](_groupCount);\r\n            for (uint j = 0; j < _groupCount; j++) affiliations[j] = _affiliatedGroups[i][j];\r\n            projects[i] = affiliations;\r\n        }\r\n        return projects; \r\n    }\r\n\r\n    function getAllVouched() external view returns(uint256[][] memory) {\r\n        uint256[][] memory projects = new uint256[][](_projectCount);\r\n        for (uint i = 0; i < _projectCount; i++) {\r\n            uint256[] memory affiliations = new uint256[](_groupCount);\r\n            for (uint j = 0; j < _groupCount; j++) affiliations[j] = _affiliatedGroupsVouched[i][j];\r\n            projects[i] = affiliations;\r\n        }\r\n        return projects; \r\n    }\r\n\r\n    function getProject(uint256 index) external view returns(Project memory) {\r\n        return _projects[index]; \r\n    }\r\n\r\n    function getAllProjects() external view returns(Project[] memory) {\r\n        Project[] memory projects = new Project[](_projectCount);\r\n        for (uint i = 0; i < _projectCount; i++) projects[i] = _projects[i];\r\n        return projects; \r\n    }\r\n\r\n    function getProjectEntities(uint256 projectID) external view returns(string[] memory entityURIs) {\r\n        string[] memory entityURIs = new string[](_projectEntitiesCount[projectID]);\r\n        for (uint i = 0; i < _projectEntitiesCount[projectID]; i++) {\r\n            entityURIs[i] = _entityURI[keccak256(abi.encodePacked(_projects[projectID].uri, _projectEntitiesCount[projectID]))];\r\n        }\r\n    }\r\n\r\n    function addProjectEntity(uint256 projectID, string memory entityURI) external {\r\n        // Run Chainlink verification of ownership\r\n        bytes32 entityID = keccak256(abi.encodePacked(_projects[projectID].uri, _projectEntitiesCount[projectID]));\r\n        _entityToThread[entityID] = projectID;\r\n        _entityURI[entityID] = entityURI;\r\n        _projectEntitiesCount[projectID] += 1;\r\n    }\r\n\r\n    function vouchProject(uint256 projectID, uint256 groupID, uint256 amount) external {\r\n        _scContract.burn(msg.sender, groupID, amount);\r\n        _affiliatedGroupsVouched[projectID][groupID] += amount; \r\n        if (_affiliatedGroupsVouched[projectID][groupID] >= _groups[groupID].acceptance) {\r\n            _affiliatedGroups[projectID][groupID] = true; \r\n            emit ProjectAccepted(projectID, groupID);\r\n        }\r\n    }\r\n\r\n    function setSC(dSocialCredits _sc) external {\r\n        require(msg.sender == _owner);\r\n        _scContract = _sc;\r\n    }\r\n\r\n    function seedSC() external {\r\n        require(\r\n            !registered[msg.sender],\r\n            \"Cannot call this function, user already registered\"\r\n        );\r\n        registered[msg.sender] = true;\r\n        _scContract.mint(msg.sender, scID, scSeedAmount, \"\");\r\n    }\r\n\r\n    function getStaked(bytes32 _commitId, address _addr)\r\n        public\r\n        view\r\n        returns (uint256)\r\n    {\r\n        return _stakedAmount[_commitId][_addr];\r\n    }\r\n\r\n    function stake(bytes32 _commitId) external {\r\n        _scContract.safeTransferFrom(\r\n            msg.sender,\r\n            address(this),\r\n            scID,\r\n            scStakeAmount,\r\n            \"\"\r\n        );\r\n        _stakedAmount[_commitId][msg.sender] += scStakeAmount;\r\n        _stakeExpiry[_commitId][msg.sender] = block.timestamp + scStakePeriod;\r\n        emit Staked(msg.sender, _commitId, \"\"); \r\n    }\r\n\r\n    function unstake(bytes32 _commitId) external {\r\n        require(\r\n            block.timestamp >= _stakeExpiry[_commitId][msg.sender],\r\n            \"desilo: You may not yet unstake.\"\r\n        );\r\n        require(\r\n            getStaked(_commitId, msg.sender) >= 0,\r\n            \"desilo: You have not yet staked.\"\r\n        );\r\n\r\n        uint256 stakedAmount = getStaked(_commitId, msg.sender);\r\n        uint256 threadID = _entityToThread[_commitId];\r\n        uint256 gscCount = _projects[threadID].groupCount;\r\n        uint256[] memory ids = new uint256[](gscCount);\r\n        uint256[] memory amounts = new uint256[](gscCount);\r\n\r\n        _stakedAmount[_commitId][msg.sender] -= stakedAmount;\r\n        _stakeExpiry[_commitId][msg.sender] = 0;\r\n\r\n        _scContract.safeTransferFrom(\r\n            address(this),\r\n            msg.sender,\r\n            scID,\r\n            stakedAmount,\r\n            \"\"\r\n        );\r\n        _scContract.mint(\r\n            msg.sender,\r\n            scID,\r\n            ABDKMath64x64.mulu(scYield, stakedAmount),\r\n            \"\"\r\n        );\r\n\r\n        uint256 count = 0;\r\n        for (uint256 i = 0; i < _groupCount; i++) {\r\n            if (_affiliatedGroups[threadID][i]) {\r\n                ids[count] = i;\r\n                amounts[count] = ABDKMath64x64.mulu(_groups[i].yield, stakedAmount);\r\n                count++;\r\n            }\r\n        }\r\n        _scContract.mintBatch(msg.sender, ids, amounts, \"\");\r\n        emit Unstaked(msg.sender, _commitId, \"\"); \r\n    }\r\n\r\n    function registerProject(string memory uri) external {\r\n        _projects[_projectCount].uri = uri;\r\n        _projects[_projectCount].owner = msg.sender; \r\n        _projects[_projectCount].createdAt = block.timestamp; \r\n        emit ProjectCreated(_projectCount, msg.sender);\r\n        _projectCount++; \r\n    }\r\n\r\n    function onERC1155Received(\r\n        address operator,\r\n        address from,\r\n        uint256 id,\r\n        uint256 value,\r\n        bytes calldata data\r\n    ) external pure override returns (bytes4) {\r\n        return this.onERC1155Received.selector;\r\n    }\r\n\r\n    function onERC1155BatchReceived(\r\n        address operator,\r\n        address from,\r\n        uint256[] calldata ids,\r\n        uint256[] calldata values,\r\n        bytes calldata data\r\n    ) external pure override returns (bytes4) {\r\n        return this.onERC1155BatchReceived.selector;\r\n    }\r\n}\r\n",
  "sourcePath": "C:/Users/Kuan/Documents/GitHub/desilo/contracts/desilo.sol",
  "compiler": {
    "name": "solc",
    "version": "0.8.3+commit.8d00100c.Emscripten.clang"
  },
  "schemaVersion": "3.3.4",
  "updatedAt": "2021-08-13T04:08:33.936Z",
  "networkType": "ethereum",
  "devdoc": {
    "kind": "dev",
    "methods": {
      "onERC1155BatchReceived(address,address,uint256[],uint256[],bytes)": {
        "details": "Handles the receipt of a multiple ERC1155 token types. This function is called at the end of a `safeBatchTransferFrom` after the balances have been updated. To accept the transfer(s), this must return `bytes4(keccak256(\"onERC1155BatchReceived(address,address,uint256[],uint256[],bytes)\"))` (i.e. 0xbc197c81, or its own function selector).",
        "params": {
          "data": "Additional data with no specified format",
          "from": "The address which previously owned the token",
          "ids": "An array containing ids of each token being transferred (order and length must match values array)",
          "operator": "The address which initiated the batch transfer (i.e. msg.sender)",
          "values": "An array containing amounts of each token being transferred (order and length must match ids array)"
        },
        "returns": {
          "_0": "`bytes4(keccak256(\"onERC1155BatchReceived(address,address,uint256[],uint256[],bytes)\"))` if transfer is allowed"
        }
      },
      "onERC1155Received(address,address,uint256,uint256,bytes)": {
        "details": "Handles the receipt of a single ERC1155 token type. This function is called at the end of a `safeTransferFrom` after the balance has been updated. To accept the transfer, this must return `bytes4(keccak256(\"onERC1155Received(address,address,uint256,uint256,bytes)\"))` (i.e. 0xf23a6e61, or its own function selector).",
        "params": {
          "data": "Additional data with no specified format",
          "from": "The address which previously owned the token",
          "id": "The ID of the token being transferred",
          "operator": "The address which initiated the transfer (i.e. msg.sender)",
          "value": "The amount of tokens being transferred"
        },
        "returns": {
          "_0": "`bytes4(keccak256(\"onERC1155Received(address,address,uint256,uint256,bytes)\"))` if transfer is allowed"
        }
      },
      "supportsInterface(bytes4)": {
        "details": "See {IERC165-supportsInterface}."
      }
    },
    "version": 1
  },
  "userdoc": {
    "kind": "user",
    "methods": {},
    "version": 1
  }
}