{
  "contractName": "desilo",
  "abi": [
    {
      "inputs": [
        {
          "internalType": "uint256",
          "name": "_scStakeAmount",
          "type": "uint256"
        },
        {
          "internalType": "int128",
          "name": "_scYield",
          "type": "int128"
        },
        {
          "internalType": "uint256",
          "name": "_groupCreationSCAmount",
          "type": "uint256"
        },
        {
          "internalType": "uint256",
          "name": "_scSeedAmount",
          "type": "uint256"
        },
        {
          "internalType": "uint256",
          "name": "_scStakePeriod",
          "type": "uint256"
        }
      ],
      "stateMutability": "nonpayable",
      "type": "constructor"
    },
    {
      "anonymous": false,
      "inputs": [
        {
          "indexed": false,
          "internalType": "uint256",
          "name": "projectId",
          "type": "uint256"
        },
        {
          "indexed": false,
          "internalType": "bytes32",
          "name": "entityId",
          "type": "bytes32"
        }
      ],
      "name": "EntityAdded",
      "type": "event"
    },
    {
      "anonymous": false,
      "inputs": [
        {
          "indexed": false,
          "internalType": "uint256",
          "name": "id",
          "type": "uint256"
        },
        {
          "indexed": false,
          "internalType": "address",
          "name": "creator",
          "type": "address"
        }
      ],
      "name": "GroupCreated",
      "type": "event"
    },
    {
      "anonymous": false,
      "inputs": [
        {
          "indexed": false,
          "internalType": "uint256",
          "name": "projectId",
          "type": "uint256"
        },
        {
          "indexed": false,
          "internalType": "uint256",
          "name": "groupId",
          "type": "uint256"
        }
      ],
      "name": "ProjectAccepted",
      "type": "event"
    },
    {
      "anonymous": false,
      "inputs": [
        {
          "indexed": false,
          "internalType": "uint256",
          "name": "id",
          "type": "uint256"
        },
        {
          "indexed": false,
          "internalType": "address",
          "name": "creator",
          "type": "address"
        }
      ],
      "name": "ProjectCreated",
      "type": "event"
    },
    {
      "anonymous": false,
      "inputs": [
        {
          "indexed": false,
          "internalType": "address",
          "name": "staker",
          "type": "address"
        },
        {
          "indexed": false,
          "internalType": "bytes32",
          "name": "commitId",
          "type": "bytes32"
        },
        {
          "indexed": false,
          "internalType": "uint256",
          "name": "index",
          "type": "uint256"
        }
      ],
      "name": "Staked",
      "type": "event"
    },
    {
      "anonymous": false,
      "inputs": [
        {
          "indexed": false,
          "internalType": "address",
          "name": "staker",
          "type": "address"
        },
        {
          "indexed": false,
          "internalType": "bytes32",
          "name": "commitId",
          "type": "bytes32"
        },
        {
          "indexed": false,
          "internalType": "uint256",
          "name": "index",
          "type": "uint256"
        }
      ],
      "name": "Unstaked",
      "type": "event"
    },
    {
      "inputs": [
        {
          "internalType": "uint256",
          "name": "",
          "type": "uint256"
        }
      ],
      "name": "_groups",
      "outputs": [
        {
          "internalType": "string",
          "name": "uri",
          "type": "string"
        },
        {
          "internalType": "int128",
          "name": "yield",
          "type": "int128"
        },
        {
          "internalType": "uint256",
          "name": "acceptance",
          "type": "uint256"
        }
      ],
      "stateMutability": "view",
      "type": "function",
      "constant": true
    },
    {
      "inputs": [],
      "name": "groupCreationSCAmount",
      "outputs": [
        {
          "internalType": "uint256",
          "name": "",
          "type": "uint256"
        }
      ],
      "stateMutability": "view",
      "type": "function",
      "constant": true
    },
    {
      "inputs": [
        {
          "internalType": "address",
          "name": "",
          "type": "address"
        }
      ],
      "name": "registered",
      "outputs": [
        {
          "internalType": "bool",
          "name": "",
          "type": "bool"
        }
      ],
      "stateMutability": "view",
      "type": "function",
      "constant": true
    },
    {
      "inputs": [],
      "name": "scID",
      "outputs": [
        {
          "internalType": "uint256",
          "name": "",
          "type": "uint256"
        }
      ],
      "stateMutability": "view",
      "type": "function",
      "constant": true
    },
    {
      "inputs": [],
      "name": "scSeedAmount",
      "outputs": [
        {
          "internalType": "uint256",
          "name": "",
          "type": "uint256"
        }
      ],
      "stateMutability": "view",
      "type": "function",
      "constant": true
    },
    {
      "inputs": [],
      "name": "scStakeAmount",
      "outputs": [
        {
          "internalType": "uint256",
          "name": "",
          "type": "uint256"
        }
      ],
      "stateMutability": "view",
      "type": "function",
      "constant": true
    },
    {
      "inputs": [],
      "name": "scStakePeriod",
      "outputs": [
        {
          "internalType": "uint256",
          "name": "",
          "type": "uint256"
        }
      ],
      "stateMutability": "view",
      "type": "function",
      "constant": true
    },
    {
      "inputs": [],
      "name": "scYield",
      "outputs": [
        {
          "internalType": "int128",
          "name": "",
          "type": "int128"
        }
      ],
      "stateMutability": "view",
      "type": "function",
      "constant": true
    },
    {
      "inputs": [
        {
          "internalType": "bytes4",
          "name": "interfaceId",
          "type": "bytes4"
        }
      ],
      "name": "supportsInterface",
      "outputs": [
        {
          "internalType": "bool",
          "name": "",
          "type": "bool"
        }
      ],
      "stateMutability": "view",
      "type": "function",
      "constant": true
    },
    {
      "inputs": [
        {
          "internalType": "uint256",
          "name": "_initialSupply",
          "type": "uint256"
        },
        {
          "internalType": "string",
          "name": "_uri",
          "type": "string"
        },
        {
          "internalType": "int128",
          "name": "_yield",
          "type": "int128"
        },
        {
          "internalType": "uint256",
          "name": "_acceptance",
          "type": "uint256"
        }
      ],
      "name": "createGroup",
      "outputs": [],
      "stateMutability": "nonpayable",
      "type": "function"
    },
    {
      "inputs": [
        {
          "internalType": "uint256",
          "name": "index",
          "type": "uint256"
        }
      ],
      "name": "getGroup",
      "outputs": [
        {
          "components": [
            {
              "internalType": "string",
              "name": "uri",
              "type": "string"
            },
            {
              "internalType": "int128",
              "name": "yield",
              "type": "int128"
            },
            {
              "internalType": "uint256",
              "name": "acceptance",
              "type": "uint256"
            }
          ],
          "internalType": "struct desilo.Group",
          "name": "",
          "type": "tuple"
        }
      ],
      "stateMutability": "view",
      "type": "function",
      "constant": true
    },
    {
      "inputs": [],
      "name": "getAllGroups",
      "outputs": [
        {
          "components": [
            {
              "internalType": "string",
              "name": "uri",
              "type": "string"
            },
            {
              "internalType": "int128",
              "name": "yield",
              "type": "int128"
            },
            {
              "internalType": "uint256",
              "name": "acceptance",
              "type": "uint256"
            }
          ],
          "internalType": "struct desilo.Group[]",
          "name": "",
          "type": "tuple[]"
        }
      ],
      "stateMutability": "view",
      "type": "function",
      "constant": true
    },
    {
      "inputs": [
        {
          "internalType": "uint256",
          "name": "projectID",
          "type": "uint256"
        }
      ],
      "name": "getAffiliations",
      "outputs": [
        {
          "internalType": "bool[]",
          "name": "",
          "type": "bool[]"
        }
      ],
      "stateMutability": "view",
      "type": "function",
      "constant": true
    },
    {
      "inputs": [],
      "name": "getAllAffiliations",
      "outputs": [
        {
          "internalType": "bool[][]",
          "name": "",
          "type": "bool[][]"
        }
      ],
      "stateMutability": "view",
      "type": "function",
      "constant": true
    },
    {
      "inputs": [],
      "name": "getAllVouched",
      "outputs": [
        {
          "internalType": "uint256[][]",
          "name": "",
          "type": "uint256[][]"
        }
      ],
      "stateMutability": "view",
      "type": "function",
      "constant": true
    },
    {
      "inputs": [
        {
          "internalType": "bytes32",
          "name": "entityID",
          "type": "bytes32"
        }
      ],
      "name": "getAllReviews",
      "outputs": [
        {
          "components": [
            {
              "internalType": "string",
              "name": "uri",
              "type": "string"
            },
            {
              "internalType": "uint256",
              "name": "publishedAt",
              "type": "uint256"
            },
            {
              "internalType": "address",
              "name": "reviewer",
              "type": "address"
            },
            {
              "internalType": "uint256",
              "name": "stakeAmount",
              "type": "uint256"
            }
          ],
          "internalType": "struct desilo.Review[]",
          "name": "",
          "type": "tuple[]"
        }
      ],
      "stateMutability": "view",
      "type": "function",
      "constant": true
    },
    {
      "inputs": [
        {
          "internalType": "uint256",
          "name": "index",
          "type": "uint256"
        }
      ],
      "name": "getProject",
      "outputs": [
        {
          "components": [
            {
              "internalType": "string",
              "name": "uri",
              "type": "string"
            },
            {
              "internalType": "uint256",
              "name": "createdAt",
              "type": "uint256"
            },
            {
              "internalType": "uint256",
              "name": "groupCount",
              "type": "uint256"
            },
            {
              "internalType": "address",
              "name": "owner",
              "type": "address"
            }
          ],
          "internalType": "struct desilo.Project",
          "name": "",
          "type": "tuple"
        }
      ],
      "stateMutability": "view",
      "type": "function",
      "constant": true
    },
    {
      "inputs": [],
      "name": "getAllProjects",
      "outputs": [
        {
          "components": [
            {
              "internalType": "string",
              "name": "uri",
              "type": "string"
            },
            {
              "internalType": "uint256",
              "name": "createdAt",
              "type": "uint256"
            },
            {
              "internalType": "uint256",
              "name": "groupCount",
              "type": "uint256"
            },
            {
              "internalType": "address",
              "name": "owner",
              "type": "address"
            }
          ],
          "internalType": "struct desilo.Project[]",
          "name": "",
          "type": "tuple[]"
        }
      ],
      "stateMutability": "view",
      "type": "function",
      "constant": true
    },
    {
      "inputs": [
        {
          "internalType": "uint256",
          "name": "projectID",
          "type": "uint256"
        }
      ],
      "name": "getProjectEntities",
      "outputs": [
        {
          "internalType": "bytes32[]",
          "name": "entityIDs",
          "type": "bytes32[]"
        },
        {
          "internalType": "string[]",
          "name": "entityURIs",
          "type": "string[]"
        }
      ],
      "stateMutability": "view",
      "type": "function",
      "constant": true
    },
    {
      "inputs": [
        {
          "internalType": "uint256",
          "name": "projectID",
          "type": "uint256"
        },
        {
          "internalType": "string",
          "name": "entityURI",
          "type": "string"
        }
      ],
      "name": "addProjectEntity",
      "outputs": [],
      "stateMutability": "nonpayable",
      "type": "function"
    },
    {
      "inputs": [
        {
          "internalType": "uint256",
          "name": "projectID",
          "type": "uint256"
        },
        {
          "internalType": "uint256",
          "name": "groupID",
          "type": "uint256"
        },
        {
          "internalType": "uint256",
          "name": "amount",
          "type": "uint256"
        }
      ],
      "name": "vouchProject",
      "outputs": [],
      "stateMutability": "nonpayable",
      "type": "function"
    },
    {
      "inputs": [
        {
          "internalType": "contract dSocialCredits",
          "name": "_sc",
          "type": "address"
        }
      ],
      "name": "setSC",
      "outputs": [],
      "stateMutability": "nonpayable",
      "type": "function"
    },
    {
      "inputs": [],
      "name": "seedSC",
      "outputs": [],
      "stateMutability": "nonpayable",
      "type": "function"
    },
    {
      "inputs": [
        {
          "internalType": "bytes32",
          "name": "_commitId",
          "type": "bytes32"
        },
        {
          "internalType": "string",
          "name": "uri",
          "type": "string"
        }
      ],
      "name": "stake",
      "outputs": [],
      "stateMutability": "nonpayable",
      "type": "function"
    },
    {
      "inputs": [
        {
          "internalType": "bytes32",
          "name": "_commitId",
          "type": "bytes32"
        },
        {
          "internalType": "uint256",
          "name": "index",
          "type": "uint256"
        }
      ],
      "name": "canUnstake",
      "outputs": [
        {
          "internalType": "bool",
          "name": "",
          "type": "bool"
        }
      ],
      "stateMutability": "view",
      "type": "function",
      "constant": true
    },
    {
      "inputs": [
        {
          "internalType": "bytes32",
          "name": "_commitId",
          "type": "bytes32"
        },
        {
          "internalType": "uint256",
          "name": "index",
          "type": "uint256"
        }
      ],
      "name": "unstake",
      "outputs": [],
      "stateMutability": "nonpayable",
      "type": "function"
    },
    {
      "inputs": [
        {
          "internalType": "string",
          "name": "uri",
          "type": "string"
        }
      ],
      "name": "registerProject",
      "outputs": [],
      "stateMutability": "nonpayable",
      "type": "function"
    },
    {
      "inputs": [
        {
          "internalType": "address",
          "name": "operator",
          "type": "address"
        },
        {
          "internalType": "address",
          "name": "from",
          "type": "address"
        },
        {
          "internalType": "uint256",
          "name": "id",
          "type": "uint256"
        },
        {
          "internalType": "uint256",
          "name": "value",
          "type": "uint256"
        },
        {
          "internalType": "bytes",
          "name": "data",
          "type": "bytes"
        }
      ],
      "name": "onERC1155Received",
      "outputs": [
        {
          "internalType": "bytes4",
          "name": "",
          "type": "bytes4"
        }
      ],
      "stateMutability": "pure",
      "type": "function",
      "constant": true
    },
    {
      "inputs": [
        {
          "internalType": "address",
          "name": "operator",
          "type": "address"
        },
        {
          "internalType": "address",
          "name": "from",
          "type": "address"
        },
        {
          "internalType": "uint256[]",
          "name": "ids",
          "type": "uint256[]"
        },
        {
          "internalType": "uint256[]",
          "name": "values",
          "type": "uint256[]"
        },
        {
          "internalType": "bytes",
          "name": "data",
          "type": "bytes"
        }
      ],
      "name": "onERC1155BatchReceived",
      "outputs": [
        {
          "internalType": "bytes4",
          "name": "",
          "type": "bytes4"
        }
      ],
      "stateMutability": "pure",
      "type": "function",
      "constant": true
    }
  ],
  "bytecode": "0x60806040527fffffffffffffffffffffffffffffffffffffffffffffffffffffffffffffffff600755600060105560006011553480156200003f57600080fd5b506040516200459e3803806200459e833981810160405281019062000065919062000137565b83600360006101000a8154816fffffffffffffffffffffffffffffffff0219169083600f0b6fffffffffffffffffffffffffffffffff1602179055508460018190555082600081905550816002819055508060048190555033600660006101000a81548173ffffffffffffffffffffffffffffffffffffffff021916908373ffffffffffffffffffffffffffffffffffffffff160217905550505050505062000204565b6000815190506200011a81620001d0565b92915050565b6000815190506200013181620001ea565b92915050565b600080600080600060a086880312156200015057600080fd5b6000620001608882890162000120565b9550506020620001738882890162000109565b9450506040620001868882890162000120565b9350506060620001998882890162000120565b9250506080620001ac8882890162000120565b9150509295509295909350565b600081600f0b9050919050565b6000819050919050565b620001db81620001b9565b8114620001e757600080fd5b50565b620001f581620001c6565b81146200020157600080fd5b50565b61438a80620002146000396000f3fe608060405234801561001057600080fd5b50600436106101cf5760003560e01c80637b53999911610104578063b2e9ed3d116100a2578063ea7c7d8611610071578063ea7c7d8614610533578063ecb282de14610563578063f0f3f2c814610581578063f23a6e61146105b1576101cf565b8063b2e9ed3d14610499578063bc197c81146104b5578063ceb60654146104e5578063d841212e14610515576101cf565b80638d997270116100de5780638d99727014610413578063907a4e1d1461042f578063a5e801921461044b578063b2dd5c0714610469576101cf565b80637b539999146103a757806380d03829146103d75780638a0605a2146103f5576101cf565b80632f0081051161017157806365f5e7b61161014b57806365f5e7b61461031f5780636b513d0c14610351578063716229751461036f57806372212ec71461038b576101cf565b80632f008105146102db57806349107fbb146102e55780635859e08214610301576101cf565b806316ae261d116101ad57806316ae261d14610240578063176926e01461025c5780631fd7288c1461028c57806321cd3cae146102bd576101cf565b806301bed79c146101d457806301ffc9a7146101f25780631614047e14610222575b600080fd5b6101dc6105e1565b6040516101e99190613b48565b60405180910390f35b61020c60048036038101906102079190612d72565b6105f4565b6040516102199190613b12565b60405180910390f35b61022a61066e565b6040516102379190613c25565b60405180910390f35b61025a60048036038101906102559190612d36565b610674565b005b61027660048036038101906102719190612d36565b610bcf565b6040516102839190613b12565b60405180910390f35b6102a660048036038101906102a19190612e05565b610c46565b6040516102b4929190613a75565b60405180910390f35b6102c5610f30565b6040516102d29190613aac565b60405180910390f35b6102e36110f5565b005b6102ff60048036038101906102fa9190612e2e565b611271565b005b61030961136f565b6040516103169190613c25565b60405180910390f35b61033960048036038101906103349190612e05565b611375565b60405161034893929190613b63565b60405180910390f35b610359611434565b6040516103669190613a0f565b60405180910390f35b61038960048036038101906103849190612ce2565b611631565b005b6103a560048036038101906103a09190612dc4565b61181e565b005b6103c160048036038101906103bc9190612e05565b611915565b6040516103ce9190613a53565b60405180910390f35b6103df611a33565b6040516103ec9190613ace565b60405180910390f35b6103fd611c3b565b60405161040a9190613a31565b60405180910390f35b61042d60048036038101906104289190612e82565b611e25565b005b61044960048036038101906104449190612d9b565b612042565b005b6104536120e0565b6040516104609190613c25565b60405180910390f35b610483600480360381019061047e9190612b32565b6120e6565b6040516104909190613b12565b60405180910390f35b6104b360048036038101906104ae9190612efd565b612106565b005b6104cf60048036038101906104ca9190612b5b565b61228f565b6040516104dc9190613b2d565b60405180910390f35b6104ff60048036038101906104fa9190612e05565b6122a7565b60405161050c9190613be1565b60405180910390f35b61051d61238d565b60405161052a9190613c25565b60405180910390f35b61054d60048036038101906105489190612cb9565b612393565b60405161055a9190613af0565b60405180910390f35b61056b61260b565b6040516105789190613c25565b60405180910390f35b61059b60048036038101906105969190612e05565b612611565b6040516105a89190613c03565b60405180910390f35b6105cb60048036038101906105c69190612c27565b61273a565b6040516105d89190613b2d565b60405180910390f35b600360009054906101000a9004600f0b81565b60007f4e2312e0000000000000000000000000000000000000000000000000000000007bffffffffffffffffffffffffffffffffffffffffffffffffffffffff1916827bffffffffffffffffffffffffffffffffffffffffffffffffffffffff19161480610667575061066682612750565b5b9050919050565b60005481565b61067e8282610bcf565b6106bd576040517f08c379a00000000000000000000000000000000000000000000000000000000081526004016106b490613bc1565b60405180910390fd5b600060096000848152602001908152602001600020828154811061070a577f4e487b7100000000000000000000000000000000000000000000000000000000600052603260045260246000fd5b90600052602060002090600402016003015490506000600a60008581526020019081526020016000205490506000600e600083815260200190815260200160002060020154905060008167ffffffffffffffff811115610793577f4e487b7100000000000000000000000000000000000000000000000000000000600052604160045260246000fd5b6040519080825280602002602001820160405280156107c15781602001602082028036833780820191505090505b50905060008267ffffffffffffffff811115610806577f4e487b7100000000000000000000000000000000000000000000000000000000600052604160045260246000fd5b6040519080825280602002602001820160405280156108345781602001602082028036833780820191505090505b5090506000600960008981526020019081526020016000208781548110610884577f4e487b7100000000000000000000000000000000000000000000000000000000600052603260045260246000fd5b906000526020600020906004020160030181905550600560009054906101000a900473ffffffffffffffffffffffffffffffffffffffff1673ffffffffffffffffffffffffffffffffffffffff1663f242432a3033600754896040518563ffffffff1660e01b81526004016108fc94939291906138a7565b600060405180830381600087803b15801561091657600080fd5b505af115801561092a573d6000803e3d6000fd5b50505050600560009054906101000a900473ffffffffffffffffffffffffffffffffffffffff1673ffffffffffffffffffffffffffffffffffffffff1663731133e933600754610989600360009054906101000a9004600f0b8a6127ba565b6040518463ffffffff1660e01b81526004016109a7939291906139c5565b600060405180830381600087803b1580156109c157600080fd5b505af11580156109d5573d6000803e3d6000fd5b505050506000805b601154811015610af857600c6000878152602001908152602001600020600082815260200190815260200160002060009054906101000a900460ff1615610ae55780848381518110610a58577f4e487b7100000000000000000000000000000000000000000000000000000000600052603260045260246000fd5b602002602001018181525050610a916012600083815260200190815260200160002060010160009054906101000a9004600f0b886127ba565b838381518110610aca577f4e487b7100000000000000000000000000000000000000000000000000000000600052603260045260246000fd5b6020026020010181815250508180610ae19061415e565b9250505b8080610af09061415e565b9150506109dd565b50600560009054906101000a900473ffffffffffffffffffffffffffffffffffffffff1673ffffffffffffffffffffffffffffffffffffffff16631f7fdffa3385856040518463ffffffff1660e01b8152600401610b58939291906138ff565b600060405180830381600087803b158015610b7257600080fd5b505af1158015610b86573d6000803e3d6000fd5b505050507f2774090e627869eaafcd1e79e291786f7d2bcc2f62467b75effa5739ac1df914338989604051610bbd93929190613957565b60405180910390a15050505050505050565b6000600454600960008581526020019081526020016000208381548110610c1f577f4e487b7100000000000000000000000000000000000000000000000000000000600052603260045260246000fd5b906000526020600020906004020160010154610c3b9190613f92565b421015905092915050565b606080600f60008481526020019081526020016000205467ffffffffffffffff811115610c9c577f4e487b7100000000000000000000000000000000000000000000000000000000600052604160045260246000fd5b604051908082528060200260200182016040528015610ccf57816020015b6060815260200190600190039081610cba5790505b509050600f60008481526020019081526020016000205467ffffffffffffffff811115610d25577f4e487b7100000000000000000000000000000000000000000000000000000000600052604160045260246000fd5b604051908082528060200260200182016040528015610d535781602001602082028036833780820191505090505b50915060005b600f600085815260200190815260200160002054811015610f2a57600e600085815260200190815260200160002060000181604051602001610d9c92919061387f565b60405160208183030381529060405280519060200120838281518110610deb577f4e487b7100000000000000000000000000000000000000000000000000000000600052603260045260246000fd5b602002602001018181525050600b6000848381518110610e34577f4e487b7100000000000000000000000000000000000000000000000000000000600052603260045260246000fd5b602002602001015181526020019081526020016000208054610e55906140fb565b80601f0160208091040260200160405190810160405280929190818152602001828054610e81906140fb565b8015610ece5780601f10610ea357610100808354040283529160200191610ece565b820191906000526020600020905b815481529060010190602001808311610eb157829003601f168201915b5050505050828281518110610f0c577f4e487b7100000000000000000000000000000000000000000000000000000000600052603260045260246000fd5b60200260200101819052508080610f229061415e565b915050610d59565b50915091565b6060600060115467ffffffffffffffff811115610f76577f4e487b7100000000000000000000000000000000000000000000000000000000600052604160045260246000fd5b604051908082528060200260200182016040528015610faf57816020015b610f9c612875565b815260200190600190039081610f945790505b50905060005b6011548110156110ed5760126000828152602001908152602001600020604051806060016040529081600082018054610fed906140fb565b80601f0160208091040260200160405190810160405280929190818152602001828054611019906140fb565b80156110665780601f1061103b57610100808354040283529160200191611066565b820191906000526020600020905b81548152906001019060200180831161104957829003601f168201915b505050505081526020016001820160009054906101000a9004600f0b600f0b600f0b81526020016002820154815250508282815181106110cf577f4e487b7100000000000000000000000000000000000000000000000000000000600052603260045260246000fd5b602002602001018190525080806110e59061415e565b915050610fb5565b508091505090565b600860003373ffffffffffffffffffffffffffffffffffffffff1673ffffffffffffffffffffffffffffffffffffffff16815260200190815260200160002060009054906101000a900460ff1615611182576040517f08c379a000000000000000000000000000000000000000000000000000000000815260040161117990613ba1565b60405180910390fd5b6001600860003373ffffffffffffffffffffffffffffffffffffffff1673ffffffffffffffffffffffffffffffffffffffff16815260200190815260200160002060006101000a81548160ff021916908315150217905550600560009054906101000a900473ffffffffffffffffffffffffffffffffffffffff1673ffffffffffffffffffffffffffffffffffffffff1663731133e9336007546002546040518463ffffffff1660e01b815260040161123d939291906139c5565b600060405180830381600087803b15801561125757600080fd5b505af115801561126b573d6000803e3d6000fd5b50505050565b6000600e6000848152602001908152602001600020600001600f6000858152602001908152602001600020546040516020016112ae92919061387f565b60405160208183030381529060405280519060200120905082600a60008381526020019081526020016000208190555081600b60008381526020019081526020016000209080519060200190611305929190612899565b506001600f6000858152602001908152602001600020600082825461132a9190613f92565b925050819055507f805e1e03450a6d1d6d01b8952c45eb42c266813f218230d69feb44df0875d4758382604051611362929190613c69565b60405180910390a1505050565b60075481565b6012602052806000526040600020600091509050806000018054611398906140fb565b80601f01602080910402602001604051908101604052809291908181526020018280546113c4906140fb565b80156114115780601f106113e657610100808354040283529160200191611411565b820191906000526020600020905b8154815290600101906020018083116113f457829003601f168201915b5050505050908060010160009054906101000a9004600f0b908060020154905083565b6060600060105467ffffffffffffffff81111561147a577f4e487b7100000000000000000000000000000000000000000000000000000000600052604160045260246000fd5b6040519080825280602002602001820160405280156114ad57816020015b60608152602001906001900390816114985790505b50905060005b60105481101561162957600060115467ffffffffffffffff811115611501577f4e487b7100000000000000000000000000000000000000000000000000000000600052604160045260246000fd5b60405190808252806020026020018201604052801561152f5781602001602082028036833780820191505090505b50905060005b6011548110156115cf57600c6000848152602001908152602001600020600082815260200190815260200160002060009054906101000a900460ff168282815181106115aa577f4e487b7100000000000000000000000000000000000000000000000000000000600052603260045260246000fd5b60200260200101901515908115158152505080806115c79061415e565b915050611535565b508083838151811061160a577f4e487b7100000000000000000000000000000000000000000000000000000000600052603260045260246000fd5b60200260200101819052505080806116219061415e565b9150506114b3565b508091505090565b600560009054906101000a900473ffffffffffffffffffffffffffffffffffffffff1673ffffffffffffffffffffffffffffffffffffffff1663f242432a33306007546001546040518563ffffffff1660e01b815260040161169694939291906138a7565b600060405180830381600087803b1580156116b057600080fd5b505af11580156116c4573d6000803e3d6000fd5b50505050600060405180608001604052808381526020014281526020013373ffffffffffffffffffffffffffffffffffffffff168152602001600154815250905060096000848152602001908152602001600020819080600181540180825580915050600190039060005260206000209060040201600090919091909150600082015181600001908051906020019061175e929190612899565b506020820151816001015560408201518160020160006101000a81548173ffffffffffffffffffffffffffffffffffffffff021916908373ffffffffffffffffffffffffffffffffffffffff1602179055506060820151816003015550507fb46febe4efbbb5c019390b465ed6683766acdecdef421175b285b18932c27e2c3384600160096000888152602001908152602001600020805490506118029190613fe8565b60405161181193929190613957565b60405180910390a1505050565b80600e60006010548152602001908152602001600020600001908051906020019061184a929190612899565b5033600e6000601054815260200190815260200160002060030160006101000a81548173ffffffffffffffffffffffffffffffffffffffff021916908373ffffffffffffffffffffffffffffffffffffffff16021790555042600e60006010548152602001908152602001600020600101819055507f63c92f9505d420bff631cb9df33be952bdc11e2118da36a850b43e6bcc4ce4de601054336040516118f2929190613c40565b60405180910390a16010600081548092919061190d9061415e565b919050555050565b6060600060115467ffffffffffffffff81111561195b577f4e487b7100000000000000000000000000000000000000000000000000000000600052604160045260246000fd5b6040519080825280602002602001820160405280156119895781602001602082028036833780820191505090505b50905060005b601154811015611a2957600c6000858152602001908152602001600020600082815260200190815260200160002060009054906101000a900460ff16828281518110611a04577f4e487b7100000000000000000000000000000000000000000000000000000000600052603260045260246000fd5b6020026020010190151590811515815250508080611a219061415e565b91505061198f565b5080915050919050565b6060600060105467ffffffffffffffff811115611a79577f4e487b7100000000000000000000000000000000000000000000000000000000600052604160045260246000fd5b604051908082528060200260200182016040528015611ab257816020015b611a9f61291f565b815260200190600190039081611a975790505b50905060005b601054811015611c3357600e6000828152602001908152602001600020604051806080016040529081600082018054611af0906140fb565b80601f0160208091040260200160405190810160405280929190818152602001828054611b1c906140fb565b8015611b695780601f10611b3e57610100808354040283529160200191611b69565b820191906000526020600020905b815481529060010190602001808311611b4c57829003601f168201915b5050505050815260200160018201548152602001600282015481526020016003820160009054906101000a900473ffffffffffffffffffffffffffffffffffffffff1673ffffffffffffffffffffffffffffffffffffffff1673ffffffffffffffffffffffffffffffffffffffff1681525050828281518110611c15577f4e487b7100000000000000000000000000000000000000000000000000000000600052603260045260246000fd5b60200260200101819052508080611c2b9061415e565b915050611ab8565b508091505090565b6060600060105467ffffffffffffffff811115611c81577f4e487b7100000000000000000000000000000000000000000000000000000000600052604160045260246000fd5b604051908082528060200260200182016040528015611cb457816020015b6060815260200190600190039081611c9f5790505b50905060005b601054811015611e1d57600060115467ffffffffffffffff811115611d08577f4e487b7100000000000000000000000000000000000000000000000000000000600052604160045260246000fd5b604051908082528060200260200182016040528015611d365781602001602082028036833780820191505090505b50905060005b601154811015611dc357600d6000848152602001908152602001600020600082815260200190815260200160002054828281518110611da4577f4e487b7100000000000000000000000000000000000000000000000000000000600052603260045260246000fd5b6020026020010181815250508080611dbb9061415e565b915050611d3c565b5080838381518110611dfe577f4e487b7100000000000000000000000000000000000000000000000000000000600052603260045260246000fd5b6020026020010181905250508080611e159061415e565b915050611cba565b508091505090565b600560009054906101000a900473ffffffffffffffffffffffffffffffffffffffff1673ffffffffffffffffffffffffffffffffffffffff1663f5298aca336007546000546040518463ffffffff1660e01b8152600401611e889392919061398e565b600060405180830381600087803b158015611ea257600080fd5b505af1158015611eb6573d6000803e3d6000fd5b50505050826012600060115481526020019081526020016000206000019080519060200190611ee6929190612899565b508160126000601154815260200190815260200160002060010160006101000a8154816fffffffffffffffffffffffffffffffff0219169083600f0b6fffffffffffffffffffffffffffffffff1602179055508060126000601154815260200190815260200160002060020181905550600560009054906101000a900473ffffffffffffffffffffffffffffffffffffffff1673ffffffffffffffffffffffffffffffffffffffff1663731133e933601154876040518463ffffffff1660e01b8152600401611fb7939291906139c5565b600060405180830381600087803b158015611fd157600080fd5b505af1158015611fe5573d6000803e3d6000fd5b505050507f6958b51b54d963fa8eeeea5b61b83a9ad28f9ee9d5a2f1b8495e6866cb534bb16011543360405161201c929190613c40565b60405180910390a1601160008154809291906120379061415e565b919050555050505050565b600660009054906101000a900473ffffffffffffffffffffffffffffffffffffffff1673ffffffffffffffffffffffffffffffffffffffff163373ffffffffffffffffffffffffffffffffffffffff161461209c57600080fd5b80600560006101000a81548173ffffffffffffffffffffffffffffffffffffffff021916908373ffffffffffffffffffffffffffffffffffffffff16021790555050565b60015481565b60086020528060005260406000206000915054906101000a900460ff1681565b600560009054906101000a900473ffffffffffffffffffffffffffffffffffffffff1673ffffffffffffffffffffffffffffffffffffffff1663f5298aca3384846040518463ffffffff1660e01b81526004016121659392919061398e565b600060405180830381600087803b15801561217f57600080fd5b505af1158015612193573d6000803e3d6000fd5b5050505080600d6000858152602001908152602001600020600084815260200190815260200160002060008282546121cb9190613f92565b925050819055506012600083815260200190815260200160002060020154600d60008581526020019081526020016000206000848152602001908152602001600020541061228a576001600c6000858152602001908152602001600020600084815260200190815260200160002060006101000a81548160ff0219169083151502179055507f29692491058132b418905fa7c07d37d72a2355cf7f1d20d22a134414aa6ddf4c8383604051612281929190613c92565b60405180910390a15b505050565b600063bc197c8160e01b905098975050505050505050565b6122af612875565b601260008381526020019081526020016000206040518060600160405290816000820180546122dd906140fb565b80601f0160208091040260200160405190810160405280929190818152602001828054612309906140fb565b80156123565780601f1061232b57610100808354040283529160200191612356565b820191906000526020600020905b81548152906001019060200180831161233957829003601f168201915b505050505081526020016001820160009054906101000a9004600f0b600f0b600f0b81526020016002820154815250509050919050565b60025481565b60606000600960008481526020019081526020016000208054905067ffffffffffffffff8111156123ed577f4e487b7100000000000000000000000000000000000000000000000000000000600052604160045260246000fd5b60405190808252806020026020018201604052801561242657816020015b61241361295d565b81526020019060019003908161240b5790505b50905060005b600960008581526020019081526020016000208054905081101561260157600960008581526020019081526020016000208181548110612495577f4e487b7100000000000000000000000000000000000000000000000000000000600052603260045260246000fd5b90600052602060002090600402016040518060800160405290816000820180546124be906140fb565b80601f01602080910402602001604051908101604052809291908181526020018280546124ea906140fb565b80156125375780601f1061250c57610100808354040283529160200191612537565b820191906000526020600020905b81548152906001019060200180831161251a57829003601f168201915b50505050508152602001600182015481526020016002820160009054906101000a900473ffffffffffffffffffffffffffffffffffffffff1673ffffffffffffffffffffffffffffffffffffffff1673ffffffffffffffffffffffffffffffffffffffff1681526020016003820154815250508282815181106125e3577f4e487b7100000000000000000000000000000000000000000000000000000000600052603260045260246000fd5b602002602001018190525080806125f99061415e565b91505061242c565b5080915050919050565b60045481565b61261961291f565b600e6000838152602001908152602001600020604051806080016040529081600082018054612647906140fb565b80601f0160208091040260200160405190810160405280929190818152602001828054612673906140fb565b80156126c05780601f10612695576101008083540402835291602001916126c0565b820191906000526020600020905b8154815290600101906020018083116126a357829003601f168201915b5050505050815260200160018201548152602001600282015481526020016003820160009054906101000a900473ffffffffffffffffffffffffffffffffffffffff1673ffffffffffffffffffffffffffffffffffffffff1673ffffffffffffffffffffffffffffffffffffffff16815250509050919050565b600063f23a6e6160e01b90509695505050505050565b60007f01ffc9a7000000000000000000000000000000000000000000000000000000007bffffffffffffffffffffffffffffffffffffffffffffffffffffffff1916827bffffffffffffffffffffffffffffffffffffffffffffffffffffffff1916149050919050565b6000808214156127cd576000905061286f565b600083600f0b12156127de57600080fd5b600060406fffffffffffffffffffffffffffffffff841685600f0b02901c90506000608084901c85600f0b02905077ffffffffffffffffffffffffffffffffffffffffffffffff81111561283157600080fd5b604081901b9050817fffffffffffffffffffffffffffffffffffffffffffffffffffffffffffffffff0381111561286757600080fd5b818101925050505b92915050565b6040518060600160405280606081526020016000600f0b8152602001600081525090565b8280546128a5906140fb565b90600052602060002090601f0160209004810192826128c7576000855561290e565b82601f106128e057805160ff191683800117855561290e565b8280016001018555821561290e579182015b8281111561290d5782518255916020019190600101906128f2565b5b50905061291b919061299b565b5090565b6040518060800160405280606081526020016000815260200160008152602001600073ffffffffffffffffffffffffffffffffffffffff1681525090565b60405180608001604052806060815260200160008152602001600073ffffffffffffffffffffffffffffffffffffffff168152602001600081525090565b5b808211156129b457600081600090555060010161299c565b5090565b60006129cb6129c684613ce0565b613cbb565b9050828152602081018484840111156129e357600080fd5b6129ee8482856140b9565b509392505050565b600081359050612a05816142ca565b92915050565b60008083601f840112612a1d57600080fd5b8235905067ffffffffffffffff811115612a3657600080fd5b602083019150836020820283011115612a4e57600080fd5b9250929050565b600081359050612a64816142e1565b92915050565b600081359050612a79816142f8565b92915050565b60008083601f840112612a9157600080fd5b8235905067ffffffffffffffff811115612aaa57600080fd5b602083019150836001820283011115612ac257600080fd5b9250929050565b600081359050612ad88161430f565b92915050565b600081359050612aed81614326565b92915050565b600082601f830112612b0457600080fd5b8135612b148482602086016129b8565b91505092915050565b600081359050612b2c8161433d565b92915050565b600060208284031215612b4457600080fd5b6000612b52848285016129f6565b91505092915050565b60008060008060008060008060a0898b031215612b7757600080fd5b6000612b858b828c016129f6565b9850506020612b968b828c016129f6565b975050604089013567ffffffffffffffff811115612bb357600080fd5b612bbf8b828c01612a0b565b9650965050606089013567ffffffffffffffff811115612bde57600080fd5b612bea8b828c01612a0b565b9450945050608089013567ffffffffffffffff811115612c0957600080fd5b612c158b828c01612a7f565b92509250509295985092959890939650565b60008060008060008060a08789031215612c4057600080fd5b6000612c4e89828a016129f6565b9650506020612c5f89828a016129f6565b9550506040612c7089828a01612b1d565b9450506060612c8189828a01612b1d565b935050608087013567ffffffffffffffff811115612c9e57600080fd5b612caa89828a01612a7f565b92509250509295509295509295565b600060208284031215612ccb57600080fd5b6000612cd984828501612a55565b91505092915050565b60008060408385031215612cf557600080fd5b6000612d0385828601612a55565b925050602083013567ffffffffffffffff811115612d2057600080fd5b612d2c85828601612af3565b9150509250929050565b60008060408385031215612d4957600080fd5b6000612d5785828601612a55565b9250506020612d6885828601612b1d565b9150509250929050565b600060208284031215612d8457600080fd5b6000612d9284828501612a6a565b91505092915050565b600060208284031215612dad57600080fd5b6000612dbb84828501612ac9565b91505092915050565b600060208284031215612dd657600080fd5b600082013567ffffffffffffffff811115612df057600080fd5b612dfc84828501612af3565b91505092915050565b600060208284031215612e1757600080fd5b6000612e2584828501612b1d565b91505092915050565b60008060408385031215612e4157600080fd5b6000612e4f85828601612b1d565b925050602083013567ffffffffffffffff811115612e6c57600080fd5b612e7885828601612af3565b9150509250929050565b60008060008060808587031215612e9857600080fd5b6000612ea687828801612b1d565b945050602085013567ffffffffffffffff811115612ec357600080fd5b612ecf87828801612af3565b9350506040612ee087828801612ade565b9250506060612ef187828801612b1d565b91505092959194509250565b600080600060608486031215612f1257600080fd5b6000612f2086828701612b1d565b9350506020612f3186828701612b1d565b9250506040612f4286828701612b1d565b9150509250925092565b6000612f588383613114565b905092915050565b6000612f6c8383613402565b905092915050565b6000612f8083836134be565b60208301905092915050565b6000612f9883836134dc565b60208301905092915050565b6000612fb08383613527565b905092915050565b6000612fc48383613681565b905092915050565b6000612fd88383613721565b905092915050565b6000612fec83836137e7565b905092915050565b6000613000838361384a565b60208301905092915050565b6130158161401c565b82525050565b6130248161401c565b82525050565b600061303582613db6565b61303f8185613e99565b93508360208202850161305185613d11565b8060005b8581101561308d578484038952815161306e8582612f4c565b945061307983613e24565b925060208a01995050600181019050613055565b50829750879550505050505092915050565b60006130aa82613dc1565b6130b48185613eaa565b9350836020820285016130c685613d21565b8060005b8581101561310257848403895281516130e38582612f60565b94506130ee83613e31565b925060208a019950506001810190506130ca565b50829750879550505050505092915050565b600061311f82613dcc565b6131298185613ebb565b935061313483613d31565b8060005b8381101561316557815161314c8882612f74565b975061315783613e3e565b925050600181019050613138565b5085935050505092915050565b600061317d82613dcc565b6131878185613ecc565b935061319283613d31565b8060005b838110156131c35781516131aa8882612f74565b97506131b583613e3e565b925050600181019050613196565b5085935050505092915050565b60006131db82613dd7565b6131e58185613edd565b93506131f083613d41565b8060005b838110156132215781516132088882612f8c565b975061321383613e4b565b9250506001810190506131f4565b5085935050505092915050565b600061323982613de2565b6132438185613eee565b93508360208202850161325585613d51565b8060005b8581101561329157848403895281516132728582612fa4565b945061327d83613e58565b925060208a01995050600181019050613259565b50829750879550505050505092915050565b60006132ae82613ded565b6132b88185613eff565b9350836020820285016132ca85613d61565b8060005b8581101561330657848403895281516132e78582612fb8565b94506132f283613e65565b925060208a019950506001810190506132ce565b50829750879550505050505092915050565b600061332382613df8565b61332d8185613f10565b93508360208202850161333f85613d71565b8060005b8581101561337b578484038952815161335c8582612fcc565b945061336783613e72565b925060208a01995050600181019050613343565b50829750879550505050505092915050565b600061339882613e03565b6133a28185613f21565b9350836020820285016133b485613d81565b8060005b858110156133f057848403895281516133d18582612fe0565b94506133dc83613e7f565b925060208a019950506001810190506133b8565b50829750879550505050505092915050565b600061340d82613e0e565b6134178185613f32565b935061342283613d91565b8060005b8381101561345357815161343a8882612ff4565b975061344583613e8c565b925050600181019050613426565b5085935050505092915050565b600061346b82613e0e565b6134758185613f43565b935061348083613d91565b8060005b838110156134b15781516134988882612ff4565b97506134a383613e8c565b925050600181019050613484565b5085935050505092915050565b6134c78161402e565b82525050565b6134d68161402e565b82525050565b6134e58161403a565b82525050565b6134f48161403a565b82525050565b61350381614044565b82525050565b61351281614082565b82525050565b61352181614082565b82525050565b600061353282613e19565b61353c8185613f65565b935061354c8185602086016140c8565b6135558161423e565b840191505092915050565b600061356b82613e19565b6135758185613f76565b93506135858185602086016140c8565b61358e8161423e565b840191505092915050565b600081546135a6816140fb565b6135b08186613f87565b945060018216600081146135cb57600181146135dc5761360f565b60ff1983168652818601935061360f565b6135e585613da1565b60005b83811015613607578154818901526001820191506020810190506135e8565b838801955050505b50505092915050565b6000613625603283613f76565b91506136308261424f565b604082019050919050565b6000613648600083613f54565b91506136538261429e565b600082019050919050565b600061366b602083613f76565b9150613676826142a1565b602082019050919050565b6000606083016000830151848203600086015261369e8282613527565b91505060208301516136b36020860182613509565b5060408301516136c6604086018261384a565b508091505092915050565b600060608301600083015184820360008601526136ee8282613527565b91505060208301516137036020860182613509565b506040830151613716604086018261384a565b508091505092915050565b6000608083016000830151848203600086015261373e8282613527565b9150506020830151613753602086018261384a565b506040830151613766604086018261384a565b506060830151613779606086018261300c565b508091505092915050565b600060808301600083015184820360008601526137a18282613527565b91505060208301516137b6602086018261384a565b5060408301516137c9604086018261384a565b5060608301516137dc606086018261300c565b508091505092915050565b600060808301600083015184820360008601526138048282613527565b9150506020830151613819602086018261384a565b50604083015161382c604086018261300c565b50606083015161383f606086018261384a565b508091505092915050565b613853816140af565b82525050565b613862816140af565b82525050565b613879613874826140af565b6141a7565b82525050565b600061388b8285613599565b91506138978284613868565b6020820191508190509392505050565b600060a0820190506138bc600083018761301b565b6138c9602083018661301b565b6138d66040830185613859565b6138e36060830184613859565b81810360808301526138f48161363b565b905095945050505050565b6000608082019050613914600083018661301b565b81810360208301526139268185613460565b9050818103604083015261393a8184613460565b9050818103606083015261394d8161363b565b9050949350505050565b600060608201905061396c600083018661301b565b61397960208301856134eb565b6139866040830184613859565b949350505050565b60006060820190506139a3600083018661301b565b6139b06020830185613859565b6139bd6040830184613859565b949350505050565b60006080820190506139da600083018661301b565b6139e76020830185613859565b6139f46040830184613859565b8181036060830152613a058161363b565b9050949350505050565b60006020820190508181036000830152613a29818461302a565b905092915050565b60006020820190508181036000830152613a4b818461309f565b905092915050565b60006020820190508181036000830152613a6d8184613172565b905092915050565b60006040820190508181036000830152613a8f81856131d0565b90508181036020830152613aa3818461322e565b90509392505050565b60006020820190508181036000830152613ac681846132a3565b905092915050565b60006020820190508181036000830152613ae88184613318565b905092915050565b60006020820190508181036000830152613b0a818461338d565b905092915050565b6000602082019050613b2760008301846134cd565b92915050565b6000602082019050613b4260008301846134fa565b92915050565b6000602082019050613b5d6000830184613518565b92915050565b60006060820190508181036000830152613b7d8186613560565b9050613b8c6020830185613518565b613b996040830184613859565b949350505050565b60006020820190508181036000830152613bba81613618565b9050919050565b60006020820190508181036000830152613bda8161365e565b9050919050565b60006020820190508181036000830152613bfb81846136d1565b905092915050565b60006020820190508181036000830152613c1d8184613784565b905092915050565b6000602082019050613c3a6000830184613859565b92915050565b6000604082019050613c556000830185613859565b613c62602083018461301b565b9392505050565b6000604082019050613c7e6000830185613859565b613c8b60208301846134eb565b9392505050565b6000604082019050613ca76000830185613859565b613cb46020830184613859565b9392505050565b6000613cc5613cd6565b9050613cd1828261412d565b919050565b6000604051905090565b600067ffffffffffffffff821115613cfb57613cfa61420f565b5b613d048261423e565b9050602081019050919050565b6000819050602082019050919050565b6000819050602082019050919050565b6000819050602082019050919050565b6000819050602082019050919050565b6000819050602082019050919050565b6000819050602082019050919050565b6000819050602082019050919050565b6000819050602082019050919050565b6000819050602082019050919050565b60008190508160005260206000209050919050565b600081519050919050565b600081519050919050565b600081519050919050565b600081519050919050565b600081519050919050565b600081519050919050565b600081519050919050565b600081519050919050565b600081519050919050565b600081519050919050565b6000602082019050919050565b6000602082019050919050565b6000602082019050919050565b6000602082019050919050565b6000602082019050919050565b6000602082019050919050565b6000602082019050919050565b6000602082019050919050565b6000602082019050919050565b600082825260208201905092915050565b600082825260208201905092915050565b600082825260208201905092915050565b600082825260208201905092915050565b600082825260208201905092915050565b600082825260208201905092915050565b600082825260208201905092915050565b600082825260208201905092915050565b600082825260208201905092915050565b600082825260208201905092915050565b600082825260208201905092915050565b600082825260208201905092915050565b600082825260208201905092915050565b600082825260208201905092915050565b600081905092915050565b6000613f9d826140af565b9150613fa8836140af565b9250827fffffffffffffffffffffffffffffffffffffffffffffffffffffffffffffffff03821115613fdd57613fdc6141b1565b5b828201905092915050565b6000613ff3826140af565b9150613ffe836140af565b925082821015614011576140106141b1565b5b828203905092915050565b60006140278261408f565b9050919050565b60008115159050919050565b6000819050919050565b60007fffffffff0000000000000000000000000000000000000000000000000000000082169050919050565b600061407b8261401c565b9050919050565b600081600f0b9050919050565b600073ffffffffffffffffffffffffffffffffffffffff82169050919050565b6000819050919050565b82818337600083830152505050565b60005b838110156140e65780820151818401526020810190506140cb565b838111156140f5576000848401525b50505050565b6000600282049050600182168061411357607f821691505b60208210811415614127576141266141e0565b5b50919050565b6141368261423e565b810181811067ffffffffffffffff821117156141555761415461420f565b5b80604052505050565b6000614169826140af565b91507fffffffffffffffffffffffffffffffffffffffffffffffffffffffffffffffff82141561419c5761419b6141b1565b5b600182019050919050565b6000819050919050565b7f4e487b7100000000000000000000000000000000000000000000000000000000600052601160045260246000fd5b7f4e487b7100000000000000000000000000000000000000000000000000000000600052602260045260246000fd5b7f4e487b7100000000000000000000000000000000000000000000000000000000600052604160045260246000fd5b6000601f19601f8301169050919050565b7f43616e6e6f742063616c6c20746869732066756e6374696f6e2c20757365722060008201527f616c726561647920726567697374657265640000000000000000000000000000602082015250565b50565b7f646573696c6f3a20596f75206d6179206e6f742079657420756e7374616b652e600082015250565b6142d38161401c565b81146142de57600080fd5b50565b6142ea8161403a565b81146142f557600080fd5b50565b61430181614044565b811461430c57600080fd5b50565b61431881614070565b811461432357600080fd5b50565b61432f81614082565b811461433a57600080fd5b50565b614346816140af565b811461435157600080fd5b5056fea2646970667358221220ae72db22224341fe6e80f18e05626807c867b4eeda1dab51511c44877be3578264736f6c63430008030033",
  "immutableReferences": {},
  "source": "pragma solidity ^0.8.3;\r\n\r\nimport \"./dSocialCredits.sol\";\r\nimport \"./library/ABDKMath64x64.sol\";\r\nimport \"@openzeppelin/contracts/token/ERC1155/utils/ERC1155Receiver.sol\";\r\n\r\ncontract desilo is ERC1155Receiver {\r\n\r\n    struct Group {\r\n        string uri;\r\n        int128 yield;\r\n        uint256 acceptance;\r\n    }\r\n\r\n    struct Project {\r\n        string uri; \r\n        uint256 createdAt; \r\n        uint256 groupCount;\r\n        address owner; \r\n    }\r\n\r\n    struct Review {\r\n        string uri;\r\n        uint256 publishedAt;\r\n        address reviewer;\r\n        uint256 stakeAmount;\r\n    }\r\n\r\n    uint256 public groupCreationSCAmount;\r\n    uint256 public scStakeAmount;\r\n    uint256 public scSeedAmount;\r\n    int128 public scYield;\r\n    uint256 public scStakePeriod;\r\n\r\n    dSocialCredits _scContract;\r\n    address _owner;\r\n    uint256 public scID = 2**256 - 1;\r\n    mapping(address => bool) public registered;\r\n\r\n    // mapping(entityID). keccak256(projectURI, entityURI)\r\n    mapping(bytes32 => Review[]) _entityReviews;\r\n    mapping(bytes32 => uint256) _entityToThread;\r\n    mapping(bytes32 => string) _entityURI;\r\n\r\n    // mapping(groupID)\r\n    mapping (uint256 => mapping(uint256 => bool)) _affiliatedGroups;\r\n    mapping (uint256 => mapping(uint256 => uint256)) _affiliatedGroupsVouched;\r\n\r\n\r\n    // mapping(projectID)\r\n    mapping(uint256 => Project) _projects; \r\n    mapping(uint256 => uint256) _projectEntitiesCount;\r\n    uint256 _projectCount = 0;\r\n\r\n    // mapping(groupID => fixed128x128)\r\n    uint256 _groupCount = 0;\r\n    mapping(uint256 => Group) public _groups; // Group's \r\n\r\n\r\n    event GroupCreated(uint256 id, address creator); \r\n    event ProjectCreated(uint256 id, address creator); \r\n    event ProjectAccepted(uint256 projectId, uint256 groupId); \r\n    event EntityAdded(uint256 projectId, bytes32 entityId);\r\n    event Staked(address staker, bytes32 commitId, uint256 index); \r\n    event Unstaked(address staker, bytes32 commitId, uint256 index); \r\n\r\n\r\n    constructor(\r\n        uint256 _scStakeAmount,\r\n        int128 _scYield,\r\n        uint256 _groupCreationSCAmount,\r\n        uint256 _scSeedAmount,\r\n        uint256 _scStakePeriod\r\n    ) IERC1155Receiver() {\r\n        scYield = _scYield;\r\n        scStakeAmount = _scStakeAmount;\r\n        groupCreationSCAmount = _groupCreationSCAmount;\r\n        scSeedAmount = _scSeedAmount;\r\n        scStakePeriod = _scStakePeriod;\r\n        _owner = msg.sender;\r\n    }\r\n\r\n    function createGroup(uint256 _initialSupply, string memory _uri, int128 _yield, uint256 _acceptance) external {\r\n        _scContract.burn(msg.sender, scID, groupCreationSCAmount);\r\n        _groups[_groupCount].uri = _uri;\r\n        _groups[_groupCount].yield = _yield;\r\n        _groups[_groupCount].acceptance = _acceptance;\r\n\r\n        _scContract.mint(msg.sender, _groupCount, _initialSupply, \"\");\r\n        emit GroupCreated(_groupCount, msg.sender);\r\n        _groupCount++;\r\n    }\r\n\r\n    function getGroup(uint256 index) external view returns(Group memory) {\r\n        return _groups[index]; \r\n    }\r\n\r\n    function getAllGroups() external view returns(Group[] memory) {\r\n        Group[] memory groups = new Group[](_groupCount);\r\n        for (uint i = 0; i < _groupCount; i++) groups[i] = _groups[i];\r\n        return groups; \r\n    }\r\n\r\n    function getAffiliations(uint256 projectID) external view returns(bool[] memory) {\r\n        bool[] memory affiliations = new bool[](_groupCount);\r\n        for (uint j = 0; j < _groupCount; j++) affiliations[j] = _affiliatedGroups[projectID][j];\r\n        return affiliations; \r\n    }\r\n\r\n    function getAllAffiliations() external view returns(bool[][] memory) {\r\n        bool[][] memory projects = new bool[][](_projectCount);\r\n        for (uint i = 0; i < _projectCount; i++) {\r\n            bool[] memory affiliations = new bool[](_groupCount);\r\n            for (uint j = 0; j < _groupCount; j++) affiliations[j] = _affiliatedGroups[i][j];\r\n            projects[i] = affiliations;\r\n        }\r\n        return projects; \r\n    }\r\n\r\n    function getAllVouched() external view returns(uint256[][] memory) {\r\n        uint256[][] memory projects = new uint256[][](_projectCount);\r\n        for (uint i = 0; i < _projectCount; i++) {\r\n            uint256[] memory affiliations = new uint256[](_groupCount);\r\n            for (uint j = 0; j < _groupCount; j++) affiliations[j] = _affiliatedGroupsVouched[i][j];\r\n            projects[i] = affiliations;\r\n        }\r\n        return projects; \r\n    }\r\n\r\n    function getAllReviews(bytes32 entityID) external view returns(Review[] memory) {\r\n        Review[] memory reviews = new Review[](_entityReviews[entityID].length);\r\n        for (uint i = 0; i < _entityReviews[entityID].length; i++) reviews[i] = _entityReviews[entityID][i];\r\n        return reviews; \r\n    }\r\n\r\n    function getProject(uint256 index) external view returns(Project memory) {\r\n        return _projects[index]; \r\n    }\r\n\r\n    function getAllProjects() external view returns(Project[] memory) {\r\n        Project[] memory projects = new Project[](_projectCount);\r\n        for (uint i = 0; i < _projectCount; i++) projects[i] = _projects[i];\r\n        return projects; \r\n    }\r\n\r\n    function getProjectEntities(uint256 projectID) external view returns(bytes32[] memory entityIDs, string[] memory entityURIs) {\r\n        entityURIs = new string[](_projectEntitiesCount[projectID]);\r\n        entityIDs = new bytes32[](_projectEntitiesCount[projectID]);\r\n        for (uint i = 0; i < _projectEntitiesCount[projectID]; i++) {\r\n            entityIDs[i] = keccak256(abi.encodePacked(_projects[projectID].uri, i));\r\n            entityURIs[i] = _entityURI[entityIDs[i]];\r\n        }\r\n    }\r\n\r\n    function addProjectEntity(uint256 projectID, string memory entityURI) external {\r\n        // Run Chainlink verification of ownership\r\n        bytes32 entityID = keccak256(abi.encodePacked(_projects[projectID].uri, _projectEntitiesCount[projectID]));\r\n        _entityToThread[entityID] = projectID;\r\n        _entityURI[entityID] = entityURI;\r\n        _projectEntitiesCount[projectID] += 1;\r\n        emit EntityAdded(projectID, entityID);\r\n    }\r\n\r\n    function vouchProject(uint256 projectID, uint256 groupID, uint256 amount) external {\r\n        _scContract.burn(msg.sender, groupID, amount);\r\n        _affiliatedGroupsVouched[projectID][groupID] += amount; \r\n        if (_affiliatedGroupsVouched[projectID][groupID] >= _groups[groupID].acceptance) {\r\n            _affiliatedGroups[projectID][groupID] = true; \r\n            emit ProjectAccepted(projectID, groupID);\r\n        }\r\n    }\r\n\r\n    function setSC(dSocialCredits _sc) external {\r\n        require(msg.sender == _owner);\r\n        _scContract = _sc;\r\n    }\r\n\r\n    function seedSC() external {\r\n        require(\r\n            !registered[msg.sender],\r\n            \"Cannot call this function, user already registered\"\r\n        );\r\n        registered[msg.sender] = true;\r\n        _scContract.mint(msg.sender, scID, scSeedAmount, \"\");\r\n    }\r\n\r\n    function stake(bytes32 _commitId, string memory uri) external {\r\n        _scContract.safeTransferFrom(\r\n            msg.sender,\r\n            address(this),\r\n            scID,\r\n            scStakeAmount,\r\n            \"\"\r\n        );\r\n        Review memory newReview = Review(uri, block.timestamp, msg.sender, scStakeAmount);\r\n        _entityReviews[_commitId].push(newReview);\r\n        emit Staked(msg.sender, _commitId, _entityReviews[_commitId].length - 1); \r\n    }\r\n\r\n    function canUnstake(bytes32 _commitId, uint256 index) public view returns(bool) {\r\n        return block.timestamp >= _entityReviews[_commitId][index].publishedAt + scStakePeriod;\r\n    }\r\n\r\n    function unstake(bytes32 _commitId, uint256 index) external {\r\n        require(\r\n            canUnstake(_commitId, index),\r\n            \"desilo: You may not yet unstake.\"\r\n        );\r\n\r\n        uint256 stakedAmount = _entityReviews[_commitId][index].stakeAmount;\r\n        uint256 threadID = _entityToThread[_commitId];\r\n        uint256 gscCount = _projects[threadID].groupCount;\r\n        uint256[] memory ids = new uint256[](gscCount);\r\n        uint256[] memory amounts = new uint256[](gscCount);\r\n\r\n        _entityReviews[_commitId][index].stakeAmount = 0;\r\n        \r\n        _scContract.safeTransferFrom(\r\n            address(this),\r\n            msg.sender,\r\n            scID,\r\n            stakedAmount,\r\n            \"\"\r\n        );\r\n        _scContract.mint(\r\n            msg.sender,\r\n            scID,\r\n            ABDKMath64x64.mulu(scYield, stakedAmount),\r\n            \"\"\r\n        );\r\n\r\n        uint256 count = 0;\r\n        for (uint256 i = 0; i < _groupCount; i++) {\r\n            if (_affiliatedGroups[threadID][i]) {\r\n                ids[count] = i;\r\n                amounts[count] = ABDKMath64x64.mulu(_groups[i].yield, stakedAmount);\r\n                count++;\r\n            }\r\n        }\r\n        _scContract.mintBatch(msg.sender, ids, amounts, \"\");\r\n        emit Unstaked(msg.sender, _commitId, index); \r\n    }\r\n\r\n    function registerProject(string memory uri) external {\r\n        _projects[_projectCount].uri = uri;\r\n        _projects[_projectCount].owner = msg.sender; \r\n        _projects[_projectCount].createdAt = block.timestamp; \r\n        emit ProjectCreated(_projectCount, msg.sender);\r\n        _projectCount++; \r\n    }\r\n\r\n    function onERC1155Received(\r\n        address operator,\r\n        address from,\r\n        uint256 id,\r\n        uint256 value,\r\n        bytes calldata data\r\n    ) external pure override returns (bytes4) {\r\n        return this.onERC1155Received.selector;\r\n    }\r\n\r\n    function onERC1155BatchReceived(\r\n        address operator,\r\n        address from,\r\n        uint256[] calldata ids,\r\n        uint256[] calldata values,\r\n        bytes calldata data\r\n    ) external pure override returns (bytes4) {\r\n        return this.onERC1155BatchReceived.selector;\r\n    }\r\n}\r\n",
  "sourcePath": "C:/Users/Kuan/Documents/GitHub/desilo/contracts/desilo.sol",
  "compiler": {
    "name": "solc",
    "version": "0.8.3+commit.8d00100c.Emscripten.clang"
  },
  "schemaVersion": "3.3.4",
  "updatedAt": "2021-08-14T08:11:56.845Z",
  "networkType": "ethereum",
  "devdoc": {
    "kind": "dev",
    "methods": {
      "onERC1155BatchReceived(address,address,uint256[],uint256[],bytes)": {
        "details": "Handles the receipt of a multiple ERC1155 token types. This function is called at the end of a `safeBatchTransferFrom` after the balances have been updated. To accept the transfer(s), this must return `bytes4(keccak256(\"onERC1155BatchReceived(address,address,uint256[],uint256[],bytes)\"))` (i.e. 0xbc197c81, or its own function selector).",
        "params": {
          "data": "Additional data with no specified format",
          "from": "The address which previously owned the token",
          "ids": "An array containing ids of each token being transferred (order and length must match values array)",
          "operator": "The address which initiated the batch transfer (i.e. msg.sender)",
          "values": "An array containing amounts of each token being transferred (order and length must match ids array)"
        },
        "returns": {
          "_0": "`bytes4(keccak256(\"onERC1155BatchReceived(address,address,uint256[],uint256[],bytes)\"))` if transfer is allowed"
        }
      },
      "onERC1155Received(address,address,uint256,uint256,bytes)": {
        "details": "Handles the receipt of a single ERC1155 token type. This function is called at the end of a `safeTransferFrom` after the balance has been updated. To accept the transfer, this must return `bytes4(keccak256(\"onERC1155Received(address,address,uint256,uint256,bytes)\"))` (i.e. 0xf23a6e61, or its own function selector).",
        "params": {
          "data": "Additional data with no specified format",
          "from": "The address which previously owned the token",
          "id": "The ID of the token being transferred",
          "operator": "The address which initiated the transfer (i.e. msg.sender)",
          "value": "The amount of tokens being transferred"
        },
        "returns": {
          "_0": "`bytes4(keccak256(\"onERC1155Received(address,address,uint256,uint256,bytes)\"))` if transfer is allowed"
        }
      },
      "supportsInterface(bytes4)": {
        "details": "See {IERC165-supportsInterface}."
      }
    },
    "version": 1
  },
  "userdoc": {
    "kind": "user",
    "methods": {},
    "version": 1
  }
}