{
  "contractName": "desilo",
  "abi": [
    {
      "inputs": [
        {
          "internalType": "uint256",
          "name": "_scStakeAmount",
          "type": "uint256"
        },
        {
          "internalType": "int128",
          "name": "_scYield",
          "type": "int128"
        },
        {
          "internalType": "uint256",
          "name": "_groupCreationSCAmount",
          "type": "uint256"
        },
        {
          "internalType": "uint256",
          "name": "_scSeedAmount",
          "type": "uint256"
        },
        {
          "internalType": "uint256",
          "name": "_scStakePeriod",
          "type": "uint256"
        }
      ],
      "stateMutability": "nonpayable",
      "type": "constructor"
    },
    {
      "inputs": [],
      "name": "groupCreationSCAmount",
      "outputs": [
        {
          "internalType": "uint256",
          "name": "",
          "type": "uint256"
        }
      ],
      "stateMutability": "view",
      "type": "function",
      "constant": true
    },
    {
      "inputs": [
        {
          "internalType": "uint256",
          "name": "",
          "type": "uint256"
        }
      ],
      "name": "gscYield",
      "outputs": [
        {
          "internalType": "int128",
          "name": "",
          "type": "int128"
        }
      ],
      "stateMutability": "view",
      "type": "function",
      "constant": true
    },
    {
      "inputs": [],
      "name": "scSeedAmount",
      "outputs": [
        {
          "internalType": "uint256",
          "name": "",
          "type": "uint256"
        }
      ],
      "stateMutability": "view",
      "type": "function",
      "constant": true
    },
    {
      "inputs": [],
      "name": "scStakeAmount",
      "outputs": [
        {
          "internalType": "uint256",
          "name": "",
          "type": "uint256"
        }
      ],
      "stateMutability": "view",
      "type": "function",
      "constant": true
    },
    {
      "inputs": [],
      "name": "scStakePeriod",
      "outputs": [
        {
          "internalType": "uint256",
          "name": "",
          "type": "uint256"
        }
      ],
      "stateMutability": "view",
      "type": "function",
      "constant": true
    },
    {
      "inputs": [
        {
          "internalType": "uint256",
          "name": "_initialSupply",
          "type": "uint256"
        },
        {
          "internalType": "string",
          "name": "_uri",
          "type": "string"
        }
      ],
      "name": "createGroup",
      "outputs": [],
      "stateMutability": "nonpayable",
      "type": "function"
    },
    {
      "inputs": [
        {
          "internalType": "contract dSocialCredits",
          "name": "_sc",
          "type": "address"
        }
      ],
      "name": "setSC",
      "outputs": [],
      "stateMutability": "nonpayable",
      "type": "function"
    },
    {
      "inputs": [],
      "name": "seedSC",
      "outputs": [],
      "stateMutability": "nonpayable",
      "type": "function"
    },
    {
      "inputs": [
        {
          "internalType": "uint256",
          "name": "_commitId",
          "type": "uint256"
        },
        {
          "internalType": "address",
          "name": "_addr",
          "type": "address"
        }
      ],
      "name": "getStaked",
      "outputs": [
        {
          "internalType": "uint256",
          "name": "",
          "type": "uint256"
        }
      ],
      "stateMutability": "view",
      "type": "function",
      "constant": true
    },
    {
      "inputs": [
        {
          "internalType": "uint256",
          "name": "_commitId",
          "type": "uint256"
        }
      ],
      "name": "stake",
      "outputs": [],
      "stateMutability": "nonpayable",
      "type": "function"
    },
    {
      "inputs": [
        {
          "internalType": "uint256",
          "name": "_commitId",
          "type": "uint256"
        }
      ],
      "name": "unstake",
      "outputs": [],
      "stateMutability": "nonpayable",
      "type": "function"
    }
  ],
  "bytecode": "0x608060405260006006556001600f553480156200001b57600080fd5b506040516200188038038062001880833981810160405281019062000041919062000124565b836011600080815260200190815260200160002060006101000a8154816fffffffffffffffffffffffffffffffff0219169083600f0b6fffffffffffffffffffffffffffffffff1602179055508460018190555082600081905550816002819055508060038190555033600560006101000a81548173ffffffffffffffffffffffffffffffffffffffff021916908373ffffffffffffffffffffffffffffffffffffffff1602179055505050505050620001f1565b6000815190506200010781620001bd565b92915050565b6000815190506200011e81620001d7565b92915050565b600080600080600060a086880312156200013d57600080fd5b60006200014d888289016200010d565b95505060206200016088828901620000f6565b945050604062000173888289016200010d565b935050606062000186888289016200010d565b925050608062000199888289016200010d565b9150509295509295909350565b600081600f0b9050919050565b6000819050919050565b620001c881620001a6565b8114620001d457600080fd5b50565b620001e281620001b3565b8114620001ee57600080fd5b50565b61167f80620002016000396000f3fe608060405234801561001057600080fd5b50600436106100a95760003560e01c8063907a4e1d11610071578063907a4e1d146101525780639fbd7cef1461016e578063a5e801921461018a578063a694fc3a146101a8578063d841212e146101c4578063ecb282de146101e2576100a9565b80631614047e146100ae5780632e17de78146100cc5780632f008105146100e857806340531d5d146100f257806362b54bdc14610122575b600080fd5b6100b6610200565b6040516100c391906112a5565b60405180910390f35b6100e660048036038101906100e19190610f45565b610206565b005b6100f06107d3565b005b61010c60048036038101906101079190610f6e565b610919565b60405161011991906112a5565b60405180910390f35b61013c60048036038101906101379190610f45565b610974565b604051610149919061124a565b60405180910390f35b61016c60048036038101906101679190610f1c565b610994565b005b61018860048036038101906101839190610faa565b610a32565b005b610192610ba0565b60405161019f91906112a5565b60405180910390f35b6101c260048036038101906101bd9190610f45565b610ba6565b005b6101cc610d0b565b6040516101d991906112a5565b60405180910390f35b6101ea610d11565b6040516101f791906112a5565b60405180910390f35b60005481565b6009600082815260200190815260200160002060003373ffffffffffffffffffffffffffffffffffffffff1673ffffffffffffffffffffffffffffffffffffffff16815260200190815260200160002054421015610299576040517f08c379a000000000000000000000000000000000000000000000000000000000815260040161029090611285565b60405180910390fd5b60006102a58233610919565b10156102e6576040517f08c379a00000000000000000000000000000000000000000000000000000000081526004016102dd90611265565b60405180910390fd5b60006102f28233610919565b90506000600a60008481526020019081526020016000205490506000600e600083815260200190815260200160002054905060008167ffffffffffffffff811115610366577f4e487b7100000000000000000000000000000000000000000000000000000000600052604160045260246000fd5b6040519080825280602002602001820160405280156103945781602001602082028036833780820191505090505b50905060008267ffffffffffffffff8111156103d9577f4e487b7100000000000000000000000000000000000000000000000000000000600052604160045260246000fd5b6040519080825280602002602001820160405280156104075781602001602082028036833780820191505090505b509050846008600088815260200190815260200160002060003373ffffffffffffffffffffffffffffffffffffffff1673ffffffffffffffffffffffffffffffffffffffff168152602001908152602001600020600082825461046a91906113c7565b9250508190555060006009600088815260200190815260200160002060003373ffffffffffffffffffffffffffffffffffffffff1673ffffffffffffffffffffffffffffffffffffffff16815260200190815260200160002081905550600460009054906101000a900473ffffffffffffffffffffffffffffffffffffffff1673ffffffffffffffffffffffffffffffffffffffff1663f242432a3033600654896040518563ffffffff1660e01b815260040161052a9493929190611119565b600060405180830381600087803b15801561054457600080fd5b505af1158015610558573d6000803e3d6000fd5b50505050600460009054906101000a900473ffffffffffffffffffffffffffffffffffffffff1673ffffffffffffffffffffffffffffffffffffffff1663731133e9336006546105c86011600080815260200190815260200160002060009054906101000a9004600f0b8a610d17565b6040518463ffffffff1660e01b81526004016105e693929190611200565b600060405180830381600087803b15801561060057600080fd5b505af1158015610614573d6000803e3d6000fd5b50505050600080600190505b600f5481101561073857600d6000878152602001908152602001600020600082815260200190815260200160002060009054906101000a900460ff1615610725578084838151811061069b577f4e487b7100000000000000000000000000000000000000000000000000000000600052603260045260246000fd5b6020026020010181815250506106d16011600083815260200190815260200160002060009054906101000a9004600f0b88610d17565b83838151811061070a577f4e487b7100000000000000000000000000000000000000000000000000000000600052603260045260246000fd5b6020026020010181815250508180610721906114c8565b9250505b8080610730906114c8565b915050610620565b50600460009054906101000a900473ffffffffffffffffffffffffffffffffffffffff1673ffffffffffffffffffffffffffffffffffffffff16631f7fdffa3385856040518463ffffffff1660e01b815260040161079893929190611171565b600060405180830381600087803b1580156107b257600080fd5b505af11580156107c6573d6000803e3d6000fd5b5050505050505050505050565b600760003373ffffffffffffffffffffffffffffffffffffffff1673ffffffffffffffffffffffffffffffffffffffff16815260200190815260200160002060009054906101000a900460ff161561082a57600080fd5b6001600760003373ffffffffffffffffffffffffffffffffffffffff1673ffffffffffffffffffffffffffffffffffffffff16815260200190815260200160002060006101000a81548160ff021916908315150217905550600460009054906101000a900473ffffffffffffffffffffffffffffffffffffffff1673ffffffffffffffffffffffffffffffffffffffff1663731133e9336006546002546040518463ffffffff1660e01b81526004016108e593929190611200565b600060405180830381600087803b1580156108ff57600080fd5b505af1158015610913573d6000803e3d6000fd5b50505050565b60006008600084815260200190815260200160002060008373ffffffffffffffffffffffffffffffffffffffff1673ffffffffffffffffffffffffffffffffffffffff16815260200190815260200160002054905092915050565b60116020528060005260406000206000915054906101000a9004600f0b81565b600560009054906101000a900473ffffffffffffffffffffffffffffffffffffffff1673ffffffffffffffffffffffffffffffffffffffff163373ffffffffffffffffffffffffffffffffffffffff16146109ee57600080fd5b80600460006101000a81548173ffffffffffffffffffffffffffffffffffffffff021916908373ffffffffffffffffffffffffffffffffffffffff16021790555050565b600460009054906101000a900473ffffffffffffffffffffffffffffffffffffffff1673ffffffffffffffffffffffffffffffffffffffff1663f5298aca336006546000546040518463ffffffff1660e01b8152600401610a95939291906111c9565b600060405180830381600087803b158015610aaf57600080fd5b505af1158015610ac3573d6000803e3d6000fd5b505050508060106000600f5481526020019081526020016000209080519060200190610af0929190610dd2565b50600460009054906101000a900473ffffffffffffffffffffffffffffffffffffffff1673ffffffffffffffffffffffffffffffffffffffff1663731133e933600f54856040518463ffffffff1660e01b8152600401610b5293929190611200565b600060405180830381600087803b158015610b6c57600080fd5b505af1158015610b80573d6000803e3d6000fd5b50505050600f6000815480929190610b97906114c8565b91905055505050565b60015481565b600460009054906101000a900473ffffffffffffffffffffffffffffffffffffffff1673ffffffffffffffffffffffffffffffffffffffff1663f242432a33306006546001546040518563ffffffff1660e01b8152600401610c0b9493929190611119565b600060405180830381600087803b158015610c2557600080fd5b505af1158015610c39573d6000803e3d6000fd5b505050506001546008600083815260200190815260200160002060003373ffffffffffffffffffffffffffffffffffffffff1673ffffffffffffffffffffffffffffffffffffffff1681526020019081526020016000206000828254610c9f9190611371565b9250508190555060035442610cb49190611371565b6009600083815260200190815260200160002060003373ffffffffffffffffffffffffffffffffffffffff1673ffffffffffffffffffffffffffffffffffffffff1681526020019081526020016000208190555050565b60025481565b60035481565b600080821415610d2a5760009050610dcc565b600083600f0b1215610d3b57600080fd5b600060406fffffffffffffffffffffffffffffffff841685600f0b02901c90506000608084901c85600f0b02905077ffffffffffffffffffffffffffffffffffffffffffffffff811115610d8e57600080fd5b604081901b9050817fffffffffffffffffffffffffffffffffffffffffffffffffffffffffffffffff03811115610dc457600080fd5b818101925050505b92915050565b828054610dde90611465565b90600052602060002090601f016020900481019282610e005760008555610e47565b82601f10610e1957805160ff1916838001178555610e47565b82800160010185558215610e47579182015b82811115610e46578251825591602001919060010190610e2b565b5b509050610e549190610e58565b5090565b5b80821115610e71576000816000905550600101610e59565b5090565b6000610e88610e83846112e5565b6112c0565b905082815260208101848484011115610ea057600080fd5b610eab848285611456565b509392505050565b600081359050610ec281611604565b92915050565b600081359050610ed78161161b565b92915050565b600082601f830112610eee57600080fd5b8135610efe848260208601610e75565b91505092915050565b600081359050610f1681611632565b92915050565b600060208284031215610f2e57600080fd5b6000610f3c84828501610ec8565b91505092915050565b600060208284031215610f5757600080fd5b6000610f6584828501610f07565b91505092915050565b60008060408385031215610f8157600080fd5b6000610f8f85828601610f07565b9250506020610fa085828601610eb3565b9150509250929050565b60008060408385031215610fbd57600080fd5b6000610fcb85828601610f07565b925050602083013567ffffffffffffffff811115610fe857600080fd5b610ff485828601610edd565b9150509250929050565b600061100a83836110fb565b60208301905092915050565b61101f816113fb565b82525050565b600061103082611326565b61103a818561133e565b935061104583611316565b8060005b8381101561107657815161105d8882610ffe565b975061106883611331565b925050600181019050611049565b5085935050505092915050565b61108c8161141f565b82525050565b600061109f602083611360565b91506110aa826115af565b602082019050919050565b60006110c260008361134f565b91506110cd826115d8565b600082019050919050565b60006110e5602083611360565b91506110f0826115db565b602082019050919050565b6111048161144c565b82525050565b6111138161144c565b82525050565b600060a08201905061112e6000830187611016565b61113b6020830186611016565b611148604083018561110a565b611155606083018461110a565b8181036080830152611166816110b5565b905095945050505050565b60006080820190506111866000830186611016565b81810360208301526111988185611025565b905081810360408301526111ac8184611025565b905081810360608301526111bf816110b5565b9050949350505050565b60006060820190506111de6000830186611016565b6111eb602083018561110a565b6111f8604083018461110a565b949350505050565b60006080820190506112156000830186611016565b611222602083018561110a565b61122f604083018461110a565b8181036060830152611240816110b5565b9050949350505050565b600060208201905061125f6000830184611083565b92915050565b6000602082019050818103600083015261127e81611092565b9050919050565b6000602082019050818103600083015261129e816110d8565b9050919050565b60006020820190506112ba600083018461110a565b92915050565b60006112ca6112db565b90506112d68282611497565b919050565b6000604051905090565b600067ffffffffffffffff821115611300576112ff61156f565b5b6113098261159e565b9050602081019050919050565b6000819050602082019050919050565b600081519050919050565b6000602082019050919050565b600082825260208201905092915050565b600082825260208201905092915050565b600082825260208201905092915050565b600061137c8261144c565b91506113878361144c565b9250827fffffffffffffffffffffffffffffffffffffffffffffffffffffffffffffffff038211156113bc576113bb611511565b5b828201905092915050565b60006113d28261144c565b91506113dd8361144c565b9250828210156113f0576113ef611511565b5b828203905092915050565b60006114068261142c565b9050919050565b6000611418826113fb565b9050919050565b600081600f0b9050919050565b600073ffffffffffffffffffffffffffffffffffffffff82169050919050565b6000819050919050565b82818337600083830152505050565b6000600282049050600182168061147d57607f821691505b6020821081141561149157611490611540565b5b50919050565b6114a08261159e565b810181811067ffffffffffffffff821117156114bf576114be61156f565b5b80604052505050565b60006114d38261144c565b91507fffffffffffffffffffffffffffffffffffffffffffffffffffffffffffffffff82141561150657611505611511565b5b600182019050919050565b7f4e487b7100000000000000000000000000000000000000000000000000000000600052601160045260246000fd5b7f4e487b7100000000000000000000000000000000000000000000000000000000600052602260045260246000fd5b7f4e487b7100000000000000000000000000000000000000000000000000000000600052604160045260246000fd5b6000601f19601f8301169050919050565b7f646573696c6f3a20596f752068617665206e6f7420796574207374616b65642e600082015250565b50565b7f646573696c6f3a20596f75206d6179206e6f742079657420756e7374616b652e600082015250565b61160d816113fb565b811461161857600080fd5b50565b6116248161140d565b811461162f57600080fd5b50565b61163b8161144c565b811461164657600080fd5b5056fea2646970667358221220a6f0d66c78000ddb8761834f7b7cf374f71f8f1233764987cbe385808099193e64736f6c63430008030033",
  "immutableReferences": {},
  "source": "pragma solidity ^0.8.3; \r\n\r\nimport \"./dSocialCredits.sol\";\r\nimport \"./library/ABDKMath64x64.sol\";\r\n\r\ncontract desilo {\r\n\r\n    uint256 public groupCreationSCAmount;\r\n    uint256 public scStakeAmount;\r\n    uint256 public scSeedAmount;\r\n    uint256 public scStakePeriod;\r\n\r\n    dSocialCredits _scContract; \r\n    address _owner;\r\n    uint256 _scID = 0;\r\n    mapping(address => bool) _registered;\r\n\r\n    // mapping(entityID)\r\n    mapping(uint256 => mapping(address => uint256)) _stakedAmount; \r\n    mapping(uint256 => mapping(address => uint256)) _stakeExpiry; \r\n    mapping(uint256 => uint256) _entityToThread;\r\n    mapping(uint256 => string) _entityURI;\r\n\r\n    // mapping(threadID)\r\n    mapping(uint256 => string) _threadURI;\r\n    mapping(uint256 => mapping(uint256 => bool)) _threadGSC;\r\n    mapping(uint256 => uint256) _threadGSCCount;\r\n\r\n\r\n    // mapping(groupID => fixed128x128)\r\n    uint _groupCount = 1; \r\n    mapping(uint256 => string) _groupURI;\r\n    mapping(uint256 => int128) public gscYield;\r\n    mapping(uint256 => uint256) _gscMinAcceptance; \r\n\r\n\r\n    constructor(uint256 _scStakeAmount, int128 _scYield, uint256 _groupCreationSCAmount, uint256 _scSeedAmount, uint256 _scStakePeriod) {\r\n        gscYield[0] = _scYield;\r\n        scStakeAmount = _scStakeAmount;\r\n        groupCreationSCAmount = _groupCreationSCAmount;\r\n        scSeedAmount = _scSeedAmount;\r\n        scStakePeriod = _scStakePeriod;\r\n        _owner = msg.sender;\r\n    }\r\n\r\n    function createGroup(uint256 _initialSupply, string memory _uri) external {\r\n        _scContract.burn(msg.sender, _scID, groupCreationSCAmount);\r\n        _groupURI[_groupCount] = _uri; \r\n        _scContract.mint(msg.sender, _groupCount, _initialSupply, \"\");\r\n        _groupCount++;\r\n    }\r\n\r\n    function setSC(dSocialCredits _sc) external {\r\n        require(msg.sender == _owner);\r\n        _scContract = _sc;\r\n    }\r\n\r\n    function seedSC() external {\r\n        require(!_registered[msg.sender]);\r\n        _registered[msg.sender] = true;\r\n        _scContract.mint(msg.sender, _scID, scSeedAmount, \"\");\r\n    }\r\n\r\n    function getStaked(uint256 _commitId, address _addr) public view returns(uint256) {\r\n        return _stakedAmount[_commitId][_addr];\r\n    }\r\n\r\n    function stake(uint256 _commitId) external {\r\n        _scContract.safeTransferFrom(msg.sender, address(this), _scID, scStakeAmount, \"\");\r\n        _stakedAmount[_commitId][msg.sender] += scStakeAmount;\r\n        _stakeExpiry[_commitId][msg.sender] = block.timestamp + scStakePeriod;\r\n    }\r\n\r\n    function unstake(uint256 _commitId) external {\r\n        require(block.timestamp >= _stakeExpiry[_commitId][msg.sender], \"desilo: You may not yet unstake.\"); \r\n        require(getStaked(_commitId,msg.sender) >= 0, \"desilo: You have not yet staked.\"); \r\n        \r\n        uint256 stakedAmount = getStaked(_commitId,msg.sender);\r\n        uint256 threadID = _entityToThread[_commitId];\r\n        uint256 gscCount = _threadGSCCount[threadID];\r\n        uint256[] memory ids = new uint256[](gscCount);\r\n        uint256[] memory amounts = new uint256[](gscCount);\r\n\r\n\r\n        _stakedAmount[_commitId][msg.sender] -= stakedAmount; \r\n        _stakeExpiry[_commitId][msg.sender] = 0;\r\n\r\n        _scContract.safeTransferFrom(address(this), msg.sender, _scID, stakedAmount, \"\");\r\n        _scContract.mint(msg.sender, _scID, ABDKMath64x64.mulu(gscYield[0], stakedAmount), \"\");\r\n\r\n        uint256 count = 0;\r\n        for (uint256 i = 1; i < _groupCount; i++) {\r\n            if (_threadGSC[threadID][i]) {\r\n                ids[count] = i;\r\n                amounts[count] = ABDKMath64x64.mulu(gscYield[i], stakedAmount);\r\n                count++;\r\n            }\r\n        }\r\n        _scContract.mintBatch(msg.sender, ids, amounts, \"\");\r\n    }\r\n\r\n}",
  "sourcePath": "C:/Users/Kuan/Documents/GitHub/desilo/contracts/desilo.sol",
  "compiler": {
    "name": "solc",
    "version": "0.8.3+commit.8d00100c.Emscripten.clang"
  },
  "schemaVersion": "3.3.4",
  "updatedAt": "2021-08-05T22:28:32.812Z",
  "networkType": "ethereum",
  "devdoc": {
    "kind": "dev",
    "methods": {},
    "version": 1
  },
  "userdoc": {
    "kind": "user",
    "methods": {},
    "version": 1
  }
}