{
  "contractName": "desilo",
  "abi": [
    {
      "inputs": [
        {
          "internalType": "uint256",
          "name": "scStakeAmount",
          "type": "uint256"
        },
        {
          "internalType": "int128",
          "name": "scYield",
          "type": "int128"
        },
        {
          "internalType": "uint256",
          "name": "groupCreationSCAmount",
          "type": "uint256"
        }
      ],
      "stateMutability": "nonpayable",
      "type": "constructor"
    },
    {
      "inputs": [
        {
          "internalType": "uint256",
          "name": "_initialSupply",
          "type": "uint256"
        },
        {
          "internalType": "string",
          "name": "_uri",
          "type": "string"
        }
      ],
      "name": "createGroup",
      "outputs": [],
      "stateMutability": "nonpayable",
      "type": "function"
    },
    {
      "inputs": [
        {
          "internalType": "contract dSocialCredits",
          "name": "_sc",
          "type": "address"
        }
      ],
      "name": "setSC",
      "outputs": [],
      "stateMutability": "nonpayable",
      "type": "function"
    },
    {
      "inputs": [
        {
          "internalType": "uint256",
          "name": "_commitId",
          "type": "uint256"
        },
        {
          "internalType": "address",
          "name": "_addr",
          "type": "address"
        }
      ],
      "name": "getStaked",
      "outputs": [
        {
          "internalType": "uint256",
          "name": "",
          "type": "uint256"
        }
      ],
      "stateMutability": "view",
      "type": "function"
    },
    {
      "inputs": [
        {
          "internalType": "uint256",
          "name": "_commitId",
          "type": "uint256"
        }
      ],
      "name": "stake",
      "outputs": [],
      "stateMutability": "nonpayable",
      "type": "function"
    },
    {
      "inputs": [
        {
          "internalType": "uint256",
          "name": "_commitId",
          "type": "uint256"
        }
      ],
      "name": "unstake",
      "outputs": [],
      "stateMutability": "nonpayable",
      "type": "function"
    }
  ],
  "bytecode": "0x608060405260006004556001600c553480156200001b57600080fd5b506040516200152938038062001529833981810160405281019062000041919062000114565b81600e600080815260200190815260200160002060006101000a8154816fffffffffffffffffffffffffffffffff0219169083600f0b6fffffffffffffffffffffffffffffffff160217905550826001819055508060008190555033600360006101000a81548173ffffffffffffffffffffffffffffffffffffffff021916908373ffffffffffffffffffffffffffffffffffffffff160217905550505050620001b5565b600081519050620000f78162000181565b92915050565b6000815190506200010e816200019b565b92915050565b6000806000606084860312156200012a57600080fd5b60006200013a86828701620000fd565b93505060206200014d86828701620000e6565b92505060406200016086828701620000fd565b9150509250925092565b600081600f0b9050919050565b6000819050919050565b6200018c816200016a565b81146200019857600080fd5b50565b620001a68162000177565b8114620001b257600080fd5b50565b61136480620001c56000396000f3fe608060405234801561001057600080fd5b50600436106100575760003560e01c80632e17de781461005c57806340531d5d14610078578063907a4e1d146100a85780639fbd7cef146100c4578063a694fc3a146100e0575b600080fd5b61007660048036038101906100719190610c61565b6100fc565b005b610092600480360381019061008d9190610c8a565b6106c9565b60405161009f9190610f97565b60405180910390f35b6100c260048036038101906100bd9190610c38565b610724565b005b6100de60048036038101906100d99190610cc6565b6107c2565b005b6100fa60048036038101906100f59190610c61565b610930565b005b6006600082815260200190815260200160002060003373ffffffffffffffffffffffffffffffffffffffff1673ffffffffffffffffffffffffffffffffffffffff1681526020019081526020016000205442101561018f576040517f08c379a000000000000000000000000000000000000000000000000000000000815260040161018690610f77565b60405180910390fd5b600061019b82336106c9565b10156101dc576040517f08c379a00000000000000000000000000000000000000000000000000000000081526004016101d390610f57565b60405180910390fd5b60006101e882336106c9565b90506000600760008481526020019081526020016000205490506000600b600083815260200190815260200160002054905060008167ffffffffffffffff81111561025c577f4e487b7100000000000000000000000000000000000000000000000000000000600052604160045260246000fd5b60405190808252806020026020018201604052801561028a5781602001602082028036833780820191505090505b50905060008267ffffffffffffffff8111156102cf577f4e487b7100000000000000000000000000000000000000000000000000000000600052604160045260246000fd5b6040519080825280602002602001820160405280156102fd5781602001602082028036833780820191505090505b509050846005600088815260200190815260200160002060003373ffffffffffffffffffffffffffffffffffffffff1673ffffffffffffffffffffffffffffffffffffffff168152602001908152602001600020600082825461036091906110b9565b9250508190555060006006600088815260200190815260200160002060003373ffffffffffffffffffffffffffffffffffffffff1673ffffffffffffffffffffffffffffffffffffffff16815260200190815260200160002081905550600260009054906101000a900473ffffffffffffffffffffffffffffffffffffffff1673ffffffffffffffffffffffffffffffffffffffff1663f242432a3033600454896040518563ffffffff1660e01b81526004016104209493929190610e26565b600060405180830381600087803b15801561043a57600080fd5b505af115801561044e573d6000803e3d6000fd5b50505050600260009054906101000a900473ffffffffffffffffffffffffffffffffffffffff1673ffffffffffffffffffffffffffffffffffffffff1663731133e9336004546104be600e600080815260200190815260200160002060009054906101000a9004600f0b8a610a33565b6040518463ffffffff1660e01b81526004016104dc93929190610f0d565b600060405180830381600087803b1580156104f657600080fd5b505af115801561050a573d6000803e3d6000fd5b50505050600080600190505b600c5481101561062e57600a6000878152602001908152602001600020600082815260200190815260200160002060009054906101000a900460ff161561061b5780848381518110610591577f4e487b7100000000000000000000000000000000000000000000000000000000600052603260045260246000fd5b6020026020010181815250506105c7600e600083815260200190815260200160002060009054906101000a9004600f0b88610a33565b838381518110610600577f4e487b7100000000000000000000000000000000000000000000000000000000600052603260045260246000fd5b6020026020010181815250508180610617906111ad565b9250505b8080610626906111ad565b915050610516565b50600260009054906101000a900473ffffffffffffffffffffffffffffffffffffffff1673ffffffffffffffffffffffffffffffffffffffff16631f7fdffa3385856040518463ffffffff1660e01b815260040161068e93929190610e7e565b600060405180830381600087803b1580156106a857600080fd5b505af11580156106bc573d6000803e3d6000fd5b5050505050505050505050565b60006005600084815260200190815260200160002060008373ffffffffffffffffffffffffffffffffffffffff1673ffffffffffffffffffffffffffffffffffffffff16815260200190815260200160002054905092915050565b600360009054906101000a900473ffffffffffffffffffffffffffffffffffffffff1673ffffffffffffffffffffffffffffffffffffffff163373ffffffffffffffffffffffffffffffffffffffff161461077e57600080fd5b80600260006101000a81548173ffffffffffffffffffffffffffffffffffffffff021916908373ffffffffffffffffffffffffffffffffffffffff16021790555050565b600260009054906101000a900473ffffffffffffffffffffffffffffffffffffffff1673ffffffffffffffffffffffffffffffffffffffff1663f5298aca336004546000546040518463ffffffff1660e01b815260040161082593929190610ed6565b600060405180830381600087803b15801561083f57600080fd5b505af1158015610853573d6000803e3d6000fd5b5050505080600d6000600c5481526020019081526020016000209080519060200190610880929190610aee565b50600260009054906101000a900473ffffffffffffffffffffffffffffffffffffffff1673ffffffffffffffffffffffffffffffffffffffff1663731133e933600c54856040518463ffffffff1660e01b81526004016108e293929190610f0d565b600060405180830381600087803b1580156108fc57600080fd5b505af1158015610910573d6000803e3d6000fd5b50505050600c6000815480929190610927906111ad565b91905055505050565b600260009054906101000a900473ffffffffffffffffffffffffffffffffffffffff1673ffffffffffffffffffffffffffffffffffffffff1663f242432a33306004546001546040518563ffffffff1660e01b81526004016109959493929190610e26565b600060405180830381600087803b1580156109af57600080fd5b505af11580156109c3573d6000803e3d6000fd5b505050506001546005600083815260200190815260200160002060003373ffffffffffffffffffffffffffffffffffffffff1673ffffffffffffffffffffffffffffffffffffffff1681526020019081526020016000206000828254610a299190611063565b9250508190555050565b600080821415610a465760009050610ae8565b600083600f0b1215610a5757600080fd5b600060406fffffffffffffffffffffffffffffffff841685600f0b02901c90506000608084901c85600f0b02905077ffffffffffffffffffffffffffffffffffffffffffffffff811115610aaa57600080fd5b604081901b9050817fffffffffffffffffffffffffffffffffffffffffffffffffffffffffffffffff03811115610ae057600080fd5b818101925050505b92915050565b828054610afa9061114a565b90600052602060002090601f016020900481019282610b1c5760008555610b63565b82601f10610b3557805160ff1916838001178555610b63565b82800160010185558215610b63579182015b82811115610b62578251825591602001919060010190610b47565b5b509050610b709190610b74565b5090565b5b80821115610b8d576000816000905550600101610b75565b5090565b6000610ba4610b9f84610fd7565b610fb2565b905082815260208101848484011115610bbc57600080fd5b610bc784828561113b565b509392505050565b600081359050610bde816112e9565b92915050565b600081359050610bf381611300565b92915050565b600082601f830112610c0a57600080fd5b8135610c1a848260208601610b91565b91505092915050565b600081359050610c3281611317565b92915050565b600060208284031215610c4a57600080fd5b6000610c5884828501610be4565b91505092915050565b600060208284031215610c7357600080fd5b6000610c8184828501610c23565b91505092915050565b60008060408385031215610c9d57600080fd5b6000610cab85828601610c23565b9250506020610cbc85828601610bcf565b9150509250929050565b60008060408385031215610cd957600080fd5b6000610ce785828601610c23565b925050602083013567ffffffffffffffff811115610d0457600080fd5b610d1085828601610bf9565b9150509250929050565b6000610d268383610e08565b60208301905092915050565b610d3b816110ed565b82525050565b6000610d4c82611018565b610d568185611030565b9350610d6183611008565b8060005b83811015610d92578151610d798882610d1a565b9750610d8483611023565b925050600181019050610d65565b5085935050505092915050565b6000610dac602083611052565b9150610db782611294565b602082019050919050565b6000610dcf600083611041565b9150610dda826112bd565b600082019050919050565b6000610df2602083611052565b9150610dfd826112c0565b602082019050919050565b610e1181611131565b82525050565b610e2081611131565b82525050565b600060a082019050610e3b6000830187610d32565b610e486020830186610d32565b610e556040830185610e17565b610e626060830184610e17565b8181036080830152610e7381610dc2565b905095945050505050565b6000608082019050610e936000830186610d32565b8181036020830152610ea58185610d41565b90508181036040830152610eb98184610d41565b90508181036060830152610ecc81610dc2565b9050949350505050565b6000606082019050610eeb6000830186610d32565b610ef86020830185610e17565b610f056040830184610e17565b949350505050565b6000608082019050610f226000830186610d32565b610f2f6020830185610e17565b610f3c6040830184610e17565b8181036060830152610f4d81610dc2565b9050949350505050565b60006020820190508181036000830152610f7081610d9f565b9050919050565b60006020820190508181036000830152610f9081610de5565b9050919050565b6000602082019050610fac6000830184610e17565b92915050565b6000610fbc610fcd565b9050610fc8828261117c565b919050565b6000604051905090565b600067ffffffffffffffff821115610ff257610ff1611254565b5b610ffb82611283565b9050602081019050919050565b6000819050602082019050919050565b600081519050919050565b6000602082019050919050565b600082825260208201905092915050565b600082825260208201905092915050565b600082825260208201905092915050565b600061106e82611131565b915061107983611131565b9250827fffffffffffffffffffffffffffffffffffffffffffffffffffffffffffffffff038211156110ae576110ad6111f6565b5b828201905092915050565b60006110c482611131565b91506110cf83611131565b9250828210156110e2576110e16111f6565b5b828203905092915050565b60006110f882611111565b9050919050565b600061110a826110ed565b9050919050565b600073ffffffffffffffffffffffffffffffffffffffff82169050919050565b6000819050919050565b82818337600083830152505050565b6000600282049050600182168061116257607f821691505b6020821081141561117657611175611225565b5b50919050565b61118582611283565b810181811067ffffffffffffffff821117156111a4576111a3611254565b5b80604052505050565b60006111b882611131565b91507fffffffffffffffffffffffffffffffffffffffffffffffffffffffffffffffff8214156111eb576111ea6111f6565b5b600182019050919050565b7f4e487b7100000000000000000000000000000000000000000000000000000000600052601160045260246000fd5b7f4e487b7100000000000000000000000000000000000000000000000000000000600052602260045260246000fd5b7f4e487b7100000000000000000000000000000000000000000000000000000000600052604160045260246000fd5b6000601f19601f8301169050919050565b7f646573696c6f3a20596f752068617665206e6f7420796574207374616b65642e600082015250565b50565b7f646573696c6f3a20596f75206d6179206e6f742079657420756e7374616b652e600082015250565b6112f2816110ed565b81146112fd57600080fd5b50565b611309816110ff565b811461131457600080fd5b50565b61132081611131565b811461132b57600080fd5b5056fea264697066735822122096214c5071131c208593fae03127e3996a1aea70696d2ae3bd218fb7e3f683dd64736f6c63430008030033",
  "immutableReferences": {},
  "source": "pragma solidity ^0.8.3; \r\n\r\nimport \"./dSocialCredits.sol\";\r\nimport \"./library/ABDKMath64x64.sol\";\r\n\r\ncontract desilo {\r\n\r\n    uint256 _groupCreationSCAmount;\r\n    uint256 _scStakeAmount;\r\n    dSocialCredits _scContract; \r\n    address _owner;\r\n    uint256 _scID = 0;\r\n\r\n    // mapping(entityID)\r\n    mapping(uint256 => mapping(address => uint256)) _stakedAmount; \r\n    mapping(uint256 => mapping(address => uint256)) _stakeExpiry; \r\n    mapping(uint256 => uint256) _entityToThread;\r\n    mapping(uint256 => string) _entityURI;\r\n\r\n    // mapping(threadID)\r\n    mapping(uint256 => string) _threadURI;\r\n    mapping(uint256 => mapping(uint256 => bool)) _threadGSC;\r\n    mapping(uint256 => uint256) _threadGSCCount;\r\n\r\n\r\n    // mapping(groupID => fixed128x128)\r\n    uint _groupCount = 1; \r\n    mapping(uint256 => string) _groupURI;\r\n    mapping(uint256 => int128) _gscYield;\r\n    mapping(uint256 => uint256) _gscMinAcceptance; \r\n\r\n\r\n    constructor(uint256 scStakeAmount, int128 scYield, uint256 groupCreationSCAmount) {\r\n        _gscYield[0] = scYield;\r\n        _scStakeAmount = scStakeAmount;\r\n        _groupCreationSCAmount = groupCreationSCAmount;\r\n        _owner = msg.sender;\r\n    }\r\n\r\n    function createGroup(uint256 _initialSupply, string memory _uri) external {\r\n        _scContract.burn(msg.sender, _scID, _groupCreationSCAmount);\r\n        _groupURI[_groupCount] = _uri; \r\n        _scContract.mint(msg.sender, _groupCount, _initialSupply, \"\");\r\n        _groupCount++;\r\n    }\r\n\r\n    function setSC(dSocialCredits _sc) external {\r\n        require(msg.sender == _owner);\r\n        _scContract = _sc;\r\n    }\r\n\r\n    function getStaked(uint256 _commitId, address _addr) public view returns(uint256) {\r\n        return _stakedAmount[_commitId][_addr];\r\n    }\r\n\r\n    function stake(uint256 _commitId) external {\r\n        _scContract.safeTransferFrom(msg.sender, address(this), _scID, _scStakeAmount, \"\");\r\n        _stakedAmount[_commitId][msg.sender] += _scStakeAmount;\r\n    }\r\n\r\n    function unstake(uint256 _commitId) external {\r\n        require(block.timestamp >= _stakeExpiry[_commitId][msg.sender], \"desilo: You may not yet unstake.\"); \r\n        require(getStaked(_commitId,msg.sender) >= 0, \"desilo: You have not yet staked.\"); \r\n        \r\n        uint256 stakedAmount = getStaked(_commitId,msg.sender);\r\n        uint256 threadID = _entityToThread[_commitId];\r\n        uint256 gscCount = _threadGSCCount[threadID];\r\n        uint256[] memory ids = new uint256[](gscCount);\r\n        uint256[] memory amounts = new uint256[](gscCount);\r\n\r\n\r\n        _stakedAmount[_commitId][msg.sender] -= stakedAmount; \r\n        _stakeExpiry[_commitId][msg.sender] = 0;\r\n\r\n        _scContract.safeTransferFrom(address(this), msg.sender, _scID, stakedAmount, \"\");\r\n        _scContract.mint(msg.sender, _scID, ABDKMath64x64.mulu(_gscYield[0], stakedAmount), \"\");\r\n\r\n        uint256 count = 0;\r\n        for (uint256 i = 1; i < _groupCount; i++) {\r\n            if (_threadGSC[threadID][i]) {\r\n                ids[count] = i;\r\n                amounts[count] = ABDKMath64x64.mulu(_gscYield[i], stakedAmount);\r\n                count++;\r\n            }\r\n        }\r\n        _scContract.mintBatch(msg.sender, ids, amounts, \"\");\r\n    }\r\n\r\n}",
  "sourcePath": "C:/Users/Kuan/Documents/GitHub/desilo/contracts/desilo.sol",
  "compiler": {
    "name": "solc",
    "version": "0.8.3+commit.8d00100c.Emscripten.clang"
  },
  "schemaVersion": "3.3.4",
  "updatedAt": "2021-08-05T21:39:13.993Z",
  "devdoc": {
    "kind": "dev",
    "methods": {},
    "version": 1
  },
  "userdoc": {
    "kind": "user",
    "methods": {},
    "version": 1
  }
}