{
  "contractName": "dSocialCredits",
  "abi": [
    {
      "inputs": [
        {
          "internalType": "address",
          "name": "_adm",
          "type": "address"
        }
      ],
      "stateMutability": "nonpayable",
      "type": "constructor"
    },
    {
      "anonymous": false,
      "inputs": [
        {
          "indexed": true,
          "internalType": "address",
          "name": "account",
          "type": "address"
        },
        {
          "indexed": true,
          "internalType": "address",
          "name": "operator",
          "type": "address"
        },
        {
          "indexed": false,
          "internalType": "bool",
          "name": "approved",
          "type": "bool"
        }
      ],
      "name": "ApprovalForAll",
      "type": "event"
    },
    {
      "anonymous": false,
      "inputs": [
        {
          "indexed": true,
          "internalType": "address",
          "name": "operator",
          "type": "address"
        },
        {
          "indexed": true,
          "internalType": "address",
          "name": "from",
          "type": "address"
        },
        {
          "indexed": true,
          "internalType": "address",
          "name": "to",
          "type": "address"
        },
        {
          "indexed": false,
          "internalType": "uint256[]",
          "name": "ids",
          "type": "uint256[]"
        },
        {
          "indexed": false,
          "internalType": "uint256[]",
          "name": "values",
          "type": "uint256[]"
        }
      ],
      "name": "TransferBatch",
      "type": "event"
    },
    {
      "anonymous": false,
      "inputs": [
        {
          "indexed": true,
          "internalType": "address",
          "name": "operator",
          "type": "address"
        },
        {
          "indexed": true,
          "internalType": "address",
          "name": "from",
          "type": "address"
        },
        {
          "indexed": true,
          "internalType": "address",
          "name": "to",
          "type": "address"
        },
        {
          "indexed": false,
          "internalType": "uint256",
          "name": "id",
          "type": "uint256"
        },
        {
          "indexed": false,
          "internalType": "uint256",
          "name": "value",
          "type": "uint256"
        }
      ],
      "name": "TransferSingle",
      "type": "event"
    },
    {
      "anonymous": false,
      "inputs": [
        {
          "indexed": false,
          "internalType": "string",
          "name": "value",
          "type": "string"
        },
        {
          "indexed": true,
          "internalType": "uint256",
          "name": "id",
          "type": "uint256"
        }
      ],
      "name": "URI",
      "type": "event"
    },
    {
      "inputs": [
        {
          "internalType": "address",
          "name": "account",
          "type": "address"
        },
        {
          "internalType": "uint256",
          "name": "id",
          "type": "uint256"
        }
      ],
      "name": "balanceOf",
      "outputs": [
        {
          "internalType": "uint256",
          "name": "",
          "type": "uint256"
        }
      ],
      "stateMutability": "view",
      "type": "function"
    },
    {
      "inputs": [
        {
          "internalType": "address[]",
          "name": "accounts",
          "type": "address[]"
        },
        {
          "internalType": "uint256[]",
          "name": "ids",
          "type": "uint256[]"
        }
      ],
      "name": "balanceOfBatch",
      "outputs": [
        {
          "internalType": "uint256[]",
          "name": "",
          "type": "uint256[]"
        }
      ],
      "stateMutability": "view",
      "type": "function"
    },
    {
      "inputs": [
        {
          "internalType": "address",
          "name": "account",
          "type": "address"
        },
        {
          "internalType": "address",
          "name": "operator",
          "type": "address"
        }
      ],
      "name": "isApprovedForAll",
      "outputs": [
        {
          "internalType": "bool",
          "name": "",
          "type": "bool"
        }
      ],
      "stateMutability": "view",
      "type": "function"
    },
    {
      "inputs": [
        {
          "internalType": "address",
          "name": "operator",
          "type": "address"
        },
        {
          "internalType": "bool",
          "name": "approved",
          "type": "bool"
        }
      ],
      "name": "setApprovalForAll",
      "outputs": [],
      "stateMutability": "nonpayable",
      "type": "function"
    },
    {
      "inputs": [
        {
          "internalType": "bytes4",
          "name": "interfaceId",
          "type": "bytes4"
        }
      ],
      "name": "supportsInterface",
      "outputs": [
        {
          "internalType": "bool",
          "name": "",
          "type": "bool"
        }
      ],
      "stateMutability": "view",
      "type": "function"
    },
    {
      "inputs": [
        {
          "internalType": "uint256",
          "name": "",
          "type": "uint256"
        }
      ],
      "name": "uri",
      "outputs": [
        {
          "internalType": "string",
          "name": "",
          "type": "string"
        }
      ],
      "stateMutability": "view",
      "type": "function"
    },
    {
      "inputs": [
        {
          "internalType": "address",
          "name": "from",
          "type": "address"
        },
        {
          "internalType": "address",
          "name": "to",
          "type": "address"
        },
        {
          "internalType": "uint256",
          "name": "id",
          "type": "uint256"
        },
        {
          "internalType": "uint256",
          "name": "amount",
          "type": "uint256"
        },
        {
          "internalType": "bytes",
          "name": "data",
          "type": "bytes"
        }
      ],
      "name": "safeTransferFrom",
      "outputs": [],
      "stateMutability": "nonpayable",
      "type": "function"
    },
    {
      "inputs": [
        {
          "internalType": "address",
          "name": "from",
          "type": "address"
        },
        {
          "internalType": "address",
          "name": "to",
          "type": "address"
        },
        {
          "internalType": "uint256[]",
          "name": "ids",
          "type": "uint256[]"
        },
        {
          "internalType": "uint256[]",
          "name": "amounts",
          "type": "uint256[]"
        },
        {
          "internalType": "bytes",
          "name": "data",
          "type": "bytes"
        }
      ],
      "name": "safeBatchTransferFrom",
      "outputs": [],
      "stateMutability": "nonpayable",
      "type": "function"
    },
    {
      "inputs": [
        {
          "internalType": "address",
          "name": "account",
          "type": "address"
        },
        {
          "internalType": "uint256",
          "name": "id",
          "type": "uint256"
        },
        {
          "internalType": "uint256",
          "name": "amount",
          "type": "uint256"
        }
      ],
      "name": "burn",
      "outputs": [],
      "stateMutability": "nonpayable",
      "type": "function"
    },
    {
      "inputs": [
        {
          "internalType": "address",
          "name": "account",
          "type": "address"
        },
        {
          "internalType": "uint256",
          "name": "id",
          "type": "uint256"
        },
        {
          "internalType": "uint256",
          "name": "amount",
          "type": "uint256"
        },
        {
          "internalType": "bytes",
          "name": "data",
          "type": "bytes"
        }
      ],
      "name": "mint",
      "outputs": [],
      "stateMutability": "nonpayable",
      "type": "function"
    },
    {
      "inputs": [
        {
          "internalType": "address",
          "name": "to",
          "type": "address"
        },
        {
          "internalType": "uint256[]",
          "name": "ids",
          "type": "uint256[]"
        },
        {
          "internalType": "uint256[]",
          "name": "amounts",
          "type": "uint256[]"
        },
        {
          "internalType": "bytes",
          "name": "data",
          "type": "bytes"
        }
      ],
      "name": "mintBatch",
      "outputs": [],
      "stateMutability": "nonpayable",
      "type": "function"
    }
  ],
  "bytecode": "0x60806040523480156200001157600080fd5b50604051620034be380380620034be833981810160405281019062000037919062000184565b604051806020016040528060008152506200005881620000a160201b60201c565b5080600360006101000a81548173ffffffffffffffffffffffffffffffffffffffff021916908373ffffffffffffffffffffffffffffffffffffffff1602179055505062000263565b8060029080519060200190620000b9929190620000bd565b5050565b828054620000cb90620001e4565b90600052602060002090601f016020900481019282620000ef57600085556200013b565b82601f106200010a57805160ff19168380011785556200013b565b828001600101855582156200013b579182015b828111156200013a5782518255916020019190600101906200011d565b5b5090506200014a91906200014e565b5090565b5b80821115620001695760008160009055506001016200014f565b5090565b6000815190506200017e8162000249565b92915050565b6000602082840312156200019757600080fd5b6000620001a7848285016200016d565b91505092915050565b6000620001bd82620001c4565b9050919050565b600073ffffffffffffffffffffffffffffffffffffffff82169050919050565b60006002820490506001821680620001fd57607f821691505b602082108114156200021457620002136200021a565b5b50919050565b7f4e487b7100000000000000000000000000000000000000000000000000000000600052602260045260246000fd5b6200025481620001b0565b81146200026057600080fd5b50565b61324b80620002736000396000f3fe608060405234801561001057600080fd5b50600436106100a85760003560e01c80634e1273f4116100715780634e1273f414610175578063731133e9146101a5578063a22cb465146101c1578063e985e9c5146101dd578063f242432a1461020d578063f5298aca14610229576100a8565b8062fdd58e146100ad57806301ffc9a7146100dd5780630e89341c1461010d5780631f7fdffa1461013d5780632eb2c2d614610159575b600080fd5b6100c760048036038101906100c291906121b4565b610245565b6040516100d49190612984565b60405180910390f35b6100f760048036038101906100f29190612326565b61030e565b60405161010491906127a7565b60405180910390f35b61012760048036038101906101229190612378565b6103f0565b60405161013491906127c2565b60405180910390f35b610157600480360381019061015291906120cd565b610484565b005b610173600480360381019061016e9190611f7f565b610526565b005b61018f600480360381019061018a91906122ba565b610622565b60405161019c919061274e565b60405180910390f35b6101bf60048036038101906101ba919061223f565b6107d3565b005b6101db60048036038101906101d69190612178565b610875565b005b6101f760048036038101906101f29190611f43565b6109f6565b60405161020491906127a7565b60405180910390f35b6102276004803603810190610222919061203e565b610a8a565b005b610243600480360381019061023e91906121f0565b610b86565b005b60008073ffffffffffffffffffffffffffffffffffffffff168373ffffffffffffffffffffffffffffffffffffffff1614156102b6576040517f08c379a00000000000000000000000000000000000000000000000000000000081526004016102ad90612824565b60405180910390fd5b60008083815260200190815260200160002060008473ffffffffffffffffffffffffffffffffffffffff1673ffffffffffffffffffffffffffffffffffffffff16815260200190815260200160002054905092915050565b60007fd9b67a26000000000000000000000000000000000000000000000000000000007bffffffffffffffffffffffffffffffffffffffffffffffffffffffff1916827bffffffffffffffffffffffffffffffffffffffffffffffffffffffff191614806103d957507f0e89341c000000000000000000000000000000000000000000000000000000007bffffffffffffffffffffffffffffffffffffffffffffffffffffffff1916827bffffffffffffffffffffffffffffffffffffffffffffffffffffffff1916145b806103e957506103e882610c26565b5b9050919050565b6060600280546103ff90612bf3565b80601f016020809104026020016040519081016040528092919081815260200182805461042b90612bf3565b80156104785780601f1061044d57610100808354040283529160200191610478565b820191906000526020600020905b81548152906001019060200180831161045b57829003601f168201915b50505050509050919050565b600360009054906101000a900473ffffffffffffffffffffffffffffffffffffffff1673ffffffffffffffffffffffffffffffffffffffff163373ffffffffffffffffffffffffffffffffffffffff1614610514576040517f08c379a000000000000000000000000000000000000000000000000000000000815260040161050b906128c4565b60405180910390fd5b61052084848484610c90565b50505050565b600360009054906101000a900473ffffffffffffffffffffffffffffffffffffffff1673ffffffffffffffffffffffffffffffffffffffff163373ffffffffffffffffffffffffffffffffffffffff1614806105cf5750600360009054906101000a900473ffffffffffffffffffffffffffffffffffffffff1673ffffffffffffffffffffffffffffffffffffffff168473ffffffffffffffffffffffffffffffffffffffff16145b61060e576040517f08c379a0000000000000000000000000000000000000000000000000000000008152600401610605906128e4565b60405180910390fd5b61061b8585858585610efa565b5050505050565b60608151835114610668576040517f08c379a000000000000000000000000000000000000000000000000000000000815260040161065f90612924565b60405180910390fd5b6000835167ffffffffffffffff8111156106ab577f4e487b7100000000000000000000000000000000000000000000000000000000600052604160045260246000fd5b6040519080825280602002602001820160405280156106d95781602001602082028036833780820191505090505b50905060005b84518110156107c857610772858281518110610724577f4e487b7100000000000000000000000000000000000000000000000000000000600052603260045260246000fd5b6020026020010151858381518110610765577f4e487b7100000000000000000000000000000000000000000000000000000000600052603260045260246000fd5b6020026020010151610245565b8282815181106107ab577f4e487b7100000000000000000000000000000000000000000000000000000000600052603260045260246000fd5b602002602001018181525050806107c190612c56565b90506106df565b508091505092915050565b600360009054906101000a900473ffffffffffffffffffffffffffffffffffffffff1673ffffffffffffffffffffffffffffffffffffffff163373ffffffffffffffffffffffffffffffffffffffff1614610863576040517f08c379a000000000000000000000000000000000000000000000000000000000815260040161085a906128c4565b60405180910390fd5b61086f8484848461125a565b50505050565b8173ffffffffffffffffffffffffffffffffffffffff166108946113f0565b73ffffffffffffffffffffffffffffffffffffffff1614156108eb576040517f08c379a00000000000000000000000000000000000000000000000000000000081526004016108e290612904565b60405180910390fd5b80600160006108f86113f0565b73ffffffffffffffffffffffffffffffffffffffff1673ffffffffffffffffffffffffffffffffffffffff16815260200190815260200160002060008473ffffffffffffffffffffffffffffffffffffffff1673ffffffffffffffffffffffffffffffffffffffff16815260200190815260200160002060006101000a81548160ff0219169083151502179055508173ffffffffffffffffffffffffffffffffffffffff166109a56113f0565b73ffffffffffffffffffffffffffffffffffffffff167f17307eab39ab6107e8899845ad3d59bd9653f200f220920489ca2b5937696c31836040516109ea91906127a7565b60405180910390a35050565b6000600160008473ffffffffffffffffffffffffffffffffffffffff1673ffffffffffffffffffffffffffffffffffffffff16815260200190815260200160002060008373ffffffffffffffffffffffffffffffffffffffff1673ffffffffffffffffffffffffffffffffffffffff16815260200190815260200160002060009054906101000a900460ff16905092915050565b600360009054906101000a900473ffffffffffffffffffffffffffffffffffffffff1673ffffffffffffffffffffffffffffffffffffffff163373ffffffffffffffffffffffffffffffffffffffff161480610b335750600360009054906101000a900473ffffffffffffffffffffffffffffffffffffffff1673ffffffffffffffffffffffffffffffffffffffff168473ffffffffffffffffffffffffffffffffffffffff16145b610b72576040517f08c379a0000000000000000000000000000000000000000000000000000000008152600401610b69906128e4565b60405180910390fd5b610b7f85858585856113f8565b5050505050565b600360009054906101000a900473ffffffffffffffffffffffffffffffffffffffff1673ffffffffffffffffffffffffffffffffffffffff163373ffffffffffffffffffffffffffffffffffffffff1614610c16576040517f08c379a0000000000000000000000000000000000000000000000000000000008152600401610c0d906128c4565b60405180910390fd5b610c2183838361167a565b505050565b60007f01ffc9a7000000000000000000000000000000000000000000000000000000007bffffffffffffffffffffffffffffffffffffffffffffffffffffffff1916827bffffffffffffffffffffffffffffffffffffffffffffffffffffffff1916149050919050565b600073ffffffffffffffffffffffffffffffffffffffff168473ffffffffffffffffffffffffffffffffffffffff161415610d00576040517f08c379a0000000000000000000000000000000000000000000000000000000008152600401610cf790612964565b60405180910390fd5b8151835114610d44576040517f08c379a0000000000000000000000000000000000000000000000000000000008152600401610d3b90612944565b60405180910390fd5b6000610d4e6113f0565b9050610d5f81600087878787611897565b60005b8451811015610e6457838181518110610da4577f4e487b7100000000000000000000000000000000000000000000000000000000600052603260045260246000fd5b6020026020010151600080878481518110610de8577f4e487b7100000000000000000000000000000000000000000000000000000000600052603260045260246000fd5b6020026020010151815260200190815260200160002060008873ffffffffffffffffffffffffffffffffffffffff1673ffffffffffffffffffffffffffffffffffffffff1681526020019081526020016000206000828254610e4a9190612ae7565b925050819055508080610e5c90612c56565b915050610d62565b508473ffffffffffffffffffffffffffffffffffffffff16600073ffffffffffffffffffffffffffffffffffffffff168273ffffffffffffffffffffffffffffffffffffffff167f4a39dc06d4c0dbc64b70af90fd698a233a518aa5d07e595d983b8c0526c8f7fb8787604051610edc929190612770565b60405180910390a4610ef38160008787878761189f565b5050505050565b8151835114610f3e576040517f08c379a0000000000000000000000000000000000000000000000000000000008152600401610f3590612944565b60405180910390fd5b600073ffffffffffffffffffffffffffffffffffffffff168473ffffffffffffffffffffffffffffffffffffffff161415610fae576040517f08c379a0000000000000000000000000000000000000000000000000000000008152600401610fa590612864565b60405180910390fd5b6000610fb86113f0565b9050610fc8818787878787611897565b60005b84518110156111c557600085828151811061100f577f4e487b7100000000000000000000000000000000000000000000000000000000600052603260045260246000fd5b602002602001015190506000858381518110611054577f4e487b7100000000000000000000000000000000000000000000000000000000600052603260045260246000fd5b60200260200101519050600080600084815260200190815260200160002060008b73ffffffffffffffffffffffffffffffffffffffff1673ffffffffffffffffffffffffffffffffffffffff168152602001908152602001600020549050818110156110f5576040517f08c379a00000000000000000000000000000000000000000000000000000000081526004016110ec906128a4565b60405180910390fd5b81810360008085815260200190815260200160002060008c73ffffffffffffffffffffffffffffffffffffffff1673ffffffffffffffffffffffffffffffffffffffff168152602001908152602001600020819055508160008085815260200190815260200160002060008b73ffffffffffffffffffffffffffffffffffffffff1673ffffffffffffffffffffffffffffffffffffffff16815260200190815260200160002060008282546111aa9190612ae7565b92505081905550505050806111be90612c56565b9050610fcb565b508473ffffffffffffffffffffffffffffffffffffffff168673ffffffffffffffffffffffffffffffffffffffff168273ffffffffffffffffffffffffffffffffffffffff167f4a39dc06d4c0dbc64b70af90fd698a233a518aa5d07e595d983b8c0526c8f7fb878760405161123c929190612770565b60405180910390a461125281878787878761189f565b505050505050565b600073ffffffffffffffffffffffffffffffffffffffff168473ffffffffffffffffffffffffffffffffffffffff1614156112ca576040517f08c379a00000000000000000000000000000000000000000000000000000000081526004016112c190612964565b60405180910390fd5b60006112d46113f0565b90506112f5816000876112e688611a86565b6112ef88611a86565b87611897565b8260008086815260200190815260200160002060008773ffffffffffffffffffffffffffffffffffffffff1673ffffffffffffffffffffffffffffffffffffffff16815260200190815260200160002060008282546113549190612ae7565b925050819055508473ffffffffffffffffffffffffffffffffffffffff16600073ffffffffffffffffffffffffffffffffffffffff168273ffffffffffffffffffffffffffffffffffffffff167fc3d58168c5ae7397731d063d5bbf3d657854427343f4c083240f7aacaa2d0f6287876040516113d292919061299f565b60405180910390a46113e981600087878787611b4c565b5050505050565b600033905090565b600073ffffffffffffffffffffffffffffffffffffffff168473ffffffffffffffffffffffffffffffffffffffff161415611468576040517f08c379a000000000000000000000000000000000000000000000000000000000815260040161145f90612864565b60405180910390fd5b60006114726113f0565b905061149281878761148388611a86565b61148c88611a86565b87611897565b600080600086815260200190815260200160002060008873ffffffffffffffffffffffffffffffffffffffff1673ffffffffffffffffffffffffffffffffffffffff16815260200190815260200160002054905083811015611529576040517f08c379a0000000000000000000000000000000000000000000000000000000008152600401611520906128a4565b60405180910390fd5b83810360008087815260200190815260200160002060008973ffffffffffffffffffffffffffffffffffffffff1673ffffffffffffffffffffffffffffffffffffffff168152602001908152602001600020819055508360008087815260200190815260200160002060008873ffffffffffffffffffffffffffffffffffffffff1673ffffffffffffffffffffffffffffffffffffffff16815260200190815260200160002060008282546115de9190612ae7565b925050819055508573ffffffffffffffffffffffffffffffffffffffff168773ffffffffffffffffffffffffffffffffffffffff168373ffffffffffffffffffffffffffffffffffffffff167fc3d58168c5ae7397731d063d5bbf3d657854427343f4c083240f7aacaa2d0f62888860405161165b92919061299f565b60405180910390a4611671828888888888611b4c565b50505050505050565b600073ffffffffffffffffffffffffffffffffffffffff168373ffffffffffffffffffffffffffffffffffffffff1614156116ea576040517f08c379a00000000000000000000000000000000000000000000000000000000081526004016116e190612884565b60405180910390fd5b60006116f46113f0565b90506117248185600061170687611a86565b61170f87611a86565b60405180602001604052806000815250611897565b600080600085815260200190815260200160002060008673ffffffffffffffffffffffffffffffffffffffff1673ffffffffffffffffffffffffffffffffffffffff168152602001908152602001600020549050828110156117bb576040517f08c379a00000000000000000000000000000000000000000000000000000000081526004016117b290612844565b60405180910390fd5b82810360008086815260200190815260200160002060008773ffffffffffffffffffffffffffffffffffffffff1673ffffffffffffffffffffffffffffffffffffffff16815260200190815260200160002081905550600073ffffffffffffffffffffffffffffffffffffffff168573ffffffffffffffffffffffffffffffffffffffff168373ffffffffffffffffffffffffffffffffffffffff167fc3d58168c5ae7397731d063d5bbf3d657854427343f4c083240f7aacaa2d0f62878760405161188892919061299f565b60405180910390a45050505050565b505050505050565b6118be8473ffffffffffffffffffffffffffffffffffffffff16611d33565b15611a7e578373ffffffffffffffffffffffffffffffffffffffff1663bc197c8187878686866040518663ffffffff1660e01b815260040161190495949392919061268c565b602060405180830381600087803b15801561191e57600080fd5b505af192505050801561194f57506040513d601f19601f8201168201806040525081019061194c919061234f565b60015b6119f55761195b612d2c565b806308c379a014156119b85750611970613123565b8061197b57506119ba565b806040517f08c379a00000000000000000000000000000000000000000000000000000000081526004016119af91906127c2565b60405180910390fd5b505b6040517f08c379a00000000000000000000000000000000000000000000000000000000081526004016119ec906127e4565b60405180910390fd5b63bc197c8160e01b7bffffffffffffffffffffffffffffffffffffffffffffffffffffffff1916817bffffffffffffffffffffffffffffffffffffffffffffffffffffffff191614611a7c576040517f08c379a0000000000000000000000000000000000000000000000000000000008152600401611a7390612804565b60405180910390fd5b505b505050505050565b60606000600167ffffffffffffffff811115611acb577f4e487b7100000000000000000000000000000000000000000000000000000000600052604160045260246000fd5b604051908082528060200260200182016040528015611af95781602001602082028036833780820191505090505b5090508281600081518110611b37577f4e487b7100000000000000000000000000000000000000000000000000000000600052603260045260246000fd5b60200260200101818152505080915050919050565b611b6b8473ffffffffffffffffffffffffffffffffffffffff16611d33565b15611d2b578373ffffffffffffffffffffffffffffffffffffffff1663f23a6e6187878686866040518663ffffffff1660e01b8152600401611bb19594939291906126f4565b602060405180830381600087803b158015611bcb57600080fd5b505af1925050508015611bfc57506040513d601f19601f82011682018060405250810190611bf9919061234f565b60015b611ca257611c08612d2c565b806308c379a01415611c655750611c1d613123565b80611c285750611c67565b806040517f08c379a0000000000000000000000000000000000000000000000000000000008152600401611c5c91906127c2565b60405180910390fd5b505b6040517f08c379a0000000000000000000000000000000000000000000000000000000008152600401611c99906127e4565b60405180910390fd5b63f23a6e6160e01b7bffffffffffffffffffffffffffffffffffffffffffffffffffffffff1916817bffffffffffffffffffffffffffffffffffffffffffffffffffffffff191614611d29576040517f08c379a0000000000000000000000000000000000000000000000000000000008152600401611d2090612804565b60405180910390fd5b505b505050505050565b600080823b905060008111915050919050565b6000611d59611d54846129ed565b6129c8565b90508083825260208201905082856020860282011115611d7857600080fd5b60005b85811015611da85781611d8e8882611e5c565b845260208401935060208301925050600181019050611d7b565b5050509392505050565b6000611dc5611dc084612a19565b6129c8565b90508083825260208201905082856020860282011115611de457600080fd5b60005b85811015611e145781611dfa8882611f2e565b845260208401935060208301925050600181019050611de7565b5050509392505050565b6000611e31611e2c84612a45565b6129c8565b905082815260208101848484011115611e4957600080fd5b611e54848285612bb1565b509392505050565b600081359050611e6b816131b9565b92915050565b600082601f830112611e8257600080fd5b8135611e92848260208601611d46565b91505092915050565b600082601f830112611eac57600080fd5b8135611ebc848260208601611db2565b91505092915050565b600081359050611ed4816131d0565b92915050565b600081359050611ee9816131e7565b92915050565b600081519050611efe816131e7565b92915050565b600082601f830112611f1557600080fd5b8135611f25848260208601611e1e565b91505092915050565b600081359050611f3d816131fe565b92915050565b60008060408385031215611f5657600080fd5b6000611f6485828601611e5c565b9250506020611f7585828601611e5c565b9150509250929050565b600080600080600060a08688031215611f9757600080fd5b6000611fa588828901611e5c565b9550506020611fb688828901611e5c565b945050604086013567ffffffffffffffff811115611fd357600080fd5b611fdf88828901611e9b565b935050606086013567ffffffffffffffff811115611ffc57600080fd5b61200888828901611e9b565b925050608086013567ffffffffffffffff81111561202557600080fd5b61203188828901611f04565b9150509295509295909350565b600080600080600060a0868803121561205657600080fd5b600061206488828901611e5c565b955050602061207588828901611e5c565b945050604061208688828901611f2e565b935050606061209788828901611f2e565b925050608086013567ffffffffffffffff8111156120b457600080fd5b6120c088828901611f04565b9150509295509295909350565b600080600080608085870312156120e357600080fd5b60006120f187828801611e5c565b945050602085013567ffffffffffffffff81111561210e57600080fd5b61211a87828801611e9b565b935050604085013567ffffffffffffffff81111561213757600080fd5b61214387828801611e9b565b925050606085013567ffffffffffffffff81111561216057600080fd5b61216c87828801611f04565b91505092959194509250565b6000806040838503121561218b57600080fd5b600061219985828601611e5c565b92505060206121aa85828601611ec5565b9150509250929050565b600080604083850312156121c757600080fd5b60006121d585828601611e5c565b92505060206121e685828601611f2e565b9150509250929050565b60008060006060848603121561220557600080fd5b600061221386828701611e5c565b935050602061222486828701611f2e565b925050604061223586828701611f2e565b9150509250925092565b6000806000806080858703121561225557600080fd5b600061226387828801611e5c565b945050602061227487828801611f2e565b935050604061228587828801611f2e565b925050606085013567ffffffffffffffff8111156122a257600080fd5b6122ae87828801611f04565b91505092959194509250565b600080604083850312156122cd57600080fd5b600083013567ffffffffffffffff8111156122e757600080fd5b6122f385828601611e71565b925050602083013567ffffffffffffffff81111561231057600080fd5b61231c85828601611e9b565b9150509250929050565b60006020828403121561233857600080fd5b600061234684828501611eda565b91505092915050565b60006020828403121561236157600080fd5b600061236f84828501611eef565b91505092915050565b60006020828403121561238a57600080fd5b600061239884828501611f2e565b91505092915050565b60006123ad838361266e565b60208301905092915050565b6123c281612b3d565b82525050565b60006123d382612a86565b6123dd8185612ab4565b93506123e883612a76565b8060005b8381101561241957815161240088826123a1565b975061240b83612aa7565b9250506001810190506123ec565b5085935050505092915050565b61242f81612b4f565b82525050565b600061244082612a91565b61244a8185612ac5565b935061245a818560208601612bc0565b61246381612d4e565b840191505092915050565b600061247982612a9c565b6124838185612ad6565b9350612493818560208601612bc0565b61249c81612d4e565b840191505092915050565b60006124b4603483612ad6565b91506124bf82612d6c565b604082019050919050565b60006124d7602883612ad6565b91506124e282612dbb565b604082019050919050565b60006124fa602b83612ad6565b915061250582612e0a565b604082019050919050565b600061251d602483612ad6565b915061252882612e59565b604082019050919050565b6000612540602583612ad6565b915061254b82612ea8565b604082019050919050565b6000612563602383612ad6565b915061256e82612ef7565b604082019050919050565b6000612586602a83612ad6565b915061259182612f46565b604082019050919050565b60006125a9601f83612ad6565b91506125b482612f95565b602082019050919050565b60006125cc601183612ad6565b91506125d782612fbe565b602082019050919050565b60006125ef602983612ad6565b91506125fa82612fe7565b604082019050919050565b6000612612602983612ad6565b915061261d82613036565b604082019050919050565b6000612635602883612ad6565b915061264082613085565b604082019050919050565b6000612658602183612ad6565b9150612663826130d4565b604082019050919050565b61267781612ba7565b82525050565b61268681612ba7565b82525050565b600060a0820190506126a160008301886123b9565b6126ae60208301876123b9565b81810360408301526126c081866123c8565b905081810360608301526126d481856123c8565b905081810360808301526126e88184612435565b90509695505050505050565b600060a08201905061270960008301886123b9565b61271660208301876123b9565b612723604083018661267d565b612730606083018561267d565b81810360808301526127428184612435565b90509695505050505050565b6000602082019050818103600083015261276881846123c8565b905092915050565b6000604082019050818103600083015261278a81856123c8565b9050818103602083015261279e81846123c8565b90509392505050565b60006020820190506127bc6000830184612426565b92915050565b600060208201905081810360008301526127dc818461246e565b905092915050565b600060208201905081810360008301526127fd816124a7565b9050919050565b6000602082019050818103600083015261281d816124ca565b9050919050565b6000602082019050818103600083015261283d816124ed565b9050919050565b6000602082019050818103600083015261285d81612510565b9050919050565b6000602082019050818103600083015261287d81612533565b9050919050565b6000602082019050818103600083015261289d81612556565b9050919050565b600060208201905081810360008301526128bd81612579565b9050919050565b600060208201905081810360008301526128dd8161259c565b9050919050565b600060208201905081810360008301526128fd816125bf565b9050919050565b6000602082019050818103600083015261291d816125e2565b9050919050565b6000602082019050818103600083015261293d81612605565b9050919050565b6000602082019050818103600083015261295d81612628565b9050919050565b6000602082019050818103600083015261297d8161264b565b9050919050565b6000602082019050612999600083018461267d565b92915050565b60006040820190506129b4600083018561267d565b6129c1602083018461267d565b9392505050565b60006129d26129e3565b90506129de8282612c25565b919050565b6000604051905090565b600067ffffffffffffffff821115612a0857612a07612cfd565b5b602082029050602081019050919050565b600067ffffffffffffffff821115612a3457612a33612cfd565b5b602082029050602081019050919050565b600067ffffffffffffffff821115612a6057612a5f612cfd565b5b612a6982612d4e565b9050602081019050919050565b6000819050602082019050919050565b600081519050919050565b600081519050919050565b600081519050919050565b6000602082019050919050565b600082825260208201905092915050565b600082825260208201905092915050565b600082825260208201905092915050565b6000612af282612ba7565b9150612afd83612ba7565b9250827fffffffffffffffffffffffffffffffffffffffffffffffffffffffffffffffff03821115612b3257612b31612c9f565b5b828201905092915050565b6000612b4882612b87565b9050919050565b60008115159050919050565b60007fffffffff0000000000000000000000000000000000000000000000000000000082169050919050565b600073ffffffffffffffffffffffffffffffffffffffff82169050919050565b6000819050919050565b82818337600083830152505050565b60005b83811015612bde578082015181840152602081019050612bc3565b83811115612bed576000848401525b50505050565b60006002820490506001821680612c0b57607f821691505b60208210811415612c1f57612c1e612cce565b5b50919050565b612c2e82612d4e565b810181811067ffffffffffffffff82111715612c4d57612c4c612cfd565b5b80604052505050565b6000612c6182612ba7565b91507fffffffffffffffffffffffffffffffffffffffffffffffffffffffffffffffff821415612c9457612c93612c9f565b5b600182019050919050565b7f4e487b7100000000000000000000000000000000000000000000000000000000600052601160045260246000fd5b7f4e487b7100000000000000000000000000000000000000000000000000000000600052602260045260246000fd5b7f4e487b7100000000000000000000000000000000000000000000000000000000600052604160045260246000fd5b600060033d1115612d4b5760046000803e612d48600051612d5f565b90505b90565b6000601f19601f8301169050919050565b60008160e01c9050919050565b7f455243313135353a207472616e7366657220746f206e6f6e204552433131353560008201527f526563656976657220696d706c656d656e746572000000000000000000000000602082015250565b7f455243313135353a204552433131353552656365697665722072656a6563746560008201527f6420746f6b656e73000000000000000000000000000000000000000000000000602082015250565b7f455243313135353a2062616c616e636520717565727920666f7220746865207a60008201527f65726f2061646472657373000000000000000000000000000000000000000000602082015250565b7f455243313135353a206275726e20616d6f756e7420657863656564732062616c60008201527f616e636500000000000000000000000000000000000000000000000000000000602082015250565b7f455243313135353a207472616e7366657220746f20746865207a65726f20616460008201527f6472657373000000000000000000000000000000000000000000000000000000602082015250565b7f455243313135353a206275726e2066726f6d20746865207a65726f206164647260008201527f6573730000000000000000000000000000000000000000000000000000000000602082015250565b7f455243313135353a20696e73756666696369656e742062616c616e636520666f60008201527f72207472616e7366657200000000000000000000000000000000000000000000602082015250565b7f4f6e6c792064657369676e617465642061646d696e2063616e206d696e742e00600082015250565b7f5472616e736665722064697361626c6564000000000000000000000000000000600082015250565b7f455243313135353a2073657474696e6720617070726f76616c2073746174757360008201527f20666f722073656c660000000000000000000000000000000000000000000000602082015250565b7f455243313135353a206163636f756e747320616e6420696473206c656e67746860008201527f206d69736d617463680000000000000000000000000000000000000000000000602082015250565b7f455243313135353a2069647320616e6420616d6f756e7473206c656e6774682060008201527f6d69736d61746368000000000000000000000000000000000000000000000000602082015250565b7f455243313135353a206d696e7420746f20746865207a65726f2061646472657360008201527f7300000000000000000000000000000000000000000000000000000000000000602082015250565b600060443d1015613133576131b6565b61313b6129e3565b60043d036004823e80513d602482011167ffffffffffffffff821117156131635750506131b6565b808201805167ffffffffffffffff81111561318157505050506131b6565b80602083010160043d03850181111561319e5750505050506131b6565b6131ad82602001850186612c25565b82955050505050505b90565b6131c281612b3d565b81146131cd57600080fd5b50565b6131d981612b4f565b81146131e457600080fd5b50565b6131f081612b5b565b81146131fb57600080fd5b50565b61320781612ba7565b811461321257600080fd5b5056fea26469706673582212202547fa33b86533303da7ef4bd25ddbfb58e10c0cf6872b13ce93d2be323ff13a64736f6c63430008030033",
  "immutableReferences": {},
  "source": "pragma solidity ^0.8.3; \r\n\r\nimport \"@openzeppelin/contracts/token/ERC1155/ERC1155.sol\";\r\n\r\n\r\ncontract dSocialCredits is ERC1155 {\r\n\r\n    address _admin;\r\n\r\n    constructor(address _adm) ERC1155(\"\") {\r\n        _admin = _adm;\r\n    }\r\n\r\n    function safeTransferFrom(\r\n        address from,\r\n        address to,\r\n        uint256 id,\r\n        uint256 amount,\r\n        bytes memory data\r\n    ) public override {\r\n        require(msg.sender == _admin || to == _admin, \"Transfer disabled\");\r\n        _safeTransferFrom(from, to, id, amount, data);\r\n    }\r\n\r\n    function safeBatchTransferFrom(\r\n        address from,\r\n        address to,\r\n        uint256[] memory ids,\r\n        uint256[] memory amounts,\r\n        bytes memory data\r\n    ) public virtual override {\r\n        require(msg.sender == _admin || to == _admin, \"Transfer disabled\");\r\n        _safeBatchTransferFrom(from, to, ids, amounts, data);\r\n    }\r\n\r\n    function burn(\r\n        address account,\r\n        uint256 id,\r\n        uint256 amount\r\n    ) public {\r\n        require(msg.sender == _admin, \"Only designated admin can mint.\");\r\n        _burn(account, id, amount);\r\n    }\r\n\r\n    function mint(\r\n        address account,\r\n        uint256 id,\r\n        uint256 amount,\r\n        bytes memory data\r\n    ) public {\r\n        require(msg.sender == _admin, \"Only designated admin can mint.\");\r\n        _mint(account, id, amount, data);\r\n    }\r\n\r\n\r\n    function mintBatch(\r\n        address to,\r\n        uint256[] memory ids,\r\n        uint256[] memory amounts,\r\n        bytes memory data\r\n    ) public {\r\n        require(msg.sender == _admin, \"Only designated admin can mint.\");\r\n        _mintBatch(to, ids, amounts, data);\r\n    }\r\n\r\n}",
  "sourcePath": "C:\\Users\\Kuan\\Documents\\GitHub\\desilo\\contracts\\dSocialCredits.sol",
  "compiler": {
    "name": "solc",
    "version": "0.8.3+commit.8d00100c.Emscripten.clang"
  },
  "schemaVersion": "3.3.4",
  "updatedAt": "2021-08-09T00:05:30.982Z",
  "devdoc": {
    "kind": "dev",
    "methods": {
      "balanceOf(address,uint256)": {
        "details": "See {IERC1155-balanceOf}. Requirements: - `account` cannot be the zero address."
      },
      "balanceOfBatch(address[],uint256[])": {
        "details": "See {IERC1155-balanceOfBatch}. Requirements: - `accounts` and `ids` must have the same length."
      },
      "isApprovedForAll(address,address)": {
        "details": "See {IERC1155-isApprovedForAll}."
      },
      "safeBatchTransferFrom(address,address,uint256[],uint256[],bytes)": {
        "details": "See {IERC1155-safeBatchTransferFrom}."
      },
      "safeTransferFrom(address,address,uint256,uint256,bytes)": {
        "details": "See {IERC1155-safeTransferFrom}."
      },
      "setApprovalForAll(address,bool)": {
        "details": "See {IERC1155-setApprovalForAll}."
      },
      "supportsInterface(bytes4)": {
        "details": "See {IERC165-supportsInterface}."
      },
      "uri(uint256)": {
        "details": "See {IERC1155MetadataURI-uri}. This implementation returns the same URI for *all* token types. It relies on the token type ID substitution mechanism https://eips.ethereum.org/EIPS/eip-1155#metadata[defined in the EIP]. Clients calling this function must replace the `\\{id\\}` substring with the actual token type ID."
      }
    },
    "version": 1
  },
  "userdoc": {
    "kind": "user",
    "methods": {},
    "version": 1
  }
}