{
  "contractName": "dSocialCredits",
  "abi": [
    {
      "inputs": [
        {
          "internalType": "address",
          "name": "_adm",
          "type": "address"
        },
        {
          "internalType": "address[]",
          "name": "_auth",
          "type": "address[]"
        },
        {
          "internalType": "uint256",
          "name": "_count",
          "type": "uint256"
        }
      ],
      "stateMutability": "nonpayable",
      "type": "constructor"
    },
    {
      "anonymous": false,
      "inputs": [
        {
          "indexed": true,
          "internalType": "address",
          "name": "account",
          "type": "address"
        },
        {
          "indexed": true,
          "internalType": "address",
          "name": "operator",
          "type": "address"
        },
        {
          "indexed": false,
          "internalType": "bool",
          "name": "approved",
          "type": "bool"
        }
      ],
      "name": "ApprovalForAll",
      "type": "event"
    },
    {
      "anonymous": false,
      "inputs": [
        {
          "indexed": true,
          "internalType": "address",
          "name": "operator",
          "type": "address"
        },
        {
          "indexed": true,
          "internalType": "address",
          "name": "from",
          "type": "address"
        },
        {
          "indexed": true,
          "internalType": "address",
          "name": "to",
          "type": "address"
        },
        {
          "indexed": false,
          "internalType": "uint256[]",
          "name": "ids",
          "type": "uint256[]"
        },
        {
          "indexed": false,
          "internalType": "uint256[]",
          "name": "values",
          "type": "uint256[]"
        }
      ],
      "name": "TransferBatch",
      "type": "event"
    },
    {
      "anonymous": false,
      "inputs": [
        {
          "indexed": true,
          "internalType": "address",
          "name": "operator",
          "type": "address"
        },
        {
          "indexed": true,
          "internalType": "address",
          "name": "from",
          "type": "address"
        },
        {
          "indexed": true,
          "internalType": "address",
          "name": "to",
          "type": "address"
        },
        {
          "indexed": false,
          "internalType": "uint256",
          "name": "id",
          "type": "uint256"
        },
        {
          "indexed": false,
          "internalType": "uint256",
          "name": "value",
          "type": "uint256"
        }
      ],
      "name": "TransferSingle",
      "type": "event"
    },
    {
      "anonymous": false,
      "inputs": [
        {
          "indexed": false,
          "internalType": "string",
          "name": "value",
          "type": "string"
        },
        {
          "indexed": true,
          "internalType": "uint256",
          "name": "id",
          "type": "uint256"
        }
      ],
      "name": "URI",
      "type": "event"
    },
    {
      "inputs": [
        {
          "internalType": "address",
          "name": "account",
          "type": "address"
        },
        {
          "internalType": "uint256",
          "name": "id",
          "type": "uint256"
        }
      ],
      "name": "balanceOf",
      "outputs": [
        {
          "internalType": "uint256",
          "name": "",
          "type": "uint256"
        }
      ],
      "stateMutability": "view",
      "type": "function",
      "constant": true
    },
    {
      "inputs": [
        {
          "internalType": "address[]",
          "name": "accounts",
          "type": "address[]"
        },
        {
          "internalType": "uint256[]",
          "name": "ids",
          "type": "uint256[]"
        }
      ],
      "name": "balanceOfBatch",
      "outputs": [
        {
          "internalType": "uint256[]",
          "name": "",
          "type": "uint256[]"
        }
      ],
      "stateMutability": "view",
      "type": "function",
      "constant": true
    },
    {
      "inputs": [
        {
          "internalType": "address",
          "name": "account",
          "type": "address"
        },
        {
          "internalType": "address",
          "name": "operator",
          "type": "address"
        }
      ],
      "name": "isApprovedForAll",
      "outputs": [
        {
          "internalType": "bool",
          "name": "",
          "type": "bool"
        }
      ],
      "stateMutability": "view",
      "type": "function",
      "constant": true
    },
    {
      "inputs": [
        {
          "internalType": "address",
          "name": "operator",
          "type": "address"
        },
        {
          "internalType": "bool",
          "name": "approved",
          "type": "bool"
        }
      ],
      "name": "setApprovalForAll",
      "outputs": [],
      "stateMutability": "nonpayable",
      "type": "function"
    },
    {
      "inputs": [
        {
          "internalType": "bytes4",
          "name": "interfaceId",
          "type": "bytes4"
        }
      ],
      "name": "supportsInterface",
      "outputs": [
        {
          "internalType": "bool",
          "name": "",
          "type": "bool"
        }
      ],
      "stateMutability": "view",
      "type": "function",
      "constant": true
    },
    {
      "inputs": [
        {
          "internalType": "uint256",
          "name": "",
          "type": "uint256"
        }
      ],
      "name": "uri",
      "outputs": [
        {
          "internalType": "string",
          "name": "",
          "type": "string"
        }
      ],
      "stateMutability": "view",
      "type": "function",
      "constant": true
    },
    {
      "inputs": [
        {
          "internalType": "address",
          "name": "from",
          "type": "address"
        },
        {
          "internalType": "address",
          "name": "to",
          "type": "address"
        },
        {
          "internalType": "uint256",
          "name": "id",
          "type": "uint256"
        },
        {
          "internalType": "uint256",
          "name": "amount",
          "type": "uint256"
        },
        {
          "internalType": "bytes",
          "name": "data",
          "type": "bytes"
        }
      ],
      "name": "safeTransferFrom",
      "outputs": [],
      "stateMutability": "nonpayable",
      "type": "function"
    },
    {
      "inputs": [
        {
          "internalType": "address",
          "name": "from",
          "type": "address"
        },
        {
          "internalType": "address",
          "name": "to",
          "type": "address"
        },
        {
          "internalType": "uint256[]",
          "name": "ids",
          "type": "uint256[]"
        },
        {
          "internalType": "uint256[]",
          "name": "amounts",
          "type": "uint256[]"
        },
        {
          "internalType": "bytes",
          "name": "data",
          "type": "bytes"
        }
      ],
      "name": "safeBatchTransferFrom",
      "outputs": [],
      "stateMutability": "nonpayable",
      "type": "function"
    },
    {
      "inputs": [
        {
          "internalType": "address",
          "name": "account",
          "type": "address"
        },
        {
          "internalType": "uint256",
          "name": "id",
          "type": "uint256"
        }
      ],
      "name": "lifetimeBalanceOf",
      "outputs": [
        {
          "internalType": "uint256",
          "name": "",
          "type": "uint256"
        }
      ],
      "stateMutability": "view",
      "type": "function",
      "constant": true
    },
    {
      "inputs": [
        {
          "internalType": "address",
          "name": "account",
          "type": "address"
        },
        {
          "internalType": "uint256",
          "name": "id",
          "type": "uint256"
        },
        {
          "internalType": "uint256",
          "name": "amount",
          "type": "uint256"
        }
      ],
      "name": "burn",
      "outputs": [],
      "stateMutability": "nonpayable",
      "type": "function"
    },
    {
      "inputs": [
        {
          "internalType": "address",
          "name": "account",
          "type": "address"
        },
        {
          "internalType": "uint256",
          "name": "id",
          "type": "uint256"
        },
        {
          "internalType": "uint256",
          "name": "amount",
          "type": "uint256"
        },
        {
          "internalType": "bytes",
          "name": "data",
          "type": "bytes"
        }
      ],
      "name": "mint",
      "outputs": [],
      "stateMutability": "nonpayable",
      "type": "function"
    },
    {
      "inputs": [
        {
          "internalType": "address",
          "name": "to",
          "type": "address"
        },
        {
          "internalType": "uint256[]",
          "name": "ids",
          "type": "uint256[]"
        },
        {
          "internalType": "uint256[]",
          "name": "amounts",
          "type": "uint256[]"
        },
        {
          "internalType": "bytes",
          "name": "data",
          "type": "bytes"
        }
      ],
      "name": "mintBatch",
      "outputs": [],
      "stateMutability": "nonpayable",
      "type": "function"
    }
  ],
  "bytecode": "0x60806040523480156200001157600080fd5b5060405162003ad538038062003ad58339818101604052810190620000379190620002ee565b604051806020016040528060008152506200005881620000c360201b60201c565b5082600360006101000a81548173ffffffffffffffffffffffffffffffffffffffff021916908373ffffffffffffffffffffffffffffffffffffffff1602179055508160049080519060200190620000b2929190620000df565b508060058190555050505062000502565b8060029080519060200190620000db9291906200016e565b5050565b8280548282559060005260206000209081019282156200015b579160200282015b828111156200015a5782518260006101000a81548173ffffffffffffffffffffffffffffffffffffffff021916908373ffffffffffffffffffffffffffffffffffffffff1602179055509160200191906001019062000100565b5b5090506200016a9190620001ff565b5090565b8280546200017c90620003f3565b90600052602060002090601f016020900481019282620001a05760008555620001ec565b82601f10620001bb57805160ff1916838001178555620001ec565b82800160010185558215620001ec579182015b82811115620001eb578251825591602001919060010190620001ce565b5b509050620001fb9190620001ff565b5090565b5b808211156200021a57600081600090555060010162000200565b5090565b6000620002356200022f8462000386565b6200035d565b905080838252602082019050828560208602820111156200025557600080fd5b60005b858110156200028957816200026e888262000293565b84526020840193506020830192505060018101905062000258565b5050509392505050565b600081519050620002a481620004ce565b92915050565b600082601f830112620002bc57600080fd5b8151620002ce8482602086016200021e565b91505092915050565b600081519050620002e881620004e8565b92915050565b6000806000606084860312156200030457600080fd5b6000620003148682870162000293565b935050602084015167ffffffffffffffff8111156200033257600080fd5b6200034086828701620002aa565b92505060406200035386828701620002d7565b9150509250925092565b6000620003696200037c565b905062000377828262000429565b919050565b6000604051905090565b600067ffffffffffffffff821115620003a457620003a36200048e565b5b602082029050602081019050919050565b6000620003c282620003c9565b9050919050565b600073ffffffffffffffffffffffffffffffffffffffff82169050919050565b6000819050919050565b600060028204905060018216806200040c57607f821691505b602082108114156200042357620004226200045f565b5b50919050565b6200043482620004bd565b810181811067ffffffffffffffff821117156200045657620004556200048e565b5b80604052505050565b7f4e487b7100000000000000000000000000000000000000000000000000000000600052602260045260246000fd5b7f4e487b7100000000000000000000000000000000000000000000000000000000600052604160045260246000fd5b6000601f19601f8301169050919050565b620004d981620003b5565b8114620004e557600080fd5b50565b620004f381620003e9565b8114620004ff57600080fd5b50565b6135c380620005126000396000f3fe608060405234801561001057600080fd5b50600436106100b35760003560e01c806371a9daba1161007157806371a9daba146101b0578063731133e9146101e0578063a22cb465146101fc578063e985e9c514610218578063f242432a14610248578063f5298aca14610264576100b3565b8062fdd58e146100b857806301ffc9a7146100e85780630e89341c146101185780631f7fdffa146101485780632eb2c2d6146101645780634e1273f414610180575b600080fd5b6100d260048036038101906100cd919061252c565b610280565b6040516100df9190612cfc565b60405180910390f35b61010260048036038101906100fd919061269e565b610349565b60405161010f9190612b1f565b60405180910390f35b610132600480360381019061012d91906126f0565b61042b565b60405161013f9190612b3a565b60405180910390f35b610162600480360381019061015d9190612445565b6104bf565b005b61017e600480360381019061017991906122f7565b610668565b005b61019a60048036038101906101959190612632565b61081e565b6040516101a79190612ac6565b60405180910390f35b6101ca60048036038101906101c5919061252c565b6109cf565b6040516101d79190612cfc565b60405180910390f35b6101fa60048036038101906101f591906125b7565b610a2a565b005b610216600480360381019061021191906124f0565b610b33565b005b610232600480360381019061022d91906122bb565b610cb4565b60405161023f9190612b1f565b60405180910390f35b610262600480360381019061025d91906123b6565b610d48565b005b61027e60048036038101906102799190612568565b610efe565b005b60008073ffffffffffffffffffffffffffffffffffffffff168373ffffffffffffffffffffffffffffffffffffffff1614156102f1576040517f08c379a00000000000000000000000000000000000000000000000000000000081526004016102e890612b9c565b60405180910390fd5b60008083815260200190815260200160002060008473ffffffffffffffffffffffffffffffffffffffff1673ffffffffffffffffffffffffffffffffffffffff16815260200190815260200160002054905092915050565b60007fd9b67a26000000000000000000000000000000000000000000000000000000007bffffffffffffffffffffffffffffffffffffffffffffffffffffffff1916827bffffffffffffffffffffffffffffffffffffffffffffffffffffffff1916148061041457507f0e89341c000000000000000000000000000000000000000000000000000000007bffffffffffffffffffffffffffffffffffffffffffffffffffffffff1916827bffffffffffffffffffffffffffffffffffffffffffffffffffffffff1916145b80610424575061042382610f9e565b5b9050919050565b60606002805461043a90612f6b565b80601f016020809104026020016040519081016040528092919081815260200182805461046690612f6b565b80156104b35780601f10610488576101008083540402835291602001916104b3565b820191906000526020600020905b81548152906001019060200180831161049657829003601f168201915b50505050509050919050565b600360009054906101000a900473ffffffffffffffffffffffffffffffffffffffff1673ffffffffffffffffffffffffffffffffffffffff163373ffffffffffffffffffffffffffffffffffffffff161461054f576040517f08c379a000000000000000000000000000000000000000000000000000000000815260040161054690612c5c565b60405180910390fd5b60005b835181101561065557828181518110610594577f4e487b7100000000000000000000000000000000000000000000000000000000600052603260045260246000fd5b6020026020010151600660008684815181106105d9577f4e487b7100000000000000000000000000000000000000000000000000000000600052603260045260246000fd5b6020026020010151815260200190815260200160002060008773ffffffffffffffffffffffffffffffffffffffff1673ffffffffffffffffffffffffffffffffffffffff168152602001908152602001600020600082825461063b9190612e5f565b92505081905550808061064d90612fce565b915050610552565b5061066284848484611008565b50505050565b84846000805b6005548110156107c657600481815481106106b2577f4e487b7100000000000000000000000000000000000000000000000000000000600052603260045260246000fd5b9060005260206000200160009054906101000a900473ffffffffffffffffffffffffffffffffffffffff1673ffffffffffffffffffffffffffffffffffffffff168373ffffffffffffffffffffffffffffffffffffffff1614806107a557506004818154811061074b577f4e487b7100000000000000000000000000000000000000000000000000000000600052603260045260246000fd5b9060005260206000200160009054906101000a900473ffffffffffffffffffffffffffffffffffffffff1673ffffffffffffffffffffffffffffffffffffffff168473ffffffffffffffffffffffffffffffffffffffff16145b156107b357600191506107c6565b80806107be90612fce565b91505061066e565b5080610807576040517f08c379a00000000000000000000000000000000000000000000000000000000081526004016107fe90612bfc565b60405180910390fd5b6108148888888888611272565b5050505050505050565b60608151835114610864576040517f08c379a000000000000000000000000000000000000000000000000000000000815260040161085b90612c9c565b60405180910390fd5b6000835167ffffffffffffffff8111156108a7577f4e487b7100000000000000000000000000000000000000000000000000000000600052604160045260246000fd5b6040519080825280602002602001820160405280156108d55781602001602082028036833780820191505090505b50905060005b84518110156109c45761096e858281518110610920577f4e487b7100000000000000000000000000000000000000000000000000000000600052603260045260246000fd5b6020026020010151858381518110610961577f4e487b7100000000000000000000000000000000000000000000000000000000600052603260045260246000fd5b6020026020010151610280565b8282815181106109a7577f4e487b7100000000000000000000000000000000000000000000000000000000600052603260045260246000fd5b602002602001018181525050806109bd90612fce565b90506108db565b508091505092915050565b60006006600083815260200190815260200160002060008473ffffffffffffffffffffffffffffffffffffffff1673ffffffffffffffffffffffffffffffffffffffff16815260200190815260200160002054905092915050565b600360009054906101000a900473ffffffffffffffffffffffffffffffffffffffff1673ffffffffffffffffffffffffffffffffffffffff163373ffffffffffffffffffffffffffffffffffffffff1614610aba576040517f08c379a0000000000000000000000000000000000000000000000000000000008152600401610ab190612c5c565b60405180910390fd5b816006600085815260200190815260200160002060008673ffffffffffffffffffffffffffffffffffffffff1673ffffffffffffffffffffffffffffffffffffffff1681526020019081526020016000206000828254610b1a9190612e5f565b92505081905550610b2d848484846115d2565b50505050565b8173ffffffffffffffffffffffffffffffffffffffff16610b52611768565b73ffffffffffffffffffffffffffffffffffffffff161415610ba9576040517f08c379a0000000000000000000000000000000000000000000000000000000008152600401610ba090612c7c565b60405180910390fd5b8060016000610bb6611768565b73ffffffffffffffffffffffffffffffffffffffff1673ffffffffffffffffffffffffffffffffffffffff16815260200190815260200160002060008473ffffffffffffffffffffffffffffffffffffffff1673ffffffffffffffffffffffffffffffffffffffff16815260200190815260200160002060006101000a81548160ff0219169083151502179055508173ffffffffffffffffffffffffffffffffffffffff16610c63611768565b73ffffffffffffffffffffffffffffffffffffffff167f17307eab39ab6107e8899845ad3d59bd9653f200f220920489ca2b5937696c3183604051610ca89190612b1f565b60405180910390a35050565b6000600160008473ffffffffffffffffffffffffffffffffffffffff1673ffffffffffffffffffffffffffffffffffffffff16815260200190815260200160002060008373ffffffffffffffffffffffffffffffffffffffff1673ffffffffffffffffffffffffffffffffffffffff16815260200190815260200160002060009054906101000a900460ff16905092915050565b84846000805b600554811015610ea65760048181548110610d92577f4e487b7100000000000000000000000000000000000000000000000000000000600052603260045260246000fd5b9060005260206000200160009054906101000a900473ffffffffffffffffffffffffffffffffffffffff1673ffffffffffffffffffffffffffffffffffffffff168373ffffffffffffffffffffffffffffffffffffffff161480610e85575060048181548110610e2b577f4e487b7100000000000000000000000000000000000000000000000000000000600052603260045260246000fd5b9060005260206000200160009054906101000a900473ffffffffffffffffffffffffffffffffffffffff1673ffffffffffffffffffffffffffffffffffffffff168473ffffffffffffffffffffffffffffffffffffffff16145b15610e935760019150610ea6565b8080610e9e90612fce565b915050610d4e565b5080610ee7576040517f08c379a0000000000000000000000000000000000000000000000000000000008152600401610ede90612bfc565b60405180910390fd5b610ef48888888888611770565b5050505050505050565b600360009054906101000a900473ffffffffffffffffffffffffffffffffffffffff1673ffffffffffffffffffffffffffffffffffffffff163373ffffffffffffffffffffffffffffffffffffffff1614610f8e576040517f08c379a0000000000000000000000000000000000000000000000000000000008152600401610f8590612c5c565b60405180910390fd5b610f998383836119f2565b505050565b60007f01ffc9a7000000000000000000000000000000000000000000000000000000007bffffffffffffffffffffffffffffffffffffffffffffffffffffffff1916827bffffffffffffffffffffffffffffffffffffffffffffffffffffffff1916149050919050565b600073ffffffffffffffffffffffffffffffffffffffff168473ffffffffffffffffffffffffffffffffffffffff161415611078576040517f08c379a000000000000000000000000000000000000000000000000000000000815260040161106f90612cdc565b60405180910390fd5b81518351146110bc576040517f08c379a00000000000000000000000000000000000000000000000000000000081526004016110b390612cbc565b60405180910390fd5b60006110c6611768565b90506110d781600087878787611c0f565b60005b84518110156111dc5783818151811061111c577f4e487b7100000000000000000000000000000000000000000000000000000000600052603260045260246000fd5b6020026020010151600080878481518110611160577f4e487b7100000000000000000000000000000000000000000000000000000000600052603260045260246000fd5b6020026020010151815260200190815260200160002060008873ffffffffffffffffffffffffffffffffffffffff1673ffffffffffffffffffffffffffffffffffffffff16815260200190815260200160002060008282546111c29190612e5f565b9250508190555080806111d490612fce565b9150506110da565b508473ffffffffffffffffffffffffffffffffffffffff16600073ffffffffffffffffffffffffffffffffffffffff168273ffffffffffffffffffffffffffffffffffffffff167f4a39dc06d4c0dbc64b70af90fd698a233a518aa5d07e595d983b8c0526c8f7fb8787604051611254929190612ae8565b60405180910390a461126b81600087878787611c17565b5050505050565b81518351146112b6576040517f08c379a00000000000000000000000000000000000000000000000000000000081526004016112ad90612cbc565b60405180910390fd5b600073ffffffffffffffffffffffffffffffffffffffff168473ffffffffffffffffffffffffffffffffffffffff161415611326576040517f08c379a000000000000000000000000000000000000000000000000000000000815260040161131d90612bdc565b60405180910390fd5b6000611330611768565b9050611340818787878787611c0f565b60005b845181101561153d576000858281518110611387577f4e487b7100000000000000000000000000000000000000000000000000000000600052603260045260246000fd5b6020026020010151905060008583815181106113cc577f4e487b7100000000000000000000000000000000000000000000000000000000600052603260045260246000fd5b60200260200101519050600080600084815260200190815260200160002060008b73ffffffffffffffffffffffffffffffffffffffff1673ffffffffffffffffffffffffffffffffffffffff1681526020019081526020016000205490508181101561146d576040517f08c379a000000000000000000000000000000000000000000000000000000000815260040161146490612c3c565b60405180910390fd5b81810360008085815260200190815260200160002060008c73ffffffffffffffffffffffffffffffffffffffff1673ffffffffffffffffffffffffffffffffffffffff168152602001908152602001600020819055508160008085815260200190815260200160002060008b73ffffffffffffffffffffffffffffffffffffffff1673ffffffffffffffffffffffffffffffffffffffff16815260200190815260200160002060008282546115229190612e5f565b925050819055505050508061153690612fce565b9050611343565b508473ffffffffffffffffffffffffffffffffffffffff168673ffffffffffffffffffffffffffffffffffffffff168273ffffffffffffffffffffffffffffffffffffffff167f4a39dc06d4c0dbc64b70af90fd698a233a518aa5d07e595d983b8c0526c8f7fb87876040516115b4929190612ae8565b60405180910390a46115ca818787878787611c17565b505050505050565b600073ffffffffffffffffffffffffffffffffffffffff168473ffffffffffffffffffffffffffffffffffffffff161415611642576040517f08c379a000000000000000000000000000000000000000000000000000000000815260040161163990612cdc565b60405180910390fd5b600061164c611768565b905061166d8160008761165e88611dfe565b61166788611dfe565b87611c0f565b8260008086815260200190815260200160002060008773ffffffffffffffffffffffffffffffffffffffff1673ffffffffffffffffffffffffffffffffffffffff16815260200190815260200160002060008282546116cc9190612e5f565b925050819055508473ffffffffffffffffffffffffffffffffffffffff16600073ffffffffffffffffffffffffffffffffffffffff168273ffffffffffffffffffffffffffffffffffffffff167fc3d58168c5ae7397731d063d5bbf3d657854427343f4c083240f7aacaa2d0f62878760405161174a929190612d17565b60405180910390a461176181600087878787611ec4565b5050505050565b600033905090565b600073ffffffffffffffffffffffffffffffffffffffff168473ffffffffffffffffffffffffffffffffffffffff1614156117e0576040517f08c379a00000000000000000000000000000000000000000000000000000000081526004016117d790612bdc565b60405180910390fd5b60006117ea611768565b905061180a8187876117fb88611dfe565b61180488611dfe565b87611c0f565b600080600086815260200190815260200160002060008873ffffffffffffffffffffffffffffffffffffffff1673ffffffffffffffffffffffffffffffffffffffff168152602001908152602001600020549050838110156118a1576040517f08c379a000000000000000000000000000000000000000000000000000000000815260040161189890612c3c565b60405180910390fd5b83810360008087815260200190815260200160002060008973ffffffffffffffffffffffffffffffffffffffff1673ffffffffffffffffffffffffffffffffffffffff168152602001908152602001600020819055508360008087815260200190815260200160002060008873ffffffffffffffffffffffffffffffffffffffff1673ffffffffffffffffffffffffffffffffffffffff16815260200190815260200160002060008282546119569190612e5f565b925050819055508573ffffffffffffffffffffffffffffffffffffffff168773ffffffffffffffffffffffffffffffffffffffff168373ffffffffffffffffffffffffffffffffffffffff167fc3d58168c5ae7397731d063d5bbf3d657854427343f4c083240f7aacaa2d0f6288886040516119d3929190612d17565b60405180910390a46119e9828888888888611ec4565b50505050505050565b600073ffffffffffffffffffffffffffffffffffffffff168373ffffffffffffffffffffffffffffffffffffffff161415611a62576040517f08c379a0000000000000000000000000000000000000000000000000000000008152600401611a5990612c1c565b60405180910390fd5b6000611a6c611768565b9050611a9c81856000611a7e87611dfe565b611a8787611dfe565b60405180602001604052806000815250611c0f565b600080600085815260200190815260200160002060008673ffffffffffffffffffffffffffffffffffffffff1673ffffffffffffffffffffffffffffffffffffffff16815260200190815260200160002054905082811015611b33576040517f08c379a0000000000000000000000000000000000000000000000000000000008152600401611b2a90612bbc565b60405180910390fd5b82810360008086815260200190815260200160002060008773ffffffffffffffffffffffffffffffffffffffff1673ffffffffffffffffffffffffffffffffffffffff16815260200190815260200160002081905550600073ffffffffffffffffffffffffffffffffffffffff168573ffffffffffffffffffffffffffffffffffffffff168373ffffffffffffffffffffffffffffffffffffffff167fc3d58168c5ae7397731d063d5bbf3d657854427343f4c083240f7aacaa2d0f628787604051611c00929190612d17565b60405180910390a45050505050565b505050505050565b611c368473ffffffffffffffffffffffffffffffffffffffff166120ab565b15611df6578373ffffffffffffffffffffffffffffffffffffffff1663bc197c8187878686866040518663ffffffff1660e01b8152600401611c7c959493929190612a04565b602060405180830381600087803b158015611c9657600080fd5b505af1925050508015611cc757506040513d601f19601f82011682018060405250810190611cc491906126c7565b60015b611d6d57611cd36130a4565b806308c379a01415611d305750611ce861349b565b80611cf35750611d32565b806040517f08c379a0000000000000000000000000000000000000000000000000000000008152600401611d279190612b3a565b60405180910390fd5b505b6040517f08c379a0000000000000000000000000000000000000000000000000000000008152600401611d6490612b5c565b60405180910390fd5b63bc197c8160e01b7bffffffffffffffffffffffffffffffffffffffffffffffffffffffff1916817bffffffffffffffffffffffffffffffffffffffffffffffffffffffff191614611df4576040517f08c379a0000000000000000000000000000000000000000000000000000000008152600401611deb90612b7c565b60405180910390fd5b505b505050505050565b60606000600167ffffffffffffffff811115611e43577f4e487b7100000000000000000000000000000000000000000000000000000000600052604160045260246000fd5b604051908082528060200260200182016040528015611e715781602001602082028036833780820191505090505b5090508281600081518110611eaf577f4e487b7100000000000000000000000000000000000000000000000000000000600052603260045260246000fd5b60200260200101818152505080915050919050565b611ee38473ffffffffffffffffffffffffffffffffffffffff166120ab565b156120a3578373ffffffffffffffffffffffffffffffffffffffff1663f23a6e6187878686866040518663ffffffff1660e01b8152600401611f29959493929190612a6c565b602060405180830381600087803b158015611f4357600080fd5b505af1925050508015611f7457506040513d601f19601f82011682018060405250810190611f7191906126c7565b60015b61201a57611f806130a4565b806308c379a01415611fdd5750611f9561349b565b80611fa05750611fdf565b806040517f08c379a0000000000000000000000000000000000000000000000000000000008152600401611fd49190612b3a565b60405180910390fd5b505b6040517f08c379a000000000000000000000000000000000000000000000000000000000815260040161201190612b5c565b60405180910390fd5b63f23a6e6160e01b7bffffffffffffffffffffffffffffffffffffffffffffffffffffffff1916817bffffffffffffffffffffffffffffffffffffffffffffffffffffffff1916146120a1576040517f08c379a000000000000000000000000000000000000000000000000000000000815260040161209890612b7c565b60405180910390fd5b505b505050505050565b600080823b905060008111915050919050565b60006120d16120cc84612d65565b612d40565b905080838252602082019050828560208602820111156120f057600080fd5b60005b85811015612120578161210688826121d4565b8452602084019350602083019250506001810190506120f3565b5050509392505050565b600061213d61213884612d91565b612d40565b9050808382526020820190508285602086028201111561215c57600080fd5b60005b8581101561218c578161217288826122a6565b84526020840193506020830192505060018101905061215f565b5050509392505050565b60006121a96121a484612dbd565b612d40565b9050828152602081018484840111156121c157600080fd5b6121cc848285612f29565b509392505050565b6000813590506121e381613531565b92915050565b600082601f8301126121fa57600080fd5b813561220a8482602086016120be565b91505092915050565b600082601f83011261222457600080fd5b813561223484826020860161212a565b91505092915050565b60008135905061224c81613548565b92915050565b6000813590506122618161355f565b92915050565b6000815190506122768161355f565b92915050565b600082601f83011261228d57600080fd5b813561229d848260208601612196565b91505092915050565b6000813590506122b581613576565b92915050565b600080604083850312156122ce57600080fd5b60006122dc858286016121d4565b92505060206122ed858286016121d4565b9150509250929050565b600080600080600060a0868803121561230f57600080fd5b600061231d888289016121d4565b955050602061232e888289016121d4565b945050604086013567ffffffffffffffff81111561234b57600080fd5b61235788828901612213565b935050606086013567ffffffffffffffff81111561237457600080fd5b61238088828901612213565b925050608086013567ffffffffffffffff81111561239d57600080fd5b6123a98882890161227c565b9150509295509295909350565b600080600080600060a086880312156123ce57600080fd5b60006123dc888289016121d4565b95505060206123ed888289016121d4565b94505060406123fe888289016122a6565b935050606061240f888289016122a6565b925050608086013567ffffffffffffffff81111561242c57600080fd5b6124388882890161227c565b9150509295509295909350565b6000806000806080858703121561245b57600080fd5b6000612469878288016121d4565b945050602085013567ffffffffffffffff81111561248657600080fd5b61249287828801612213565b935050604085013567ffffffffffffffff8111156124af57600080fd5b6124bb87828801612213565b925050606085013567ffffffffffffffff8111156124d857600080fd5b6124e48782880161227c565b91505092959194509250565b6000806040838503121561250357600080fd5b6000612511858286016121d4565b92505060206125228582860161223d565b9150509250929050565b6000806040838503121561253f57600080fd5b600061254d858286016121d4565b925050602061255e858286016122a6565b9150509250929050565b60008060006060848603121561257d57600080fd5b600061258b868287016121d4565b935050602061259c868287016122a6565b92505060406125ad868287016122a6565b9150509250925092565b600080600080608085870312156125cd57600080fd5b60006125db878288016121d4565b94505060206125ec878288016122a6565b93505060406125fd878288016122a6565b925050606085013567ffffffffffffffff81111561261a57600080fd5b6126268782880161227c565b91505092959194509250565b6000806040838503121561264557600080fd5b600083013567ffffffffffffffff81111561265f57600080fd5b61266b858286016121e9565b925050602083013567ffffffffffffffff81111561268857600080fd5b61269485828601612213565b9150509250929050565b6000602082840312156126b057600080fd5b60006126be84828501612252565b91505092915050565b6000602082840312156126d957600080fd5b60006126e784828501612267565b91505092915050565b60006020828403121561270257600080fd5b6000612710848285016122a6565b91505092915050565b600061272583836129e6565b60208301905092915050565b61273a81612eb5565b82525050565b600061274b82612dfe565b6127558185612e2c565b935061276083612dee565b8060005b838110156127915781516127788882612719565b975061278383612e1f565b925050600181019050612764565b5085935050505092915050565b6127a781612ec7565b82525050565b60006127b882612e09565b6127c28185612e3d565b93506127d2818560208601612f38565b6127db816130c6565b840191505092915050565b60006127f182612e14565b6127fb8185612e4e565b935061280b818560208601612f38565b612814816130c6565b840191505092915050565b600061282c603483612e4e565b9150612837826130e4565b604082019050919050565b600061284f602883612e4e565b915061285a82613133565b604082019050919050565b6000612872602b83612e4e565b915061287d82613182565b604082019050919050565b6000612895602483612e4e565b91506128a0826131d1565b604082019050919050565b60006128b8602583612e4e565b91506128c382613220565b604082019050919050565b60006128db601f83612e4e565b91506128e68261326f565b602082019050919050565b60006128fe602383612e4e565b915061290982613298565b604082019050919050565b6000612921602a83612e4e565b915061292c826132e7565b604082019050919050565b6000612944601f83612e4e565b915061294f82613336565b602082019050919050565b6000612967602983612e4e565b91506129728261335f565b604082019050919050565b600061298a602983612e4e565b9150612995826133ae565b604082019050919050565b60006129ad602883612e4e565b91506129b8826133fd565b604082019050919050565b60006129d0602183612e4e565b91506129db8261344c565b604082019050919050565b6129ef81612f1f565b82525050565b6129fe81612f1f565b82525050565b600060a082019050612a196000830188612731565b612a266020830187612731565b8181036040830152612a388186612740565b90508181036060830152612a4c8185612740565b90508181036080830152612a6081846127ad565b90509695505050505050565b600060a082019050612a816000830188612731565b612a8e6020830187612731565b612a9b60408301866129f5565b612aa860608301856129f5565b8181036080830152612aba81846127ad565b90509695505050505050565b60006020820190508181036000830152612ae08184612740565b905092915050565b60006040820190508181036000830152612b028185612740565b90508181036020830152612b168184612740565b90509392505050565b6000602082019050612b34600083018461279e565b92915050565b60006020820190508181036000830152612b5481846127e6565b905092915050565b60006020820190508181036000830152612b758161281f565b9050919050565b60006020820190508181036000830152612b9581612842565b9050919050565b60006020820190508181036000830152612bb581612865565b9050919050565b60006020820190508181036000830152612bd581612888565b9050919050565b60006020820190508181036000830152612bf5816128ab565b9050919050565b60006020820190508181036000830152612c15816128ce565b9050919050565b60006020820190508181036000830152612c35816128f1565b9050919050565b60006020820190508181036000830152612c5581612914565b9050919050565b60006020820190508181036000830152612c7581612937565b9050919050565b60006020820190508181036000830152612c958161295a565b9050919050565b60006020820190508181036000830152612cb58161297d565b9050919050565b60006020820190508181036000830152612cd5816129a0565b9050919050565b60006020820190508181036000830152612cf5816129c3565b9050919050565b6000602082019050612d1160008301846129f5565b92915050565b6000604082019050612d2c60008301856129f5565b612d3960208301846129f5565b9392505050565b6000612d4a612d5b565b9050612d568282612f9d565b919050565b6000604051905090565b600067ffffffffffffffff821115612d8057612d7f613075565b5b602082029050602081019050919050565b600067ffffffffffffffff821115612dac57612dab613075565b5b602082029050602081019050919050565b600067ffffffffffffffff821115612dd857612dd7613075565b5b612de1826130c6565b9050602081019050919050565b6000819050602082019050919050565b600081519050919050565b600081519050919050565b600081519050919050565b6000602082019050919050565b600082825260208201905092915050565b600082825260208201905092915050565b600082825260208201905092915050565b6000612e6a82612f1f565b9150612e7583612f1f565b9250827fffffffffffffffffffffffffffffffffffffffffffffffffffffffffffffffff03821115612eaa57612ea9613017565b5b828201905092915050565b6000612ec082612eff565b9050919050565b60008115159050919050565b60007fffffffff0000000000000000000000000000000000000000000000000000000082169050919050565b600073ffffffffffffffffffffffffffffffffffffffff82169050919050565b6000819050919050565b82818337600083830152505050565b60005b83811015612f56578082015181840152602081019050612f3b565b83811115612f65576000848401525b50505050565b60006002820490506001821680612f8357607f821691505b60208210811415612f9757612f96613046565b5b50919050565b612fa6826130c6565b810181811067ffffffffffffffff82111715612fc557612fc4613075565b5b80604052505050565b6000612fd982612f1f565b91507fffffffffffffffffffffffffffffffffffffffffffffffffffffffffffffffff82141561300c5761300b613017565b5b600182019050919050565b7f4e487b7100000000000000000000000000000000000000000000000000000000600052601160045260246000fd5b7f4e487b7100000000000000000000000000000000000000000000000000000000600052602260045260246000fd5b7f4e487b7100000000000000000000000000000000000000000000000000000000600052604160045260246000fd5b600060033d11156130c35760046000803e6130c06000516130d7565b90505b90565b6000601f19601f8301169050919050565b60008160e01c9050919050565b7f455243313135353a207472616e7366657220746f206e6f6e204552433131353560008201527f526563656976657220696d706c656d656e746572000000000000000000000000602082015250565b7f455243313135353a204552433131353552656365697665722072656a6563746560008201527f6420746f6b656e73000000000000000000000000000000000000000000000000602082015250565b7f455243313135353a2062616c616e636520717565727920666f7220746865207a60008201527f65726f2061646472657373000000000000000000000000000000000000000000602082015250565b7f455243313135353a206275726e20616d6f756e7420657863656564732062616c60008201527f616e636500000000000000000000000000000000000000000000000000000000602082015250565b7f455243313135353a207472616e7366657220746f20746865207a65726f20616460008201527f6472657373000000000000000000000000000000000000000000000000000000602082015250565b7f496c6c6567616c20736f6369616c20637265646974207472616e736665722e00600082015250565b7f455243313135353a206275726e2066726f6d20746865207a65726f206164647260008201527f6573730000000000000000000000000000000000000000000000000000000000602082015250565b7f455243313135353a20696e73756666696369656e742062616c616e636520666f60008201527f72207472616e7366657200000000000000000000000000000000000000000000602082015250565b7f4f6e6c792064657369676e617465642061646d696e2063616e206d696e742e00600082015250565b7f455243313135353a2073657474696e6720617070726f76616c2073746174757360008201527f20666f722073656c660000000000000000000000000000000000000000000000602082015250565b7f455243313135353a206163636f756e747320616e6420696473206c656e67746860008201527f206d69736d617463680000000000000000000000000000000000000000000000602082015250565b7f455243313135353a2069647320616e6420616d6f756e7473206c656e6774682060008201527f6d69736d61746368000000000000000000000000000000000000000000000000602082015250565b7f455243313135353a206d696e7420746f20746865207a65726f2061646472657360008201527f7300000000000000000000000000000000000000000000000000000000000000602082015250565b600060443d10156134ab5761352e565b6134b3612d5b565b60043d036004823e80513d602482011167ffffffffffffffff821117156134db57505061352e565b808201805167ffffffffffffffff8111156134f9575050505061352e565b80602083010160043d03850181111561351657505050505061352e565b61352582602001850186612f9d565b82955050505050505b90565b61353a81612eb5565b811461354557600080fd5b50565b61355181612ec7565b811461355c57600080fd5b50565b61356881612ed3565b811461357357600080fd5b50565b61357f81612f1f565b811461358a57600080fd5b5056fea2646970667358221220e8663a6250d5401dbcbf4df4f0ccbfe4242e0b57082eee0667b6bb2c2de99fd664736f6c63430008030033",
  "immutableReferences": {},
  "source": "pragma solidity ^0.8.3;\r\n\r\nimport \"@openzeppelin/contracts/token/ERC1155/ERC1155.sol\";\r\n\r\ncontract dSocialCredits is ERC1155 {\r\n    address _admin;\r\n    address[] _authorizedTransfer;\r\n    uint256 _authTransferCount;\r\n    mapping (uint256 => mapping (address => uint256)) _lifetimeBalances; \r\n\r\n    modifier validTransfer(address from, address to) {\r\n        bool hasValidParty = false;\r\n        for (uint256 i = 0; i < _authTransferCount; i++) {\r\n            if (\r\n                to == _authorizedTransfer[i] || from == _authorizedTransfer[i]\r\n            ) {\r\n                hasValidParty = true;\r\n                break;\r\n            }\r\n        }\r\n        require(hasValidParty, \"Illegal social credit transfer.\");\r\n        _;\r\n    }\r\n\r\n    constructor(\r\n        address _adm,\r\n        address[] memory _auth,\r\n        uint256 _count\r\n    ) ERC1155(\"\") {\r\n        _admin = _adm;\r\n        _authorizedTransfer = _auth;\r\n        _authTransferCount = _count;\r\n    }\r\n\r\n    function safeTransferFrom(\r\n        address from,\r\n        address to,\r\n        uint256 id,\r\n        uint256 amount,\r\n        bytes memory data\r\n    ) public override validTransfer(from, to) {\r\n        _safeTransferFrom(from, to, id, amount, data);\r\n    }\r\n\r\n    function safeBatchTransferFrom(\r\n        address from,\r\n        address to,\r\n        uint256[] memory ids,\r\n        uint256[] memory amounts,\r\n        bytes memory data\r\n    ) public virtual override validTransfer(from, to) {\r\n        _safeBatchTransferFrom(from, to, ids, amounts, data);\r\n    }\r\n\r\n    function lifetimeBalanceOf(address account, uint256 id) external view returns(uint256) {\r\n        return _lifetimeBalances[id][account];\r\n    }\r\n\r\n    function burn(\r\n        address account,\r\n        uint256 id,\r\n        uint256 amount\r\n    ) public {\r\n        require(msg.sender == _admin, \"Only designated admin can mint.\");\r\n        _burn(account, id, amount);\r\n    }\r\n\r\n    function mint(\r\n        address account,\r\n        uint256 id,\r\n        uint256 amount,\r\n        bytes memory data\r\n    ) public {\r\n        require(msg.sender == _admin, \"Only designated admin can mint.\");\r\n        _lifetimeBalances[id][account] += amount;\r\n        _mint(account, id, amount, data);\r\n    }\r\n\r\n    function mintBatch(\r\n        address to,\r\n        uint256[] memory ids,\r\n        uint256[] memory amounts,\r\n        bytes memory data\r\n    ) public {\r\n        require(msg.sender == _admin, \"Only designated admin can mint.\");\r\n        for (uint i = 0; i < ids.length; i++) {\r\n            _lifetimeBalances[ids[i]][to] += amounts[i];\r\n        }\r\n        _mintBatch(to, ids, amounts, data);\r\n    }\r\n\r\n    \r\n}\r\n",
  "sourcePath": "C:/Users/Kuan/Documents/GitHub/desilo/contracts/dSocialCredits.sol",
  "compiler": {
    "name": "solc",
    "version": "0.8.3+commit.8d00100c.Emscripten.clang"
  },
  "schemaVersion": "3.3.4",
  "updatedAt": "2021-08-15T06:34:51.534Z",
  "networkType": "ethereum",
  "devdoc": {
    "kind": "dev",
    "methods": {
      "balanceOf(address,uint256)": {
        "details": "See {IERC1155-balanceOf}. Requirements: - `account` cannot be the zero address."
      },
      "balanceOfBatch(address[],uint256[])": {
        "details": "See {IERC1155-balanceOfBatch}. Requirements: - `accounts` and `ids` must have the same length."
      },
      "isApprovedForAll(address,address)": {
        "details": "See {IERC1155-isApprovedForAll}."
      },
      "safeBatchTransferFrom(address,address,uint256[],uint256[],bytes)": {
        "details": "See {IERC1155-safeBatchTransferFrom}."
      },
      "safeTransferFrom(address,address,uint256,uint256,bytes)": {
        "details": "See {IERC1155-safeTransferFrom}."
      },
      "setApprovalForAll(address,bool)": {
        "details": "See {IERC1155-setApprovalForAll}."
      },
      "supportsInterface(bytes4)": {
        "details": "See {IERC165-supportsInterface}."
      },
      "uri(uint256)": {
        "details": "See {IERC1155MetadataURI-uri}. This implementation returns the same URI for *all* token types. It relies on the token type ID substitution mechanism https://eips.ethereum.org/EIPS/eip-1155#metadata[defined in the EIP]. Clients calling this function must replace the `\\{id\\}` substring with the actual token type ID."
      }
    },
    "version": 1
  },
  "userdoc": {
    "kind": "user",
    "methods": {},
    "version": 1
  }
}