{
  "contractName": "dSocialCredits",
  "abi": [
    {
      "inputs": [
        {
          "internalType": "address",
          "name": "_adm",
          "type": "address"
        },
        {
          "internalType": "address[]",
          "name": "_auth",
          "type": "address[]"
        },
        {
          "internalType": "uint256",
          "name": "_count",
          "type": "uint256"
        }
      ],
      "stateMutability": "nonpayable",
      "type": "constructor"
    },
    {
      "anonymous": false,
      "inputs": [
        {
          "indexed": true,
          "internalType": "address",
          "name": "account",
          "type": "address"
        },
        {
          "indexed": true,
          "internalType": "address",
          "name": "operator",
          "type": "address"
        },
        {
          "indexed": false,
          "internalType": "bool",
          "name": "approved",
          "type": "bool"
        }
      ],
      "name": "ApprovalForAll",
      "type": "event"
    },
    {
      "anonymous": false,
      "inputs": [
        {
          "indexed": true,
          "internalType": "address",
          "name": "operator",
          "type": "address"
        },
        {
          "indexed": true,
          "internalType": "address",
          "name": "from",
          "type": "address"
        },
        {
          "indexed": true,
          "internalType": "address",
          "name": "to",
          "type": "address"
        },
        {
          "indexed": false,
          "internalType": "uint256[]",
          "name": "ids",
          "type": "uint256[]"
        },
        {
          "indexed": false,
          "internalType": "uint256[]",
          "name": "values",
          "type": "uint256[]"
        }
      ],
      "name": "TransferBatch",
      "type": "event"
    },
    {
      "anonymous": false,
      "inputs": [
        {
          "indexed": true,
          "internalType": "address",
          "name": "operator",
          "type": "address"
        },
        {
          "indexed": true,
          "internalType": "address",
          "name": "from",
          "type": "address"
        },
        {
          "indexed": true,
          "internalType": "address",
          "name": "to",
          "type": "address"
        },
        {
          "indexed": false,
          "internalType": "uint256",
          "name": "id",
          "type": "uint256"
        },
        {
          "indexed": false,
          "internalType": "uint256",
          "name": "value",
          "type": "uint256"
        }
      ],
      "name": "TransferSingle",
      "type": "event"
    },
    {
      "anonymous": false,
      "inputs": [
        {
          "indexed": false,
          "internalType": "string",
          "name": "value",
          "type": "string"
        },
        {
          "indexed": true,
          "internalType": "uint256",
          "name": "id",
          "type": "uint256"
        }
      ],
      "name": "URI",
      "type": "event"
    },
    {
      "inputs": [
        {
          "internalType": "address",
          "name": "account",
          "type": "address"
        },
        {
          "internalType": "uint256",
          "name": "id",
          "type": "uint256"
        }
      ],
      "name": "balanceOf",
      "outputs": [
        {
          "internalType": "uint256",
          "name": "",
          "type": "uint256"
        }
      ],
      "stateMutability": "view",
      "type": "function",
      "constant": true
    },
    {
      "inputs": [
        {
          "internalType": "address[]",
          "name": "accounts",
          "type": "address[]"
        },
        {
          "internalType": "uint256[]",
          "name": "ids",
          "type": "uint256[]"
        }
      ],
      "name": "balanceOfBatch",
      "outputs": [
        {
          "internalType": "uint256[]",
          "name": "",
          "type": "uint256[]"
        }
      ],
      "stateMutability": "view",
      "type": "function",
      "constant": true
    },
    {
      "inputs": [
        {
          "internalType": "address",
          "name": "account",
          "type": "address"
        },
        {
          "internalType": "address",
          "name": "operator",
          "type": "address"
        }
      ],
      "name": "isApprovedForAll",
      "outputs": [
        {
          "internalType": "bool",
          "name": "",
          "type": "bool"
        }
      ],
      "stateMutability": "view",
      "type": "function",
      "constant": true
    },
    {
      "inputs": [
        {
          "internalType": "address",
          "name": "operator",
          "type": "address"
        },
        {
          "internalType": "bool",
          "name": "approved",
          "type": "bool"
        }
      ],
      "name": "setApprovalForAll",
      "outputs": [],
      "stateMutability": "nonpayable",
      "type": "function"
    },
    {
      "inputs": [
        {
          "internalType": "bytes4",
          "name": "interfaceId",
          "type": "bytes4"
        }
      ],
      "name": "supportsInterface",
      "outputs": [
        {
          "internalType": "bool",
          "name": "",
          "type": "bool"
        }
      ],
      "stateMutability": "view",
      "type": "function",
      "constant": true
    },
    {
      "inputs": [
        {
          "internalType": "uint256",
          "name": "",
          "type": "uint256"
        }
      ],
      "name": "uri",
      "outputs": [
        {
          "internalType": "string",
          "name": "",
          "type": "string"
        }
      ],
      "stateMutability": "view",
      "type": "function",
      "constant": true
    },
    {
      "inputs": [
        {
          "internalType": "address",
          "name": "from",
          "type": "address"
        },
        {
          "internalType": "address",
          "name": "to",
          "type": "address"
        },
        {
          "internalType": "uint256",
          "name": "id",
          "type": "uint256"
        },
        {
          "internalType": "uint256",
          "name": "amount",
          "type": "uint256"
        },
        {
          "internalType": "bytes",
          "name": "data",
          "type": "bytes"
        }
      ],
      "name": "safeTransferFrom",
      "outputs": [],
      "stateMutability": "nonpayable",
      "type": "function"
    },
    {
      "inputs": [
        {
          "internalType": "address",
          "name": "from",
          "type": "address"
        },
        {
          "internalType": "address",
          "name": "to",
          "type": "address"
        },
        {
          "internalType": "uint256[]",
          "name": "ids",
          "type": "uint256[]"
        },
        {
          "internalType": "uint256[]",
          "name": "amounts",
          "type": "uint256[]"
        },
        {
          "internalType": "bytes",
          "name": "data",
          "type": "bytes"
        }
      ],
      "name": "safeBatchTransferFrom",
      "outputs": [],
      "stateMutability": "nonpayable",
      "type": "function"
    },
    {
      "inputs": [
        {
          "internalType": "address",
          "name": "account",
          "type": "address"
        },
        {
          "internalType": "uint256",
          "name": "id",
          "type": "uint256"
        },
        {
          "internalType": "uint256",
          "name": "amount",
          "type": "uint256"
        }
      ],
      "name": "burn",
      "outputs": [],
      "stateMutability": "nonpayable",
      "type": "function"
    },
    {
      "inputs": [
        {
          "internalType": "address",
          "name": "account",
          "type": "address"
        },
        {
          "internalType": "uint256",
          "name": "id",
          "type": "uint256"
        },
        {
          "internalType": "uint256",
          "name": "amount",
          "type": "uint256"
        },
        {
          "internalType": "bytes",
          "name": "data",
          "type": "bytes"
        }
      ],
      "name": "mint",
      "outputs": [],
      "stateMutability": "nonpayable",
      "type": "function"
    },
    {
      "inputs": [
        {
          "internalType": "address",
          "name": "to",
          "type": "address"
        },
        {
          "internalType": "uint256[]",
          "name": "ids",
          "type": "uint256[]"
        },
        {
          "internalType": "uint256[]",
          "name": "amounts",
          "type": "uint256[]"
        },
        {
          "internalType": "bytes",
          "name": "data",
          "type": "bytes"
        }
      ],
      "name": "mintBatch",
      "outputs": [],
      "stateMutability": "nonpayable",
      "type": "function"
    }
  ],
  "bytecode": "0x60806040523480156200001157600080fd5b50604051620038d1380380620038d18339818101604052810190620000379190620002ee565b604051806020016040528060008152506200005881620000c360201b60201c565b5082600360006101000a81548173ffffffffffffffffffffffffffffffffffffffff021916908373ffffffffffffffffffffffffffffffffffffffff1602179055508160049080519060200190620000b2929190620000df565b508060058190555050505062000502565b8060029080519060200190620000db9291906200016e565b5050565b8280548282559060005260206000209081019282156200015b579160200282015b828111156200015a5782518260006101000a81548173ffffffffffffffffffffffffffffffffffffffff021916908373ffffffffffffffffffffffffffffffffffffffff1602179055509160200191906001019062000100565b5b5090506200016a9190620001ff565b5090565b8280546200017c90620003f3565b90600052602060002090601f016020900481019282620001a05760008555620001ec565b82601f10620001bb57805160ff1916838001178555620001ec565b82800160010185558215620001ec579182015b82811115620001eb578251825591602001919060010190620001ce565b5b509050620001fb9190620001ff565b5090565b5b808211156200021a57600081600090555060010162000200565b5090565b6000620002356200022f8462000386565b6200035d565b905080838252602082019050828560208602820111156200025557600080fd5b60005b858110156200028957816200026e888262000293565b84526020840193506020830192505060018101905062000258565b5050509392505050565b600081519050620002a481620004ce565b92915050565b600082601f830112620002bc57600080fd5b8151620002ce8482602086016200021e565b91505092915050565b600081519050620002e881620004e8565b92915050565b6000806000606084860312156200030457600080fd5b6000620003148682870162000293565b935050602084015167ffffffffffffffff8111156200033257600080fd5b6200034086828701620002aa565b92505060406200035386828701620002d7565b9150509250925092565b6000620003696200037c565b905062000377828262000429565b919050565b6000604051905090565b600067ffffffffffffffff821115620003a457620003a36200048e565b5b602082029050602081019050919050565b6000620003c282620003c9565b9050919050565b600073ffffffffffffffffffffffffffffffffffffffff82169050919050565b6000819050919050565b600060028204905060018216806200040c57607f821691505b602082108114156200042357620004226200045f565b5b50919050565b6200043482620004bd565b810181811067ffffffffffffffff821117156200045657620004556200048e565b5b80604052505050565b7f4e487b7100000000000000000000000000000000000000000000000000000000600052602260045260246000fd5b7f4e487b7100000000000000000000000000000000000000000000000000000000600052604160045260246000fd5b6000601f19601f8301169050919050565b620004d981620003b5565b8114620004e557600080fd5b50565b620004f381620003e9565b8114620004ff57600080fd5b50565b6133bf80620005126000396000f3fe608060405234801561001057600080fd5b50600436106100a85760003560e01c80634e1273f4116100715780634e1273f414610175578063731133e9146101a5578063a22cb465146101c1578063e985e9c5146101dd578063f242432a1461020d578063f5298aca14610229576100a8565b8062fdd58e146100ad57806301ffc9a7146100dd5780630e89341c1461010d5780631f7fdffa1461013d5780632eb2c2d614610159575b600080fd5b6100c760048036038101906100c29190612328565b610245565b6040516100d49190612af8565b60405180910390f35b6100f760048036038101906100f2919061249a565b61030e565b604051610104919061291b565b60405180910390f35b610127600480360381019061012291906124ec565b6103f0565b6040516101349190612936565b60405180910390f35b61015760048036038101906101529190612241565b610484565b005b610173600480360381019061016e91906120f3565b610526565b005b61018f600480360381019061018a919061242e565b6106dc565b60405161019c91906128c2565b60405180910390f35b6101bf60048036038101906101ba91906123b3565b61088d565b005b6101db60048036038101906101d691906122ec565b61092f565b005b6101f760048036038101906101f291906120b7565b610ab0565b604051610204919061291b565b60405180910390f35b610227600480360381019061022291906121b2565b610b44565b005b610243600480360381019061023e9190612364565b610cfa565b005b60008073ffffffffffffffffffffffffffffffffffffffff168373ffffffffffffffffffffffffffffffffffffffff1614156102b6576040517f08c379a00000000000000000000000000000000000000000000000000000000081526004016102ad90612998565b60405180910390fd5b60008083815260200190815260200160002060008473ffffffffffffffffffffffffffffffffffffffff1673ffffffffffffffffffffffffffffffffffffffff16815260200190815260200160002054905092915050565b60007fd9b67a26000000000000000000000000000000000000000000000000000000007bffffffffffffffffffffffffffffffffffffffffffffffffffffffff1916827bffffffffffffffffffffffffffffffffffffffffffffffffffffffff191614806103d957507f0e89341c000000000000000000000000000000000000000000000000000000007bffffffffffffffffffffffffffffffffffffffffffffffffffffffff1916827bffffffffffffffffffffffffffffffffffffffffffffffffffffffff1916145b806103e957506103e882610d9a565b5b9050919050565b6060600280546103ff90612d67565b80601f016020809104026020016040519081016040528092919081815260200182805461042b90612d67565b80156104785780601f1061044d57610100808354040283529160200191610478565b820191906000526020600020905b81548152906001019060200180831161045b57829003601f168201915b50505050509050919050565b600360009054906101000a900473ffffffffffffffffffffffffffffffffffffffff1673ffffffffffffffffffffffffffffffffffffffff163373ffffffffffffffffffffffffffffffffffffffff1614610514576040517f08c379a000000000000000000000000000000000000000000000000000000000815260040161050b90612a58565b60405180910390fd5b61052084848484610e04565b50505050565b84846000805b6005548110156106845760048181548110610570577f4e487b7100000000000000000000000000000000000000000000000000000000600052603260045260246000fd5b9060005260206000200160009054906101000a900473ffffffffffffffffffffffffffffffffffffffff1673ffffffffffffffffffffffffffffffffffffffff168373ffffffffffffffffffffffffffffffffffffffff161480610663575060048181548110610609577f4e487b7100000000000000000000000000000000000000000000000000000000600052603260045260246000fd5b9060005260206000200160009054906101000a900473ffffffffffffffffffffffffffffffffffffffff1673ffffffffffffffffffffffffffffffffffffffff168473ffffffffffffffffffffffffffffffffffffffff16145b156106715760019150610684565b808061067c90612dca565b91505061052c565b50806106c5576040517f08c379a00000000000000000000000000000000000000000000000000000000081526004016106bc906129f8565b60405180910390fd5b6106d2888888888861106e565b5050505050505050565b60608151835114610722576040517f08c379a000000000000000000000000000000000000000000000000000000000815260040161071990612a98565b60405180910390fd5b6000835167ffffffffffffffff811115610765577f4e487b7100000000000000000000000000000000000000000000000000000000600052604160045260246000fd5b6040519080825280602002602001820160405280156107935781602001602082028036833780820191505090505b50905060005b84518110156108825761082c8582815181106107de577f4e487b7100000000000000000000000000000000000000000000000000000000600052603260045260246000fd5b602002602001015185838151811061081f577f4e487b7100000000000000000000000000000000000000000000000000000000600052603260045260246000fd5b6020026020010151610245565b828281518110610865577f4e487b7100000000000000000000000000000000000000000000000000000000600052603260045260246000fd5b6020026020010181815250508061087b90612dca565b9050610799565b508091505092915050565b600360009054906101000a900473ffffffffffffffffffffffffffffffffffffffff1673ffffffffffffffffffffffffffffffffffffffff163373ffffffffffffffffffffffffffffffffffffffff161461091d576040517f08c379a000000000000000000000000000000000000000000000000000000000815260040161091490612a58565b60405180910390fd5b610929848484846113ce565b50505050565b8173ffffffffffffffffffffffffffffffffffffffff1661094e611564565b73ffffffffffffffffffffffffffffffffffffffff1614156109a5576040517f08c379a000000000000000000000000000000000000000000000000000000000815260040161099c90612a78565b60405180910390fd5b80600160006109b2611564565b73ffffffffffffffffffffffffffffffffffffffff1673ffffffffffffffffffffffffffffffffffffffff16815260200190815260200160002060008473ffffffffffffffffffffffffffffffffffffffff1673ffffffffffffffffffffffffffffffffffffffff16815260200190815260200160002060006101000a81548160ff0219169083151502179055508173ffffffffffffffffffffffffffffffffffffffff16610a5f611564565b73ffffffffffffffffffffffffffffffffffffffff167f17307eab39ab6107e8899845ad3d59bd9653f200f220920489ca2b5937696c3183604051610aa4919061291b565b60405180910390a35050565b6000600160008473ffffffffffffffffffffffffffffffffffffffff1673ffffffffffffffffffffffffffffffffffffffff16815260200190815260200160002060008373ffffffffffffffffffffffffffffffffffffffff1673ffffffffffffffffffffffffffffffffffffffff16815260200190815260200160002060009054906101000a900460ff16905092915050565b84846000805b600554811015610ca25760048181548110610b8e577f4e487b7100000000000000000000000000000000000000000000000000000000600052603260045260246000fd5b9060005260206000200160009054906101000a900473ffffffffffffffffffffffffffffffffffffffff1673ffffffffffffffffffffffffffffffffffffffff168373ffffffffffffffffffffffffffffffffffffffff161480610c81575060048181548110610c27577f4e487b7100000000000000000000000000000000000000000000000000000000600052603260045260246000fd5b9060005260206000200160009054906101000a900473ffffffffffffffffffffffffffffffffffffffff1673ffffffffffffffffffffffffffffffffffffffff168473ffffffffffffffffffffffffffffffffffffffff16145b15610c8f5760019150610ca2565b8080610c9a90612dca565b915050610b4a565b5080610ce3576040517f08c379a0000000000000000000000000000000000000000000000000000000008152600401610cda906129f8565b60405180910390fd5b610cf0888888888861156c565b5050505050505050565b600360009054906101000a900473ffffffffffffffffffffffffffffffffffffffff1673ffffffffffffffffffffffffffffffffffffffff163373ffffffffffffffffffffffffffffffffffffffff1614610d8a576040517f08c379a0000000000000000000000000000000000000000000000000000000008152600401610d8190612a58565b60405180910390fd5b610d958383836117ee565b505050565b60007f01ffc9a7000000000000000000000000000000000000000000000000000000007bffffffffffffffffffffffffffffffffffffffffffffffffffffffff1916827bffffffffffffffffffffffffffffffffffffffffffffffffffffffff1916149050919050565b600073ffffffffffffffffffffffffffffffffffffffff168473ffffffffffffffffffffffffffffffffffffffff161415610e74576040517f08c379a0000000000000000000000000000000000000000000000000000000008152600401610e6b90612ad8565b60405180910390fd5b8151835114610eb8576040517f08c379a0000000000000000000000000000000000000000000000000000000008152600401610eaf90612ab8565b60405180910390fd5b6000610ec2611564565b9050610ed381600087878787611a0b565b60005b8451811015610fd857838181518110610f18577f4e487b7100000000000000000000000000000000000000000000000000000000600052603260045260246000fd5b6020026020010151600080878481518110610f5c577f4e487b7100000000000000000000000000000000000000000000000000000000600052603260045260246000fd5b6020026020010151815260200190815260200160002060008873ffffffffffffffffffffffffffffffffffffffff1673ffffffffffffffffffffffffffffffffffffffff1681526020019081526020016000206000828254610fbe9190612c5b565b925050819055508080610fd090612dca565b915050610ed6565b508473ffffffffffffffffffffffffffffffffffffffff16600073ffffffffffffffffffffffffffffffffffffffff168273ffffffffffffffffffffffffffffffffffffffff167f4a39dc06d4c0dbc64b70af90fd698a233a518aa5d07e595d983b8c0526c8f7fb87876040516110509291906128e4565b60405180910390a461106781600087878787611a13565b5050505050565b81518351146110b2576040517f08c379a00000000000000000000000000000000000000000000000000000000081526004016110a990612ab8565b60405180910390fd5b600073ffffffffffffffffffffffffffffffffffffffff168473ffffffffffffffffffffffffffffffffffffffff161415611122576040517f08c379a0000000000000000000000000000000000000000000000000000000008152600401611119906129d8565b60405180910390fd5b600061112c611564565b905061113c818787878787611a0b565b60005b8451811015611339576000858281518110611183577f4e487b7100000000000000000000000000000000000000000000000000000000600052603260045260246000fd5b6020026020010151905060008583815181106111c8577f4e487b7100000000000000000000000000000000000000000000000000000000600052603260045260246000fd5b60200260200101519050600080600084815260200190815260200160002060008b73ffffffffffffffffffffffffffffffffffffffff1673ffffffffffffffffffffffffffffffffffffffff16815260200190815260200160002054905081811015611269576040517f08c379a000000000000000000000000000000000000000000000000000000000815260040161126090612a38565b60405180910390fd5b81810360008085815260200190815260200160002060008c73ffffffffffffffffffffffffffffffffffffffff1673ffffffffffffffffffffffffffffffffffffffff168152602001908152602001600020819055508160008085815260200190815260200160002060008b73ffffffffffffffffffffffffffffffffffffffff1673ffffffffffffffffffffffffffffffffffffffff168152602001908152602001600020600082825461131e9190612c5b565b925050819055505050508061133290612dca565b905061113f565b508473ffffffffffffffffffffffffffffffffffffffff168673ffffffffffffffffffffffffffffffffffffffff168273ffffffffffffffffffffffffffffffffffffffff167f4a39dc06d4c0dbc64b70af90fd698a233a518aa5d07e595d983b8c0526c8f7fb87876040516113b09291906128e4565b60405180910390a46113c6818787878787611a13565b505050505050565b600073ffffffffffffffffffffffffffffffffffffffff168473ffffffffffffffffffffffffffffffffffffffff16141561143e576040517f08c379a000000000000000000000000000000000000000000000000000000000815260040161143590612ad8565b60405180910390fd5b6000611448611564565b90506114698160008761145a88611bfa565b61146388611bfa565b87611a0b565b8260008086815260200190815260200160002060008773ffffffffffffffffffffffffffffffffffffffff1673ffffffffffffffffffffffffffffffffffffffff16815260200190815260200160002060008282546114c89190612c5b565b925050819055508473ffffffffffffffffffffffffffffffffffffffff16600073ffffffffffffffffffffffffffffffffffffffff168273ffffffffffffffffffffffffffffffffffffffff167fc3d58168c5ae7397731d063d5bbf3d657854427343f4c083240f7aacaa2d0f628787604051611546929190612b13565b60405180910390a461155d81600087878787611cc0565b5050505050565b600033905090565b600073ffffffffffffffffffffffffffffffffffffffff168473ffffffffffffffffffffffffffffffffffffffff1614156115dc576040517f08c379a00000000000000000000000000000000000000000000000000000000081526004016115d3906129d8565b60405180910390fd5b60006115e6611564565b90506116068187876115f788611bfa565b61160088611bfa565b87611a0b565b600080600086815260200190815260200160002060008873ffffffffffffffffffffffffffffffffffffffff1673ffffffffffffffffffffffffffffffffffffffff1681526020019081526020016000205490508381101561169d576040517f08c379a000000000000000000000000000000000000000000000000000000000815260040161169490612a38565b60405180910390fd5b83810360008087815260200190815260200160002060008973ffffffffffffffffffffffffffffffffffffffff1673ffffffffffffffffffffffffffffffffffffffff168152602001908152602001600020819055508360008087815260200190815260200160002060008873ffffffffffffffffffffffffffffffffffffffff1673ffffffffffffffffffffffffffffffffffffffff16815260200190815260200160002060008282546117529190612c5b565b925050819055508573ffffffffffffffffffffffffffffffffffffffff168773ffffffffffffffffffffffffffffffffffffffff168373ffffffffffffffffffffffffffffffffffffffff167fc3d58168c5ae7397731d063d5bbf3d657854427343f4c083240f7aacaa2d0f6288886040516117cf929190612b13565b60405180910390a46117e5828888888888611cc0565b50505050505050565b600073ffffffffffffffffffffffffffffffffffffffff168373ffffffffffffffffffffffffffffffffffffffff16141561185e576040517f08c379a000000000000000000000000000000000000000000000000000000000815260040161185590612a18565b60405180910390fd5b6000611868611564565b90506118988185600061187a87611bfa565b61188387611bfa565b60405180602001604052806000815250611a0b565b600080600085815260200190815260200160002060008673ffffffffffffffffffffffffffffffffffffffff1673ffffffffffffffffffffffffffffffffffffffff1681526020019081526020016000205490508281101561192f576040517f08c379a0000000000000000000000000000000000000000000000000000000008152600401611926906129b8565b60405180910390fd5b82810360008086815260200190815260200160002060008773ffffffffffffffffffffffffffffffffffffffff1673ffffffffffffffffffffffffffffffffffffffff16815260200190815260200160002081905550600073ffffffffffffffffffffffffffffffffffffffff168573ffffffffffffffffffffffffffffffffffffffff168373ffffffffffffffffffffffffffffffffffffffff167fc3d58168c5ae7397731d063d5bbf3d657854427343f4c083240f7aacaa2d0f6287876040516119fc929190612b13565b60405180910390a45050505050565b505050505050565b611a328473ffffffffffffffffffffffffffffffffffffffff16611ea7565b15611bf2578373ffffffffffffffffffffffffffffffffffffffff1663bc197c8187878686866040518663ffffffff1660e01b8152600401611a78959493929190612800565b602060405180830381600087803b158015611a9257600080fd5b505af1925050508015611ac357506040513d601f19601f82011682018060405250810190611ac091906124c3565b60015b611b6957611acf612ea0565b806308c379a01415611b2c5750611ae4613297565b80611aef5750611b2e565b806040517f08c379a0000000000000000000000000000000000000000000000000000000008152600401611b239190612936565b60405180910390fd5b505b6040517f08c379a0000000000000000000000000000000000000000000000000000000008152600401611b6090612958565b60405180910390fd5b63bc197c8160e01b7bffffffffffffffffffffffffffffffffffffffffffffffffffffffff1916817bffffffffffffffffffffffffffffffffffffffffffffffffffffffff191614611bf0576040517f08c379a0000000000000000000000000000000000000000000000000000000008152600401611be790612978565b60405180910390fd5b505b505050505050565b60606000600167ffffffffffffffff811115611c3f577f4e487b7100000000000000000000000000000000000000000000000000000000600052604160045260246000fd5b604051908082528060200260200182016040528015611c6d5781602001602082028036833780820191505090505b5090508281600081518110611cab577f4e487b7100000000000000000000000000000000000000000000000000000000600052603260045260246000fd5b60200260200101818152505080915050919050565b611cdf8473ffffffffffffffffffffffffffffffffffffffff16611ea7565b15611e9f578373ffffffffffffffffffffffffffffffffffffffff1663f23a6e6187878686866040518663ffffffff1660e01b8152600401611d25959493929190612868565b602060405180830381600087803b158015611d3f57600080fd5b505af1925050508015611d7057506040513d601f19601f82011682018060405250810190611d6d91906124c3565b60015b611e1657611d7c612ea0565b806308c379a01415611dd95750611d91613297565b80611d9c5750611ddb565b806040517f08c379a0000000000000000000000000000000000000000000000000000000008152600401611dd09190612936565b60405180910390fd5b505b6040517f08c379a0000000000000000000000000000000000000000000000000000000008152600401611e0d90612958565b60405180910390fd5b63f23a6e6160e01b7bffffffffffffffffffffffffffffffffffffffffffffffffffffffff1916817bffffffffffffffffffffffffffffffffffffffffffffffffffffffff191614611e9d576040517f08c379a0000000000000000000000000000000000000000000000000000000008152600401611e9490612978565b60405180910390fd5b505b505050505050565b600080823b905060008111915050919050565b6000611ecd611ec884612b61565b612b3c565b90508083825260208201905082856020860282011115611eec57600080fd5b60005b85811015611f1c5781611f028882611fd0565b845260208401935060208301925050600181019050611eef565b5050509392505050565b6000611f39611f3484612b8d565b612b3c565b90508083825260208201905082856020860282011115611f5857600080fd5b60005b85811015611f885781611f6e88826120a2565b845260208401935060208301925050600181019050611f5b565b5050509392505050565b6000611fa5611fa084612bb9565b612b3c565b905082815260208101848484011115611fbd57600080fd5b611fc8848285612d25565b509392505050565b600081359050611fdf8161332d565b92915050565b600082601f830112611ff657600080fd5b8135612006848260208601611eba565b91505092915050565b600082601f83011261202057600080fd5b8135612030848260208601611f26565b91505092915050565b60008135905061204881613344565b92915050565b60008135905061205d8161335b565b92915050565b6000815190506120728161335b565b92915050565b600082601f83011261208957600080fd5b8135612099848260208601611f92565b91505092915050565b6000813590506120b181613372565b92915050565b600080604083850312156120ca57600080fd5b60006120d885828601611fd0565b92505060206120e985828601611fd0565b9150509250929050565b600080600080600060a0868803121561210b57600080fd5b600061211988828901611fd0565b955050602061212a88828901611fd0565b945050604086013567ffffffffffffffff81111561214757600080fd5b6121538882890161200f565b935050606086013567ffffffffffffffff81111561217057600080fd5b61217c8882890161200f565b925050608086013567ffffffffffffffff81111561219957600080fd5b6121a588828901612078565b9150509295509295909350565b600080600080600060a086880312156121ca57600080fd5b60006121d888828901611fd0565b95505060206121e988828901611fd0565b94505060406121fa888289016120a2565b935050606061220b888289016120a2565b925050608086013567ffffffffffffffff81111561222857600080fd5b61223488828901612078565b9150509295509295909350565b6000806000806080858703121561225757600080fd5b600061226587828801611fd0565b945050602085013567ffffffffffffffff81111561228257600080fd5b61228e8782880161200f565b935050604085013567ffffffffffffffff8111156122ab57600080fd5b6122b78782880161200f565b925050606085013567ffffffffffffffff8111156122d457600080fd5b6122e087828801612078565b91505092959194509250565b600080604083850312156122ff57600080fd5b600061230d85828601611fd0565b925050602061231e85828601612039565b9150509250929050565b6000806040838503121561233b57600080fd5b600061234985828601611fd0565b925050602061235a858286016120a2565b9150509250929050565b60008060006060848603121561237957600080fd5b600061238786828701611fd0565b9350506020612398868287016120a2565b92505060406123a9868287016120a2565b9150509250925092565b600080600080608085870312156123c957600080fd5b60006123d787828801611fd0565b94505060206123e8878288016120a2565b93505060406123f9878288016120a2565b925050606085013567ffffffffffffffff81111561241657600080fd5b61242287828801612078565b91505092959194509250565b6000806040838503121561244157600080fd5b600083013567ffffffffffffffff81111561245b57600080fd5b61246785828601611fe5565b925050602083013567ffffffffffffffff81111561248457600080fd5b6124908582860161200f565b9150509250929050565b6000602082840312156124ac57600080fd5b60006124ba8482850161204e565b91505092915050565b6000602082840312156124d557600080fd5b60006124e384828501612063565b91505092915050565b6000602082840312156124fe57600080fd5b600061250c848285016120a2565b91505092915050565b600061252183836127e2565b60208301905092915050565b61253681612cb1565b82525050565b600061254782612bfa565b6125518185612c28565b935061255c83612bea565b8060005b8381101561258d5781516125748882612515565b975061257f83612c1b565b925050600181019050612560565b5085935050505092915050565b6125a381612cc3565b82525050565b60006125b482612c05565b6125be8185612c39565b93506125ce818560208601612d34565b6125d781612ec2565b840191505092915050565b60006125ed82612c10565b6125f78185612c4a565b9350612607818560208601612d34565b61261081612ec2565b840191505092915050565b6000612628603483612c4a565b915061263382612ee0565b604082019050919050565b600061264b602883612c4a565b915061265682612f2f565b604082019050919050565b600061266e602b83612c4a565b915061267982612f7e565b604082019050919050565b6000612691602483612c4a565b915061269c82612fcd565b604082019050919050565b60006126b4602583612c4a565b91506126bf8261301c565b604082019050919050565b60006126d7601f83612c4a565b91506126e28261306b565b602082019050919050565b60006126fa602383612c4a565b915061270582613094565b604082019050919050565b600061271d602a83612c4a565b9150612728826130e3565b604082019050919050565b6000612740601f83612c4a565b915061274b82613132565b602082019050919050565b6000612763602983612c4a565b915061276e8261315b565b604082019050919050565b6000612786602983612c4a565b9150612791826131aa565b604082019050919050565b60006127a9602883612c4a565b91506127b4826131f9565b604082019050919050565b60006127cc602183612c4a565b91506127d782613248565b604082019050919050565b6127eb81612d1b565b82525050565b6127fa81612d1b565b82525050565b600060a082019050612815600083018861252d565b612822602083018761252d565b8181036040830152612834818661253c565b90508181036060830152612848818561253c565b9050818103608083015261285c81846125a9565b90509695505050505050565b600060a08201905061287d600083018861252d565b61288a602083018761252d565b61289760408301866127f1565b6128a460608301856127f1565b81810360808301526128b681846125a9565b90509695505050505050565b600060208201905081810360008301526128dc818461253c565b905092915050565b600060408201905081810360008301526128fe818561253c565b90508181036020830152612912818461253c565b90509392505050565b6000602082019050612930600083018461259a565b92915050565b6000602082019050818103600083015261295081846125e2565b905092915050565b600060208201905081810360008301526129718161261b565b9050919050565b600060208201905081810360008301526129918161263e565b9050919050565b600060208201905081810360008301526129b181612661565b9050919050565b600060208201905081810360008301526129d181612684565b9050919050565b600060208201905081810360008301526129f1816126a7565b9050919050565b60006020820190508181036000830152612a11816126ca565b9050919050565b60006020820190508181036000830152612a31816126ed565b9050919050565b60006020820190508181036000830152612a5181612710565b9050919050565b60006020820190508181036000830152612a7181612733565b9050919050565b60006020820190508181036000830152612a9181612756565b9050919050565b60006020820190508181036000830152612ab181612779565b9050919050565b60006020820190508181036000830152612ad18161279c565b9050919050565b60006020820190508181036000830152612af1816127bf565b9050919050565b6000602082019050612b0d60008301846127f1565b92915050565b6000604082019050612b2860008301856127f1565b612b3560208301846127f1565b9392505050565b6000612b46612b57565b9050612b528282612d99565b919050565b6000604051905090565b600067ffffffffffffffff821115612b7c57612b7b612e71565b5b602082029050602081019050919050565b600067ffffffffffffffff821115612ba857612ba7612e71565b5b602082029050602081019050919050565b600067ffffffffffffffff821115612bd457612bd3612e71565b5b612bdd82612ec2565b9050602081019050919050565b6000819050602082019050919050565b600081519050919050565b600081519050919050565b600081519050919050565b6000602082019050919050565b600082825260208201905092915050565b600082825260208201905092915050565b600082825260208201905092915050565b6000612c6682612d1b565b9150612c7183612d1b565b9250827fffffffffffffffffffffffffffffffffffffffffffffffffffffffffffffffff03821115612ca657612ca5612e13565b5b828201905092915050565b6000612cbc82612cfb565b9050919050565b60008115159050919050565b60007fffffffff0000000000000000000000000000000000000000000000000000000082169050919050565b600073ffffffffffffffffffffffffffffffffffffffff82169050919050565b6000819050919050565b82818337600083830152505050565b60005b83811015612d52578082015181840152602081019050612d37565b83811115612d61576000848401525b50505050565b60006002820490506001821680612d7f57607f821691505b60208210811415612d9357612d92612e42565b5b50919050565b612da282612ec2565b810181811067ffffffffffffffff82111715612dc157612dc0612e71565b5b80604052505050565b6000612dd582612d1b565b91507fffffffffffffffffffffffffffffffffffffffffffffffffffffffffffffffff821415612e0857612e07612e13565b5b600182019050919050565b7f4e487b7100000000000000000000000000000000000000000000000000000000600052601160045260246000fd5b7f4e487b7100000000000000000000000000000000000000000000000000000000600052602260045260246000fd5b7f4e487b7100000000000000000000000000000000000000000000000000000000600052604160045260246000fd5b600060033d1115612ebf5760046000803e612ebc600051612ed3565b90505b90565b6000601f19601f8301169050919050565b60008160e01c9050919050565b7f455243313135353a207472616e7366657220746f206e6f6e204552433131353560008201527f526563656976657220696d706c656d656e746572000000000000000000000000602082015250565b7f455243313135353a204552433131353552656365697665722072656a6563746560008201527f6420746f6b656e73000000000000000000000000000000000000000000000000602082015250565b7f455243313135353a2062616c616e636520717565727920666f7220746865207a60008201527f65726f2061646472657373000000000000000000000000000000000000000000602082015250565b7f455243313135353a206275726e20616d6f756e7420657863656564732062616c60008201527f616e636500000000000000000000000000000000000000000000000000000000602082015250565b7f455243313135353a207472616e7366657220746f20746865207a65726f20616460008201527f6472657373000000000000000000000000000000000000000000000000000000602082015250565b7f496c6c6567616c20736f6369616c20637265646974207472616e736665722e00600082015250565b7f455243313135353a206275726e2066726f6d20746865207a65726f206164647260008201527f6573730000000000000000000000000000000000000000000000000000000000602082015250565b7f455243313135353a20696e73756666696369656e742062616c616e636520666f60008201527f72207472616e7366657200000000000000000000000000000000000000000000602082015250565b7f4f6e6c792064657369676e617465642061646d696e2063616e206d696e742e00600082015250565b7f455243313135353a2073657474696e6720617070726f76616c2073746174757360008201527f20666f722073656c660000000000000000000000000000000000000000000000602082015250565b7f455243313135353a206163636f756e747320616e6420696473206c656e67746860008201527f206d69736d617463680000000000000000000000000000000000000000000000602082015250565b7f455243313135353a2069647320616e6420616d6f756e7473206c656e6774682060008201527f6d69736d61746368000000000000000000000000000000000000000000000000602082015250565b7f455243313135353a206d696e7420746f20746865207a65726f2061646472657360008201527f7300000000000000000000000000000000000000000000000000000000000000602082015250565b600060443d10156132a75761332a565b6132af612b57565b60043d036004823e80513d602482011167ffffffffffffffff821117156132d757505061332a565b808201805167ffffffffffffffff8111156132f5575050505061332a565b80602083010160043d03850181111561331257505050505061332a565b61332182602001850186612d99565b82955050505050505b90565b61333681612cb1565b811461334157600080fd5b50565b61334d81612cc3565b811461335857600080fd5b50565b61336481612ccf565b811461336f57600080fd5b50565b61337b81612d1b565b811461338657600080fd5b5056fea26469706673582212200713f2b8e5ff241aff5d81fd71793e480e01fab14f6ed8c542f9cb51cc59569164736f6c63430008030033",
  "immutableReferences": {},
  "source": "pragma solidity ^0.8.3;\r\n\r\nimport \"@openzeppelin/contracts/token/ERC1155/ERC1155.sol\";\r\n\r\ncontract dSocialCredits is ERC1155 {\r\n    address _admin;\r\n    address[] _authorizedTransfer;\r\n    uint256 _authTransferCount;\r\n\r\n    modifier validTransfer(address from, address to) {\r\n        bool hasValidParty = false;\r\n        for (uint256 i = 0; i < _authTransferCount; i++) {\r\n            if (\r\n                to == _authorizedTransfer[i] || from == _authorizedTransfer[i]\r\n            ) {\r\n                hasValidParty = true;\r\n                break;\r\n            }\r\n        }\r\n        require(hasValidParty, \"Illegal social credit transfer.\");\r\n        _;\r\n    }\r\n\r\n    constructor(\r\n        address _adm,\r\n        address[] memory _auth,\r\n        uint256 _count\r\n    ) ERC1155(\"\") {\r\n        _admin = _adm;\r\n        _authorizedTransfer = _auth;\r\n        _authTransferCount = _count;\r\n    }\r\n\r\n    function safeTransferFrom(\r\n        address from,\r\n        address to,\r\n        uint256 id,\r\n        uint256 amount,\r\n        bytes memory data\r\n    ) public override validTransfer(from, to) {\r\n        _safeTransferFrom(from, to, id, amount, data);\r\n    }\r\n\r\n    function safeBatchTransferFrom(\r\n        address from,\r\n        address to,\r\n        uint256[] memory ids,\r\n        uint256[] memory amounts,\r\n        bytes memory data\r\n    ) public virtual override validTransfer(from, to) {\r\n        _safeBatchTransferFrom(from, to, ids, amounts, data);\r\n    }\r\n\r\n    function burn(\r\n        address account,\r\n        uint256 id,\r\n        uint256 amount\r\n    ) public {\r\n        require(msg.sender == _admin, \"Only designated admin can mint.\");\r\n        _burn(account, id, amount);\r\n    }\r\n\r\n    function mint(\r\n        address account,\r\n        uint256 id,\r\n        uint256 amount,\r\n        bytes memory data\r\n    ) public {\r\n        require(msg.sender == _admin, \"Only designated admin can mint.\");\r\n        _mint(account, id, amount, data);\r\n    }\r\n\r\n    function mintBatch(\r\n        address to,\r\n        uint256[] memory ids,\r\n        uint256[] memory amounts,\r\n        bytes memory data\r\n    ) public {\r\n        require(msg.sender == _admin, \"Only designated admin can mint.\");\r\n        _mintBatch(to, ids, amounts, data);\r\n    }\r\n}\r\n",
  "sourcePath": "C:/Users/Kuan/Documents/GitHub/desilo/contracts/dSocialCredits.sol",
  "compiler": {
    "name": "solc",
    "version": "0.8.3+commit.8d00100c.Emscripten.clang"
  },
  "schemaVersion": "3.3.4",
  "updatedAt": "2021-08-13T04:08:33.965Z",
  "networkType": "ethereum",
  "devdoc": {
    "kind": "dev",
    "methods": {
      "balanceOf(address,uint256)": {
        "details": "See {IERC1155-balanceOf}. Requirements: - `account` cannot be the zero address."
      },
      "balanceOfBatch(address[],uint256[])": {
        "details": "See {IERC1155-balanceOfBatch}. Requirements: - `accounts` and `ids` must have the same length."
      },
      "isApprovedForAll(address,address)": {
        "details": "See {IERC1155-isApprovedForAll}."
      },
      "safeBatchTransferFrom(address,address,uint256[],uint256[],bytes)": {
        "details": "See {IERC1155-safeBatchTransferFrom}."
      },
      "safeTransferFrom(address,address,uint256,uint256,bytes)": {
        "details": "See {IERC1155-safeTransferFrom}."
      },
      "setApprovalForAll(address,bool)": {
        "details": "See {IERC1155-setApprovalForAll}."
      },
      "supportsInterface(bytes4)": {
        "details": "See {IERC165-supportsInterface}."
      },
      "uri(uint256)": {
        "details": "See {IERC1155MetadataURI-uri}. This implementation returns the same URI for *all* token types. It relies on the token type ID substitution mechanism https://eips.ethereum.org/EIPS/eip-1155#metadata[defined in the EIP]. Clients calling this function must replace the `\\{id\\}` substring with the actual token type ID."
      }
    },
    "version": 1
  },
  "userdoc": {
    "kind": "user",
    "methods": {},
    "version": 1
  }
}