{
  "contractName": "OpenLabsVerification",
  "abi": [
    {
      "inputs": [],
      "stateMutability": "nonpayable",
      "type": "constructor"
    },
    {
      "anonymous": false,
      "inputs": [
        {
          "indexed": true,
          "internalType": "bytes32",
          "name": "id",
          "type": "bytes32"
        }
      ],
      "name": "ChainlinkCancelled",
      "type": "event"
    },
    {
      "anonymous": false,
      "inputs": [
        {
          "indexed": true,
          "internalType": "bytes32",
          "name": "id",
          "type": "bytes32"
        }
      ],
      "name": "ChainlinkFulfilled",
      "type": "event"
    },
    {
      "anonymous": false,
      "inputs": [
        {
          "indexed": true,
          "internalType": "bytes32",
          "name": "id",
          "type": "bytes32"
        }
      ],
      "name": "ChainlinkRequested",
      "type": "event"
    },
    {
      "inputs": [],
      "name": "requestMatchingControllers",
      "outputs": [
        {
          "internalType": "bytes32",
          "name": "requestId",
          "type": "bytes32"
        }
      ],
      "stateMutability": "nonpayable",
      "type": "function"
    },
    {
      "inputs": [
        {
          "internalType": "bytes32",
          "name": "_requestId",
          "type": "bytes32"
        },
        {
          "internalType": "bool",
          "name": "_response",
          "type": "bool"
        }
      ],
      "name": "fullfillMatchingControllers",
      "outputs": [],
      "stateMutability": "nonpayable",
      "type": "function"
    }
  ],
  "bytecode": "0x608060405260016004553480156200001657600080fd5b5062000027620000a460201b60201c565b7f326262313563336639636663343333366239353031323837326666303530393260088190555033600760006101000a81548173ffffffffffffffffffffffffffffffffffffffff021916908373ffffffffffffffffffffffffffffffffffffffff16021790555067016345785d8a000060098190555062000221565b6200014a73c89bd4e1632d3a43cb03aaad5262cbe4038bc57173ffffffffffffffffffffffffffffffffffffffff166338cc48316040518163ffffffff1660e01b815260040160206040518083038186803b1580156200010357600080fd5b505afa15801562000118573d6000803e3d6000fd5b505050506040513d601f19601f820116820180604052508101906200013e9190620001a7565b6200014c60201b60201c565b565b80600260006101000a81548173ffffffffffffffffffffffffffffffffffffffff021916908373ffffffffffffffffffffffffffffffffffffffff16021790555050565b600081519050620001a18162000207565b92915050565b600060208284031215620001ba57600080fd5b6000620001ca8482850162000190565b91505092915050565b6000620001e082620001e7565b9050919050565b600073ffffffffffffffffffffffffffffffffffffffff82169050919050565b6200021281620001d3565b81146200021e57600080fd5b50565b6112c880620002316000396000f3fe608060405234801561001057600080fd5b50600436106100365760003560e01c80631ab002441461003b578063c95d6e9914610059575b600080fd5b610043610075565b6040516100509190610d2c565b60405180910390f35b610073600480360381019061006e9190610b18565b61011c565b005b60008061008c6008543063c95d6e9960e01b610226565b90506100e76040518060400160405280600381526020017f676574000000000000000000000000000000000000000000000000000000000081525060405180602001604052806000815250836102579092919063ffffffff16565b610116600660009054906101000a900473ffffffffffffffffffffffffffffffffffffffff168260095461028a565b91505090565b816005600082815260200190815260200160002060009054906101000a900473ffffffffffffffffffffffffffffffffffffffff1673ffffffffffffffffffffffffffffffffffffffff163373ffffffffffffffffffffffffffffffffffffffff16146101be576040517f08c379a00000000000000000000000000000000000000000000000000000000081526004016101b590610d67565b60405180910390fd5b6005600082815260200190815260200160002060006101000a81549073ffffffffffffffffffffffffffffffffffffffff0219169055807f7cc135e0cebb02c3480ae5d74d377283180a2601f8f644edf7987b009316c63a60405160405180910390a2505050565b61022e610a29565b610236610a29565b61024d858585846102aa909392919063ffffffff16565b9150509392505050565b61026e82846080015161035a90919063ffffffff16565b61028581846080015161035a90919063ffffffff16565b505050565b60006102a18484846001634042994660e01b61037f565b90509392505050565b6102b2610a29565b6102c285608001516101006105e7565b508385600001818152505082856020019073ffffffffffffffffffffffffffffffffffffffff16908173ffffffffffffffffffffffffffffffffffffffff16815250508185604001907bffffffffffffffffffffffffffffffffffffffffffffffffffffffff191690817bffffffffffffffffffffffffffffffffffffffffffffffffffffffff191681525050849050949350505050565b6103678260038351610651565b61037a818361079690919063ffffffff16565b505050565b600030600454604051602001610396929190610c3d565b604051602081830303815290604052805190602001209050600454856060018181525050856005600083815260200190815260200160002060006101000a81548173ffffffffffffffffffffffffffffffffffffffff021916908373ffffffffffffffffffffffffffffffffffffffff160217905550807fb5e6e01e79f91267dc17b4e6314d5d4d03593d2ceee0fbb452b750bd70ea5af960405160405180910390a2600082600080886000015189602001518a604001518b606001518a8d6080015160000151604051602401610474989796959493929190610c69565b604051602081830303815290604052907bffffffffffffffffffffffffffffffffffffffffffffffffffffffff19166020820180517bffffffffffffffffffffffffffffffffffffffffffffffffffffffff83818316178352505050509050600260009054906101000a900473ffffffffffffffffffffffffffffffffffffffff1673ffffffffffffffffffffffffffffffffffffffff16634000aea08887846040518463ffffffff1660e01b815260040161053293929190610cee565b602060405180830381600087803b15801561054c57600080fd5b505af1158015610560573d6000803e3d6000fd5b505050506040513d601f19601f820116820180604052508101906105849190610aef565b6105c3576040517f08c379a00000000000000000000000000000000000000000000000000000000081526004016105ba90610d47565b60405180910390fd5b6001600460008282546105d69190610db4565b925050819055505095945050505050565b6105ef610a96565b60006020836105fe919061110c565b1461062a57602082610610919061110c565b602061061c9190610fd5565b826106279190610db4565b91505b81836020018181525050604051808452600081528281016020016040525082905092915050565b6017811161067e576106788160058460ff16901b60ff1617846107b890919063ffffffff16565b50610791565b60ff81116106c0576106a3601860058460ff16901b17846107b890919063ffffffff16565b506106ba816001856107d89092919063ffffffff16565b50610790565b61ffff8111610703576106e6601960058460ff16901b17846107b890919063ffffffff16565b506106fd816002856107d89092919063ffffffff16565b5061078f565b63ffffffff81116107485761072b601a60058460ff16901b17846107b890919063ffffffff16565b50610742816004856107d89092919063ffffffff16565b5061078e565b67ffffffffffffffff811161078d57610774601b60058460ff16901b17846107b890919063ffffffff16565b5061078b816008856107d89092919063ffffffff16565b505b5b5b5b5b505050565b61079e610a96565b6107b0838460000151518485516107fa565b905092915050565b6107c0610a96565b6107d08384600001515184610904565b905092915050565b6107e0610a96565b6107f184856000015151858561095b565b90509392505050565b610802610a96565b825182111561081057600080fd5b846020015182856108219190610db4565b111561085657610855856002610846886020015188876108419190610db4565b6109e9565b6108509190610f7b565b610a05565b5b6000808651805187602083010193508088870111156108755787860182525b60208701925050505b602084106108bc57805182526020826108979190610db4565b91506020816108a69190610db4565b90506020846108b59190610fd5565b935061087e565b600060018560206108cd9190610fd5565b6101006108da9190610e5d565b6108e49190610fd5565b905080198251168184511681811785525050879350505050949350505050565b61090c610a96565b8360200151831061093257610931846002866020015161092c9190610f7b565b610a05565b5b835180516020858301018481538186141561094e576001820183525b5050508390509392505050565b610963610a96565b846020015184836109749190610db4565b111561099c5761099b856002868561098c9190610db4565b6109969190610f7b565b610a05565b5b60006001836101006109ae9190610e5d565b6109b89190610fd5565b905085518386820101858319825116178152815185880111156109db5784870182525b505085915050949350505050565b6000818311156109fb578290506109ff565b8190505b92915050565b600082600001519050610a1883836105e7565b50610a238382610796565b50505050565b6040518060a0016040528060008019168152602001600073ffffffffffffffffffffffffffffffffffffffff16815260200160007bffffffffffffffffffffffffffffffffffffffffffffffffffffffff1916815260200160008152602001610a90610a96565b81525090565b604051806040016040528060608152602001600081525090565b600081359050610abf81611264565b92915050565b600081519050610ad481611264565b92915050565b600081359050610ae98161127b565b92915050565b600060208284031215610b0157600080fd5b6000610b0f84828501610ac5565b91505092915050565b60008060408385031215610b2b57600080fd5b6000610b3985828601610ada565b9250506020610b4a85828601610ab0565b9150509250929050565b610b5d81611009565b82525050565b610b6c81611027565b82525050565b610b7b81611031565b82525050565b6000610b8c82610d87565b610b968185610d92565b9350610ba68185602086016110ab565b610baf8161119b565b840191505092915050565b610bcb610bc682611087565b6110de565b82525050565b6000610bde602383610da3565b9150610be9826111c6565b604082019050919050565b6000610c01602883610da3565b9150610c0c82611215565b604082019050919050565b610c208161107d565b82525050565b610c37610c328261107d565b611102565b82525050565b6000610c498285610bba565b601482019150610c598284610c26565b6020820191508190509392505050565b600061010082019050610c7f600083018b610b54565b610c8c602083018a610c17565b610c996040830189610b63565b610ca66060830188610b54565b610cb36080830187610b72565b610cc060a0830186610c17565b610ccd60c0830185610c17565b81810360e0830152610cdf8184610b81565b90509998505050505050505050565b6000606082019050610d036000830186610b54565b610d106020830185610c17565b8181036040830152610d228184610b81565b9050949350505050565b6000602082019050610d416000830184610b63565b92915050565b60006020820190508181036000830152610d6081610bd1565b9050919050565b60006020820190508181036000830152610d8081610bf4565b9050919050565b600081519050919050565b600082825260208201905092915050565b600082825260208201905092915050565b6000610dbf8261107d565b9150610dca8361107d565b9250827fffffffffffffffffffffffffffffffffffffffffffffffffffffffffffffffff03821115610dff57610dfe61113d565b5b828201905092915050565b6000808291508390505b6001851115610e5457808604811115610e3057610e2f61113d565b5b6001851615610e3f5780820291505b8081029050610e4d856111b9565b9450610e14565b94509492505050565b6000610e688261107d565b9150610e738361107d565b9250610ea07fffffffffffffffffffffffffffffffffffffffffffffffffffffffffffffffff8484610ea8565b905092915050565b600082610eb85760019050610f74565b81610ec65760009050610f74565b8160018114610edc5760028114610ee657610f15565b6001915050610f74565b60ff841115610ef857610ef761113d565b5b8360020a915084821115610f0f57610f0e61113d565b5b50610f74565b5060208310610133831016604e8410600b8410161715610f4a5782820a905083811115610f4557610f4461113d565b5b610f74565b610f578484846001610e0a565b92509050818404811115610f6e57610f6d61113d565b5b81810290505b9392505050565b6000610f868261107d565b9150610f918361107d565b9250817fffffffffffffffffffffffffffffffffffffffffffffffffffffffffffffffff0483118215151615610fca57610fc961113d565b5b828202905092915050565b6000610fe08261107d565b9150610feb8361107d565b925082821015610ffe57610ffd61113d565b5b828203905092915050565b60006110148261105d565b9050919050565b60008115159050919050565b6000819050919050565b60007fffffffff0000000000000000000000000000000000000000000000000000000082169050919050565b600073ffffffffffffffffffffffffffffffffffffffff82169050919050565b6000819050919050565b600061109282611099565b9050919050565b60006110a48261105d565b9050919050565b60005b838110156110c95780820151818401526020810190506110ae565b838111156110d8576000848401525b50505050565b60006110e9826110f0565b9050919050565b60006110fb826111ac565b9050919050565b6000819050919050565b60006111178261107d565b91506111228361107d565b9250826111325761113161116c565b5b828206905092915050565b7f4e487b7100000000000000000000000000000000000000000000000000000000600052601160045260246000fd5b7f4e487b7100000000000000000000000000000000000000000000000000000000600052601260045260246000fd5b6000601f19601f8301169050919050565b60008160601b9050919050565b60008160011c9050919050565b7f756e61626c6520746f207472616e73666572416e6443616c6c20746f206f726160008201527f636c650000000000000000000000000000000000000000000000000000000000602082015250565b7f536f75726365206d75737420626520746865206f7261636c65206f662074686560008201527f2072657175657374000000000000000000000000000000000000000000000000602082015250565b61126d8161101b565b811461127857600080fd5b50565b61128481611027565b811461128f57600080fd5b5056fea2646970667358221220cf11573708b1324d834f96ffed5a45ac9da114c718a72b8c1c5a3381c92a748b64736f6c63430008030033",
  "immutableReferences": {},
  "source": "pragma solidity ^0.8.3; \r\n\r\nimport \"@chainlink/contracts/src/v0.8/ChainlinkClient.sol\"; \r\n\r\n\r\ncontract OpenLabsVerification is ChainlinkClient {\r\n    using Chainlink for Chainlink.Request; \r\n\r\n    address private oracle;\r\n    address private owner;\r\n    bytes32 private httpGetJobId; \r\n    uint256 private httpGetJobFee; \r\n\r\n    constructor() {\r\n        setPublicChainlinkToken();\r\n        httpGetJobId = \"2bb15c3f9cfc4336b95012872ff05092\";\r\n        owner = msg.sender;\r\n        httpGetJobFee = 0.1 * 10 ** 18;\r\n    }\r\n\r\n    function requestMatchingControllers() public returns (bytes32 requestId) {\r\n        Chainlink.Request memory request = buildChainlinkRequest(httpGetJobId, address(this), this.fullfillMatchingControllers.selector);\r\n        request.add(\"get\", \"\"); \r\n        return sendChainlinkRequestTo(oracle, request, httpGetJobFee);\r\n    }\r\n\r\n    function fullfillMatchingControllers(bytes32 _requestId, bool _response) public recordChainlinkFulfillment(_requestId) {\r\n\r\n    }\r\n}",
  "sourcePath": "C:/Users/Kuan/Documents/GitHub/desilo/contracts/OpenLabsVerification.sol",
  "compiler": {
    "name": "solc",
    "version": "0.8.3+commit.8d00100c.Emscripten.clang"
  },
  "schemaVersion": "3.3.4",
  "updatedAt": "2021-08-12T22:41:48.985Z",
  "devdoc": {
    "kind": "dev",
    "methods": {},
    "version": 1
  },
  "userdoc": {
    "kind": "user",
    "methods": {},
    "version": 1
  }
}